:100000000C94CA000C94EA120C94C3120C946E2641
:100010000C946E260C946E260C94F2000C94F20054
:100020000C94F2000C94F2000C94F2000C94F20088
:100030000C94F2000C94F2000C94F2000C94F20078
:100040000C943C120C94F2000C9437130C94111382
:100050000C94F2000C94F2000C94F2000C94F20058
:100060000C9412270C94F20031016D019E01D8010D
:100070000D021D022F026E0288029D0348046504D2
:100080008E045405A70988056D0D9B0D350EFB0EDA
:10009000780FBC0F00102910F71DFE1D051E0C1E49
:1000A000131E1A1E211E281E2F1E351EA91E431E9A
:1000B0004A1E511E581EA91EA91E5F1E621E691EE1
:1000C000A91EA91E701E771E7E1E851E8C1E931EE5
:1000D0009A1EA11E9B2DBA2DC12DCE2DD52DDA2D08
:1000E000E32DEF2DF42DF92DDA23DD23E423EE2388
:1000F000F82302240C24162420242A2431243F240B
:1001000036256D2551253D254125452549254D257A
:100110005125552559255D2505A84CCDB2D44EB99C
:100120003836A9020C50B9918688083CA6AAAA2A9A
:10013000BE000000803F00000000240027002A00CD
:1001400000000000250028002B0000000000230014
:100150002600290004040404040404040202020228
:10016000020203030303030301020408102040807A
:1001700001020408102001020408102000000008F9
:10018000000201000003040700000000000000005E
:10019000FF2AE72B11241FBECFEFD8E0DEBFCDBF73
:1001A00012E0A0E0B1E0E0E8F6E602C005900D92B2
:1001B000AE3FB107D9F726E0AEEFB2E001C01D9225
:1001C000A630B207E1F710E0C9ECD0E004C02197F7
:1001D000FE010E941433C83CD107C9F70E9465286C
:1001E0000C9433330C9400008F929F92AF92BF9285
:1001F000CF92DF92EF92FF920F931F93CF93DF93F3
:10020000CDB7DEB72C970FB6F894DEBF0FBECDBFCB
:100210006C0180EB94E00E94EF2183E694E00E9461
:100220004C0C80E594E00E944C0CD6011D968D91FB
:100230009C911E97DC01ED91FC910084F185E02DED
:1002400009951091EA04D6011296ED91FC9113974D
:10025000E031F10510F00C94A709EC5CFF4F0C9411
:100260001433A8950FB6F894A89580916000886122
:1002700080936000109260000FBE64EF71E080E038
:1002800090E00E94E0188091080390910903DC013E
:10029000ED91FC910484F585E02D60911D05099593
:1002A0002091ED048091080390910903DC01ED9108
:1002B000FC910280F381E02D40E050E0222319F010
:1002C0006AE070E002C061E070E0099564E670E009
:1002D00080E090E00E94E018E4C3F60185859685F1
:1002E000DC01ED91FC910680F781E02D63E070E088
:1002F0000995F601138E4BE450E060E070E083E670
:1003000094E00E94310C882319F082E090E04EC7FF
:1003100080916E0490916F04A0917004B09171046B
:100320000097A105B10509F41AC5893B9B4008F067
:1003300007C58091D904811121C511C500911D0502
:1003400010E08EED94E00E94FF1E69837A838B8318
:100350008BE1809F9001819F300D11248901005E07
:100360001A4F225E3A4F60910C0370910D03AE015B
:100370004F5F5F4F80910803909109030E94F90B32
:1003800006E010E080EB94E00E94EF2161E070E075
:1003900080E090E00E94E0180150110999F742E3D3
:1003A00050E060E070E083E694E00E94A40CFCC69C
:1003B000D60116968C918823B1F06EED74E0809191
:1003C0000C0390910D030E94DB0BF6018585968549
:1003D000DC01ED91FC910680F781E02D62E070E098
:1003E0000995F601178E80916E0490916F04A0918B
:1003F0007004B09171040097A105B10509F4FAC425
:100400002091E6043091E7048217930708F4F2C4C0
:10041000883E934008F0F3C5EDC4809108039091A5
:100420000903DC01ED91FC910480F581E02D63E08E
:1004300070E0099585E090E085C480916E0490910C
:100440006F04A0917004B09171040097A105B105EB
:1004500009F4D8C5843C994008F0D1C5D3C5D6016C
:1004600016968C918823E1F00E94B011F6016787FF
:10047000708B818B928B8091080390910903DC0132
:10048000ED91FC910480F581E02D64E070E0099528
:100490006EED74E080910C0390910D030E94BD0BF2
:1004A0000E94B011F6010781108521853285DC019B
:1004B000CB01801B910BA20BB30B85369105A105D7
:1004C000B10508F444C76EED74E080910C0390917F
:1004D0000D030E94DB0B87E090E068C680916E04FC
:1004E00090916F04A0917004B09171040097A105E0
:1004F000B10509F468C62091E6043091E70482173B
:10050000930708F460C6883E934008F078C55BC640
:10051000F6018681882309F475C0809108039091C3
:100520000903DC01ED91FC910280F381E02D40E0B4
:1005300050E066E070E00995F601848D882309F4A7
:10054000BAC000E010E08BE1982E83E694E00E94B0
:100550004C0C80916E0490916F04A0917004B09146
:100560007104892B8A2B8B2B29F45801FFEFAF1ACA
:10057000BF0A02C0A12CB12C61E070E080E090E0E5
:100580000E94E01800911D05909E80011124C80171
:1005900082529B4FFC01EA5AFF4F208130E03A879C
:1005A00029873197808190E098878F838EED94E042
:1005B0000E94E41E6C837D838E838EED94E00E9406
:1005C000FF1E69837A838B8398012B5C3A4F7901F4
:1005D0008E01075F1F4F9E01295F3F4FAE014C5FA9
:1005E0005F4FBE016F5F7F4F80910C0390910D03B1
:1005F0000E94DB0A85010F5F1F4F0A3F11050CF4B3
:10060000A4CF59C0848D8823D9F080916E04909135
:100610006F04A0917004B0917104892B8A2B8B2BED
:1006200009F00EC680915B0490915C04A0915D047A
:10063000B0915E04892B8A2B8B2B09F001C64CC626
:1006400080915B0490915C04A0915D04B0915E0484
:10065000892B8A2B8B2B79F56EED74E080910C033E
:1006600090910D030E94DB0B809108039091090388
:10067000DC01ED91FC910280F381E02D40E050E03F
:1006800069E070E00995F601148E42E350E060E005
:1006900070E080E594E00E94A40C83E090E0D60135
:1006A00013969C938E9312970E94B011F601678364
:1006B000708781879287D60112968D919C911397AE
:1006C000089709F044C600911D05BBE10B9F80010E
:1006D0001124C80182529B4FFC01EA5AFF4F20812E
:1006E00030E03A8729873197808190E098878F831F
:1006F0008EED94E00E94E41E6C837D838E838EEDEC
:1007000094E00E94FF1E69837A838B83F801EB5C7F
:10071000FA4F7F018E01075F1F4F9E01295F3F4FF8
:10072000AE014C5F5F4FBE016F5F7F4F80910C0346
:1007300090910D030E94DB0A0AC6D60116968C9191
:10074000882309F44EC00E94B011F601678B708FA8
:10075000818F928F8091080390910903DC01ED91C4
:10076000FC910480F581E02D65E070E00995E09151
:100770000A03F0910B030190F081E02D04811581B3
:100780008EED94E00E94E41E282F8EED94E02C87DD
:100790000E94E41E472F8EED94E04B870E94E41EDA
:1007A0002C854B8580910A0390910B03F8010995E4
:1007B00080910A0390910B03FC01A081B181E0912B
:1007C0001D052BE1E29FF0011124EC5DFA4F408101
:1007D00051811896ED91FC91199760E070E00995B0
:1007E0004BC00E94B011D60117960D911D912D910D
:1007F0003C911A97AB01BC01401B510B620B730B70
:10080000E0911D051BE11E9FF0011124EC5DFA4FE4
:1008100080819181A0E0B0E0481759076A077B0703
:1008200058F16EED74E080910C0390910D030E94DD
:10083000DB0B8091D804882309F47AC50E94B0119B
:10084000F60187809084A184B284AB01BC01481971
:1008500059096A097B09E0911D051E9FF0011124C9
:10086000EA5DFA4F80819181A0E0B0E04817590716
:100870006A077B0708F05CC58091D904882309F4D6
:1008800066C5D6015B961C925B9786E090E08FC4AC
:1008900040911D05FBE14F9FA00111244E5D5A4F71
:1008A00060910C0370910D038091080390910903EE
:1008B0000E949B0B42E350E060E070E083E694E02E
:1008C0000E94A40C81E090E071C4D60116968C9130
:1008D000882399F080911D0590E001968330910561
:1008E00014F080E090E060910803709109030E9489
:1008F0009F148EED94E00E94442842E350E060E0B3
:1009000070E083E694E00E94A40C42E350E060E0D3
:1009100070E080E594E00E94A40CC3C0F6018681DB
:100920008823B1F08091080390910903DC01ED91D7
:10093000FC910280F381E02D4BE050E06BE070E031
:10094000099568EE73E080E090E00E94E018FFC433
:1009500080916E0490916F04A0917004B091710425
:100960008137E7E19E0718F08FE090E01FC4892BE4
:100970008A2B8B2B09F0EBC4809169048111E7C4A9
:10098000D6011D968D919C911E97DC01ED91FC91F5
:100990000680F781E02D64E070E0099588E190E041
:1009A0000E94352EFC01809108039091090320914B
:1009B0000C0330910D031382128215821482168269
:1009C000178210861186128648E151E051834083D8
:1009D0004EED54E05487438736872587908B878771
:1009E00080EB94E0928B818B83E694E0948B838BF5
:1009F00080E594E0968B858B178AD6015E96FC93F2
:100A0000EE935D9711E0D6015D968D919C915E9776
:100A1000DC01ED91FC910084F185E02D09958111B7
:100A20002EC0D6011D968D919C911E97DC01ED91F3
:100A3000FC910084F185E02D0995F601A58DB68D18
:100A400012968D919C91139714962D913C91159728
:100A50002817390721F016961C93169703C016968F
:100A60001C92169715969C938E931497ED91FC917A
:100A700011970680F781E02DCD010995C4CFF601CD
:100A8000858D968D009739F0DC01ED91FC91028007
:100A9000F381E02D09950E94241480EB94E00E94DC
:100AA000172381E090E04EC180EB94E00E94EB219F
:100AB000E0914E04F0914F04309709F0099583B707
:100AC000817F8C6083BF83B7816083BF83B7816080
:100AD00083BF889583B78E7F83BF83B78E7F83BFA5
:100AE000E0914C04F0914D04309709F00995D6013E
:100AF000ED91FC910480F581E02DC601099546E950
:100B000050E060E070E083E694E00E94A40C09C12C
:100B1000F6018681882309F49FC085859685DC01CE
:100B2000ED91FC910680F781E02D60E070E0099581
:100B3000F60185859685DC01ED91FC910084F185B7
:100B4000E02D09958091080390910903DC01ED9156
:100B5000FC910280F381E02D44E150E06BE070E015
:100B6000099580910C0390910D03DC01ED91FC91AE
:100B70000680F781E02D40E050E060E40995809127
:100B80000C0390910D03DC01ED91FC910684F78537
:100B9000E02D0995F60183859485DC01ED91FC91AA
:100BA0000480F581E02D099544E650E060E070E0B6
:100BB00083E694E00E94A40C80910C0390910D03B5
:100BC000DC01ED91FC910484F585E02D099505E0AB
:100BD00010E080910C0390910D03DC01ED91FC91EC
:100BE0000680F781E02D40E050E060E409958091B7
:100BF0000C0390910D03DC01ED91FC910684F785C7
:100C0000E02D099564EF71E080E090E00E94E0182B
:100C100080910C0390910D03DC01ED91FC91048413
:100C2000F585E02D099564EF71E080E090E00E9489
:100C3000E0180150110969F68091080390910903A9
:100C4000DC01ED91FC910280F381E02D40E150E068
:100C50006BE070E009957BC380916E0490916F0406
:100C6000A0917004B0917104892B8A2B8B2B09F40D
:100C70005CC005E010E080910C0390910D03DC0155
:100C8000ED91FC910680F781E02D40E050E060E4BA
:100C9000099580910C0390910D03DC01ED91FC917D
:100CA0000684F785E02D09956AEF70E080E090E01A
:100CB0000E94E01880910C0390910D03DC01ED91EE
:100CC000FC910484F585E02D09956AEF70E080E0E1
:100CD00090E00E94E0180150110969F642E350E0EB
:100CE00060E070E083E694E00E94A40C0E9424146B
:100CF00080EB94E00E9417238091080390910903F0
:100D0000DC01ED91FC910280F381E02D41E150E0A6
:100D10006BE070E0099568EE73E080E090E00E947F
:100D2000E018F6011382128210C0F60183859485C3
:100D3000DC01ED91FC910680F781E02D099507C358
:100D40008CE090E0F601938382830E94B011D6017B
:100D500017966D937D938D939C931A97F8C280910B
:100D60005B0490915C04A0915D04B0915E040097D7
:100D7000A105B10531F0893E934018F08BE090E079
:100D8000E1CF0E94B011F60187809084A184B284E3
:100D9000DC01CB0188199909AA09BB098133954760
:100DA000A105B10508F4D3C20E94B011D60117966F
:100DB0008D909D90AD90BC901A979B01AC01281925
:100DC00039094A095B0949015A01212F30E0A0E69F
:100DD000BAEE0E944731681579058A059B0508F02F
:100DE000B6C28091EA0481508E3F08F0B0C28DE017
:100DF00090E0DCC10E94B0114091E504D601179645
:100E00000D911D912D913C911A974B015C01801A17
:100E1000910AA20AB30A242F30E0A8EEB3E00E94A0
:100E2000473186169706A806B90628F04A3018F00A
:100E30008AE090E087CF8091D9048823D9F0D60149
:100E40005B961C9280916E0490916F04A091700447
:100E5000B0917104892B8A2B8B2B09F4CCC1809122
:100E6000EC04882309F4C7C181E0F601848F88E08F
:100E700090E069CF4BE450E060E070E083E694E0FE
:100E80000E94310C882379F08091EB04882359F07B
:100E9000F601938D81E08927838F882309F457C257
:100EA00089E090E04FCF4BE450E060E070E080E5F7
:100EB00094E00E94310C882311F0F60111C080915A
:100EC0005B0490915C04A0915D04B0915E04009776
:100ED000A105B10589F0893C910508F01CC10CC041
:100EE000138E07C0938D81E08927838F882309F4AF
:100EF0002EC289E090E027CF8091D804882371F139
:100F00008091B2049091B304181619063CF5D601ED
:100F10005B968C918111C4CF0E94B011F6010789B4
:100F2000108D218D328DAB01BC01401B510B620B2A
:100F3000730BE0911D052BE1E29FF0011124E85DA8
:100F4000FA4F80819181A0E0B0E0481759076A0705
:100F50007B0708F4FCC184E090E028C10E94B01136
:100F6000E0911D05D60117960D911D912D913C9193
:100F70001A97AB01BC01401B510B620B730B2E2F58
:100F800030E0BBE1EB9FF0011124E25DFA4F80817C
:100F90009181A0E0B0E0481759076A077B07C0F0CD
:100FA000D6015F968C91811113C0809108039091B6
:100FB0000903DC01ED91FC910280F381E02D40E01A
:100FC00050E069E070E0099581E0F601878FBFC1CC
:100FD00080910C0390910D03FC01A081B1814BE144
:100FE000429FF001439FF00D1124EE5CFA4F6081A7
:100FF00070E01896ED91FC9119970995A8C18AE0C7
:1010000090E0D4C08091D904882389F10E94B01166
:10101000D60117960D911D912D913C911A97DC01E7
:10102000CB01801B910BA20BB30B85369105A1055B
:10103000B10558F461E070E080E090E00E94E018B3
:1010400080EB94E00E94EF21E1CF80916E049091BB
:101050006F04A0917004B0917104892B8A2B8B2BA3
:1010600009F45CC08091EC04811155C057C04BE479
:1010700050E060E070E080E594E00E94310C88234D
:10108000F1F00E94B011F6010781108521853285AB
:10109000DC01CB01801B910BA20BB30B85369105B4
:1010A000A105B10508F01CCF80E594E00E944C0C2E
:1010B00061E070E080E090E00E94E018E2CF4BE455
:1010C00050E060E070E083E694E00E94310C8823F9
:1010D00041F18091EB04882321F10E94B011F601C7
:1010E0000781108521853285DC01CB01801B910BA6
:1010F000A20BB30B85369105A105B10508F0F2CE20
:1011000083E694E00E944C0C61E070E080E090E0A7
:101110000E94E018E2CF88E090E048C086E090E0CE
:1011200045C08091D80481111EC00E94B011F60103
:101130000781108521853285AB01BC01401B510B15
:10114000620B730BE0911D052BE1E29FF00111246E
:10115000E65DFA4F80819181A0E0B0E04817590721
:101160006A077B0708F50E94B011D60117960D910A
:101170001D912D913C911A97AB01BC01401B510B65
:10118000620B730BE0911D05BBE1EB9FF001112495
:10119000E45DFA4F80819181A0E0B0E0841795076B
:1011A000A607B70708F0D3C083E090E0D6011396F6
:1011B0009C938E9312970E94B011F60167837087FB
:1011C00081879287C4C08091D9048823B9F00E9496
:1011D000B011D6011F960D911D912D913C91529702
:1011E000DC01CB01801B910BA20BB30B893C910559
:1011F000A105B10518F086E090E0A4CD0E94B011E1
:10120000F6010781108521853285AB01BC01401BA9
:10121000510B620B730BE0911D052BE1E29FF00176
:101220001124E85DFA4F80819181A0E0B0E0481779
:1012300059076A077B0708F48AC083E090E082CDF3
:101240000E94B011D60117960D911D912D913C91E0
:101250001A97DC01CB01801B910BA20BB30B893ECB
:101260009340A105B10508F426CA42E350E060E0CE
:1012700070E083E694E00E94A40C42E350E060E05A
:1012800070E080E594E00E94A40C6EED74E0809123
:101290000C0390910D030E94DB0B80910803909149
:1012A0000903DC01ED91FC910280F381E02D40E027
:1012B00050E069E070E00995F601148E83E090E05B
:1012C000938382830E94B011D60117966D937D930C
:1012D0008D939C931A97EFC98091D804882309F4C1
:1012E000EAC90E94B011F601078110852185328577
:1012F000DC01CB01801B910BA20BB30B893E934009
:10130000A105B10508F4D7C98091E404882309F444
:10131000D2C96EED74E080910C0390910D030E9490
:10132000DB0BD6015C961C925C9784E090E0B8C918
:1013300083E090E0D60113969C938E9312970E94BF
:10134000B011F601678370878187928795CA2C96C2
:101350000FB6F894DEBF0FBECDBFDF91CF911F91C6
:101360000F91FF90EF90DF90CF90BF90AF909F9044
:101370008F900895FF920F931F93CF93DF93EC010B
:101380008B01F42EE881F9810680F781E02D40E0A1
:1013900050E0DB016C910995E881F9810680F781C5
:1013A000E02D41E050E0D80111966C91CE010995F5
:1013B000E881F9810680F781E02D42E050E0D80114
:1013C00012966C91CE010995FF2061F0E881F981B8
:1013D0000684F785E02DCE01DF91CF911F910F910B
:1013E000FF900994DF91CF911F910F91FF90089585
:1013F000FC018789089508950895CF93DF93EC0148
:101400001B821A8280910A0390910B03DC01ED91FB
:10141000FC916091EE0470E00284F385E02D099563
:1014200080910C0390910D03DC01ED91FC910190F2
:10143000F081E02D09958091080390910903DC016A
:10144000ED91FC910190F081E02D099580EB94E005
:101450000E9417238091650490916604181619065E
:101460001CF462E00E94A4188091520490915304ED
:10147000181619061CF462E00E94A4188D859E853A
:10148000DC01ED91FC910480F581E02D099564E685
:1014900070E080E090E00E94E0186091E30470E06A
:1014A0006530710514F464E170E080910803909157
:1014B0000903DC01ED91FC910084F185E02D099593
:1014C00064E670E080E090E0DF91CF910C94E0184A
:1014D0000C94CA2E0C94CA2E0C94CA2E87FF0C941E
:1014E00074180895A89599E288E10FB6F894A89524
:1014F000809360000FBE9093600086EA92E00E94A5
:10150000021464E670E080E090E00E94E01860E081
:10151000809109010E946E0A8091080118161CF43E
:1015200062E00E94A4188091070118161CF461E083
:101530000E94741860E0809105010E946E0A60E0CC
:10154000809106010E946E0A6CE271E080E090E0FA
:101550000C94E0188CEA92E00E9402146AEF70E0AA
:1015600080E090E00E94E01880910801181644F491
:1015700061E00E94A41860E0809108010E94741844
:101580008091070118161CF460E00E94741861E055
:10159000809106010E946E0A61E0809105010E941F
:1015A0006E0A60E0809104010E946E0A61E0809101
:1015B00009010C946E0A2F923F924F925F926F92A4
:1015C0007F928F929F92AF92BF92CF92DF92EF92D3
:1015D000FF920F931F93CF93DF9300D01F92CDB74D
:1015E000DEB76C015B013A0149010E94B011209104
:1015F00000033091010340910203509103031B014A
:101600002C01221A330A440A550AF701808191817C
:10161000A0E0B0E0281639064A065B0608F475C05B
:101620000E94B01160930003709301038093020342
:1016300090930303F30180819181A28189839A832E
:10164000AB830E94B02F24E630E040E050E00E94DF
:10165000F330F401208131812901330F66087708C6
:1016600046165706680679063CF4F501808191819B
:10167000A28189839A83AB83F8018081918164E69A
:1016800070E0681B790B072E000C880B990B24E681
:1016900030E040E050E00E9486120E94C02F20E01F
:1016A00030E048EC52E40E94C3314B015C01698197
:1016B00070E080E090E00E94BE2FA50194010E949E
:1016C0001F300E943C3269836A8170E080E090E0C4
:1016D0000E94BE2FA50194010E941F300E943C323F
:1016E0006A836B8170E080E090E00E94BE2FA501CC
:1016F00094010E941F300E943C326B8341E0BE0186
:101700006F5F7F4FC6010E94BA090F900F900F9034
:10171000DF91CF911F910F91FF90EF90DF90CF90CD
:10172000BF90AF909F908F907F906F905F904F9001
:101730003F902F9008950F931F93CF93DF93EB016A
:101740008A01DC01ED91FC910280F381E02D40E003
:1017500050E068E070E00995E881F981D8016D9169
:101760007C910480F581E02DCE0109958823A1F3B9
:10177000DF91CF911F910F9108950F931F93CF93F6
:10178000DF9300D01F92CDB7DEB78C01CB010E9452
:10179000E41E69837A838B8341E0BE016F5F7F4FD4
:1017A000C8010E94BA090F900F900F90DF91CF915E
:1017B0001F910F9108950F931F93CF93DF9300D044
:1017C0001F92CDB7DEB78C01CB010E94FF1E69834B
:1017D0007A838B8341E0BE016F5F7F4FC8010E9417
:1017E000BA090F900F900F90DF91CF911F910F9139
:1017F0000895CF92DF92EF92FF920F931F93CF93B2
:10180000DF93EB017A016901DC01ED91FC9102802B
:10181000F381E02D40E050E062E070E00995F601D0
:101820006081718180E090E00E94E01840E0B701A3
:10183000CE010E94BA09E881F981D8016D917C91AD
:101840000280F381E02DCE0109958823A1F3DF9179
:10185000CF911F910F91FF90EF90DF90CF9008955F
:1018600008950F931F93411551056105710571F09E
:10187000FC01078510892189328922273327041723
:1018800015072607370710F480E002C0FC018681A7
:101890001F910F91089508950F931F93CF93DF9396
:1018A000EC018A819B81181619062CF40E944B18B2
:1018B00021E0892B09F020E02C838D81222319F16E
:1018C000811110C00E94B0116F83788789879A8731
:1018D0001F86188A198A1A8A1E821B861C861D86F4
:1018E0001E862BC00E94B0110F81188529853A856C
:1018F000DC01CB01801B910BA20BB30B8B879C8768
:10190000AD87BE871AC0882399F00E94B0110F815D
:10191000188529853A85DC01CB01801B910BA20B30
:10192000B30B8F87988BA98BBA8B81E08E8305C010
:101930001B861C861D861E861E828C818D83DF91F0
:10194000CF911F910F910895EF92FF920F931F93E4
:10195000CF93DF9300D000D0CDB7DEB78C01CB01A1
:10196000BA0125E030E040E050E00E94F330E12C85
:10197000F12CCA01B90129833A834B835C830E940D
:10198000E018C8010E944C0CF801868129813A8137
:101990004B815C818111EBCF83859485A585B685CC
:1019A000892B8A2B8B2B19F7FFEFEF1AFF0A85E0A3
:1019B000E816F104F4F20F900F900F900F90DF9162
:1019C000CF911F910F91FF90EF9008958F929F926A
:1019D000AF92BF92DF92EF92FF920F931F93CF933C
:1019E000DF93EC018B899C89DC011B968D909D9087
:1019F000AD90BC901E9781149104A104B104A1F193
:101A0000D22E7A018B0144E650E060E070E00E9443
:101A1000310C811129C0B9EE8B16B3E09B0620F181
:101A20008F859889DC01ED91FC914D2D50E002806D
:101A3000F381E02DB701099564E670E080E090E065
:101A40000E94E01842E350E060E070E08B899C89DE
:101A50000E94A40C1B830A830E94B0116F837887B5
:101A600089879A8781E001C080E0DF91CF911F9143
:101A70000F91FF90EF90DF90BF90AF909F908F906D
:101A80000895EF92FF920F931F93CF93DF93EC0192
:101A90008B899C890E944C0C8D899E890E944C0CDC
:101AA00089899A89DC01ED91FC910284F385E02D0E
:101AB00009958B859C85DC01ED91FC910480F58175
:101AC000E02D09958C01EA81FB81E830F10508F0F1
:101AD000EFC2EC5BFF4F0C9414338F859889DC01C7
:101AE000ED91FC910280F381E02D4BE050E06BE042
:101AF00070E0099560ED77E080E090E00E94E018EA
:101B000042E350E060E070E08B899C890E94A40C65
:101B100042E350E060E070E08D899E890E94A40C51
:101B200081E090E09B838A830E94B0116F83788765
:101B300089879A87BDC28E81882301F18F85988914
:101B4000DC01ED91FC910280F381E02D4EE050E04C
:101B50006BE070E009956CED75E080E090E00E942C
:101B6000E0188F859889DC01ED91FC910280F3816A
:101B7000E02D40E050E069E070E009958F8598899C
:101B8000DC01ED91FC910684F785E02D0995FC01BF
:101B9000F38444E650E060E070E08B899C890E9409
:101BA000310C882369F0D80113968C9113978F1507
:101BB00020F48F5F13968C9316C085E0F80110C057
:101BC00044E650E060E070E08D899E890E94310C0F
:101BD000882309F444C0F8018381863018F08150CD
:101BE000838301C0F3828F859889DC01ED91FC919C
:101BF000D80113966C9170E00084F185E02D099571
:101C000066E970E080E090E00E94E018F8018381CE
:101C1000F8124EC28F859889DC01ED91FC9102800B
:101C2000F381E02D45E150E06BE070E009956CED4B
:101C300075E080E090E00E94E0188F859889EC01C3
:101C4000E881F9810280F381E02D40E050E069E015
:101C500070E0099566E970E080E090E03BC02DE01F
:101C60004BE050E062E070E0FFC18B859C85DC01B9
:101C7000ED91FC910284F385E02D09958C018E8114
:101C800081114FC044E650E060E070E08B899C8990
:101C90000E94310C882331F18B859C85DC01ED910C
:101CA000FC910284F385E02D0995FC0180818B3045
:101CB00028F4D8018C918F5F8C9302C0F8011082B8
:101CC0006B857C858D859E850E94DB0B64E670E0CC
:101CD00080E090E0DF91CF911F910F91FF90EF9006
:101CE0000C94E01844E650E060E070E08D899E8935
:101CF0000E94310C882309F18B859C85DC01ED91D4
:101D0000FC910284F385E02D0995FC0180818823F4
:101D100029F0D8018C9181508C9303C08BE0F8019D
:101D200080836B857C858D859E85DF91CF911F910A
:101D30000F91FF90EF900C94DB0B89899A89DC015D
:101D4000ED91FC910680F781E02D0995882389F1BA
:101D50008F859889DC01ED91FC910480F581E02D5F
:101D600064E070E00995F801E280F12C8D859E8594
:101D7000DC01ED91FC910088F189E02D0995E816D0
:101D8000F9062CF4F80182818F5F828303C0D801A9
:101D900012961C9264EF71E080E090E00E94E018DF
:101DA0008F859889EC01E881F9810680F781E02D23
:101DB00098C02CE04BE050E063E070E0CE010E9460
:101DC000E60CAD85BE85ED91FC911197882329F035
:101DD0000484F585E02DCD0184C0E8016A8170E0BE
:101DE0000084F185E02DCD01DF91CF911F910F91FE
:101DF000FF90EF9009948B859C85DC01ED91FC911F
:101E00000284F385E02D09958C018E8181114AC0F1
:101E100044E650E060E070E08B899C890E94310CC0
:101E20008823F1F08B859C85DC01ED91FC91028487
:101E3000F385E02D0995FC0181818B3040F4D801B8
:101E400011968C9111978F5F11968C9302C0F801B7
:101E500011826B857C858D859E850E94BD0B36CF5A
:101E600044E650E060E070E08D899E890E94310C6C
:101E7000882321F18B859C85DC01ED91FC91028406
:101E8000F385E02D0995FC018181882341F0D8017B
:101E900011968C911197815011968C9303C08BE011
:101EA000F80181836B857C858D859E85DF91CF913F
:101EB0001F910F91FF90EF900C94BD0B2FE04BE022
:101EC00050E064E070E0CE010E94E60C882309F443
:101ED000EFC08D859E85DC01ED91FC910484F58534
:101EE000E02DDF91CF911F910F91FF90EF9009941A
:101EF0008B859C85DC01ED91FC910488F589E02DB2
:101F000009958C0144E650E060E070E08B899C8983
:101F10000E94310C882341F0F801818D893010F442
:101F20008F5F11C0118E13C044E650E060E070E096
:101F30008D899E890E94310C882349F0F801818D9A
:101F4000882319F08150818F02C089E0818F44E697
:101F500050E060E070E08B899C890E94310C811117
:101F60007BC044E650E060E070E08D899E890E946D
:101F7000310C811171C073C08B859C85DC01ED91A2
:101F8000FC910488F589E02D09958C0144E650E028
:101F900060E070E08B899C890E94310C882341F0BD
:101FA000F801828D893010F48F5F0CC0128E0EC044
:101FB000ED89FE898681882349F0F801828D882386
:101FC00019F08150828F02C089E0828F44E650E090
:101FD00060E070E08B899C890E94310C81114DC0BA
:101FE00044E650E060E070E08D899E890E94310CEB
:101FF000811143C020E048E050E066E070E034C06A
:102000008B859C850E9444288F859889DC01ED9101
:10201000FC910280F381E02D40E050E061E070E04F
:10202000099587E090E09B838A830E94B0116F83BB
:10203000788789879A8742E350E060E070E08B8977
:102040009C89DF91CF911F910F91FF90EF900C949D
:10205000A40C81E08F8B2CC0F801418D11C022E1CE
:102060004BE050E065E070E0CE01DF91CF911F9131
:102070000F91FF90EF900C94E60CD8015A964C917A
:102080008F859889442359F0DC01ED91FC9150E053
:102090000280F381E02D6BE070E0099517CEEC0132
:1020A000E881F9810280F381E02D43E150E0F3CF34
:1020B000DF91CF911F910F91FF90EF90089542E330
:1020C00050E060E070E0FC01838994890C94A40CDA
:1020D00008950895CF92DF92EF92FF920F931F938E
:1020E000CF93DF936C017A018B01C0E0D0E0CE1575
:1020F000DF0589F0D8016D918D01D601ED91FC913C
:102100000190F081E02DC6010995892B11F47E0123
:1021100002C02196ECCFC701DF91CF911F910F91A3
:10212000FF90EF90DF90CF900895FC01538D448D88
:10213000252F30E0842F90E0821B930B541710F072
:10214000CF96089501970895FC01918D828D98177F
:1021500061F0828DDF01A80FB11D5D968C91928D8B
:102160009F5F9F73928F90E008958FEF9FEF089588
:10217000FC01918D828D981731F0828DE80FF11D51
:10218000858D90E008958FEF9FEF0895FC01918D6C
:10219000228D892F90E0805C9F4F821B91098F7365
:1021A0009927089581EA93E00E94C61021E0892BC7
:1021B00009F420E0822F0895FC01848DDF01A80F2F
:1021C000B11DA35ABF4F2C91848D90E001968F735F
:1021D0009927848FA689B7892C93A089B1898C917E
:1021E00080648C93938D848D981306C00288F38944
:1021F000E02D80818F7D80830895EF92FF920F9371
:102200001F93CF93DF93EC0181E0888F9B8D8C8DA2
:10221000981305C0E889F989808185FD24C0F62ED0
:102220000B8D10E00F5F1F4F0F731127E02E8C8D69
:10223000E8120CC00FB607FCFACFE889F989808153
:1022400085FFF5CFCE010E94DC10F1CF8B8DFE0112
:10225000E80FF11DE35AFF4FF0820B8FEA89FB89EB
:102260008081806207C0EE89FF896083E889F989EF
:1022700080818064808381E090E0DF91CF911F9125
:102280000F91FF90EF900895CF93DF93EC01888D2D
:102290008823C9F0EA89FB89808185FD05C0A8896A
:1022A000B9898C9186FD0FC00FB607FCF5CF8081F0
:1022B00085FFF2CFA889B9898C9185FFEDCFCE013A
:1022C0000E94DC10E7CFDF91CF91089580E090E08D
:1022D000892B29F00E94D21081110C9400000895DE
:1022E000FC01758364830895FC01758364830895FC
:1022F000CF93DF93EC0161E08A810E94A41860E033
:102300008A81DF91CF910C9474180E942E330C9423
:10231000CA2E0C94CA2E3FB7F89480913003909146
:102320003103A0913203B091330326B5A89B05C0B9
:102330002F3F19F00196A11DB11D3FBFBA2FA92F44
:10234000982F8827820F911DA11DB11DBC01CD01C1
:1023500042E0660F771F881F991F4A95D1F70895AD
:102360002FB7F89460912C0370912D0380912E0368
:1023700090912F032FBF08950F931F93CF93DF9357
:10238000EC018C819D818230910571F02CF40097D5
:1023900049F0019749F035C08330910541F0049729
:1023A000D9F02FC01A862FC081E08A872CC00E94E6
:1023B000B0110E811F8128853985DC01CB01801B7E
:1023C000910BA20BB30B85369105A105B10518F150
:1023D0008A85811149C01FC00E94B0110E811F81E2
:1023E00028853985DC01CB01801B910BA20BB30B37
:1023F000853F9140A105B10528F18A85811134C03E
:1024000021C01D821C826A858A81DF91CF911F9134
:102410000F910C9474180E94B0110E811F812885B1
:102420003985DC01CB01801B910BA20BB30B813AE8
:102430009F40A105B10538F38A858111E4CF81E081
:102440008A8713C00E94B0110E811F8128853985AB
:10245000DC01CB01801B910BA20BB30B853F91409C
:10246000A105B10548F7CFCF1A860E94B0116E833F
:102470007F8388879987C7CF1F920F920FB60F92DD
:1024800011242F933F938F939F93AF93BF9380918A
:102490002C0390912D03A0912E03B0912F03309126
:1024A0002B0323E0230F2D3720F40196A11DB11D2E
:1024B00005C026E8230F0296A11DB11D20932B0312
:1024C00080932C0390932D03A0932E03B0932F039E
:1024D0008091300390913103A0913203B091330386
:1024E0000196A11DB11D8093300390933103A093F9
:1024F0003203B0933303BF91AF919F918F913F917E
:102500002F910F900FBE0F901F901895CF92DF92D2
:10251000EF92FF920F931F93CF93DF9300D000D0E1
:10252000CDB7DEB76217730784079507FCF48901FE
:102530009A016B017C01A9019801261B370B480BFE
:10254000590B69F029833A834B835C830E94B02F37
:1025500029813A814B815C810E94F33003C060E0A5
:1025600070E0CB016C0D7D1D8E1D9F1D0F900F9097
:102570000F900F90DF91CF911F910F91FF90EF90EF
:10258000DF90CF9008951F920F920FB60F921124F3
:102590002F933F934F935F936F937F938F939F936B
:1025A000AF93BF93EF93FF93E0910201F09103018A
:1025B0000995FF91EF91BF91AF919F918F917F917D
:1025C0006F915F914F913F912F910F900FBE0F90A0
:1025D0001F9018951F920F920FB60F9211242F93F0
:1025E0003F934F935F936F937F938F939F93AF939B
:1025F000BF93EF93FF93E0910001F09101010995E2
:10260000FF91EF91BF91AF919F918F917F916F91CA
:102610005F914F913F912F910F900FBE0F901F90A0
:1026200018951F920F920FB60F9211242F933F937C
:102630004F935F936F937F938F939F93AF93BF93CA
:10264000EF93FF9381EA93E00E94DC10FF91EF91FA
:10265000BF91AF919F918F917F916F915F914F91BA
:102660003F912F910F900FBE0F901F9018951F92C2
:102670000F920FB60F9211242F938F939F93EF9386
:10268000FF93E091B103F091B2038081E091B70331
:10269000F091B80382FD12C090818091BA038F5FE0
:1026A0008F732091BB03821751F0E091BA03F0E0E1
:1026B000EF55FC4F958F8093BA0301C08081FF9145
:1026C000EF919F918F912F910F900FBE0F901F90C0
:1026D000189508950895FF920F931F93CF93DF935A
:1026E000F62E8C01075D1F4FEC01AF96F80181912A
:1026F00091918F01181619063CF4FF2011F061E04A
:1027000001C060E00E9474180C171D0779F7DF9173
:10271000CF911F910F91FF9008958BED91E001975C
:10272000F1F70895EF92FF921F93CF93DF931F92DB
:10273000CDB7DEB7162FF894FC01E684F784642F3A
:10274000C70129830E947423612FC7010E9474234B
:102750002981622FC7010E94742378940F90DF9122
:10276000CF911F91FF90EF900895BF92CF92DF928B
:10277000EF92FF920F931F93CF93DF937C01D62E9E
:10278000C42EB22EC0E0D0E0C017D10744F42B2DE8
:102790004C2D6D2DC7010E9492132196F5CFDF912C
:1027A000CF911F910F91FF90EF90DF90CF90BF904E
:1027B0000895833081F028F4813099F08230A1F0BF
:1027C00008958730A9F08830B9F08430D1F4809131
:1027D00080008F7D03C0809180008F778093800080
:1027E000089584B58F7702C084B58F7D84BD089528
:1027F0008091B0008F7703C08091B0008F7D80936F
:10280000B0000895CF93DF93009779F0FC01019019
:102810000020E9F73197AF01481B590BBC0181EA51
:1028200093E00E946A10EC0102C0C0E0D0E042E0F8
:1028300050E062EE72E081EA93E00E946A108C0F31
:102840009D1FDF91CF910895CF93DF93E0911D05F8
:10285000CE2FD0E03BE1E39FF0011124E95CFA4F79
:102860002081E091F704F091F804211119C08091C2
:10287000EF049091F0049093A7048093A6048091B4
:10288000F1049091F2049093A9048093A80480919C
:10289000F3049091F4049093AB048093AA0419C0BC
:1028A00086EF99E09093A7048093A6043EEC320350
:1028B000C00111249E5F9093A9048093A804880FFF
:1028C000991F63E070E00E9400337093AB04609343
:1028D000AA048BE18C9FD0018D9FB00D1124A85CC0
:1028E000BA4F2C91211105C08091F5049091F60406
:1028F0001BC0822F90E0A0E0B0E09C01AD01215010
:10290000310941095109A6E4B0E00E941231AB013E
:10291000BC0183E075956795579547958A95D1F7E2
:1029200080E590E0841B950B9093AD048093AC04FC
:10293000F093AF04E093AE04DF91CF910895CF936D
:10294000DF93EB0180931D05E881F9810484F5850F
:10295000E02D682FCE010995E881F9810280F3818D
:10296000E02D40E050E060E070E0CE0109950E946B
:102970002414E091B004F091B1040484F585E02DB5
:1029800080EB94E0DF91CF910994382F2091A00340
:1029900090919F03213208F049C080917C038111FE
:1029A000FCCF42E040937C0330937B033FEF3093B6
:1029B0007A031092790320937803AFE7B3E048E5F8
:1029C00053E0FA013E2F341B321718F43D91319336
:1029D000F9CF1092570320915703990F922B9093A0
:1029E000570390915603913061F4109256039091E1
:1029F00057039093BB009091BC0093FDF8CF95ECEA
:102A000001C095EE9093BC0090917C039230E1F36D
:102A100090917A039F3F79F080917A03803241F060
:102A200080917A03803331F084E005C081E003C0F7
:102A300082E001C083E010927E031092A003109206
:102A40007D03089590917C039111FCCF613208F0D1
:102A500060E291E090937C0340937B032FEF2093FF
:102A60007A0310927903260F2093780390935703EB
:102A700090915703880F892B8093570380915603B9
:102A8000813061F410925603809157038093BB000C
:102A90008091BC0083FDF8CF85EC01C085EE80936A
:102AA000BC0080917C038130E1F38091790386172B
:102AB00010F460917903A8E5B3E026E333E0F9016F
:102AC0008E2F821B861718F48D918193F9CF109267
:102AD000350360933403862F0895AF92BF92CF924F
:102AE000DF92EF92FF920F931F93CF93DF938AEAC7
:102AF0008093E00485E580936F0580E990E09093F2
:102B0000E2048093E10410921D0584E18093E304C4
:102B10001092E50481E08093E40428EB3BE03093DD
:102B2000E9042093E80424EC39E03093E70420938F
:102B3000E6049AE09093EA048093EB048093EC041B
:102B40008093ED0488E78093EE0480E092E0909318
:102B5000F0048093EF0480E890E09093F204809377
:102B6000F10422E330E03093F4042093F3042CE3E7
:102B700030E03093F6042093F5049093F8048093AA
:102B8000F704A8E3B5E0EEE1F5E086E0C82E97E0B3
:102B9000D92E88EE93E024E630E04AEFE42EF12CC3
:102BA00000EB14E060E47FE152E0B52EC4E6AC2E09
:102BB00044E150E0CC92ED012197D882118210823D
:102BC000938382839583848337832683F186E0868B
:102BD000938782873587248717870687718B608B59
:102BE000279718822196B882219618822196A8826A
:102BF00021961882508F478B5B967B96C5E0EF3607
:102C0000FC07C1F680E090E0FC01E750FB4F10822A
:102C100011821282039684329105B1F78FEF80936F
:102C2000F9041092FA041092FB048093FC049FE7CD
:102C30009093FD041092FE048093FF04809300059E
:102C400010920105909302058093030510920405EC
:102C5000109205058093060510920705109208054D
:102C60008093090590930A0510920B0580930C053B
:102C700080930D0510920E0590930F05809310051B
:102C8000109211051092120580931305909314056C
:102C9000109215058093160580931705109218055C
:102CA0008093190580931A0510921B0590931C05BB
:102CB000DF91CF911F910F91FF90EF90DF90CF9018
:102CC000BF90AF9008958F929F92AF92BF92EF9274
:102CD000FF920F931F93CF93DF937B018C01C0E092
:102CE000D0E0CE15DF05C9F10E94B0116093A903B1
:102CF0007093AA038093AB039093AC03E091A1037C
:102D0000F091A2030284F385E02D81EA93E0099516
:102D100097FF1EC00E94B0118090A9039090AA0353
:102D2000A090AB03B090AC03DC01CB0188199909EA
:102D3000AA09BB098090A5039090A603A090A703C1
:102D4000B090A80388159905AA05BB05B8F205C07F
:102D5000F80181938F012196C4CFCE01DF91CF91ED
:102D60001F910F91FF90EF90BF90AF909F908F9029
:102D70000895AB01BC0181EA93E00C946A10FC0158
:102D80008EE782838FEF838386E084836583808DE3
:102D900086834F3F510509F010F4178201C0578315
:102DA0004087118612868FEE8387DF0113969F017D
:102DB000275F3F4F80E090E04D91840F911DA21757
:102DC000B307D1F7919581959109918782870895ED
:102DD0002F923F924F925F926F927F928F929F922B
:102DE000AF92BF92CF92DF92EF92FF920F931F9319
:102DF000CF93DF9300D000D0CDB7DEB71C018B019D
:102E00006536710514F004E610E029833A834B839C
:102E10005C830E94B011F101C088D188E288F388F8
:102E2000DC01CB018C199D09AE09BF0929813A81CA
:102E30004B815C81281739074A075B07D8F1828DDF
:102E4000811138C0E12CF12CF101868197818E151A
:102E50009F055CF0F101258544856385C1010E94D1
:102E60009213FFEFEF1AFF0AEFCF048115810E19BD
:102E70001F090F5F1F4F20E040E060E0C1010E948A
:102E8000B513C1010F900F900F900F90DF91CF916C
:102E90001F910F91FF90EF90DF90CF90BF90AF9078
:102EA0009F908F907F906F905F904F903F902F906A
:102EB0000C948D130E94B011F101608B718B828B89
:102EC000938BB801110F880B990B24E630E040E09A
:102ED00050E00E948612072E000C880B990B0E946E
:102EE000C02F20E030E048EC52E40E94C3316B0177
:102EF0007C01F101618570E080E090E00E94BE2FCE
:102F0000A70196010E941F302B013C01F10162854F
:102F100070E080E090E00E94BE2FA70196010E9421
:102F20001F304B015C01F101608570E080E090E0B2
:102F30000E94BE2FA70196010E941F300E943C32C2
:102F4000F1016387C301B2010E943C32F101648741
:102F5000C501B4010E943C32F101658773CF8F92A5
:102F60009F92AF92BF92CF92DF92EF92FF920F9318
:102F70001F93CF93DF93EC016A017B010E94B01194
:102F8000088919892A893B89DC01CB01801B910BB7
:102F9000A20BB30BC816D906EA06FB0680F40E9402
:102FA000B011688B798B8A8B9B8B8B8D9C8D019755
:102FB0001816190614F08AE090E09C8F8B8FEB8C2A
:102FC000FC8C8AE090E04C018E189F0881E0E81AA2
:102FD000F108C12CD12C8E819F818C159D05BCF0F0
:102FE000A12CB12C85010C0D1D1DA814B90454F59C
:102FF0008E819F81801791072CF12A8549856885EC
:10300000CE010E9492138FEFA81AB80AEBCF0C8161
:103010001D810C191D090F5F1F4F20E040E060E08B
:10302000CE010E94B513CE01DF91CF911F910F9178
:10303000FF90EF90DF90CF90BF90AF909F908F90D8
:103040000C948D1358018E819F818017910754F045
:103050002D854C856B85CE010E94921358018FEF10
:10306000A81AB80A00E010E0C8018A0D9B1D6C0187
:103070000E151F050CF0AFCF2E813F8128173907A1
:103080000CF4A9CF2A8549856885CE010E94921348
:103090000F5F1F4FE9CFCF93DF93282F30E0F90167
:1030A000E458FE4F8491F901E859FE4FD491F9019B
:1030B000EC5AFE4FC491CC2391F081110E94D91398
:1030C000EC2FF0E0EE0FFF1FE65BFE4FA591B491F1
:1030D000EC91ED2381E090E021F480E002C080E0FB
:1030E00090E0DF91CF9108951F93CF93DF93282F26
:1030F00030E0F901E458FE4F8491F901E859FE4FA0
:10310000D491F901EC5AFE4FC491CC23C9F0162F8B
:1031100081110E94D913EC2FF0E0EE0FFF1FE05C4D
:10312000FE4FA591B4918FB7F894111105C09C91F1
:10313000ED2FE095E92302C0EC91ED2BEC938FBFCE
:10314000DF91CF911F910895CF93DF9390E0FC0121
:10315000E859FE4F2491FC01EC5AFE4F84918823DC
:1031600061F190E0880F991FFC01EA5CFE4FC59168
:10317000D491FC01E05CFE4FA591B491611109C0AE
:103180009FB7F8948881209582238883EC912E2321
:103190000BC0623061F49FB7F8943881822F80951C
:1031A00083238883EC912E2B2C939FBF06C08FB76F
:1031B000F894E8812E2B28838FBFDF91CF9108955B
:1031C0008F929F92AF92BF92CF92DF92EF92FF9237
:1031D0006B017C010E948B114B015C01C114D10475
:1031E000E104F104F1F00E948B11DC01CB0188199C
:1031F0009909AA09BB09883E9340A105B10570F35E
:1032000021E0C21AD108E108F10888EE880E83E0B7
:10321000981EA11CB11CC114D104E104F10419F7DA
:10322000DDCFFF90EF90DF90CF90BF90AF909F9059
:103230008F90089506960895FC0187AD90E008955B
:1032400002960895FC0127ADFBE12F9F800D911D93
:1032500011248E5A9F4F0895FC0127ADFBE12F9F4B
:10326000800D911D1124805C9F4F08954196089513
:10327000FC0127ADFBE12F9F800D911D1124805C87
:103280009F4F089521E0FC01228313820895DC0101
:10329000ED91FC910284F385E02D67E00994CF93D2
:1032A000DF93EC018985882369F080910C0390916C
:1032B0000D03DC01ED91FC916F8178850084F1852F
:1032C000E02D0995E881F9810084F185E02DCE019A
:1032D000DF91CF910994FC0197AD923018F49F5F74
:1032E00097AF089517AE0895FC0167AF08958F92C8
:1032F0009F92AF92BF92CF92DF92EF92FF920F9385
:103300001F93CF93DF93CDB7DEB766970FB6F894D0
:10331000DEBF0FBECDBF6BE070E0CE0102960E9413
:1033200063168F819885A985888B998BAA8B8A854E
:103330009B85AC858D879E87AF870E94B0114B011E
:103340005C010E94B0116B017C01C818D908EA0821
:10335000FB082A8130E0A8EEB3E00E944731C61690
:10336000D706E806F906F0F48C8190E09E8B8D8BF1
:103370008B8190E09C8B8B8BCE0105967C018E011E
:103380000B5E1F4F9E012D5E3F4FAE01435F5F4FAF
:10339000BE01605F7F4F80910C0390910D030E94EE
:1033A000DB0ACFCF66960FB6F894DEBF0FBECDBF57
:1033B000DF91CF911F910F91FF90EF90DF90CF9011
:1033C000BF90AF909F908F9008956BE070E084EE77
:1033D00094E00C946316CF93DF9300D0CDB7DEB7A3
:1033E00062E070E0CE0101960E94631680911D0597
:1033F0002BE1829FC001112467E070E0805D9A4F4D
:103400000E9463160F900F90DF91CF910895CF9394
:10341000DF9300D0CDB7DEB762E070E0CE01019659
:103420000E94631680911D052BE1829FC00111242B
:1034300062E170E0825E9A4F0E9463160F900F90D7
:10344000DF91CF910895CF93DF93CDB7DEB72D975E
:103450000FB6F894DEBF0FBECDBF6CE070E0CE01BA
:1034600002960E9463168AE0FE013496AFEEB4E045
:1034700001900D928A95E1F72D960FB6F894DEBF74
:103480000FBECDBFDF91CF9108950F931F93CF93C0
:10349000DF9300D01F92CDB7DEB78C0162E070E001
:1034A000CE0102960E9463162A8130E0F80130872F
:1034B000278381E09B81911101C080E0F801818721
:1034C0000F900F900F90DF91CF911F910F91089562
:1034D000CF93DF9300D0CDB7DEB761E070E0CE01CF
:1034E00002960E9463162A8180910C0390910D032D
:1034F000DC01ED91FC91222321F00684F785E02D7B
:1035000003C00484F585E02D09950F900F90DF919D
:10351000CF910895CF93DF9300D01F92CDB7DEB740
:1035200063E070E0CE0101960E94631680910C0367
:1035300090910D03DC01ED91FC9149815A81068047
:10354000F781E02D6B8109950F900F900F90DF911F
:10355000CF9108950F931F93CF93DF9300D0CDB7F2
:10356000DEB78C0161E070E0CE0102960E94631626
:10357000E981FA818181882321F081E0F801848347
:1035800002C0F80114820F900F90DF91CF911F912C
:103590000F910895CF93DF93CDB7DEB72C970FB679
:1035A000F894DEBF0FBECDBF89E089838BE0E4EEE7
:1035B000F4E0DE01129601900D928A95E1F76CE03D
:1035C00070E0CE0101960E94B9162C960FB6F894C1
:1035D000DEBF0FBECDBFDF91CF910895CF93DF93B4
:1035E000CDB7DEB727970FB6F894DEBF0FBECDBFBD
:1035F00088E0898383E08A838CE08B8380910C034D
:1036000090910D03DC01ED91FC910088F189E02D92
:1036100009956D8380910C0390910D03DC01ED9170
:10362000FC910088F189E02D09958C838091080335
:1036300090910903DC01ED91FC910684F785E02D62
:103640000995FC0183858E8380911D058F8367E03A
:1036500070E0CE0101960E94B91627960FB6F89435
:10366000DEBF0FBECDBFDF91CF910895CF93DF9323
:10367000CDB7DEB7A8970FB6F894DEBF0FBECDBFAB
:1036800087E0898388E290E09B838A838CE08C8347
:10369000FE01379680E090E0BC0162527B4F9F01B3
:1036A00022503109DB015B964C91D9014C932F5F7D
:1036B0003F4FDB015C964C91D9014C93DB015D9649
:1036C0002C912083039633968432910529F768E282
:1036D00070E0CE0101960E94B916A8960FB6F89434
:1036E000DEBF0FBECDBFDF91CF910895CF93DF93A3
:1036F000CDB7DEB72A970FB6F894DEBF0FBECDBFA9
:10370000E0911D0583E0898387E090E09B838A83B5
:103710008BE1E89FF0011124E05DFA4F87E0DE01C4
:10372000149601900D928A95E1F76AE070E0CE015F
:1037300001960E94B9162A960FB6F894DEBF0FBE06
:10374000CDBFDF91CF910895CF93DF93CDB7DEB793
:1037500065970FB6F894DEBF0FBECDBFE0911D0593
:1037600082E0898382E190E09B838A838BE1E89FFA
:10377000F0011124E25EFA4F82E1DE01149601901D
:103780000D928A95E1F765E170E0CE0101960E9405
:10379000B91665960FB6F894DEBF0FBECDBFDF91A8
:1037A000CF910895CF93DF93CDB7DEB72D970FB6A6
:1037B000F894DEBF0FBECDBF81E089838AE090E040
:1037C0009B838A83EFEEF4E0DE01149601900D9264
:1037D0008A95E1F76DE070E0CE0101960E94B9167E
:1037E0002D960FB6F894DEBF0FBECDBFDF91CF91FF
:1037F0000895CF93DF9300D0CDB7DEB719826A83E7
:1038000062E070E0CE0101960E94B9160F900F9011
:10381000DF91CF910895CF93DF9300D0CDB7DEB77E
:1038200061E070E0CE0102960E9463166091080389
:10383000709109038A8190E00E949F140F900F906D
:10384000DF91CF910895CF93DF9300D01F92CDB732
:10385000DEB762E070E0CE0102960E9463168091AE
:10386000080390910903DC01ED91FC910280F38142
:10387000E02D40E050E062E070E009956A817B81D4
:1038800080E090E00E94E018809108039091090385
:10389000DC01ED91FC910280F381E02D40E050E0ED
:1038A00069E070E009956A817B817695679580E093
:1038B00090E00E94E0188091080390910903DC01D8
:1038C000ED91FC910480F581E02D64E070E00995B4
:1038D0006A817B8180E090E00E94E018809108037B
:1038E00090910903DC01ED91FC910280F381E02DC0
:1038F00040E050E069E070E009956A817B8176954F
:10390000679580E090E00E94E01880910803909114
:103910000903DC01ED91FC910480F581E02D63E069
:1039200070E009956A817B8180E090E00E94E01858
:103930008091080390910903DC01ED91FC910280D4
:10394000F381E02D40E050E069E070E009956A8184
:103950007B817695679580E090E00E94E0188091E9
:10396000080390910903DC01ED91FC910280F38141
:10397000E02D40E050E068E070E0099564E670E01A
:1039800080E090E00E94E0180F900F900F90DF9180
:10399000CF9108956F927F928F92CF92DF92EF92A4
:1039A000FF920F931F93CF93DF93CDB7DEB7A69708
:1039B0000FB6F894DEBF0FBECDBF68EE73E080E0B7
:1039C00090E00E94E01861E070E0CE0102960E9453
:1039D00063167E0183E0E80EF11C670100E010E051
:1039E0002A8130E0021713072CF0E9EFF4E080E0C1
:1039F00090E01AC00C301105C1F363E070E0C6011D
:103A00000E9463160F5F1F4FA3E0CA0ED11CE8CFC0
:103A10008C30910561F0D7016D907D908D907D0186
:103A200061927192819201968217930789F7A69607
:103A30000FB6F894DEBF0FBECDBFDF91CF911F91BF
:103A40000F91FF90EF90DF90CF908F907F906F90CD
:103A500008958EED94E00E94442880910A0390918D
:103A60000B03DC01ED91FC916091EE0470E00284A7
:103A7000F385E02D09956EED74E080910C03909133
:103A80000D030E94DB0B68EC70E080E090E00E9488
:103A9000E01880910C0390910D03DC01ED91FC91F5
:103AA0000484F585E02D09948F929F92AF92BF9286
:103AB000CF92DF92EF92FF920F931F93CF93DF93FA
:103AC000CDB7DEB72C970FB6F894DEBF0FBECDBFD3
:103AD0006BE070E0CE0102960E94631660910C03C9
:103AE00070910D038E010C5F1F4F9E012E5F3F4FA3
:103AF000AE01465F5F4F80910803909109030E94D9
:103B0000F90B0E94B0114B015C01298530E0A8EE51
:103B1000B3E00E9447316B017C010E94B011AB0100
:103B2000BC01481959096A097B0980910C039091DD
:103B30000D034C155D056E057F0550F4DC01ED911C
:103B4000FC91688570E00084F185E02D0995E5CF52
:103B5000AE014A5F5F4FBC01809108039091090359
:103B60000E949B0B80910C0390910D03DC01ED9161
:103B7000FC910484F585E02D09952C960FB6F894F8
:103B8000DEBF0FBECDBFDF91CF911F910F91FF9090
:103B9000EF90DF90CF90BF90AF909F908F9008955F
:103BA00085EE92E00C9402140F931F93CF93DF9352
:103BB00000D01F92CDB7DEB78C0181EA93E00E945E
:103BC000C610181619060CF0C4C081EA93E00E94D2
:103BD000A410082E000C990BAA0BBB0B8E3191057B
:103BE00008F0B7C0FC01E45BFF4F0C941433D8011C
:103BF000ED91FC910684F785E02DA9C0D801ED91E7
:103C0000FC91048CF58DE02DA2C0D801ED91FC91C2
:103C1000068CF78DE02D9BC0D801ED91FC9100A0A2
:103C2000F1A1E02D94C0D801ED91FC9102A0F3A187
:103C3000E02D8DC0D801ED91FC9104A0F5A1E02DFF
:103C400086C0D801ED91FC9106A0F7A1E02D7FC0C0
:103C5000D801ED91FC910484F585E02D78C084E0D5
:103C6000898381E08A8385E006C085E08983F80145
:103C700085818A8386818B8363E070E0CE01019623
:103C80000E94B91666C0D801ED91FC910288F389B3
:103C9000E02D5DC0D801ED91FC91008CF18DE02DFF
:103CA00056C0D801ED91FC910488F589E02D4FC0F4
:103CB000D801ED91FC910688F789E02D48C00E945B
:103CC0006D1547C0D801ED91FC9100A4F1A5E02D40
:103CD0003EC0D801ED91FC91028CF38DE02D37C0F0
:103CE000D801ED91FC9102A4F3A5E02D30C0D801DC
:103CF000ED91FC9104A4F5A5E02D29C0D801ED912A
:103D0000FC9106A4F7A5E02D22C0D801ED91FC910D
:103D100000A8F1A9E02D1BC0D801ED91FC9102A8EB
:103D2000F3A9E02D14C0D801ED91FC9104A8F5A9E8
:103D3000E02D0DC0D801ED91FC9106A8F7A9E02D6A
:103D400006C0D801ED91FC9100ACF1ADE02DC801A9
:103D500009950F900F900F90DF91CF911F910F91C8
:103D60000895FC01128221E0238381EA93E00C9400
:103D700044110C94CA2E4091DB05262F30E0240F0D
:103D8000311D21323105DCF420917C032430C9F44B
:103D9000FC0180E090E0861758F43091DB0521911A
:103DA000DC01A554BA4FA30FB11D2C930196F3CF9C
:103DB0008091DB05680F6093DB0580E0089581E06A
:103DC000089582E008950895CF93DF93EC01E88190
:103DD000F9810488F589E02D0995FC019389292F43
:103DE00030E0F901EE0FFF1F2E0F3F1FFE01E20F23
:103DF000F31F638D748D858DDF91CF910895CF93DF
:103E0000DF93EC01E881F9810488F589E02D0995BB
:103E1000FC019289292F30E0F901EE0FFF1F2E0FD0
:103E20003F1FFE01E20FF31F638D748D858DDF91BF
:103E3000CF910895FC0145A356A367A370A70895E9
:103E4000FC016387448725870895FC0174A363A35D
:103E50000895FC0172A361A30895FC01228D338DA6
:103E600037FF03C0319521953109868D978D97FFD6
:103E700003C0919581959109281739070CF49C018D
:103E8000848D958D97FF03C0919581959109A481AB
:103E9000B58114964D915C91159724173507D0F094
:103EA00082179307B8F41382128212968D919C9117
:103EB00013972817390720F081E090E093838283DD
:103EC0008D919C912817390778F082E090E09383D8
:103ED00082830AC018962D913C91199728173907AB
:103EE00028F481E082A702C081E0089580E008956F
:103EF000FC0182A50895FC0181A50895FC0180A51F
:103F00000895FC01828193810895209106033091E8
:103F100007032817390781F4909104038091050362
:103F2000981751F0E0910403F0E0E558FA4F8081D2
:103F3000082E000C990B08958FEF9FEF08952091A4
:103F40000603309107032817390739F48FB7F8941F
:103F500010920503109204038FBF0895FC01848D15
:103F6000958D009729F421E030E033832283089572
:103F7000A189B2892089522F50957FB7F8943C913E
:103F800035233C93FC013197F1F738E04C9160FF09
:103F900002C0422B01C045234C93FC013197F1F73D
:103FA0006695315099F73C91232B2C937FBF019755
:103FB000F1F781E090E00895209106033091070326
:103FC0002817390771F4809105032091040390E0CC
:103FD000805C9F4F821B910960E470E00E94003377
:103FE000089580E090E00895209106033091070342
:103FF00028173907B9F490910403809105039817A5
:1040000089F0E0910403F0E0E558FA4F80812091B7
:10401000040330E02F5F3F4F2F73332720930403B7
:1040200090E008958FEF9FEF08958F929F92AF9247
:10403000BF92CF92DF92EF92FF920F931F93CF9395
:10404000DF93EC016A012E813F8123503109032E59
:10405000000C440B550B63E070E080E090E00E94A0
:1040600086125B010E94B02F23E030E040E050E078
:104070000E94F330DC01CB010296A11DB11D4C0161
:10408000E12CF12C8E819F81E816F906BCF4EA142C
:10409000FB0451F484012D854C856B85CE010E9473
:1040A000B513E80CF91CEECF2A8549856885CE0149
:1040B0000E9492138FEFE81AF80AE4CFCE010E9413
:1040C0008D13B60180E090E0DF91CF911F910F91A9
:1040D000FF90EF90DF90CF90BF90AF909F908F9028
:1040E0000C94E0182F923F924F925F926F927F92C2
:1040F0008F929F92AF92BF92CF92DF92EF92FF92F8
:104100000F931F93CF93DF93CDB7DEB728970FB6EA
:10411000F894DEBF0FBECDBF98878F836A017B0105
:104120004801590120E030E048EC52E4C701B601F3
:104130000E946B32181634F4C12CD12C38ECE32ECB
:1041400032E4F32E0E94B011EF81F88500891189C5
:1041500022893389DC01CB01801B910BA20BB30BAD
:1041600088169906AA06BB0690F50E94B011EF8149
:10417000F885608B718B828B938B2DEC3CEC4CE43F
:104180005DE364897589868997890E9457312B017F
:104190003C01EF81F885648B758B868B978B858CC2
:1041A000968CA78CB0A0A5019401C501B4010E9412
:1041B00057319B01AC01C301B2010E946B3218164A
:1041C00034F4EF81F885848A958AA68AB78AEF81CC
:1041D000F88564897589868997890E9470324B01B8
:1041E0005C01A701960160E070E080E89FE30E9417
:1041F00056319B01AC01C501B4010E941F302B0157
:104200003C01EF81F885608570E080E090E00E94DD
:10421000BE2F6B017C019B01AC01C301B2010E9466
:104220001F309B01AC01C701B6010E9457316B01E1
:104230007C01EF81F885618570E080E090E00E946C
:10424000BE2F4B015C019B01AC01C301B2010E9476
:104250001F309B01AC01C501B4010E9457314B01D5
:104260005C01EF81F885628570E080E090E00E945B
:10427000BE2F69837A838B839C839B01AC01C3012E
:10428000B2010E941F309B01AC0169817A818B8150
:104290009C810E9457312B013C0120E030E04FE728
:1042A00053E4C701B6010E946B32181634F4C12CD6
:1042B000D12C2FE7E22E23E4F22E20E030E04FE76E
:1042C00053E4C501B4010E946B32181634F4812CFA
:1042D000912C9FE7A92E93E4B92E20E030E04FE720
:1042E00053E4C301B2010E946B32181634F4412C1E
:1042F000512C8FE7682E83E4782E212C312CEF810E
:10430000F8858681978182159305D4F0C301B201A7
:104310000E943C32262FC501B4012E830E943C32FC
:10432000462FC701B6014D830E943C322E814D813C
:104330008F8198850E949213FFEF2F1A3F0ADFCFDB
:10434000048115810219130920E040E060E0CF01EB
:104350000E94B5138F81988528960FB6F894DEBF1A
:104360000FBECDBFDF91CF911F910F91FF90EF90C6
:10437000DF90CF90BF90AF909F908F907F906F9085
:104380005F904F903F902F900C948D130C94CA2EF9
:104390000C94CA2ECF93DF931F92CDB7DEB7FC01EA
:1043A00083A591E090937D0380939F0310927E03F9
:1043B0001092A0038EE394E049830E943F26498136
:1043C000642F8EE394E00E943F2681E00F90DF91FE
:1043D000CF910C94C51440E26BE60C94CA21CF92A5
:1043E000DF92EF92FF920F931F93CF93DF93EC0135
:1043F0000E94B0116B017C018E899F89A88DB98DB7
:10440000A7019601281B390B4A0B5B0B25303105A0
:104410004105510508F402C18BA511E010937D03FD
:1044200080939F0310927E031092A0036BE38EE3B0
:1044300094E00E943F2680E00E94C51441E06EE0B7
:104440008BA50E9422158AE0FE017096DE01169669
:1044500001900D928A95E1F78EE394E00E94E824A2
:10446000082F8EE394E00E94E82420E030E0302F13
:10447000822B932B998B888B8EE394E00E94E82407
:10448000082F8EE394E00E94E82420E030E0302FF3
:10449000822B932B9B8B8A8B8EE394E00E94E824E3
:1044A000082F8EE394E00E94E82420E030E0302FD3
:1044B000822B932B9D8B8C8B8EE394E00E94E824BF
:1044C0008EE394E00E94E8248EE394E00E94E824C6
:1044D000082F8EE394E00E94E82420E030E0302FA3
:1044E000822B932B9B8F8A8F8EE394E00E94E8248B
:1044F000082F8EE394E00E94E82420E030E0302F83
:10450000822B932B9D8F8C8F8EE394E00E94E82466
:10451000082F8EE394E00E94E8242889398946E038
:10452000359527954A95E1F7398B288B2A893B8960
:1045300056E0359527955A95E1F73B8B2A8B2C89C8
:104540003D8966E0359527956A95E1F73D8B2C8B83
:104550002A8D3B8D76E0359527957A95E1F73B8F4F
:104560002A8F2C8D3D8DE6E035952795EA95E1F76C
:104570003D8F2C8F20E030E0302F822B932BF6E004
:1045800095958795FA95E1F79F8F8E8FCE8ADF8A72
:10459000E88EF98EC8A2D9A2EAA2FBA28BA510933D
:1045A0007D0380939F0310927E031092A0036AE321
:1045B0008EE394E00E943F2680E00E94C51441E013
:1045C00061E08BA50E9422158EE394E00E94E8240E
:1045D00096958795880F91E0803409F090E099A72F
:1045E00091111CC08CA19DA1AEA1BFA1A7019601F4
:1045F000281B390B4A0B5B0B253031054105510552
:1046000068F0CCA2DDA2EEA2FFA21AA6E881F98191
:104610000488F589E02DCE01099588A7DF91CF9117
:104620001F910F91FF90EF90DF90CF900895CF935F
:10463000DF93EC018DA5811127C0109235031092F4
:10464000340310927E031092A00310927C0381E049
:1046500080937B031092560361E082E10E947418FC
:1046600061E083E10E9474188091B9008E7F80938D
:10467000B9008091B9008D7F8093B90088E4809360
:10468000B80085E48093BC0040E06BE6CE010E9458
:10469000CA2140E16BE1CE010E94CA2140E06CE1F9
:1046A000CE010E94CA2140E268E3CE010E94CA21E5
:1046B000EC81FD8146816FE1CE010E94CA2142E07A
:1046C00060E2CE010E94CA2181E08DA7DF91CF91E7
:1046D0000895CF93DF93EC010E94A423CE01DF91D4
:1046E000CF910C94CA2E089588E067FF16C02D9ACA
:1046F00000000000000000000000000000000000BA
:1047000000000000000000002D98000000000000E4
:10471000000000000000000012C02D9A0000000000
:10472000000000002D9800000000000000000000C4
:104730000000000000000000000000000000660F04
:10474000815099F60895089526E231E0FC01318305
:104750002083E0910603F0910703E817F90759F465
:10476000A389B4899C918589809589238C93109223
:104770000703109206030895FC0165A30895FC0148
:1047800083A194A10D960895EF92FF920F931F932A
:10479000CF938B01FC01A3A1B4A1EC91EE2EF12CDF
:1047A0006C30710508F075C09B012C583F4FF90122
:1047B0000C94143311962C914FC01C962C91B70178
:1047C000620F711D9B0163C012962C911297F70125
:1047D000E20FF11D9F011F966C914CC016962C9113
:1047E0001697B701620F711D9B0152966C9142C0E2
:1047F00015962C911597F701E20FF11D9F01519627
:104800006C9138C018962C911897B701620F711DE2
:104810009B0154966C912EC017962C911797F70117
:10482000E20FF11D9F0153966C9124C019962C91B3
:104830001997B701620F711D9B0155966C911AC0B3
:1048400013962C911397F701E20FF11D9F015096DB
:104850006C9110C014962C91A701420F511D9A0122
:1048600016C01A962C911A97B701620F711D9B0101
:1048700056966C9170E06417750768F006C01B9639
:104880002C91D701A20FB11D9D01240F351FC1E04E
:1048900003C09701FCCFC0E0B9016E0D7F1D013050
:1048A0001105C9F00B301105B1F0FC0136A125A1AD
:1048B000329F600D711D1124CC23B1F00930110518
:1048C00019F00630110549F4DC01ED91FC910688E0
:1048D000F789E02D08C0CC2339F0DC01ED91FC9183
:1048E0000488F589E02D09958C2FCF911F910F91A8
:1048F000FF90EF900895DC018D919D91BD01DC0149
:10490000ED91FC910280F381E02D4AE050E00994A2
:10491000EF92FF920F931F93CF93DF93EC018B01E4
:104920007C0182E0E80EF11CAB01552766E0C7016F
:104930000E94BF16C7010E947B240FA3DF91CF9175
:104940001F910F91FF90EF900895FC018EE78283F5
:104950008FEF838386E0848386E18583808D8683E1
:1049600017821086118612868FEE8387DF011396D9
:104970009F01275F3F4F80E090E04D91840F911D94
:10498000A217B307D1F791958195910991878287F5
:10499000CF010C947B2402960C94A52480E008950A
:1049A00082E090E0089582E090E0089580E008952C
:1049B0000895E091350380913403E81730F4F0E076
:1049C000EA5CFC4F808190E008958FEF9FEF08959F
:1049D0009091350380913403981750F4E92FF0E05B
:1049E000EA5CFC4F208130E09F5F9093350302C06A
:1049F0002FEF3FEFC90108958091340390E020919B
:104A00003503821B91090895089580E090E0089590
:104A100085ED8093BC008091BC0084FDFCCF10929A
:104A20007C030895CF93DF93FC0120A131A11216DE
:104A300013064CF4C2A1D0E0822F0E944B1821E053
:104A4000C817D90709F020E0822FDF91CF91089590
:104A50000F931F93CF93DF93EC018B016C307105A3
:104A6000E0F5FB01E058FF4F0C941433EBA1FCA1DF
:104A7000258530E040E050E02AC0EBA1FCA122896E
:104A80001FC0EBA1FCA121891BC0EBA1FCA12489C3
:104A900017C0EBA1FCA1238913C0EBA1FCA12589C0
:104AA0000FC0EBA1FCA120890BC0EBA1FCA12685C6
:104AB00007C0EBA1FCA1268903C0EBA1FCA12789BB
:104AC00030E021503109032E000C440B550B60E0FF
:104AD00070E0CB010E94861201C060E0E881F9819C
:104AE000462F50E00280F381E02DB801CE01DF9126
:104AF000CF911F910F910994CF92DF92EF92FF9285
:104B00000F931F93CF93DF93EC018B010E94B011A1
:104B1000C8A4D9A4EAA4FBA4DC01CB018C199D098B
:104B2000AE09BF0984369105A105B10538F461E0ED
:104B300070E080E090E00E94E018E8CF0E94B011A1
:104B400068A779A78AA79BA77E0182E0E80EF11CDF
:104B5000A80168E0C7010E94BF16C7010E947B241C
:104B60000E94B01168A779A78AA79BA7DF91CF9170
:104B70001F910F91FF90EF90DF90CF900895CF920B
:104B8000DF92EF92FF920F931F93CF93DF93EC018D
:104B90008B010E94B011C8A4D9A4EAA4FBA4DC0133
:104BA000CB018C199D09AE09BF0984369105A10579
:104BB000B10538F461E070E080E090E00E94E01818
:104BC000E8CF0E94B01168A779A78AA79BA7229671
:104BD000A80163E0CE010E94BF16CE01DF91CF9104
:104BE0001F910F91FF90EF90DF90CF900C947B245A
:104BF000CF93DF93EC0188A199A11816190664F4EC
:104C000060E00E94A4188AA1811106C061E088A119
:104C1000DF91CF910C947418DF91CF910895CF92CA
:104C2000DF92EF92FF920F931F93CF93DF937C015C
:104C3000262F972F8A0180917D03882391F0C62F1C
:104C4000D72F6E01C40ED51ECC15DD0571F069910C
:104C5000D701ED91FC910190F081E02DC7010995FC
:104C6000F3CF642F822F0E94BB1EC801DF91CF912A
:104C70001F910F91FF90EF90DF90CF900895CF9309
:104C8000DF931F92CDB7DEB7698320917D03222386
:104C9000D1F02091A003203240F021E030E0FC016F
:104CA0003383228380E090E015C080917E03E82F5B
:104CB000F0E0E158FC4F998190838F5F80937E03F1
:104CC0008093A00305C061E0CE0101960E94BB1E47
:104CD00081E090E00F90DF91CF9108951F920F92A5
:104CE0000FB60F9211242F933F934F935F936F93BF
:104CF0007F938F939F93AF93BF93CF93DF93EF9364
:104D0000FF93E0910603F0910703309709F452C036
:104D1000968DA685B785858591FF04C09C918923D2
:104D200029F448C09C91892309F044C0A389B4891F
:104D30009C918589809589238C9386899789019791
:104D4000F1F7608D718DC685D785558598E080E037
:104D5000DB011197F1F7282F30E035952795822F49
:104D60004881452309F08068915091F7282F868D5E
:104D700081FD20958091050390E001968F7399271E
:104D800030910403381749F0A0910503B0E0A5580D
:104D9000BA4F2C938093050303C0868D8160868F64
:104DA000828D938D0197F1F7A389B4899C918589B0
:104DB000892B8C93FF91EF91DF91CF91BF91AF91B0
:104DC0009F918F917F916F915F914F913F912F9123
:104DD0000F900FBE0F901F901895CF93DF93EC01AB
:104DE000FC018CE391E081939193CF010E94A52473
:104DF0008A819B81009749F0DC01ED91FC9100884C
:104E0000F189E02DDF91CF910994DF91CF91089541
:104E1000CF93DF93EC010E94ED26CE01DF91CF917D
:104E20000C94CA2E1F920F920FB60F9211242F933B
:104E30003F934F935F936F937F938F939F93AF9322
:104E4000BF93EF93FF938091B900887F803609F478
:104E50009CC068F5883209F45BC090F4803109F495
:104E600054C038F4882309F4F6C0883009F44DC0E2
:104E7000F6C0883109F44CC0803209F45DC0EFC03F
:104E8000803409F468C048F4803309F455C088338D
:104E900009F0E5C080937A03D8C0803509F44FC08B
:104EA000883509F45DC0883409F0D9C0D6C0883986
:104EB00009F4C7C0A8F4883709F467C038F4883605
:104EC00009F463C0803709F460C0C9C0883809F4A8
:104ED000B8C0803909F45FC0803809F0C0C05BC039
:104EE000803B09F486C038F4803A09F466C0883AF9
:104EF00009F47FC0B4C0803C09F4A7C0883C09F421
:104F0000A4C0883B09F48AC0AAC08091570310C08E
:104F10009091790380917803981770F5E091790367
:104F200081E08E0F80937903F0E0E85AFC4F808196
:104F30008093BB0085EC86C080937A038EC0E0919D
:104F4000790381E08E0F809379038091BB00F0E0BC
:104F5000E85AFC4F808390917903809178036EC06A
:104F6000E091790381E08E0F809379038091BB00FB
:104F7000F0E0E85AFC4F808380917B0381116DC083
:104F800081E08093560384EA61C083E080937C03D0
:104F900010920106CFCF80910106803208F051C0F7
:104FA000E091010681E08E0F809301068091BB00A5
:104FB000F0E0EF51FA4F8083BDCF85EC8093BC00C9
:104FC00010927C0380910106803230F4E09101065A
:104FD000F0E0EF51FA4F10826091010670E0E0912D
:104FE000DF05F091E00581EE95E00995109201064C
:104FF00036C084E080937C031092DE051092DB05BE
:10500000E091DC05F091DD0509958091DB058111CA
:1050100005C081E08093DB051092BB05E091DE05C1
:1050200081E08E0F8093DE05F0E0E554FA4F808139
:105030008093BB009091DE058091DB05981708F402
:1050400079CF85E88093BC000AC085EC8093BC00D2
:1050500010927C0304C010927A030E940825FF91ED
:10506000EF91BF91AF919F918F917F916F915F91E0
:105070004F913F912F910F900FBE0F901F90189559
:105080000C94CA2E0C94CA2E0F931F93CF93DF93C8
:105090008C010E5F1F4FC0E0D0E0CE010E94DD30DA
:1050A000F80161918F01861719F0CE010E94E53059
:1050B0002196C039D10589F780E990E0DF91CF9141
:1050C0001F910F91089508950895789484B5826092
:1050D00084BD84B5816084BD85B5826085BD85B59C
:1050E000816085BD80916E00816080936E0010921A
:1050F0008100809181008260809381008091810095
:105100008160809381008091800081608093800025
:105110008091B10084608093B1008091B000816083
:105120008093B00080917A00846080937A008091AF
:105130007A00826080937A0080917A008160809307
:105140007A0080917A00806880937A001092C10082
:10515000A8950FB6F894A895809160008861809317
:105160006000109260000FBE64E670E080E090E0A6
:105170000E94E01888E794E090930D0380930C035D
:1051800086E794E090930B0380930A03E091B103C8
:10519000F091B20382E08083E091AD03F091AE0321
:1051A0001082E091AF03F091B0038FEC80831092F6
:1051B000B903E091B503F091B60386E08083E091F6
:1051C000B303F091B403808180618083E091B303E5
:1051D000F091B403808188608083E091B303F09103
:1051E000B403808180688083E091B303F091B403BD
:1051F00080818F7D808361E080E10E94A41861E05E
:105200008FE00E94A418C0E0D0E0CE010E94DD3003
:10521000FE01E252FB4F82832196C039D105A9F7E6
:1052200021E08091E1049091E2048039910509F038
:1052300020E081E09091E0049A3A09F080E0822336
:1052400021E090911D05933008F020E0822391E049
:105250002091E404223008F090E0982381E020912E
:105260006F05253509F080E0892329F08091E3045A
:1052700085508A3150F086EB92E00E9402140E9421
:105280006D158EED94E00E944428FF24F394F09273
:105290001D03F0921E03F0921F03F092200388E09A
:1052A0008093210380932203F092230384E0809370
:1052B000240310922503F092260386E180932703AE
:1052C000F0921B038BE080931C031092100387E184
:1052D0008093110388E18093120389E18093160380
:1052E00081E28093150389E2809317038AE2809319
:1052F00018038EE2809314038FE28093130380E3FC
:1053000080931A038CE290E00E94352E8C018CE38E
:1053100091E0F80191838083F08E128E118E138EAE
:105320001382128287E090E0958F848F88E090E06E
:10533000978F868FF2A28FEF9FEF91A380A315A284
:1053400080E193E094A383A38FE190E00E94352E47
:10535000EC011B821A8288EE93E0A0E0B0E08C831F
:105360009D83AE83BF8386E291E0998388831F8A01
:105370001E8A198E188E1B8E1A8E1D8E1C8E6E8D97
:105380006E7F6D7F6E8F669561706F2588E00E94DD
:10539000741861E088E00E94A418E0E7F1E0E4916D
:1053A000E88BECE5F1E0E491F0E0EE0FFF1FE05C4C
:1053B000FE4F859194919A8B898B60E087E00E94E3
:1053C000A4188E8D81FD04C061E087E00E947418EE
:1053D00087E08C87EFE6F1E0E491ED87EBE5F1E023
:1053E000E491F0E0EE0FFF1FE65BFE4F8591949194
:1053F0009F878E87F801D383C28381EA91E09D8FD6
:105400008C8F2DEB30E03F8B2E8B2BE931E0398FE9
:10541000288F2CE231E03B8F2A8F20916800246096
:10542000209368002DE630E03C8B2B8B20E82D8B01
:105430000197F1F78A8D9B8D892B09F1E091060385
:10544000F0910703EC17FD07D1F0309739F0A389ED
:10545000B4899C918589809589238C938E8D8E7FCC
:105460008E8F1092050310920403D0930703C0930C
:105470000603EB89FC8990818D89892B808390912B
:105480001E0380911D03890F90911F03890F909136
:105490002003890F90912103890F90912203890F96
:1054A00090912303890F90912403890F90912503F4
:1054B000890F90912603890FF80186A38EE18093CE
:1054C000280387A310A611A612A613A610930903FA
:1054D0000093080380E1809306018FE0809305012B
:1054E0008EE08093040187E08093080188E0809338
:1054F00007018DE08093090180916B0080618093AA
:105500006B00D89A809168008160809368008AE07F
:1055100090E00E94352EFC0188E591E09183808324
:1055200012821482108617821186F0930F03E09383
:105530000E0381E0858385E086830E94241480E247
:1055400090E00E94352EFC01138212821582148293
:105550001682178210861186128682EA91E0918364
:1055600080831486138680E795E096878587178663
:10557000108A118A128A138A148A158A168A178A3F
:10558000108E118E128E138E148E168E158E178E0F
:10559000F0932A03E0932903CF010E94FD09E091D3
:1055A0002903F0912A0380910E0390910F039487B1
:1055B0008387C1E0A0912903B0912A0312968D91AF
:1055C0009C91139714962D913C91159728173907A4
:1055D00021F01696CC93169703C016961C92169738
:1055E00015969C938E931497ED91FC9111970680DC
:1055F000F781E02DCD0109950E946611DBCFE1EA2C
:10560000F3E01382128288EE93E0A0E0B0E084839E
:105610009583A683B7832EEA31E03183208325EC7E
:1056200030E03587248724EC30E03787268720EC6C
:1056300030E0318B208B21EC30E0338B228B22EC5D
:1056400030E0358B248B26EC30E0378B268B118EA7
:10565000128E138E148EEEE3F4E013821282848392
:105660009583A683B78380EC91E091838083E0E704
:10567000F5E08EE892E0918380838EE090E0938362
:1056800082831582148216821782108611861286F2
:1056900084E792E09093DF048093DE04E0EBF4E093
:1056A00084E492E09183808388E690E094A783A7C6
:1056B00086EA94E09583848311A610A612A613822D
:1056C000128214A215A216A217A215A6E6E7F4E00C
:1056D00088E092E0918380838EE292E093838283DC
:1056E00088E790E0958384831782168283EC95EF98
:1056F000A8E4B0E4858F968FA78FB0A325EA34E0A5
:1057000037872687108A118A128A138A848B958B91
:10571000A68BB78B118E108E81E0828F12A211A200
:1057200014A213A2148E138E89E190E0A0E0B0E0E1
:1057300085A396A3A7A3B0A783E090E092A781A733
:1057400085E090E094A783A786E090E096A785A7E0
:10575000E3E6F4E080E092E0918380832CE030E0A7
:105760003383228314821582168217821086118653
:10577000128613861486158616861786108A118A55
:10578000128AE0E5F4E09183808384E090E09383E3
:1057900082831482158216821782108611861286E1
:1057A00013861486158616861786108A118A128A21
:1057B000EAE4F4E088EF91E0918380838AEA9AE05A
:1057C0009583848382E79AE0938382830895089582
:1057D00063E070E08AE090E0089563E070E08AE0C2
:1057E00090E00895DC01ED91FC91119758966D9130
:1057F0007C9159970688F789E02D099402970C94BB
:10580000F22BFC0142305105A1F03CF44115510549
:1058100061F04130510559F008954430510569F067
:1058200054F04530510559F0089560870895618717
:10583000089562870895638708956487089565874A
:10584000089502970C94012C4F925F926F927F9271
:105850008F929F92AF92BF92CF92DF92EF92FF9280
:105860000F931F93CF93DF9300D000D0CDB7DEB757
:105870008C017B01DC0114966D917C911597072EAC
:10588000000C880B990B0E94C02F4B015C01B701E3
:10589000FF0C880B990B0E94C02F9B01AC01C50126
:1058A000B4010E94C33169837A838B839C830E94F5
:1058B000B0114B015C01F801868197810190F08164
:1058C000E02D181619060CF04BC0D80193966D9177
:1058D0007C9194970688F789E02DC80109950E946C
:1058E000B0116B017C01F80164817581072E000CF9
:1058F000880B990B0E94C02F20E030E040E85FE366
:105900000E9456312B013C01C701B6016819790983
:105910008A099B090E94BE2F29813A814B815C81B3
:105920000E941F309B01AC01C301B2010E9456319D
:1059300020E030E040E05FE30E9457310E943532C2
:10594000D80117967C936E93169716968D919C911D
:10595000179797FFB0CF17961C921E921697ABCF52
:10596000048CF58DE02DC801099581E00F900F9012
:105970000F900F90DF91CF911F910F91FF90EF90BB
:10598000DF90CF90BF90AF909F908F907F906F905F
:105990005F904F90089502970C94242C0F931F93BF
:1059A000CF93DF93EC0161E00E946B138C819D81AA
:1059B00001979F838E8300E010E08C819D81081702
:1059C00019074CF42A8549856885CE010E949213F7
:1059D0000F5F1F4FF2CFCE01DF91CF911F910F913B
:1059E0000C948D1302970C94CE2C0F931F93CF938E
:1059F000DF93EC011F821E820C811D8120E040E0BC
:105A000060E00E94B513CE010E948D1360E0CE01CC
:105A1000DF91CF911F910F910C946B1302970C940F
:105A2000F52C8F929F92AF92BF92CF92DF92EF921E
:105A3000FF92CF93DF93EC017B0161E00E946B1337
:105A40006C817D81072E000C880B990B0E94C02F62
:105A50004B015C01B701FF0C880B990B0E94C02F12
:105A60009B01AC01C501B4010E94C3316B017C01F3
:105A70000E94B0114B015C012E813F818C819D8180
:105A800001972817390754F5E881F98169A17AA1AE
:105A90000688F789E02DCE0109950E94B01168199A
:105AA00079098A099B090E94BE2FA70196010E94CD
:105AB0001F3020E030E040E05FE30E9457310E9459
:105AC00035327F836E838C819D812E813F812817A3
:105AD000390794F201979F838E83CECF81E0DF91C7
