:100000000C94C0000C94AD0C0C94860C0C9417212D
:100010000C9417210C9417210C94E8000C94E80020
:100020000C94E8000C94E8000C94E8000C94E800B0
:100030000C94E8000C94E8000C94E8000C94E800A0
:100040000C94FF0B0C94E8000C94FA0C0C94D40C58
:100050000C94E8000C94E8000C94E8000C94E80080
:100060000C948E190C94E800270157018801C201F5
:10007000F7010702190258027202870321043E04A5
:1000800066042C057F096005D71105129F126513C0
:10009000E21326146A149314F61BF91B001C0A1CA5
:1000A000141C1E1C281C321C3C1C461C4D1C5B1CBA
:1000B0004B2082206620522056205A205E2062204B
:1000C00066206A206E2072207D2784278B27922746
:1000D0009927A027A727AE27B527BB272F28C927F1
:1000E000D027D727DE272F282F28E527E827EF2737
:1000F0002F282F28F627FD2704280B281228192837
:100100002028272805A84CCDB2D44EB93836A902EC
:100110000C50B9918688083CA6AAAA2ABE00000005
:10012000803F00000000240027002A00000000009B
:10013000250028002B0000000000230026002900D5
:10014000040404040404040402020202020203037D
:100150000303030301020408102040800102040885
:100160001020010204081020000000080002010015
:100170000003040700000000000000002C2B282BC7
:1001800011241FBECFEFD8E0DEBFCDBF12E0A0E04C
:10019000B1E0E6E0F2E602C005900D92A03FB107A3
:1001A000D9F725E0A0EFB2E001C01D92A93CB2074B
:1001B000E1F710E0CFEBD0E004C02197FE010E94F0
:1001C000D730CE3BD107C9F70E949D280C94F6305A
:1001D0000C9400008F929F92AF92BF92CF92DF92C9
:1001E000EF92FF920F931F93CF93DF93CDB7DEB7BC
:1001F0002C970FB6F894DEBF0FBECDBF6C0185E122
:1002000095E00E94AD1E8CED94E00E94B61089EC42
:1002100094E00E94B610D6011D968D919C911E9778
:10022000DC01ED91FC910084F185E02D09951091A0
:100230004F05D6011296ED91FC911397E031F1052F
:1002400010F00C947F09EC5CFF4F0C94D73064EFF6
:1002500071E080E090E00E94390B8091F40290916F
:10026000F502DC01ED91FC910484F585E02D6091AF
:1002700082050995209152058091F4029091F50232
:10028000DC01ED91FC910280F381E02D40E050E033
:10029000222319F06AE070E002C061E070E0099585
:1002A00064E670E080E090E00E94390BD2C3F60172
:1002B00085859685DC01ED91FC910680F781E02D26
:1002C00063E070E00995F601138E4BE450E060E0C6
:1002D00070E08CED94E00E949B10882319F082E07E
:1002E00090E03CC78091E7049091E804A091E90474
:1002F000B091EA040097A105B10509F408C5893B4E
:100300009B4008F0F5C480913E0581110FC5FFC4E4
:100310000091820510E083E495E00E9461286983E2
:100320007A838B838BE1809F9001819F300D112414
:1003300089010B571A4F2D573A4F6091F80270916F
:10034000F902AE014F5F5F4F8091F4029091F50288
:100350000E94631006E010E085E195E00E94AD1E6A
:1003600061E070E080E090E00E94390B01501109DB
:1003700099F742E350E060E070E08CED94E00E9479
:100380000E11EAC6D60116968C918823B1F063E46B
:1003900075E08091F8029091F9020E944510F601F3
:1003A00085859685DC01ED91FC910680F781E02D35
:1003B00062E070E00995F601178E8091E704909154
:1003C000E804A091E904B091EA040097A105B10501
:1003D00009F4E8C420914B0530914C05821793072E
:1003E00008F4E0C4883E934008F0E1C5DBC4809186
:1003F000F4029091F502DC01ED91FC910480F5810D
:10040000E02D63E070E0099585E090E073C4809191
:10041000E7049091E804A091E904B091EA04009700
:10042000A105B10509F4C6C5843C994008F0BFC5D3
:10043000C1C5D60116968C918823E1F00E94730BFA
:10044000F6016787708B818B928B8091F40290917B
:10045000F502DC01ED91FC910480F581E02D64E072
:1004600070E0099563E475E08091F8029091F902DB
:100470000E9427100E94730BF601078110852185C9
:100480003285DC01CB01801B910BA20BB30B8536AF
:100490009105A105B10508F432C763E475E08091C8
:1004A000F8029091F9020E94451087E090E056C64C
:1004B0008091E7049091E804A091E904B091EA04E6
:1004C0000097A105B10509F456C620914B0530915E
:1004D0004C058217930708F44EC6883E934008F0F7
:1004E00066C549C6F6018681882309F475C08091E6
:1004F000F4029091F502DC01ED91FC910280F38110
:10050000E02D40E050E066E070E00995F601848D52
:10051000882309F4BAC000E010E08BE1982E8CED3E
:1005200094E00E94B6108091E7049091E804A091B5
:10053000E904B091EA04892B8A2B8B2B29F458010A
:10054000FFEFAF1ABF0A02C0A12CB12C61E070E02E
:1005500080E090E00E94390B00918205909E80011E
:100560001124C8018D5B9A4FFC01EA5AFF4F20818C
:1005700030E03A8729873197808190E098878F8390
:1005800083E495E00E9446286C837D838E8383E418
:1005900095E00E94612869837A838B8398012656AF
:1005A0003A4F79018E01075F1F4F9E01295F3F4F30
:1005B000AE014C5F5F4FBE016F5F7F4F8091F802CD
:1005C0009091F9020E94450F85010F5F1F4F0A3F6E
:1005D00011050CF4A4CF59C0848D8823D9F08091E3
:1005E000E7049091E804A091E904B091EA04892B12
:1005F0008A2B8B2B09F0FCC58091D4049091D504F3
:10060000A091D604B091D704892B8A2B8B2B09F0AB
:10061000EFC53AC68091D4049091D504A091D60438
:10062000B091D704892B8A2B8B2B79F563E475E085
:100630008091F8029091F9020E9445108091F40295
:100640009091F502DC01ED91FC910280F381E02DA7
:1006500040E050E069E070E00995F601148E42E355
:1006600050E060E070E089EC94E00E940E1183E0BD
:1006700090E0D60113969C938E9312970E94730B71
:10068000F6016783708781879287D60112968D91D4
:100690009C911397089709F032C600918205BBE13F
:1006A0000B9F80011124C8018D5B9A4FFC01EA5A0F
:1006B000FF4F208130E03A8729873197808190E091
:1006C00098878F8383E495E00E9446286C837D831E
:1006D0008E8383E495E00E94612869837A838B830B
:1006E000F801E656FA4F7F018E01075F1F4F9E010A
:1006F000295F3F4FAE014C5F5F4FBE016F5F7F4F81
:100700008091F8029091F9020E94450FF8C5D60138
:1007100016968C918823F1F10E94730BF601678B7A
:10072000708F818F928F8091F4029091F502DC019D
:10073000ED91FC910480F581E02D65E070E0099574
:10074000E091F602F091F7020190F081E02D048132
:10075000158183E495E00E944628282F83E495E0E4
:100760002C870E944628472F83E495E04B870E9400
:1007700046282C854B858091F6029091F702F8016E
:10078000099563E475E08091F8029091F9020E9466
:1007900027104BC00E94730BD60117960D911D9127
:1007A0002D913C911A97AB01BC01401B510B620B80
:1007B000730BE09182051BE11E9FF0011124E757A6
:1007C000FA4F80819181A0E0B0E0481759076A078D
:1007D0007B0758F163E475E08091F8029091F9028B
:1007E0000E94451080913D05882309F479C50E9437
:1007F000730BF60187809084A184B284AB01BC01A5
:10080000481959096A097B09E09182051E9FF00188
:100810001124E557FA4F80819181A0E0B0E048179C
:1008200059076A077B0708F05BC580913E0588235E
:1008300009F465C5D6015B961C925B9786E090E053
:100840008EC440918205FBE14F9FA00111244957BE
:100850005A4F6091F8027091F9028091F4029091E0
:10086000F5020E94051042E350E060E070E08CED7C
:1008700094E00E940E1181E090E070C4D6011696BB
:100880008C91882391F06091F4027091F50281E0DF
:1008900090E020918205222311F080E090E00E94F8
:1008A0005C2283E495E00E947C2842E350E060E013
:1008B00070E08CED94E00E940E1142E350E060E0A5
:1008C00070E089EC94E00E940E11C3C0F6018681AD
:1008D0008823B1F08091F4029091F502DC01ED9152
:1008E000FC910280F381E02D4BE050E06BE070E082
:1008F000099568EE73E080E090E00E94390BFFC438
:100900008091E7049091E804A091E904B091EA0491
:100910008137E7E19E0718F08FE090E01FC4892B34
:100920008A2B8B2B09F0EBC48091E2048111E7C480
:10093000D6011D968D919C911E97DC01ED91FC9145
:100940000680F781E02D64E070E0099588E190E091
:100950000E94F82BFC018091F4029091F502209105
:10096000F8023091F90213821282158214821682E3
:10097000178210861186128649E151E05183408327
:1009800043E455E05487438736872587908B8787D4
:1009900085E195E0928B818B8CED94E0948B838B39
:1009A00089EC94E0968B858B178AD6015E96FC9332
:1009B000EE935D9711E0D6015D968D919C915E97C7
:1009C000DC01ED91FC910084F185E02D0995811108
:1009D0002EC0D6011D968D919C911E97DC01ED9144
:1009E000FC910084F185E02D0995F601A58DB68D69
:1009F00012968D919C91139714962D913C91159779
:100A00002817390721F016961C93169703C01696DF
:100A10001C92169715969C938E931497ED91FC91CA
:100A200011970680F781E02DCD010995C4CFF6011D
:100A3000858D968D009739F0DC01ED91FC91028057
:100A4000F381E02D09950E94E12185E195E00E9466
:100A5000D51F81E090E04EC185E195E00E94A91E7E
:100A6000E091C704F091C804309709F0099583B765
:100A7000817F8C6083BF83B7816083BF83B78160D0
:100A800083BF889583B78E7F83BF83B78E7F83BFF5
:100A9000E091C504F091C604309709F00995D6019C
:100AA000ED91FC910480F581E02DC601099546E9A0
:100AB00050E060E070E08CED94E00E940E1109C1FE
:100AC000F6018681882309F49FC085859685DC011F
:100AD000ED91FC910680F781E02D60E070E00995D2
:100AE000F60185859685DC01ED91FC910084F18508
:100AF000E02D09958091F4029091F502DC01ED91D1
:100B0000FC910280F381E02D44E150E06BE070E065
:100B100009958091F8029091F902DC01ED91FC9128
:100B20000680F781E02D40E050E060E40995809177
:100B3000F8029091F902DC01ED91FC910684F785B1
:100B4000E02D0995F60183859485DC01ED91FC91FA
:100B50000480F581E02D099544E650E060E070E006
:100B60008CED94E00E940E118091F8029091F902B0
:100B7000DC01ED91FC910484F585E02D099505E0FB
:100B800010E08091F8029091F902DC01ED91FC9166
:100B90000680F781E02D40E050E060E40995809107
:100BA000F8029091F902DC01ED91FC910684F78541
:100BB000E02D099564EF71E080E090E00E94390B30
:100BC0008091F8029091F902DC01ED91FC9104848E
:100BD000F585E02D099564EF71E080E090E00E94DA
:100BE000390B0150110969F68091F4029091F502D8
:100BF000DC01ED91FC910280F381E02D40E150E0B9
:100C00006BE070E009957BC38091E7049091E80464
:100C1000A091E904B091EA04892B8A2B8B2B09F46B
:100C20005CC005E010E08091F8029091F902DC01CF
:100C3000ED91FC910680F781E02D40E050E060E40A
:100C400009958091F8029091F902DC01ED91FC91F7
:100C50000684F785E02D09956AEF70E080E090E06A
:100C60000E94390B8091F8029091F902DC01ED911C
:100C7000FC910484F585E02D09956AEF70E080E031
:100C800090E00E94390B0150110969F642E350E0EF
:100C900060E070E08CED94E00E940E110E94E12172
:100CA00085E195E00E94D51F8091F4029091F502B4
:100CB000DC01ED91FC910280F381E02D41E150E0F7
:100CC0006BE070E0099568EE73E080E090E00E94D0
:100CD000390BF6011382128210C0F60183859485C8
:100CE000DC01ED91FC910680F781E02D099507C3A9
:100CF0008CE090E0F601938382830E94730BD6010F
:100D000017966D937D938D939C931A97F8C280915B
:100D1000D4049091D504A091D604B091D704009743
:100D2000A105B10531F0893E934018F08BE090E0C9
:100D3000E1CF0E94730BF60187809084A184B28476
:100D4000DC01CB0188199909AA09BB0981339547B0
:100D5000A105B10508F4D3C20E94730BD601179602
:100D60008D909D90AD90BC901A979B01AC01281975
:100D700039094A095B0949015A01212F30E0A0E6EF
:100D8000BAEE0E940A2F681579058A059B0508F0BE
:100D9000B6C280914F0581508E3F08F0B0C28DE001
:100DA00090E0DCC10E94730B40914A05D601179672
:100DB0000D911D912D913C911A974B015C01801A68
:100DC000910AA20AB30A242F30E0A8EEB3E00E94F1
:100DD0000A2F86169706A806B90628F04A3018F09A
:100DE0008AE090E087CF80913E058823D9F0D60134
:100DF0005B961C928091E7049091E804A091E9042D
:100E0000B091EA04892B8A2B8B2B09F4CCC18091F9
:100E10005105882309F4C7C181E0F601848F88E079
:100E200090E069CF4BE450E060E070E08CED94E03E
:100E30000E949B10882379F080915005882359F0F7
:100E4000F601938D81E08927838F882309F457C2A7
:100E500089E090E04FCF4BE450E060E070E089EC37
:100E600094E00E949B10882311F0F60111C080913C
:100E7000D4049091D504A091D604B091D7040097E2
:100E8000A105B10589F0893C910508F01CC10CC091
:100E9000138E07C0938D81E08927838F882309F4FF
:100EA0002EC289E090E027CF80913D05882371F123
:100EB0008091170590911805181619063CF5D60172
:100EC0005B968C918111C4CF0E94730BF601078948
:100ED000108D218D328DAB01BC01401B510B620B7B
:100EE000730BE09182052BE1E29FF0011124E3579F
:100EF000FA4F80819181A0E0B0E0481759076A0756
:100F00007B0708F4FCC184E090E028C10E94730BC9
:100F1000E0918205D60117960D911D912D913C917E
:100F20001A97AB01BC01401B510B620B730B2E2FA8
:100F300030E0BBE1EB9FF0011124ED56FA4F8081C8
:100F40009181A0E0B0E0481759076A077B07C0F01D
:100F5000D6015F968C91811113C08091F40290911B
:100F6000F502DC01ED91FC910280F381E02D40E07F
:100F700050E069E070E0099581E0F601878FBFC11C
:100F80008091F8029091F902FC01A081B1814BE1BE
:100F9000429FF001439FF00D1124E956FA4F608102
:100FA00070E01896ED91FC9119970995A8C18AE017
:100FB00090E0D4C080913E05882389F10E94730B94
:100FC000D60117960D911D912D913C911A97DC0138
:100FD000CB01801B910BA20BB30B85369105A105AC
:100FE000B10558F461E070E080E090E00E94390BB8
:100FF00085E195E00E94AD1EE1CF8091E7049091DC
:10100000E804A091E904B091EA04892B8A2B8B2B88
:1010100009F45CC080915105811155C057C04BE463
:1010200050E060E070E089EC94E00E949B1088231F
:10103000F1F00E94730BF60107811085218532853E
:10104000DC01CB01801B910BA20BB30B8536910504
:10105000A105B10508F01CCF89EC94E00E94B61000
:1010600061E070E080E090E00E94390BE2CF4BE459
:1010700050E060E070E08CED94E00E949B108823CB
:1010800041F180915005882321F10E94730BF601F4
:101090000781108521853285DC01CB01801B910BF6
:1010A000A20BB30B85369105A105B10508F0F2CE70
:1010B0008CED94E00E94B61061E070E080E090E07A
:1010C0000E94390BE2CF88E090E048C086E090E0D3
:1010D00045C080913D0581111EC00E94730BF60131
:1010E0000781108521853285AB01BC01401B510B66
:1010F000620B730BE09182052BE1E29FF00111245A
:10110000E157FA4F80819181A0E0B0E0481759077C
:101110006A077B0708F50E94730BD60117960D919D
:101120001D912D913C911A97AB01BC01401B510BB5
:10113000620B730BE0918205BBE1EB9FF001112480
:10114000EF56FA4F80819181A0E0B0E084179507B7
:10115000A607B70708F0D3C083E090E0D601139646
:101160009C938E9312970E94730BF601678370878E
:1011700081879287C4C080913E058823B9F00E9480
:10118000730BD6011F960D911D912D913C91529795
:10119000DC01CB01801B910BA20BB30B893C9105A9
:1011A000A105B10518F086E090E0A4CD0E94730B74
:1011B000F6010781108521853285AB01BC01401BFA
:1011C000510B620B730BE09182052BE1E29FF00162
:1011D0001124E357FA4F80819181A0E0B0E04817D5
:1011E00059076A077B0708F48AC083E090E082CD44
:1011F0000E94730BD60117960D911D912D913C9174
:101200001A97DC01CB01801B910BA20BB30B893E1B
:101210009340A105B10508F438CA42E350E060E00C
:1012200070E08CED94E00E940E1142E350E060E02B
:1012300070E089EC94E00E940E1163E475E0809107
:10124000F8029091F9020E9445108091F402909169
:10125000F502DC01ED91FC910280F381E02D40E08C
:1012600050E069E070E00995F601148E83E090E0AB
:10127000938382830E94730BD60117966D937D939F
:101280008D939C931A9701CA80913D05882309F498
:10129000FCC90E94730BF6010781108521853285F8
:1012A000DC01CB01801B910BA20BB30B893E934059
:1012B000A105B10508F4E9C980914905882309F41D
:1012C000E4C963E475E08091F8029091F9020E940C
:1012D0004510D6015C961C925C9784E090E0CAC9E8
:1012E00083E090E0D60113969C938E9312970E9410
:1012F000730BF601678370878187928796CA2C9655
:101300000FB6F894DEBF0FBECDBFDF91CF911F9116
:101310000F91FF90EF90DF90CF90BF90AF909F9094
:101320008F9008953FB7F89480911C0390911D030E
:10133000A0911E03B0911F0326B5A89B05C02F3FA7
:1013400019F00196A11DB11D3FBFBA2FA92F982FEB
:101350008827820F911DA11DB11DBC01CD0142E066
:10136000660F771F881F991F4A95D1F70895089532
:10137000CF92DF92EF92FF920F931F93CF93DF9361
:101380006C017A018B01C0E0D0E0CE15DF0589F059
:10139000D8016D918D01D601ED91FC910190F08104
:1013A000E02DC6010995892B11F47E0102C021961A
:1013B000ECCFC701DF91CF911F910F91FF90EF907C
:1013C000DF90CF900895FC01538D448D252F30E0A0
:1013D000842F90E0821B930B541710F0CF96089542
:1013E00001970895FC01918D828D981761F0828D8F
:1013F000DF01A80FB11D5D968C91928D9F5F9F7349
:10140000928F90E008958FEF9FEF0895FC01918DEA
:10141000828D981731F0828DE80FF11D858D90E057
:1014200008958FEF9FEF0895FC01918D228D892FF4
:1014300090E0805C9F4F821B91098F7399270895DC
:101440008AE194E00E94140A21E0892B09F420E04B
:10145000822F0895FC01848DDF01A80FB11DA35ACE
:10146000BF4F2C91848D90E001968F739927848FC4
:10147000A689B7892C93A089B1898C9180648C93BB
:10148000938D848D981306C00288F389E02D8081A6
:101490008F7D80830895EF92FF920F931F93CF93D8
:1014A000DF93EC0181E0888F9B8D8C8D981305C0B4
:1014B000E889F989808185FD24C0F62E0B8D10E026
:1014C0000F5F1F4F0F731127E02E8C8DE8120CC099
:1014D0000FB607FCFACFE889F989808185FFF5CF3F
:1014E000CE010E942A0AF1CF8B8DFE01E80FF11D7B
:1014F000E35AFF4FF0820B8FEA89FB89808180627B
:1015000007C0EE89FF896083E889F989808180645A
:10151000808381E090E0DF91CF911F910F91FF9048
:10152000EF900895CF93DF93EC01888D8823C9F065
:10153000EA89FB89808185FD05C0A889B9898C91DC
:1015400086FD0FC00FB607FCF5CF808185FFF2CF77
:10155000A889B9898C9185FFEDCFCE010E942A0A16
:10156000E7CFDF91CF91089580E090E0892B29F0BB
:101570000E94200A81110C9400000895FC017583DB
:101580006483089563E070E087E090E00895CF936E
:10159000DF93EC0161E08A810E94AA2560E08A81E4
:1015A000DF91CF910C947A250E94F1300C948D2C10
:1015B0000C948D2C1F93CF93DF93182FEB0161E0D8
:1015C0000E94AA25209711F460E004C0CF3FD10506
:1015D00039F461E0812FDF91CF911F910C947A252E
:1015E000E12FF0E0E859FE4FE491E330F9F048F4E0
:1015F000E130B9F0E230A1F584B5806284BDC8BDA8
:1016000034C0E730E9F0E83019F1E43049F5809171
:101610008000806280938000D0938B00C0938A000A
:1016200024C084B5806884BDC7BD1FC08091800080
:10163000806880938000D0938900C093880015C093
:101640008091B00080688093B000C093B3000DC05B
:101650008091B00080628093B000C093B40005C058
:10166000C038D1050CF0B5CFAFCFDF91CF911F912E
:1016700008958F929F92AF92BF92CF92DF92EF9296
:10168000FF926B017C010E9492094B015C01C11425
:10169000D104E104F104F1F00E949209DC01CB01D4
:1016A00088199909AA09BB09883E9340A105B1058B
:1016B00070F321E0C21AD108E108F10888EE880E23
:1016C00083E0981EA11CB11CC114D104E104F104F3
:1016D00019F7DDCFFF90EF90DF90CF90BF90AF90E4
:1016E0009F908F9008952FB7F89460911803709190
:1016F000190380911A0390911B032FBF08950F9334
:101700001F93CF93DF93EC018C819D8182309105F3
:1017100071F02CF4009749F0019749F035C08330FF
:10172000910541F00497D9F02FC01A862FC081E0AF
:101730008A872CC00E94730B0E811F8128853985F2
:10174000DC01CB01801B910BA20BB30B85369105FD
:10175000A105B10518F18A85811149C01FC00E94F9
:10176000730B0E811F8128853985DC01CB01801B1D
:10177000910BA20BB30B853F9140A105B10528F158
:101780008A85811134C021C01D821C826A858A81AC
:10179000DF91CF911F910F910C947A250E94730BCA
:1017A0000E811F8128853985DC01CB01801B910BBF
:1017B000A20BB30B813A9F40A105B10538F38A858E
:1017C0008111E4CF81E08A8713C00E94730B0E81E0
:1017D0001F8128853985DC01CB01801B910BA20B71
:1017E000B30B853F9140A105B10548F7CFCF1A86CD
:1017F0000E94730B6E837F8388879987C7CF1F9260
:101800000F920FB60F9211242F933F938F939F93B4
:10181000AF93BF938091180390911903A0911A037D
:10182000B0911B033091170323E0230F2D3720F4D1
:101830000196A11DB11D05C026E8230F0296A11D2A
:10184000B11D209317038093180390931903A0935D
:101850001A03B0931B0380911C0390911D03A09168
:101860001E03B0911F030196A11DB11D80931C039F
:1018700090931D03A0931E03B0931F03BF91AF91DC
:101880009F918F913F912F910F900FBE0F901F90BE
:101890001895CF92DF92EF92FF920F931F93CF9301
:1018A000DF9300D000D0CDB7DEB76217730784078F
:1018B0009507FCF489019A016B017C01A90198014B
:1018C000261B370B480B590B69F029833A834B834E
:1018D0005C830E94732D29813A814B815C810E9437
:1018E000B62E03C060E070E0CB016C0D7D1D8E1D37
:1018F0009F1D0F900F900F900F90DF91CF911F9130
:101900000F91FF90EF90DF90CF9008951F920F926C
:101910000FB60F9211242F933F934F935F936F93C2
:101920007F938F939F93AF93BF93EF93FF93E09138
:101930000201F09103010995FF91EF91BF91AF91E1
:101940009F918F917F916F915F914F913F912F91D7
:101950000F900FBE0F901F9018951F920F920FB609
:101960000F9211242F933F934F935F936F937F9325
:101970008F939F93AF93BF93EF93FF93E0910001F9
:10198000F09101010995FF91EF91BF91AF919F9166
:101990008F917F916F915F914F913F912F910F9018
:1019A0000FBE0F901F9018951F920F920FB60F92B7
:1019B00011242F933F934F935F936F937F938F9354
:1019C0009F93AF93BF93EF93FF938AE194E00E94BC
:1019D0002A0AFF91EF91BF91AF919F918F917F91D3
:1019E0006F915F914F913F912F910F900FBE0F908C
:1019F0001F9018951F920F920FB60F9211242F93DC
:101A00008F939F93EF93FF93E0912A04F0912B041F
:101A10008081E0913004F091310482FD12C0908108
:101A2000809133048F5F8F7320913404821751F0BB
:101A3000E0913304F0E0E65EFB4F958F8093330432
:101A400001C08081FF91EF919F918F912F910F9015
:101A50000FBE0F901F901895089508952F923F92F2
:101A60004F925F926F927F928F929F92AF92BF92AE
:101A7000CF92DF92EF92FF920F931F93CF93DF935A
:101A8000CDB7DEB729970FB6F894DEBF0FBECDBF36
:101A90007C014A015B012801390120E030E048EC7B
:101AA00052E4C501B4010E942E30181634F4812C82
:101AB000912C98ECA92E92E4B92E0E94730BD701B9
:101AC00050960D911D912D913C915397DC01CB01C6
:101AD000801B910BA20BB30B481659066A067B06B6
:101AE00008F0ACC02AE037ED43E25CE3F70164891B
:101AF0007589868997890E941A2F6E837F838887CC
:101B00009987D70154966D937D938D939C935797A6
:101B100058964D905D906D907C905B97A3019201DB
:101B2000C301B2010E941A2F9B01AC016E817F811B
:101B3000888599850E942E3018162CF4F701448A66
:101B4000558A668A778AD70154966D917D918D91D9
:101B50009C9157970E9433302B013C01A5019401C1
:101B600060E070E080E89FE30E94192F9B01AC01C8
:101B7000C301B2010E94E22D2B013C011701B8E024
:101B80002B0E311C8E010F5F1F4FFE013496FD831B
:101B9000EC8368013F822E82AE81BF816D91BF834D
:101BA000AE8370E080E090E00E94812D4B015C01EB
:101BB0009B01AC01C301B2010E94E22D9B01AC016B
:101BC000C501B4010E941A2F4B015C0120E030E0F6
:101BD0004FE753E40E942E30181634F4812C912CD8
:101BE0008FE7A82E83E4B82EC501B4010E94FF2F11
:101BF000F60161936F018C819D81E817F90761F609
:101C0000670192E0C90ED11CD6018D919D916D01A5
:101C1000181619062CF4F801608170E00E94DA0AA7
:101C20000F5F1F4FC214D30479F70E94730BD701C3
:101C300050966D937D938D939C93539729960FB6F1
:101C4000F894DEBF0FBECDBFDF91CF911F910F91F2
:101C5000FF90EF90DF90CF90BF90AF909F908F90CC
:101C60007F906F905F904F903F902F900895FF92DC
:101C70000F931F93CF93DF93EC018B01F42EE88138
:101C8000F9810680F781E02D40E050E0DB016C91A6
:101C90000995E881F9810680F781E02D41E050E067
:101CA000D80111966C91CE010995E881F9810680E1
:101CB000F781E02D42E050E0D80112966C91CE0100
:101CC0000995FF2061F0E881F9810684F785E02D10
:101CD000CE01DF91CF911F910F91FF900994DF9179
:101CE000CF911F910F91FF900895FC01878908956E
:101CF00008950895CF93DF93EC011B821A8280919F
:101D0000F6029091F702DC01ED91FC916091530590
:101D100070E00284F385E02D09958091F80290919E
:101D2000F902DC01ED91FC910190F081E02D099523
:101D30008091F4029091F502DC01ED91FC9101900B
:101D4000F081E02D099585E195E00E94D51F8091F5
:101D5000DE049091DF04181619061CF462E00E945C
:101D6000AA258091CB049091CC04181619061CF476
:101D700062E00E94AA258D859E85DC01ED91FC9193
:101D80000480F581E02D099564E670E080E090E044
:101D90000E94390B6091480570E06530710514F4BC
:101DA00064E170E08091F4029091F502DC01ED9124
:101DB000FC910084F185E02D099564E670E080E0F7
:101DC00090E0DF91CF910C94390B0C948D2C0C94F6
:101DD0008D2C0C948D2C87FF0C947A25089585EC1E
:101DE00092E00E94BF218091080118161CF462E065
:101DF0000E94AA258091070118161CF461E00E9438
:101E00007A2560E0809105010E94EB0E60E08091F0
:101E100006010E94EB0E60E08FEF0E94EB0E6CE279
:101E200071E080E090E00C94390B8BEC92E00E9422
:101E3000BF216AEF70E080E090E00E94390B809152
:101E40000801181644F461E00E94AA2560E0809120
:101E500008010E947A258091070118161CF460E0A1
:101E60000E947A2561E0809106010E94EB0E61E0FC
:101E7000809105010E94EB0E60E0809104010E94B8
:101E8000EB0E61E08FEF0C94EB0E2F923F924F928E
:101E90005F926F927F928F929F92AF92BF92CF92FA
:101EA000DF92EF92FF920F931F93CF93DF9300D0B7
:101EB0001F92CDB7DEB76C015B013A0149010E9468
:101EC000730B2091220330912303409124035091FE
:101ED00025031B012C01221A330A440A550AF70173
:101EE00080819181A0E0B0E0281639064A065B06A1
:101EF00008F475C00E94730B609322037093230350
:101F00008093240390932503F30180819181A28122
:101F100089839A83AB830E94732D24E630E040E0EE
:101F200050E00E94B62EF401208131812901330F47
:101F30006608770846165706680679063CF4F501E8
:101F400080819181A28189839A83AB83F80180810A
:101F5000918164E670E0681B790B072E000C880BFA
:101F6000990B24E630E040E050E00E94490C0E94CA
:101F7000832D20E030E048EC52E40E94862F4B0194
:101F80005C01698170E080E090E00E94812DA501F4
:101F900094010E94E22D0E94FF2F69836A8170E004
:101FA00080E090E00E94812DA50194010E94E22D25
:101FB0000E94FF2F6A836B8170E080E090E00E94B6
:101FC000812DA50194010E94E22D0E94FF2F6B83B9
:101FD00041E0BE016F5F7F4FC6010E94370E0F9038
:101FE0000F900F90DF91CF911F910F91FF90EF9085
:101FF000DF90CF90BF90AF909F908F907F906F9029
:102000005F904F903F902F9008950F931F93CF9321
:10201000DF93EB018A01DC01ED91FC910280F381F9
:10202000E02D40E050E068E070E00995E881F9813A
:10203000D8016D917C910480F581E02DCE01099548
:102040008823A1F3DF91CF911F910F9108950F93F2
:102050001F93CF93DF9300D01F92CDB7DEB78C01D3
:10206000CB010E94462869837A838B8341E0BE01BD
:102070006F5F7F4FC8010E94370E0F900F900F9037
:10208000DF91CF911F910F9108950F931F93CF93DD
:10209000DF9300D01F92CDB7DEB78C01CB010E9439
:1020A000612869837A838B8341E0BE016F5F7F4F34
:1020B000C8010E94370E0F900F900F90DF91CF91C3
:1020C0001F910F910895CF92DF92EF92FF920F939D
:1020D0001F93CF93DF93EB017A016901DC01ED914E
:1020E000FC910280F381E02D40E050E062E070E07E
:1020F0000995F6016081718180E090E00E94390BC2
:1021000040E0B701CE010E94370EE881F981D80185
:102110006D917C910280F381E02DCE010995882399
:10212000A1F3DF91CF911F910F91FF90EF90DF907E
:10213000CF90089508950F931F93411551056105A0
:10214000710571F0FC0107851089218932892227E8
:102150003327041715072607370710F480E002C05D
:10216000FC0186811F910F91089508950F931F938D
:10217000CF93DF93EC018A819B81181619062CF40A
:102180000E94512521E0892B09F020E02C838D81CC
:10219000222319F1811110C00E94730B6F8378877D
:1021A00089879A871F86188A198A1A8A1E821B862F
:1021B0001C861D861E862BC00E94730B0F811885FE
:1021C00029853A85DC01CB01801B910BA20BB30B57
:1021D0008B879C87AD87BE871AC0882399F00E94A1
:1021E000730B0F81188529853A85DC01CB01801B93
:1021F000910BA20BB30B8F87988BA98BBA8B81E0C5
:102200008E8305C01B861C861D861E861E828C81C1
:102210008D83DF91CF911F910F910895EF92FF92DF
:102220000F931F93CF93DF9300D000D0CDB7DEB7CD
:102230008C01CB01BA0125E030E040E050E00E9483
:10224000B62EE12CF12CCA01B90129833A834B83C4
:102250005C830E94390BC8010E94B610F801868188
:1022600029813A814B815C818111EBCF83859485F3
:10227000A585B685892B8A2B8B2B19F7FFEFEF1AD3
:10228000FF0A85E0E816F104F4F20F900F900F902A
:102290000F90DF91CF911F910F91FF90EF900895D4
:1022A0008F929F92AF92BF92DF92EF92FF920F9325
:1022B0001F93CF93DF93EC018B899C89DC011B96E4
:1022C0008D909D90AD90BC901E9781149104A104B7
:1022D000B104A1F1D22E7A018B0144E650E060E016
:1022E00070E00E949B10811129C0B9EE8B16B3E0FB
:1022F0009B0620F18F859889DC01ED91FC914D2D95
:1023000050E00280F381E02DB701099564E670E0AA
:1023100080E090E00E94390B42E350E060E070E022
:102320008B899C890E940E111B830A830E94730B68
:102330006F83788789879A8781E001C080E0DF9189
:10234000CF911F910F91FF90EF90DF90BF90AF90D2
:102350009F908F900895EF92FF920F931F93CF93CA
:10236000DF93EC018B899C890E94B6108D899E8930
:102370000E94B61089899A89DC01ED91FC91028452
:10238000F385E02D09958B859C85DC01ED91FC9111
:102390000480F581E02D09958C01EA81FB81E8300C
:1023A000F10508F0EFC2EC5BFF4F0C94D7308F853E
:1023B0009889DC01ED91FC910280F381E02D4BE0E6
:1023C00050E06BE070E0099560ED77E080E090E030
:1023D0000E94390B42E350E060E070E08B899C89F9
:1023E0000E940E1142E350E060E070E08D899E890A
:1023F0000E940E1181E090E09B838A830E94730B00
:102400006F83788789879A87BDC28E81882301F17F
:102410008F859889DC01ED91FC910280F381E02D9C
:102420004EE050E06BE070E009956CED75E080E007
:1024300090E00E94390B8F859889DC01ED91FC9129
:102440000280F381E02D40E050E069E070E0099502
:102450008F859889DC01ED91FC910684F785E02D4C
:102460000995FC01F38444E650E060E070E08B895C
:102470009C890E949B10882369F0D80113968C9147
:1024800013978F1520F48F5F13968C9316C085E0F9
:10249000F80110C044E650E060E070E08D899E894C
:1024A0000E949B10882309F444C0F8018381863080
:1024B00018F08150838301C0F3828F859889DC01F5
:1024C000ED91FC91D80113966C9170E00084F18538
:1024D000E02D099566E970E080E090E00E94390BFC
:1024E000F8018381F8124EC28F859889DC01ED9145
:1024F000FC910280F381E02D45E150E06BE070E05B
:1025000009956CED75E080E090E00E94390B8F85B5
:102510009889EC01E881F9810280F381E02D40E0A7
:1025200050E069E070E0099566E970E080E090E0D5
:102530003BC02DE04BE050E062E070E0FFC18B85D6
:102540009C85DC01ED91FC910284F385E02D0995D9
:102550008C018E8181114FC044E650E060E070E054
:102560008B899C890E949B10882331F18B859C85E7
:10257000DC01ED91FC910284F385E02D0995FC01CD
:1025800080818B3028F4D8018C918F5F8C9302C0AE
:10259000F80110826B857C858D859E850E94451093
:1025A00064E670E080E090E0DF91CF911F910F91A1
:1025B000FF90EF900C94390B44E650E060E070E03F
:1025C0008D899E890E949B10882309F18B859C85AB
:1025D000DC01ED91FC910284F385E02D0995FC016D
:1025E0008081882329F0D8018C9181508C9303C07D
:1025F0008BE0F80180836B857C858D859E85DF91DE
:10260000CF911F910F91FF90EF900C944510898905
:102610009A89DC01ED91FC910680F781E02D099506
:10262000882389F18F859889DC01ED91FC910480E4
:10263000F581E02D64E070E00995F801E280F12C6D
:102640008D859E85DC01ED91FC910088F189E02D5E
:102650000995E816F9062CF4F80182818F5F8283D0
:1026600003C0D80112961C9264EF71E080E090E004
:102670000E94390B8F859889EC01E881F9810680E9
:10268000F781E02D98C02CE04BE050E063E070E073
:10269000CE010E945011AD85BE85ED91FC91119740
:1026A000882329F00484F585E02DCD0184C0E8015C
:1026B0006A8170E00084F185E02DCD01DF91CF913A
:1026C0001F910F91FF90EF9009948B859C85DC0101
:1026D000ED91FC910284F385E02D09958C018E81AA
:1026E00081114AC044E650E060E070E08B899C892B
:1026F0000E949B108823F1F08B859C85DC01ED9175
:10270000FC910284F385E02D0995FC0181818B30D9
:1027100040F4D80111968C9111978F5F11968C938C
:1027200002C0F80111826B857C858D859E850E9493
:10273000271036CF44E650E060E070E08D899E8936
:102740000E949B10882321F18B859C85DC01ED91F3
:10275000FC910284F385E02D0995FC018181882399
:1027600041F0D80111968C911197815011968C935C
:1027700003C08BE0F80181836B857C858D859E8508
:10278000DF91CF911F910F91FF90EF900C94271044
:102790002FE04BE050E064E070E0CE010E94501169
:1027A000882309F4EFC08D859E85DC01ED91FC91B5
:1027B0000484F585E02DDF91CF911F910F91FF905B
:1027C000EF9009948B859C85DC01ED91FC91048848
:1027D000F589E02D09958C0144E650E060E070E059
:1027E0008B899C890E949B10882341F0F801818D80
:1027F000893010F48F5F11C0118E13C044E650E091
:1028000060E070E08D899E890E949B10882349F0CA
:10281000F801818D882319F08150818F02C089E0F1
:10282000818F44E650E060E070E08B899C890E94D3
:102830009B1081117BC044E650E060E070E08D8920
:102840009E890E949B10811171C073C08B859C85ED
:10285000DC01ED91FC910488F589E02D09958C014E
:1028600044E650E060E070E08B899C890E949B10F8
:10287000882341F0F801828D893010F48F5F0CC0FD
:10288000128E0EC0ED89FE898681882349F0F801F9
:10289000828D882319F08150828F02C089E0828F57
:1028A00044E650E060E070E08B899C890E949B10B8
:1028B00081114DC044E650E060E070E08D899E8952
:1028C0000E949B10811143C020E048E050E066E088
:1028D00070E034C08B859C850E947C288F85988908
:1028E000DC01ED91FC910280F381E02D40E050E0AD
:1028F00061E070E0099587E090E09B838A830E9405
:10290000730B6F83788789879A8742E350E060E092
:1029100070E08B899C89DF91CF911F910F91FF907F
:10292000EF900C940E1181E08F8B2CC0F801418D3B
:1029300011C022E14BE050E065E070E0CE01DF9194
:10294000CF911F910F91FF90EF900C945011D801EF
:102950005A964C918F859889442359F0DC01ED916A
:10296000FC9150E00280F381E02D6BE070E009956E
:1029700017CEEC01E881F9810280F381E02D43E17B
:1029800050E0F3CFDF91CF911F910F91FF90EF9027
:10299000089542E350E060E070E0FC01838994898F
:1029A0000C940E11089580E0089582E090E008955F
:1029B00082E090E0089580E008950895E091AE03EC
:1029C0008091AD03E81730F4F0E0E155FC4F8081D1
:1029D00090E008958FEF9FEF08959091AE0380915E
:1029E000AD03981750F4E92FF0E0E155FC4F20813A
:1029F00030E09F5F9093AE0302C02FEF3FEFC9011D
:102A000008958091AD0390E02091AE03821B91095F
:102A10000895089580E090E0089585ED8093BC00CE
:102A20008091BC0084FDFCCF1092F5030895409185
:102A30004803262F30E0240F311D21323105DCF40C
:102A40002091F5032430C9F4FC0180E090E0861762
:102A500058F4309148032191DC01AA5DBC4FA30FCB
:102A6000B11D2C930196F3CF80914803680F6093BA
:102A7000480380E0089581E0089582E00895CF92B0
:102A8000DF92EF92FF920F931F93CF93DF937C011E
:102A9000262F972F8A018091F603882391F0C62F65
:102AA000D72F6E01C40ED51ECC15DD0571F06991CE
:102AB000D701ED91FC910190F081E02DC7010995BE
:102AC000F3CF642F822F0E941715C801DF91CF9199
:102AD0001F910F91FF90EF90DF90CF900895CF93CB
:102AE000DF931F92CDB7DEB769832091F6032223CF
:102AF000D1F020911904203240F021E030E0FC01B7
:102B00003383228380E090E015C08091F703E82FA3
:102B1000F0E0E850FC4F998190838F5F8093F7033A
:102B20008093190405C061E0CE0101960E9417153B
:102B300081E090E00F90DF91CF910895CF93DF93E4
:102B4000EC0188A199A11816190664F460E00E94AE
:102B5000AA258AA1811106C061E088A1DF91CF91E9
:102B60000C947A25DF91CF9108950C948D2C8F923F
:102B70009F92AF92BF92CF92DF92EF92FF920F930C
:102B80001F93CF93DF93CDB7DEB766970FB6F89458
:102B9000DEBF0FBECDBF6BE070E0CE0102960E949B
:102BA00020248F819885A985888B998BAA8B8A850B
:102BB0009B85AC858D879E87AF870E94730B4B01E9
:102BC0005C010E94730B6B017C01C818D908EA08EC
:102BD000FB082A8130E0A8EEB3E00E940A2FC61657
:102BE000D706E806F906F0F48C8190E09E8B8D8B79
:102BF0008B8190E09C8B8B8BCE0105967C018E01A6
:102C00000B5E1F4F9E012D5E3F4FAE01435F5F4F36
:102C1000BE01605F7F4F8091F8029091F9020E949F
:102C2000450FCFCF66960FB6F894DEBF0FBECDBF6F
:102C3000DF91CF911F910F91FF90EF90DF90CF9098
:102C4000BF90AF909F908F9008956BE070E089E403
:102C500095E00C942024CF93DF9300D01F92CDB742
:102C6000DEB762E070E0CE0102960E9420248091DF
:102C7000F4029091F502DC01ED91FC910280F38168
:102C8000E02D40E050E062E070E009956A817B81D0
:102C900080E090E00E94390B8091F4029091F5025F
:102CA000DC01ED91FC910280F381E02D40E050E0E9
:102CB00069E070E009956A817B817695679580E08F
:102CC00090E00E94390B8091F4029091F502DC01B2
:102CD000ED91FC910480F581E02D64E070E00995B0
:102CE0006A817B8180E090E00E94390B8091F40240
:102CF0009091F502DC01ED91FC910280F381E02DD1
:102D000040E050E069E070E009956A817B8176954A
:102D1000679580E090E00E94390B8091F4029091D9
:102D2000F502DC01ED91FC910480F581E02D63E07A
:102D300070E009956A817B8180E090E00E94390B08
:102D40008091F4029091F502DC01ED91FC910280FA
:102D5000F381E02D40E050E069E070E009956A8180
:102D60007B817695679580E090E00E94390B809199
:102D7000F4029091F502DC01ED91FC910280F38167
:102D8000E02D40E050E068E070E0099564E670E016
:102D900080E090E00E94390B0F900F900F90DF9130
:102DA000CF9108956F927F928F92CF92DF92EF92A0
:102DB000FF920F931F93CF93DF93CDB7DEB7A69704
:102DC0000FB6F894DEBF0FBECDBF68EE73E080E0B3
:102DD00090E00E94390B61E070E0CE0102960E9403
:102DE00020247E0183E0E80EF11C670100E010E082
:102DF0002A8130E0021713072CF0EEE5F5E080E0C1
:102E000090E01AC00C301105C1F363E070E0C60118
:102E10000E9420240F5F1F4FA3E0CA0ED11CE8CFF1
:102E20008C30910561F0D7016D907D908D907D0182
:102E300061927192819201968217930789F7A69603
:102E40000FB6F894DEBF0FBECDBFDF91CF911F91BB
:102E50000F91FF90EF90DF90CF908F907F906F90C9
:102E60000895CF93DF9300D0CDB7DEB762E070E076
:102E7000CE0101960E942024809182052BE1829F41
:102E8000C001112467E070E08B569A4F0E94202405
:102E90000F900F90DF91CF910895CF93DF9300D0E3
:102EA000CDB7DEB762E070E0CE0101960E9420242B
:102EB000809182052BE1829FC001112462E170E0C4
:102EC0008D579A4F0E9420240F900F90DF91CF9141
:102ED0000895CF93DF93CDB7DEB72D970FB6F89453
:102EE000DEBF0FBECDBF6CE070E0CE0102960E9447
:102EF00020248AE0FE013496A4E5B5E001900D920D
:102F00008A95E1F72D960FB6F894DEBF0FBECDBFC0
:102F1000DF91CF910895CF93DF93CDB7DEB72C9794
:102F20000FB6F894DEBF0FBECDBF89E089838BE07A
:102F3000E9E4F5E0DE01129601900D928A95E1F741
:102F40006CE070E0CE0101960E9476242C960FB6BC
:102F5000F894DEBF0FBECDBFDF91CF910895CF9320
:102F6000DF93CDB7DEB727970FB6F894DEBF0FBE5D
:102F7000CDBF88E0898382E08A838CE08B83809157
:102F8000F8029091F902DC01ED91FC910088F18941
:102F9000E02D09956D838091F8029091F902DC0192
:102FA000ED91FC910088F189E02D09958C83809149
:102FB000F4029091F502DC01ED91FC910684F78515
:102FC000E02D0995FC0183858E83809182058F8396
:102FD00067E070E0CE0101960E94762427960FB636
:102FE000F894DEBF0FBECDBFDF91CF910895CF9390
:102FF000DF93CDB7DEB7A8970FB6F894DEBF0FBE4C
:10300000CDBF87E0898388E290E09B838A838CE050
:103010008C83FE01379680E090E0BC016D5B7A4FB7
:103020009F0122503109DB015B964C91D9014C93F1
:103030002F5F3F4FDB015C964C91D9014C93DB0134
:103040005D962C912083039633968432910529F75F
:1030500068E270E0CE0101960E947624A8960FB631
:10306000F894DEBF0FBECDBFDF91CF910895CF930F
:10307000DF93CDB7DEB72A970FB6F894DEBF0FBE49
:10308000CDBFE091820583E0898387E090E09B8358
:103090008A838BE1E89FF0011124EB56FA4F87E019
:1030A000DE01149601900D928A95E1F76AE070E0D6
:1030B000CE0101960E9476242A960FB6F894DEBFC0
:1030C0000FBECDBFDF91CF910895CF93DF93CDB7E2
:1030D000DEB765970FB6F894DEBF0FBECDBFE091A7
:1030E000820582E0898382E190E09B838A838BE181
:1030F000E89FF0011124ED57FA4F82E1DE011496AA
:1031000001900D928A95E1F765E170E0CE0101969C
:103110000E94762465960FB6F894DEBF0FBECDBF31
:10312000DF91CF910895CF93DF93CDB7DEB72D9781
:103130000FB6F894DEBF0FBECDBF81E089838AE071
:1031400090E09B838A83E4E5F5E0DE01149601902C
:103150000D928A95E1F76DE070E0CE0101960E9434
:1031600076242D960FB6F894DEBF0FBECDBFDF914B
:10317000CF910895CF93DF9300D0CDB7DEB761E054
:1031800070E0CE0102960E9420246091F4027091BA
:10319000F5028A8190E00E945C220F900F90DF91EF
:1031A000CF91089583E495E00E947C288091F602F7
:1031B0009091F702DC01ED91FC916091530570E074
:1031C0000284F385E02D099563E475E08091F802AF
:1031D0009091F9020E94451068EC70E080E090E068
:1031E0000E94390B8091F8029091F902DC01ED9177
:1031F000FC910484F585E02D0994DC018D919D916D
:10320000BD01DC01ED91FC910280F381E02D4AE0EB
:1032100050E00994CF92DF92EF92FF920F931F93A9
:10322000CF93DF93EC018B010E94730BC8A4D9A448
:10323000EAA4FBA4DC01CB018C199D09AE09BF09EE
:1032400084369105A105B10538F461E070E080E0B5
:1032500090E00E94390BE8CF0E94730B68A779A712
:103260008AA79BA72296A80163E0CE010E947C2436
:10327000CE01DF91CF911F910F91FF90EF90DF90E2
:10328000CF900C94FD18FC018EE782838FEF83832F
:1032900086E0848386E18583808D8683178210860D
:1032A000118612868FEE8387DF0113969F01275FB9
:1032B0003F4F80E090E04D91840F911DA217B3071E
:1032C000D1F791958195910991878287CF010C94CF
:1032D000FD18CF93DF93EC01FC0181E591E0819330
:1032E0009193CF010E9443198A819B81009749F0F5
:1032F000DC01ED91FC910088F189E02DDF91CF9107
:103300000994DF91CF910895CF93DF93EC010E9450
:103310006919CE01DF91CF910C948D2C1F920F92E1
:103320000FB60F9211242F933F934F935F936F9398
:103330007F938F939F93AF93BF93EF93FF9380916E
:10334000B900887F803609F49CC068F5883209F49A
:103350005BC090F4803109F454C038F4882309F438
:10336000F6C0883009F44DC0F6C0883109F44CC06D
:10337000803209F45DC0EFC0803409F468C048F4BD
:10338000803309F455C0883309F0E5C08093F30316
:10339000D8C0803509F44FC0883509F45DC0883441
:1033A00009F0D9C0D6C0883909F4C7C0A8F4883755
:1033B00009F467C038F4883609F463C0803709F42B
:1033C00060C0C9C0883809F4B8C0803909F45FC04A
:1033D000803809F0C0C05BC0803B09F486C038F477
:1033E000803A09F466C0883A09F47FC0B4C0803CD2
:1033F00009F4A7C0883C09F4A4C0883B09F48AC03A
:10340000AAC08091D00310C09091F2038091F10383
:10341000981770F5E091F20381E08E0F8093F2032C
:10342000F0E0EF52FC4F80818093BB0085EC86C0BA
:103430008093F3038EC0E091F20381E08E0F8093BE
:10344000F2038091BB00F0E0EF52FC4F808390913B
:10345000F2038091F1036EC0E091F20381E08E0FE0
:103460008093F2038091BB00F0E0EF52FC4F808329
:103470008091F40381116DC081E08093CF0384EAD1
:1034800061C083E08093F50310926C03CFCF8091ED
:103490006C03803208F051C0E0916C0381E08E0F24
:1034A00080936C038091BB00F0E0E45BFC4F808371
:1034B000BDCF85EC8093BC001092F50380916C0326
:1034C000803230F4E0916C03F0E0E45BFC4F10825A
:1034D00060916C0370E0E0914A03F0914B038CE43F
:1034E00093E0099510926C0336C084E08093F50355
:1034F0001092490310924803E0914603F09147036C
:10350000099580914803811105C081E080934803AB
:1035100010922603E091490381E08E0F80934903C6
:10352000F0E0EA5DFC4F80818093BB0090914903FD
:1035300080914803981708F479CF85E88093BC0000
:103540000AC085EC8093BC001092F50304C0109271
:10355000F3030E940D15FF91EF91BF91AF919F91E1
:103560008F917F916F915F914F913F912F910F902C
:103570000FBE0F901F9018950895CF93DF93EC0125
:10358000188619861A86E881F9810284F385E02D70
:1035900009951B86DF91CF910895CF93DF93EC01BE
:1035A000E881F9810284F385E02D099581E08B871C
:1035B000DF91CF9108954330510524F4FC01E40FCD
:1035C000F51F608708952DE132E0FC0131832083EF
:1035D0000C94BD1AFC01228D338D37FF03C0319549
:1035E00021953109868D978D97FF03C0919581951F
:1035F0009109281739070CF49C01848D958D97FF4C
:1036000003C0919581959109A481B58114964D913E
:103610005C91159724173507D0F082179307B8F4FB
:103620001382128212968D919C9113972817390755
:1036300020F081E090E0938382838D919C91281704
:10364000390778F082E090E0938382830AC018966D
:103650002D913C9119972817390728F481E082A70A
:1036600002C081E0089580E00895FC0182A50895DC
:10367000FC0181A50895FC0180A50895FC018281CB
:1036800093810895089508950895089508950895DB
:103690002091F2023091F3022817390781F49091BA
:1036A000F0028091F102981751F0E091F002F0E001
:1036B000E359FC4F8081082E000C990B08958FEF81
:1036C0009FEF08952091F2023091F30228173907F5
:1036D00039F48FB7F8941092F1021092F0028FBF74
:1036E0000895FC01848D958D009729F421E030E048
:1036F000338322830895A189B2892089522F50955E
:103700007FB7F8943C9135233C93FC013197F1F756
:1037100038E04C9160FF02C0422B01C045234C931E
:10372000FC013197F1F76695315099F73C91232BC5
:103730002C937FBF0197F1F781E090E008952091ED
:10374000F2023091F3022817390771F48091F102E7
:103750002091F00290E0805C9F4F821B910960E411
:1037600070E00E94C330089580E090E008952091B9
:10377000F2023091F30228173907B9F49091F00260
:103780008091F102981789F0E091F002F0E0E3599E
:10379000FC4F80812091F00230E02F5F3F4F2F736C
:1037A00033272093F00290E008958FEF9FEF089564
:1037B000FC0165A30895FC0183A194A10D960895D1
:1037C000EF92FF920F931F93CF938B01FC01A3A164
:1037D000B4A1EC91EE2EF12C6C30710508F075C09F
:1037E0009B01245B3F4FF9010C94D73011962C912B
:1037F0004FC01C962C91B701620F711D9B0163C0D5
:1038000012962C911297F701E20FF11D9F011F965E
:103810006C914CC016962C911697B701620F711DD2
:103820009B0152966C9142C015962C911597F70109
:10383000E20FF11D9F0151966C9138C018962C91A2
:103840001897B701620F711D9B0154966C912EC0A1
:1038500017962C911797F701E20FF11D9F015396D0
:103860006C9124C019962C911997B701620F711DA4
:103870009B0155966C911AC013962C911397F701E2
:10388000E20FF11D9F0150966C9110C014962C917F
:10389000A701420F511D9A0116C01A962C911A9732
:1038A000B701620F711D9B0156966C9170E0641711
:1038B000750768F006C01B962C91D701A20FB11DA9
:1038C0009D01240F351FC1E003C09701FCCFC0E06C
:1038D000B9016E0D7F1D01301105C9F00B301105C6
:1038E000B1F0FC0136A125A1329F600D711D11249C
:1038F000CC23B1F00930110519F00630110549F457
:10390000DC01ED91FC910688F789E02D08C0CC23FD
:1039100039F0DC01ED91FC910488F589E02D0995E1
:103920008C2FCF911F910F91FF90EF900895EF9200
:10393000FF920F931F93CF93DF937C018C010E5F57
:103940001F4FC0E0D0E0F801819191918F011816CE
:1039500019063CF4F701EC0FFD1F608570E00E9432
:10396000DA0A2196C330D10571F7DF91CF911F910B
:103970000F91FF90EF9008950F931F93633071059F
:1039800029F16CF461307105D1F062307105B9F53F
:1039900024E130E040E050E06CE370E01DC06530B1
:1039A000710519F1ECF06630710549F505E010E09C
:1039B00020E030E040E050E060E07FE31EC024E122
:1039C00030E040E050E060E570E006C022E330E027
:1039D00040E050E062E370E01F910F910C94A52449
:1039E00001E010E020E030E004C003E010E020E05F
:1039F00030E04AE959E969E17FE30E942E0D1F9109
:103A00000F9108952F923F924F925F926F927F9203
:103A10008F929F92AF92BF92CF92DF92EF92FF92DE
:103A20000F931F93CF93DF93CDB7DEB72B970FB6CE
:103A3000F894DEBF0FBECDBF9B878A87072E000C90
:103A4000880B990B0E94832D4B015C0120E030E034
:103A500048E452E40E94862F0E94F82F7A836983FB
:103A6000072E000C880B990B0E94832D9B01AC0143
:103A7000C501B4010E94862F0E94F82F01E010E0DA
:103A80009B01770F440B550B2C833D834E835F8343
:103A9000CA84DB8438E0C30ED11C4A855B854E5F47
:103AA0005F4F5987488749815A81041715079CF54C
:103AB0006C817D818E819F810E94390BE884F9841D
:103AC00016012801012E000C66087708D1016D91BE
:103AD0001D01F701F081FB8322E0E20EF11C70E092
:103AE00080E090E00E94812D4B015C01C301B20196
:103AF0000E94832D9B01AC01C501B4010E94862F59
:103B00000E94F82F8B810E94DA0AEC14FD04F1F672
:103B10000F5F1F4FC8CFAA85BB85ED91FC91119710
:103B20000484F585E02DCD01099581E02B960FB633
:103B3000F894DEBF0FBECDBFDF91CF911F910F91E3
:103B4000FF90EF90DF90CF90BF90AF909F908F90BD
:103B50007F906F905F904F903F902F9008952F929D
:103B60003F924F925F926F927F928F929F92AF920D
:103B7000BF92CF92DF92EF92FF920F931F93CF935A
:103B8000DF93CDB7DEB729970FB6F894DEBF0FBE2F
:103B9000CDBF99878887072E000C880B990B0E9450
:103BA000832D6B017C0120E030E048E452E40E9468
:103BB000862F0E94F82F8B01072E000C880B990B83
:103BC0000E94832D9B01AC01C701B6010E94862F84
:103BD0000E94F82F9B01770F440B550B2A833B83E0
:103BE0004C835D832884398438E0230E311C48855A
:103BF00059854E5F5F4F5F834E83101611069CF50B
:103C00006A817B818C819D810E94390BEE80FF80CF
:103C100061012801012E000C66087708D6016D911C
:103C20006D01F701F081F98322E0E20EF11C70E0F2
:103C300080E090E00E94812D4B015C01C301B20144
:103C40000E94832D9B01AC01C501B4010E94862F07
:103C50000E94F82F89810E94DA0AE214F304F1F637
:103C600001501109CACFA885B985ED91FC91119732
:103C70000684F785E02DCD01099581E029960FB6E0
:103C8000F894DEBF0FBECDBFDF91CF911F910F9192
:103C9000FF90EF90DF90CF90BF90AF909F908F906C
:103CA0007F906F905F904F903F902F900895EF928C
:103CB000FF920F931F93CF93DF93EC018C010E5F64
:103CC0001F4F7C0188E0E80EF11CF80180810E5F37
:103CD0001F4F61E00E94AA250E151F05B1F7E8816C
:103CE000F9810484F585E02DCE01DF91CF911F91FC
:103CF0000F91FF90EF900994CF93DF93EC010E9416
:103D0000E31ACE01DF91CF910C948D2C0C948D2C65
:103D1000CF93DF931F92CDB7DEB7FC0183A591E06F
:103D20009093F603809318041092F70310921904ED
:103D300087EB94E049830E946F154981642F87EBDC
:103D400094E00E946F1581E00F90DF91CF910C9469
:103D5000822240E26BE60C94881ECF92DF92EF92B3
:103D6000FF920F931F93CF93DF93EC010E94730B8D
:103D70006B017C018E899F89A88DB98DA701960161
:103D8000281B390B4A0B5B0B2530310541055105CA
:103D900008F402C18BA511E01093F6038093180478
:103DA0001092F703109219046BE387EB94E00E94E2
:103DB0006F1580E00E94822241E06EE08BA50E9498
:103DC000DF228AE0FE017096DE01169601900D92C8
:103DD0008A95E1F787EB94E00E94ED14082F87EBBA
:103DE00094E00E94ED1420E030E0302F822B932BE2
:103DF000998B888B87EB94E00E94ED14082F87EB5A
:103E000094E00E94ED1420E030E0302F822B932BC1
:103E10009B8B8A8B87EB94E00E94ED14082F87EB35
:103E200094E00E94ED1420E030E0302F822B932BA1
:103E30009D8B8C8B87EB94E00E94ED1487EB94E0D4
:103E40000E94ED1487EB94E00E94ED14082F87EB9D
:103E500094E00E94ED1420E030E0302F822B932B71
:103E60009B8F8A8F87EB94E00E94ED14082F87EBDD
:103E700094E00E94ED1420E030E0302F822B932B51
:103E80009D8F8C8F87EB94E00E94ED14082F87EBB9
:103E900094E00E94ED142889398946E035952795EC
:103EA0004A95E1F7398B288B2A893B8956E035956D
:103EB00027955A95E1F73B8B2A8B2C893D8966E043
:103EC000359527956A95E1F73D8B2C8B2A8D3B8D97
:103ED00076E0359527957A95E1F73B8F2A8F2C8DE3
:103EE0003D8DE6E035952795EA95E1F73D8F2C8FDE
:103EF00020E030E0302F822B932BF6E095958795CC
:103F0000FA95E1F79F8F8E8FCE8ADF8AE88EF98E41
:103F1000C8A2D9A2EAA2FBA28BA51093F6038093B4
:103F200018041092F703109219046AE387EB94E0E7
:103F30000E946F1580E00E94822241E061E08BA523
:103F40000E94DF2287EB94E00E94ED1496958795FE
:103F5000880F91E0803409F090E099A791111CC07E
:103F60008CA19DA1AEA1BFA1A7019601281B390B71
:103F70004A0B5B0B253031054105510568F0CCA299
:103F8000DDA2EEA2FFA21AA6E881F9810488F589D4
:103F9000E02DCE01099588A7DF91CF911F910F9158
:103FA000FF90EF90DF90CF900895CF93DF93EC01D7
:103FB0008DA5811127C01092AE031092AD0310920F
:103FC000F703109219041092F50381E08093F40333
:103FD0001092CF0361E082E10E947A2561E083E1E3
:103FE0000E947A258091B9008E7F8093B9008091DC
:103FF000B9008D7F8093B90088E48093B80085E490
:104000008093BC0040E06BE6CE010E94881E40E138
:104010006BE1CE010E94881E40E06CE1CE010E945F
:10402000881E40E268E3CE010E94881EEC81FD817B
:1040300046816FE1CE010E94881E42E060E2CE011F
:104040000E94881E81E08DA7DF91CF910895CF93C4
:10405000DF93FC0120A131A1121613064CF4C2A17A
:10406000D0E0822F0E94512521E0C817D90709F01E
:1040700020E0822FDF91CF9108950F931F93CF936C
:10408000DF93EC018B016C307105E0F5FB01E85A20
:10409000FF4F0C94D730EBA1FCA1258530E040E028
:1040A00050E02AC0EBA1FCA122891FC0EBA1FCA11A
:1040B00021891BC0EBA1FCA1248917C0EBA1FCA1A5
:1040C000238913C0EBA1FCA125890FC0EBA1FCA1A2
:1040D00020890BC0EBA1FCA1268507C0EBA1FCA1A8
:1040E000268903C0EBA1FCA1278930E021503109CA
:1040F000032E000C440B550B60E070E0CB010E94D6
:10410000490C01C060E0E881F981462F50E002804F
:10411000F381E02DB801CE01DF91CF911F910F9176
:10412000099402960C944319EF92FF920F931F93F8
:10413000CF93DF93EC018B017C0182E0E80EF11C50
:10414000AB01552766E0C7010E947C24C7010E948D
:10415000FD180FA3DF91CF911F910F91FF90EF906A
:104160000895CF92DF92EF92FF920F931F93CF9318
:10417000DF93EC018B010E94730BC8A4D9A4EAA4BD
:10418000FBA4DC01CB018C199D09AE09BF09843663
:104190009105A105B10538F461E070E080E090E0A0
:1041A0000E94390BE8CF0E94730B68A779A78AA7F2
:1041B0009BA77E0182E0E80EF11CA80168E0C70120
:1041C0000E947C24C7010E94FD180E94730B68A7FF
:1041D00079A78AA79BA7DF91CF911F910F91FF909D
:1041E000EF90DF90CF90089508952BE331E0FC012C
:1041F00031832083E091F202F091F302E817F9078E
:1042000059F4A389B4899C918589809589238C93DD
:104210001092F3021092F2020895CF93DF93EC0113
:104220000E94F520CE01DF91CF910C948D2C1F922E
:104230000F920FB60F9211242F933F934F935F93DA
:104240006F937F938F939F93AF93BF93CF93DF939E
:10425000EF93FF93E091F202F091F302309709F4AB
:1042600052C0968DA685B785858591FF04C09C9127
:10427000892329F448C09C91892309F044C0A3896B
:10428000B4899C918589809589238C9386899789A7
:104290000197F1F7608D718DC685D785558598E0BA
:1042A00080E0DB011197F1F7282F30E03595279555
:1042B000822F4881452309F08068915091F7282F7B
:1042C000868D81FD20958091F10290E001968F739B
:1042D00099273091F002381749F0A091F102B0E02F
:1042E000A359BC4F2C938093F10203C0868D81604B
:1042F000868F828D938D0197F1F7A389B4899C9164
:104300008589892B8C93FF91EF91DF91CF91BF919C
:10431000AF919F918F917F916F915F914F913F915D
:104320002F910F900FBE0F901F901895833081F042
:1043300028F4813099F08230A1F008958730A9F0F7
:104340008830B9F08430D1F4809180008F7D03C033
:10435000809180008F7780938000089584B58F7757
:1043600002C084B58F7D84BD08958091B0008F77A1
:1043700003C08091B0008F7D8093B0000895CF93EB
:10438000DF93009779F0FC0101900020E9F7319765
:10439000AF01481B590BBC018AE194E00E94B809A7
:1043A000EC0102C0C0E0D0E042E050E065ED72E018
:1043B0008AE194E00E94B8098C0F9D1FDF91CF9194
:1043C0000895CF93DF93E0918205CE2FD0E03BE1BB
:1043D000E39FF0011124E456FA4F2081E0915C053F
:1043E000F0915D05211119C08091540590915505FA
:1043F00090930C0580930B0580915605909157057D
:1044000090930E0580930D05809158059091590564
:104410009093100580930F0519C086EF99E0909353
:104420000C0580930B053EEC3203C00111249E5F06
:1044300090930E0580930D05880F991F63E070E03F
:104440000E94C3307093100560930F058BE18C9F21
:10445000D0018D9FB00D1124A356BA4F2C9121117C
:1044600005C080915A0590915B051BC0822F90E09A
:10447000A0E0B0E09C01AD01215031094109510992
:10448000A6E4B0E00E94D52EAB01BC0183E0759597
:104490006795579547958A95D1F780E590E0841BFD
:1044A000950B9093120580931105F0931405E093FA
:1044B0001305DF91CF910895CF93DF93EB018093A4
:1044C0008205E881F9810484F585E02D682FCE010D
:1044D0000995E881F9810280F381E02D40E050E008
:1044E00060E070E0CE0109950E94E121E0911505A0
:1044F000F09116050484F585E02D85E195E0DF91C6
:10450000CF910994382F20911904909118042132E9
:1045100008F049C08091F5038111FCCF42E040933F
:10452000F5033093F4033FEF3093F3031092F2035B
:104530002093F103A8EFB3E041ED53E0FA013E2FE1
:10454000341B321718F43D913193F9CF1092D003F8
:104550002091D003990F922B9093D0039091CF0389
:10456000913061F41092CF039091D0039093BB00EF
:104570009091BC0093FDF8CF95EC01C095EE90931F
:10458000BC009091F5039230E1F39091F3039F3FCB
:1045900079F08091F303803241F08091F30380330E
:1045A00031F084E005C081E003C082E001C083E017
:1045B0001092F703109219041092F6030895909147
:1045C000F5039111FCCF613208F060E291E0909325
:1045D000F5034093F4032FEF2093F3031092F203BB
:1045E000260F2093F1039093D0039091D003880F6E
:1045F000892B8093D0038091CF03813061F4109296
:10460000CF038091D0038093BB008091BC0083FDD9
:10461000F8CF85EC01C085EE8093BC008091F50356
:104620008130E1F38091F203861710F46091F20378
:10463000A1EDB3E02FEA33E0F9018E2F821B86173C
:1046400018F48D918193F9CF1092AE036093AD036E
:10465000862F0895AF92BF92CF92DF92EF92FF9292
:104660000F931F93CF93DF938AEA8093450585E5E7
:104670008093B90585E790E09093470580934605C0
:104680001092820584E18093480510924A0581E0EA
:104690008093490528EB3BE030934E0520934D0570
:1046A00024EC39E030934C0520934B059AE090932D
:1046B0004F0580935005809351058093520588E7FC
:1046C0008093530580E092E09093550580935405C4
:1046D00080E890E0909357058093560522E330E000
:1046E00030935905209358052CE330E030935B0557
:1046F00020935A0590935D0580935C05ADE9B5E084
:10470000E3E8F5E086E0C82E97E0D92E88EE93E046
:1047100024E630E04AEFE42EF12C00EB14E060E1F7
:1047200077E252E0B52EC4E6AC2E44E150E0CC92E4
:10473000ED012197D8821182108293838283958321
:10474000848337832683F186E08693878287358743
:10475000248717870687718B608B2797188221968D
:10476000B882219618822196A88221961882508FAD
:10477000478B5B967B96C5E0E93BFC07C1F680E082
:1047800090E0FC01E25AFA4F1082118212820396E5
:1047900084329105B1F78FEF80935E0510925F052B
:1047A00010926005809361059FE7909362051092D7
:1047B0006305809364058093650510926605909368
:1047C0006705809368051092690510926A058093C9
:1047D0006B0510926C0510926D0580936E05909399
:1047E0006F05109270058093710580937205109289
:1047F0007305909374058093750510927605109259
:104800007705809378059093790510927A058093C7
:104810007B0580937C0510927D0580937E058093B7
:104820007F051092800590938105DF91CF911F91B4
:104830000F91FF90EF90DF90CF90BF90AF900895D1
:104840008F929F92AF92BF92EF92FF920F931F931E
:10485000CF93DF937B018C01C0E0D0E0CE15DF0564
:10486000C9F10E94730B6093220470932304809318
:10487000240490932504E0911A04F0911B0402840F
:10488000F385E02D8AE194E0099597FF1EC00E9410
:10489000730B8090220490902304A0902404B09085
:1048A0002504DC01CB0188199909AA09BB0980906C
:1048B0001E0490901F04A0902004B090210488153D
:1048C0009905AA05BB05B8F205C0F80181938F01CF
:1048D0002196C4CFCE01DF91CF911F910F91FF9010
:1048E000EF90BF90AF909F908F900895AB01BC0167
:1048F0008AE194E00C94B809FC018EE782838FEF83
:10490000838386E084836583808D86834F3F510552
:1049100009F010F4178201C0578340871186128670
:104920008FEE8387DF0113969F01275F3F4F80E063
:1049300090E04D91840F911DA217B307D1F7919587
:10494000819591099187828708952F923F924F9286
:104950005F926F927F928F929F92AF92BF92CF920F
:10496000DF92EF92FF920F931F93CF93DF93CDB718
:10497000DEB727970FB6F894DEBF0FBECDBF8C0110
:104980007B012C833D834E835F830E94730BF80170
:1049900080889188A288B388DC01CB0188199909A5
:1049A000AA09BB092C813D814E815F8128173907F7
:1049B0004A075B0708F05CC0B7016536710514F063
:1049C00064E670E0072E000C880B990B24E630E0BB
:1049D00040E050E00E94490C072E000C880B990B18
:1049E0000E94832D20E030E048EC52E40E94862FA4
:1049F0002B013C015801F8E0AF0EB11CCE0101962D
:104A00007C011E0194E0290E311C67014501F4016F
:104A100061914F0170E080E090E00E94812DA30140
:104A200092010E94E22D0E94FF2FF60161936F0117
:104A3000E215F30561F76801F2E0CF0ED11CF60133
:104A4000819191916F01181619062CF4F70160817C
:104A500070E00E94DA0AFFEFEF1AFF0ACA14DB04C3
:104A600071F70E94730BF801608B718B828B938BB3
:104A700027960FB6F894DEBF0FBECDBFDF91CF9162
:104A80001F910F91FF90EF90DF90CF90BF90AF906C
:104A90009F908F907F906F905F904F903F902F905E
:104AA0000895CF93DF93282F30E0F901E859FE4FA6
:104AB0008491F901EC5AFE4FD491F901E05CFE4F6C
:104AC000C491CC2391F081110E949621EC2FF0E04B
:104AD000EE0FFF1FEA5CFE4FA591B491EC91ED2320
:104AE00081E090E021F480E002C080E090E0DF917E
:104AF000CF9108951F93CF93DF93282F30E0F901D2
:104B0000E859FE4F8491F901EC5AFE4FD491F90116
:104B1000E05CFE4FC491CC23C9F0162F81110E9496
:104B20009621EC2FF0E0EE0FFF1FE45DFE4FA59104
:104B3000B4918FB7F894111105C09C91ED2FE095B9
:104B4000E92302C0EC91ED2BEC938FBFDF91CF9165
:104B50001F910895CF93DF9390E0FC01EC5AFE4F34
:104B60002491FC01E05CFE4F8491882361F190E088
:104B7000880F991FFC01EE5DFE4FC591D491FC0199
:104B8000E45DFE4FA591B491611109C09FB7F894FF
:104B90008881209582238883EC912E230BC062307C
:104BA00061F49FB7F8943881822F8095832388839E
:104BB000EC912E2B2C939FBF06C08FB7F894E88101
:104BC0002E2B28838FBFDF91CF91089521E0FC0128
:104BD000228313820895DC01ED91FC910284F38518
:104BE000E02D67E00994CF93DF93EC01898588235A
:104BF00069F08091F8029091F902DC01ED91FC914D
:104C00006F8178850084F185E02D0995E881F9812F
:104C10000084F185E02DCE01DF91CF910994FC0154
:104C200027ADFBE12F9F800D911D1124805C9F4FCC
:104C30000895FC0187AD811103C081E087AF08951D
:104C400017AE0895FC0167AF0895FC0187AD90E0B1
:104C5000089506960895FC0127ADFBE12F9F800D76
:104C6000911D11248E5A9F4F0895FC0127ADFBE141
:104C70002F9F800D911D1124805C9F4F08954196B8
:104C80000895029608958F929F92AF92BF92CF920D
:104C9000DF92EF92FF920F931F93CF93DF93CDB7E5
:104CA000DEB72C970FB6F894DEBF0FBECDBF6BE01A
:104CB00070E0CE0102960E9420246091F80270916B
:104CC000F9028E010C5F1F4F9E012E5F3F4FAE0118
:104CD000465F5F4F8091F4029091F5020E9463104D
:104CE0000E94730B4B015C01298530E0A8EEB3E014
:104CF0000E940A2F6B017C010E94730BAB01BC0167
:104D0000481959096A097B098091F8029091F902C2
:104D10004C155D056E057F0550F4DC01ED91FC91AD
:104D2000688570E00084F185E02D0995E5CFAE013E
:104D30004A5F5F4FBC018091F4029091F5020E949E
:104D400005108091F8029091F902DC01ED91FC913F
:104D50000484F585E02D09952C960FB6F894DEBFF6
:104D60000FBECDBFDF91CF911F910F91FF90EF90BC
:104D7000DF90CF90BF90AF909F908F9008950F934A
:104D80001F93CF93DF9300D01F92CDB7DEB78C0176
:104D900062E070E0CE0102960E9420242A8130E079
:104DA000F8013087278381E09B81911101C080E069
:104DB000F80181870F900F900F90DF91CF911F9195
:104DC0000F910895CF93DF9300D0CDB7DEB761E0A8
:104DD00070E0CE0102960E9420242A818091F80280
:104DE0009091F902DC01ED91FC91222321F00684DF
:104DF000F785E02D03C00484F585E02D09950F901B
:104E00000F90DF91CF910895CF93DF9300D01F9241
:104E1000CDB7DEB763E070E0CE0101960E9420249A
:104E20008091F8029091F902DC01ED91FC914981A9
:104E30005A810680F781E02D6B8109950F900F90C4
:104E40000F90DF91CF9108950F931F93CF93DF932E
:104E500000D0CDB7DEB78C0161E070E0CE010296E4
:104E60000E942024E981FA818181882321F081E058
:104E7000F801848302C0F80114820F900F90DF9133
:104E8000CF911F910F91089588ED92E00C94BF216E
:104E9000CF93DF9300D0CDB7DEB719826A8362E08B
:104EA00070E0CE0101960E9476240F900F90DF9162
:104EB000CF9108950F931F93CF93DF9300D01F924C
:104EC000CDB7DEB78C018AE194E00E94140A18166F
:104ED00019060CF0C4C08AE194E00E94F209082E81
:104EE000000C990BAA0BBB0B8E31910508F0B7C0D3
:104EF000FC01EC59FF4F0C94D730D801ED91FC9197
:104F00000684F785E02DA9C0D801ED91FC91048CB1
:104F1000F58DE02DA2C0D801ED91FC91068CF78DA6
:104F2000E02D9BC0D801ED91FC9100A0F1A1E02DF6
:104F300094C0D801ED91FC9102A0F3A1E02D8DC0A9
:104F4000D801ED91FC9104A0F5A1E02D86C0D80117
:104F5000ED91FC9106A0F7A1E02D7FC0D801ED9165
:104F6000FC910484F585E02D78C084E0898381E09C
:104F70008A8385E006C085E08983F80185818A837C
:104F800086818B8363E070E0CE0101960E947624D7
:104F900066C0D801ED91FC910288F389E02D5DC0D7
:104FA000D801ED91FC91008CF18DE02D56C0D80117
:104FB000ED91FC910488F589E02D4FC0D801ED9169
:104FC000FC910688F789E02D48C00E942A2347C03B
:104FD000D801ED91FC9100A4F1A5E02D3EC0D801CF
:104FE000ED91FC91028CF38DE02D37C0D801ED914D
:104FF000FC9102A4F3A5E02D30C0D801ED91FC9105
:1050000004A4F5A5E02D29C0D801ED91FC9106A4DA
:10501000F7A5E02D22C0D801ED91FC9100A8F1A9DF
:10502000E02D1BC0D801ED91FC9102A8F3A9E02D61
:1050300014C0D801ED91FC9104A8F5A9E02D0DC094
:10504000D801ED91FC9106A8F7A9E02D06C0D80182
:10505000ED91FC9100ACF1ADE02DC80109950F90E8
:105060000F900F90DF91CF911F910F910895FC0148
:10507000128221E023838AE194E00C94920A0C943A
:105080008D2C0C948D2C0C948D2C0895CF93DF9344
:10509000EC01E881F9810488F589E02D0995FC018E
:1050A0009389292F30E0F901EE0FFF1F2E0F3F1FCC
:1050B000FE01E20FF31F638D748D858DDF91CF911B
:1050C0000895CF93DF93EC01E881F9810488F58995
:1050D000E02D0995FC019289292F30E0F901EE0FAE
:1050E000FF1F2E0F3F1FFE01E20FF31F638D748D14
:1050F000858DDF91CF9108950F931F93CF93DF9309
:105100008C010E5F1F4FC0E0D0E0CE010E94A02EA8
:10511000F80161918F01861719F0CE010E94A82E27
:105120002196C537D10589F785E790E0DF91CF91CA
:105130001F910F91089508950895789484B5826021
:1051400084BD84B5816084BD85B5826085BD85B52B
:10515000816085BD80916E00816080936E001092A9
:105160008100809181008260809381008091810024
:1051700081608093810080918000816080938000B5
:105180008091B10084608093B1008091B000816013
:105190008093B00080917A00846080937A0080913F
:1051A0007A00826080937A0080917A008160809397
:1051B0007A0080917A00806880937A001092C10012
:1051C00064E670E080E090E00E94390B8FEE94E09E
:1051D0009093F9028093F80289E091E09093F702AE
:1051E0008093F602E0912A04F0912B0482E0808300
:1051F000E0912604F09127041082E0912804F091B8
:1052000029048FEC808310923204E0912E04F091F7
:105210002F0486E08083E0912C04F0912D0480819E
:1052200080618083E0912C04F0912D04808188605E
:105230008083E0912C04F0912D048081806880832C
:10524000E0912C04F0912D0480818F7D808361E0BA
:1052500080E10E94AA2561E081E10E94AA25C0E0C8
:10526000D0E0CE010E94A02EFE01ED5BFA4F8283BA
:105270002196C537D105A9F721E080914605909187
:1052800047058537910509F020E081E090914505BB
:105290009A3A09F080E0822321E0909182059230D1
:1052A00008F020E0822391E020914905223008F0A7
:1052B00090E0982381E02091B905253509F080E040
:1052C000892329F08091480585508A3150F089E979
:1052D00092E00E94BF210E942A2383E495E00E946D
:1052E0007C28FF24F394F0920903F0920A03F092D1
:1052F0000B03F0920C0388E080930D0380930E0360
:10530000F0920F0384E08093100310921103F09247
:10531000120386E180931303F09207038BE08093DE
:1053200008031092FC0287E18093FD0288E18093DC
:10533000FE0289E18093020381E28093010389E206
:10534000809303038AE2809304038EE28093000338
:105350008FE28093FF0280E3809306038CE290E06B
:105360000E94F82B8C0181E591E0F8019183808304
:10537000F08E128E118E138E1382128287E090E0CF
:10538000958F848F88E090E0978F868FF2A28FEFC1
:105390009FEF91A380A315A28CEF92E094A383A327
:1053A0008FE190E00E94F82BEC011B821A8288EEBC
:1053B00093E0A0E0B0E08C839D83AE83BF838BE35A
:1053C00091E0998388831F8A1E8A198E188E1B8EFE
:1053D0001A8E1D8E1C8E6E8D6E7F6D7F6E8F669504
:1053E00061706F2588E00E947A2561E088E00E9464
:1053F000AA25ECE5F1E0E491E88BE8E4F1E0E49142
:10540000F0E0EE0FFF1FE45DFE4F859194919A8BC3
:10541000898B60E087E00E94AA258E8D81FD04C003
:1054200061E087E00E947A2587E08C87EBE5F1E078
:10543000E491ED87E7E4F1E0E491F0E0EE0FFF1F87
:10544000EA5CFE4F859194919F878E87F801D38304
:10545000C28381EA91E09D8F8C8F2DEB30E03F8BF2
:105460002E8B2BE931E0398F288F2CE231E03B8FF6
:105470002A8F209168002460209368002DE630E098
:105480003C8B2B8B20E82D8B0197F1F78A8D9B8D20
:10549000892B09F1E091F202F091F302EC17FD077C
:1054A000D1F0309739F0A389B4899C918589809592
:1054B00089238C938E8D8E7F8E8F1092F1021092A5
:1054C000F002D093F302C093F202EB89FC89908141
:1054D0008D89892B808390910A0380910903890F1C
:1054E00090910B03890F90910C03890F90910D03FC
:1054F000890F90910E03890F90910F03890F90915E
:105500001003890F90911103890F90911203890F55
:10551000F80186A38EE18093140387A310A611A639
:1055200012A613A61093F5020093F40280E1809373
:10553000060181E1809305018EE08093040187E0FC
:105540008093080188E08093070180916B0080615F
:1055500080936B00D89A8091680081608093680086
:105560008AE090E00E94F82BFC018DE691E09183A7
:10557000808312821482108617821186F093FB02B8
:10558000E093FA0281E0858385E086830E94E12131
:1055900080E290E00E94F82BFC01138212821582B7
:1055A00014821682178210861186128687EB91E08C
:1055B00091838083148613868AEB95E0968785878E
:1055C0001786108A118A128A138A148A158A168AF3
:1055D000178A108E118E128E138E148E168E158EC3
:1055E000178EF0931603E0931503CF010E947A0EF5
:1055F000E0911503F09116038091FA029091FB025D
:1056000094878387C1E0A0911503B0911603129689
:105610008D919C91139714962D913C911597281775
:10562000390721F01696CC93169703C016961C9254
:10563000169715969C938E931497ED91FC91119764
:105640000680F781E02DCD0109950E94B40ADBCFD9
:105650008FEE94E00C94E31AEAE1F4E013821282F4
:1056600088EE93E0A0E0B0E084839583A683B783BF
:1056700023EC31E03183208325EC30E0358724872B
:1056800024EC30E03787268720EC30E0318B208B0C
:1056900021EC30E0338B228B22EC30E0358B248BF5
:1056A00026EC30E0378B268B118E128E138E148EE3
:1056B000E7EBF4E01382128284839583A683B78399
:1056C00085ED91E091838083EAEBF5E081E892E05B
:1056D000918380838EE090E093838283158214828D
:1056E0001682178210861186128687E692E09093C2
:1056F000440580934305E5E1F5E087E392E091837B
:10570000808388E690E094A783A78BE095E095835B
:10571000848311A610A612A61382128214A215A2C7
:1057200016A217A215A6EFEEF4E08DE192E09183A8
:10573000808383EC95EFA8E4B0E4808F918FA28FF3
:10574000B38F25E030E03383228326E030E03583D9
:10575000248329E030E03783268310861186128661
:105760001386108A118A128A138A848B958BA68BD2
:10577000B78BECEDF4E085E192E0918380832CE03F
:1057800030E03383228314821582168217821086BA
:105790001186128613861486158616861786108A39
:1057A000118A128AE9ECF4E0918380838BE090E027
:1057B0009383828314821582168217821086118643
:1057C000128613861486158616861786108A118A05
:1057D000128AE3ECF4E08DE092E09183808385E12E
:1057E0009FE0958384838FEE9EE093838283089568
:1057F000CF93DF938230910510F482E090E0E09146
:10580000C705F091C80520E030E0C0E0D0E0309757
:1058100011F14081518148175907C0F048175907C5
:1058200061F482819381209719F09B838A832BC036
:105830009093C8058093C70526C02115310519F03E
:105840004217530718F49A01BE01DF01EF010280ED
:10585000F381E02DDCCF2115310509F1281B390B2F
:105860002430310590F412968D919C911397611517
:10587000710521F0FB019383828304C09093C805D6
:105880008093C705FD01329644C0FD01E20FF31F6E
:1058900081939193225031092D933C933AC02091EA
:1058A000C5053091C605232B41F420910D0130919F
:1058B0000E013093C6052093C50520910B01309150
:1058C0000C012115310541F42DB73EB740910F0170
:1058D00050911001241B350BE091C505F091C605D0
:1058E000E217F307A0F42E1B3F0B2817390778F0B7
:1058F000AC014E5F5F4F2417350748F04E0F5F1F16
:105900005093C6054093C5058193919302C0E0E092
:10591000F0E0CF01DF91CF9108950F931F93CF93C4
:10592000DF93009709F48CC0FC0132971382128236
:105930000091C7051091C8050115110581F420815A
:105940003181820F931F2091C5053091C60528171C
:10595000390779F5F093C605E093C50571C0D80104
:1059600040E050E0AE17BF0750F412962D913C91E5
:105970001397AD012115310509F1D901F3CF9D012F
:10598000DA013383228360817181860F971F82172A
:10599000930769F4EC0128813981260F371F2E5FA8
:1059A0003F4F318320838A819B8193838283452B60
:1059B00029F4F093C805E093C70542C01396FC9301
:1059C000EE931297ED01499159919E01240F351FD5
:1059D000E217F30771F480819181840F951F02967D
:1059E00011969C938E938281938113969C938E93B0
:1059F0001297E0E0F0E0D80112968D919C911397F8
:105A0000009719F0F8018C01F6CF8D919C919801C7
:105A10002E5F3F4F820F931F2091C5053091C60521
:105A20002817390769F4309729F41092C8051092A5
:105A3000C70502C0138212821093C6050093C505E4
:105A4000DF91CF911F910F9108958F929F92AF9206
:105A5000BF92CF92DF92EF92FF92CF93DF93EC0150
:105A6000688179818A819B81611571058105910524
:105A700021F464E279ED8BE597E02DE133EF41E02D
:105A800050E00E94B62E49015A019B01AC01A7EAE1
:105A9000B1E40E94D52E6B017C01ACEEB4EFA50100
:105AA00094010E94E32EDC01CB018C0D9D1DAE1DE7
:105AB000BF1DB7FF03C00197A109B0488883998330
:105AC000AA83BB83BC01CD019F77DF91CF91FF906B
:105AD000EF90DF90CF90BF90AF909F908F90089500
