:100000000C94CA000C9434280C940D280C94A11E56
:100010000C94A11E0C94A11E0C94F2000C94F200FE
:100020000C94F2000C94F2000C94F2000C94F20088
:100030000C94F2000C94F2000C94F2000C94F20078
:100040000C9486270C94F2000C9481280C945B2865
:100050000C94F2000C94F2000C94F2000C94F20058
:100060000C94451F0C94F200310161019201CC0106
:1000700001021102230262027C0291033C04590432
:100080007B04410594097505490D770D110ED70EB6
:10009000540F980FDC0F05108D2AAC2AB32AC02A02
:1000A000C72ACC2AD52AE12AE62AEB2AA01BA31BC1
:1000B000AA1BB41BBE1BC81BD21BDC1BE61BF01B00
:1000C000F71B051C461D7D1D611D4D1D511D551D38
:1000D000591D5D1D611D651D691D6D1D4A2551253B
:1000E00058255F2566256D2574257B258225882565
:1000F000FC2596259D25A425AB25FC25FC25B225B0
:10010000B525BC25FC25FC25C325CA25D125D82528
:10011000DF25E625ED25F42505A84CCDB2D44EB952
:100120003836A9020C50B9918688083CA6AAAA2A9A
:10013000BE000000803F00000000240027002A00CD
:1001400000000000250028002B0000000000230014
:100150002600290004040404040404040202020228
:10016000020203030303030301020408102040807A
:1001700001020408102001020408102000000008F9
:10018000000201000003040700000000000000005E
:10019000252B0E2C11241FBECFEFD8E0DEBFCDBF24
:1001A00012E0A0E0B1E0EEE4F7E602C005900D92A7
:1001B000AE3FB107D9F725E0AEEFB2E001C01D9226
:1001C000A13DB207E1F710E0C9ECD0E004C02197EF
:1001D000FE010E947B33C83CD107C9F70E940F2C57
:1001E0000C949A330C9400008F929F92AF92BF921E
:1001F000CF92DF92EF92FF920F931F93CF93DF93F3
:10020000CDB7DEB72C970FB6F894DEBF0FBECDBFCB
:100210006C0180E894E00E94521283E394E00E9413
:10022000280C80E294E00E94280CD6011D968D9146
:100230009C911E97DC01ED91FC910084F185E02DED
:1002400009951091BA04D6011296ED91FC9113977D
:10025000E031F10510F00C949409EC5CFF4F0C9424
:100260007B3364EF71E080E090E00E94B81A8091E7
:10027000A1059091A205DC01ED91FC910484F58526
:10028000E02D6091ED0409952091BD048091A105B8
:100290009091A205DC01ED91FC910280F381E02DAB
:1002A00040E050E0222319F06AE070E002C061E013
:1002B00070E0099564E670E080E090E00E94B81A72
:1002C000DDC3F60185859685DC01ED91FC91068004
:1002D000F781E02D63E070E00995F601138E4BE4A1
:1002E00050E060E070E083E394E00E940D0C88230E
:1002F00019F082E090E047C780913E0490913F045E
:10030000A0914004B09141040097A105B10509F402
:1003100013C5893B9B4008F000C58091A904811159
:100320001AC50AC50091ED0410E08EEA94E00E941F
:100330005C2669837A838B838BE1809F9001819F08
:10034000300D1124890100511B4F22513B4F609108
:10035000A5057091A605AE014F5F5F4F8091A10585
:100360009091A2050E94D50B06E010E080E894E091
:100370000E94521261E070E080E090E00E94B81AA2
:100380000150110999F742E350E060E070E083E327
:1003900094E00E94800CF5C6D60116968C918823B5
:1003A000B1F06EEA74E08091A5059091A6050E94D7
:1003B000B70BF60185859685DC01ED91FC910680F1
:1003C000F781E02D62E070E00995F601178E8091CB
:1003D0003E0490913F04A0914004B09141040097E5
:1003E000A105B10509F4F3C42091B6043091B70416
:1003F0008217930708F4EBC4883E934008F0ECC5DD
:10040000E6C48091A1059091A205DC01ED91FC91DB
:100410000480F581E02D63E070E0099585E090E0CF
:100420007EC480913E0490913F04A0914004B0911D
:1004300041040097A105B10509F4D1C5843C994058
:1004400008F0CAC5CCC5D60116968C918823E1F078
:100450000E947A27F6016787708B818B928B80913F
:10046000A1059091A205DC01ED91FC910480F5813C
:10047000E02D64E070E009956EEA74E08091A505D6
:100480009091A6050E94990B0E947A27F601078198
:10049000108521853285DC01CB01801B910BA20BDD
:1004A000B30B85369105A105B10508F43DC76EEA89
:1004B00074E08091A5059091A6050E94B70B87E096
:1004C00090E061C680913E0490913F04A091400469
:1004D000B09141040097A105B10509F461C62091CE
:1004E000B6043091B7048217930708F459C6883EC2
:1004F000934008F071C554C6F6018681882309F43B
:1005000075C08091A1059091A205DC01ED91FC914F
:100510000280F381E02D40E050E066E070E0099554
:10052000F601848D882309F4BAC000E010E08BE165
:10053000982E83E394E00E94280C80913E049091D1
:100540003F04A0914004B0914104892B8A2B8B2B4E
:1005500029F45801FFEFAF1ABF0A02C0A12CB12C39
:1005600061E070E080E090E00E94B81A0091ED0434
:10057000909E80011124C80182559B4FFC01EA5ACC
:10058000FF4F208130E03A8729873197808190E0C2
:1005900098878F838EEA94E00E9441266C837D8346
:1005A0008E838EEA94E00E945C2669837A838B8333
:1005B00098012B5F3A4F79018E01075F1F4F9E0113
:1005C000295F3F4FAE014C5F5F4FBE016F5F7F4FB2
:1005D0008091A5059091A6050E94B70A85010F5F3D
:1005E0001F4F0A3F11050CF4A4CF59C0848D8823F6
:1005F000D9F080913E0490913F04A0914004B091C5
:100600004104892B8A2B8B2B09F007C680912B0480
:1006100090912C04A0912D04B0912E04892B8A2B4B
:100620008B2B09F0FAC545C680912B0490912C04C0
:10063000A0912D04B0912E04892B8A2B8B2B79F558
:100640006EEA74E08091A5059091A6050E94B70B13
:100650008091A1059091A205DC01ED91FC910280B1
:10066000F381E02D40E050E069E070E00995F6018B
:10067000148E42E350E060E070E080E294E00E947B
:10068000800C83E090E0D60113969C938E93129792
:100690000E947A27F6016783708781879287D60147
:1006A00012968D919C911397089709F03DC6009181
:1006B000ED04BBE10B9F80011124C80182559B4FC3
:1006C000FC01EA5AFF4F208130E03A8729873197B1
:1006D000808190E098878F838EEA94E00E94412683
:1006E0006C837D838E838EEA94E00E945C2669830E
:1006F0007A838B83F801EB5FFA4F7F018E01075FEE
:100700001F4F9E01295F3F4FAE014C5F5F4FBE01FF
:100710006F5F7F4F8091A5059091A6050E94B70A53
:1007200003C6D60116968C91882309F44EC00E9408
:100730007A27F601678B708F818F928F8091A10548
:100740009091A205DC01ED91FC910480F581E02DF2
:1007500065E070E00995E091A305F091A405019092
:10076000F081E02D048115818EEA94E00E944126FB
:10077000282F8EEA94E02C870E944126472F8EEA8C
:1007800094E04B870E9441262C854B858091A305E0
:100790009091A405F80109958091A3059091A40575
:1007A000FC01A081B181E091ED042BE1E29FF00119
:1007B0001124EC50FB4F408151811896ED91FC9132
:1007C000199760E070E009954BC00E947A27D60126
:1007D00017960D911D912D913C911A97AB01BC017B
:1007E000401B510B620B730BE091ED041BE11E9F4C
:1007F000F0011124EC50FB4F80819181A0E0B0E02A
:10080000481759076A077B0758F16EEA74E0809130
:10081000A5059091A6050E94B70B8091A804882396
:1008200009F473C50E947A27F60187809084A18419
:10083000B284AB01BC01481959096A097B09E091EE
:10084000ED041E9FF0011124EA50FB4F808191813D
:10085000A0E0B0E0481759076A077B0708F055C5C4
:100860008091A904882309F45FC5D6015B961C9288
:100870005B9786E090E088C44091ED04FBE14F9FD8
:10088000A00111244E505B4F6091A5057091A60503
:100890008091A1059091A2050E94770B42E350E060
:1008A00060E070E083E394E00E94800C81E090E0DF
:1008B0006AC4D60116968C91882361F06091A105D7
:1008C0007091A20580E090E00E9486168EEA94E086
:1008D0000E94B72842E350E060E070E083E394E0D8
:1008E0000E94800C42E350E060E070E080E294E01F
:1008F0000E94800CC3C0F60186818823B1F08091EC
:10090000A1059091A205DC01ED91FC910280F3819B
:10091000E02D4BE050E06BE070E0099568EE73E08D
:1009200080E090E00E94B81AFFC480913E0490914C
:100930003F04A0914004B09141048137E7E19E0754
:1009400018F08FE090E01FC4892B8A2B8B2B09F0C5
:10095000EBC4809139048111E7C4D6011D968D91B5
:100960009C911E97DC01ED91FC910680F781E02DB2
:1009700064E070E0099588E190E00E949C2EFC0103
:100980008091A1059091A2052091A5053091A60521
:1009900013821282158214821682178210861186A3
:1009A000128648E151E0518340834EEA54E0548777
:1009B000438736872587908B878780E894E0928BE2
:1009C000818B83E394E0948B838B80E294E0968B1D
:1009D000858B178AD6015E96FC93EE935D9711E0A6
:1009E000D6015D968D919C915E97DC01ED91FC9115
:1009F0000084F185E02D099581112EC0D6011D9648
:100A00008D919C911E97DC01ED91FC910084F18504
:100A1000E02D0995F601A58DB68D12968D919C91CC
:100A2000139714962D913C9115972817390721F0AB
:100A300016961C93169703C016961C921697159639
:100A40009C938E931497ED91FC9111970680F781FA
:100A5000E02DCD010995C4CFF601858D968D0097C7
:100A600039F0DC01ED91FC910280F381E02D0995D4
:100A70000E940B1680E894E00E94CE1C81E090E07A
:100A80004EC180E894E00E94BC15E0911E04F091F4
:100A90001F04309709F0099583B7817F8C6083BF6D
:100AA00083B7816083BF83B7816083BF889583B735
:100AB0008E7F83BF83B78E7F83BFE0911C04F0914C
:100AC0001D04309709F00995D601ED91FC91048041
:100AD000F581E02DC601099546E950E060E070E03F
:100AE00083E394E00E94800C09C1F601868188238B
:100AF00009F49FC085859685DC01ED91FC91068007
:100B0000F781E02D60E070E00995F6018585968516
:100B1000DC01ED91FC910084F185E02D0995809137
:100B2000A1059091A205DC01ED91FC910280F38179
:100B3000E02D44E150E06BE070E009958091A5055F
:100B40009091A605DC01ED91FC910680F781E02DE6
:100B500040E050E060E409958091A5059091A605DC
:100B6000DC01ED91FC910684F785E02D0995F601F5
:100B700083859485DC01ED91FC910480F581E02D65
:100B8000099544E650E060E070E083E394E00E9461
:100B9000800C8091A5059091A605DC01ED91FC915A
:100BA0000484F585E02D099505E010E08091A50508
:100BB0009091A605DC01ED91FC910680F781E02D76
:100BC00040E050E060E409958091A5059091A6056C
:100BD000DC01ED91FC910684F785E02D099564EF29
:100BE00071E080E090E00E94B81A8091A505909194
:100BF000A605DC01ED91FC910484F585E02D0995B5
:100C000064EF71E080E090E00E94B81A0150110991
:100C100069F68091A1059091A205DC01ED91FC910E
:100C20000280F381E02D40E150E06BE070E0099537
:100C30007BC380913E0490913F04A0914004B09109
:100C40004104892B8A2B8B2B09F45CC005E010E052
:100C50008091A5059091A605DC01ED91FC9106809F
:100C6000F781E02D40E050E060E409958091A50512
:100C70009091A605DC01ED91FC910684F785E02DAD
:100C800009956AEF70E080E090E00E94B81A8091C8
:100C9000A5059091A605DC01ED91FC910484F585F4
:100CA000E02D09956AEF70E080E090E00E94B81AAC
:100CB0000150110969F642E350E060E070E083E31F
:100CC00094E00E94800C0E940B1680E894E00E9441
:100CD000CE1C8091A1059091A205DC01ED91FC91C3
:100CE0000280F381E02D41E150E06BE070E0099576
:100CF00068EE73E080E090E00E94B81AF60113827B
:100D0000128210C0F60183859485DC01ED91FC917F
:100D10000680F781E02D099507C38CE090E0F6018D
:100D2000938382830E947A27D60117966D937D93D1
:100D30008D939C931A97F8C280912B0490912C0468
:100D4000A0912D04B0912E040097A105B10531F0BA
:100D5000893E934018F08BE090E0E1CF0E947A2723
:100D6000F60187809084A184B284DC01CB018819CC
:100D70009909AA09BB0981339547A105B10508F472
:100D8000D3C20E947A27D60117968D909D90AD9080
:100D9000BC901A979B01AC01281939094A095B09D3
:100DA00049015A01212F30E0A0E6BAEE0E94AE318F
:100DB000681579058A059B0508F0B6C28091BA04CA
:100DC00081508E3F08F0B0C28DE090E0DCC10E94FF
:100DD0007A274091B504D60117960D911D912D915A
:100DE0003C911A974B015C01801A910AA20AB30A3E
:100DF000242F30E0A8EEB3E00E94AE3186169706AD
:100E0000A806B90628F04A3018F08AE090E087CFAB
:100E10008091A9048823D9F0D6015B961C92809119
:100E20003E0490913F04A0914004B0914104892B6D
:100E30008A2B8B2B09F4CCC18091BC04882309F444
:100E4000C7C181E0F601848F88E090E069CF4BE470
:100E500050E060E070E083E394E00E940D0C882392
:100E600079F08091BB04882359F0F601938D81E0DD
:100E70008927838F882309F457C289E090E04FCFF8
:100E80004BE450E060E070E080E294E00E940D0CE2
:100E9000882311F0F60111C080912B0490912C044D
:100EA000A0912D04B0912E040097A105B10589F001
:100EB000893C910508F01CC10CC0138E07C0938DAE
:100EC00081E08927838F882309F42EC289E090E08E
:100ED00027CF8091A804882371F18091820490919A
:100EE0008304181619063CF5D6015B968C91811186
:100EF000C4CF0E947A27F6010789108D218D328D8B
:100F0000AB01BC01401B510B620B730BE091ED0474
:100F10002BE1E29FF0011124E850FB4F8081918189
:100F2000A0E0B0E0481759076A077B0708F4FCC146
:100F300084E090E028C10E947A27E091ED04D60178
:100F400017960D911D912D913C911A97AB01BC0103
:100F5000401B510B620B730B2E2F30E0BBE1EB9F5C
:100F6000F0011124E250FB4F80819181A0E0B0E0BC
:100F7000481759076A077B07C0F0D6015F968C9126
:100F8000811113C08091A1059091A205DC01ED9122
:100F9000FC910280F381E02D40E050E069E070E0D8
:100FA000099581E0F601878FBFC18091A5059091D9
:100FB000A605FC01A081B1814BE1429FF001439F56
:100FC000F00D1124EE5FFA4F608170E01896ED91FC
:100FD000FC9119970995A8C18AE090E0D4C080914E
:100FE000A904882389F10E947A27D60117960D91CA
:100FF0001D912D913C911A97DC01CB01801B910B27
:10100000A20BB30B85369105A105B10558F461E03B
:1010100070E080E090E00E94B81A80E894E00E94BE
:101020005212E1CF80913E0490913F04A091400480
:10103000B0914104892B8A2B8B2B09F45CC08091E1
:10104000BC04811155C057C04BE450E060E070E033
:1010500080E294E00E940D0C8823F1F00E947A2730
:10106000F6010781108521853285DC01CB01801BCB
:10107000910BA20BB30B85369105A105B10508F0C4
:101080001CCF80E294E00E94280C61E070E080E0D8
:1010900090E00E94B81AE2CF4BE450E060E070E0CC
:1010A00083E394E00E940D0C882341F18091BB04FE
:1010B000882321F10E947A27F60107811085218576
:1010C0003285DC01CB01801B910BA20BB30B853663
:1010D0009105A105B10508F0F2CE83E394E00E94EA
:1010E000280C61E070E080E090E00E94B81AE2CF46
:1010F00088E090E048C086E090E045C08091A80478
:1011000081111EC00E947A27F60107811085218572
:101110003285AB01BC01401B510B620B730BE0919C
:10112000ED042BE1E29FF0011124E650FB4F80819A
:101130009181A0E0B0E0481759076A077B0708F5DE
:101140000E947A27D60117960D911D912D913C9101
:101150001A97AB01BC01401B510B620B730BE09162
:10116000ED04BBE1EB9FF0011124E450FB4F8081C3
:101170009181A0E0B0E084179507A607B70708F0B3
:10118000D3C083E090E0D60113969C938E93129780
:101190000E947A27F6016783708781879287C4C08F
:1011A0008091A9048823B9F00E947A27D6011F965E
:1011B0000D911D912D913C915297DC01CB01801B2B
:1011C000910BA20BB30B893C9105A105B10518F059
:1011D00086E090E0A4CD0E947A27F6010781108571
:1011E00021853285AB01BC01401B510B620B730B97
:1011F000E091ED042BE1E29FF0011124E850FB4F58
:1012000080819181A0E0B0E0481759076A077B0709
:1012100008F48AC083E090E082CD0E947A27D6014C
:1012200017960D911D912D913C911A97DC01CB01E0
:10123000801B910BA20BB30B893E9340A105B10516
:1012400008F42DCA42E350E060E070E083E394E0EC
:101250000E94800C42E350E060E070E080E294E0A5
:101260000E94800C6EEA74E08091A5059091A6051D
:101270000E94B70B8091A1059091A205DC01ED9130
:10128000FC910280F381E02D40E050E069E070E0E5
:101290000995F601148E83E090E0938382830E9487
:1012A0007A27D60117966D937D938D939C931A9709
:1012B000F6C98091A804882309F4F1C90E947A270D
:1012C000F6010781108521853285DC01CB01801B69
:1012D000910BA20BB30B893E9340A105B10508F415
:1012E000DEC98091B404882309F4D9C96EEA74E098
:1012F0008091A5059091A6050E94B70BD6015C963A
:101300001C925C9784E090E0BFC983E090E0D60136
:1013100013969C938E9312970E947A27F601678307
:101320007087818792879CCA2C960FB6F894DEBF8F
:101330000FBECDBFDF91CF911F910F91FF90EF9026
:10134000DF90CF90BF90AF909F908F900895FF92C5
:101350000F931F93CF93DF93EC018B01F42EE88161
:10136000F9810680F781E02D40E050E0DB016C91CF
:101370000995E881F9810680F781E02D41E050E090
:10138000D80111966C91CE010995E881F98106800A
:10139000F781E02D42E050E0D80112966C91CE0129
:1013A0000995FF2061F0E881F9810684F785E02D39
:1013B000CE01DF91CF911F910F91FF900994DF91A2
:1013C000CF911F910F91FF900895FC018789089597
:1013D00008950895CF93DF93EC011B821A828091C8
:1013E000A3059091A405DC01ED91FC916091BE04F0
:1013F00070E00284F385E02D09958091A505909118
:10140000A605DC01ED91FC910190F081E02D09959C
:101410008091A1059091A205DC01ED91FC910190D4
:10142000F081E02D099580E894E00E94CE1C809127
:10143000350490913604181619061CF462E00E94D7
:101440007C1A8091220490912304181619061CF42A
:1014500062E00E947C1A8D859E85DC01ED91FC91F5
:101460000480F581E02D099564E670E080E090E06D
:101470000E94B81A6091B30470E06530710514F4ED
:1014800064E170E08091A1059091A205DC01ED91ED
:10149000FC910084F185E02D099564E670E080E020
:1014A00090E0DF91CF910C94B81A0C94312F0C94EA
:1014B000312F0C94312F87FF0C944C1A089586EA33
:1014C00092E00E94E9158091080118161CF462E070
:1014D0000E947C1A8091070118161CF461E00E949A
:1014E0004C1A60E0809105010E945B0A60E08091E7
:1014F00006010E945B0A60E0809109010E945B0A7C
:101500006CE271E080E090E00C94B81A8CEA92E012
:101510000E94E9156AEF70E080E090E00E94B81A3E
:1015200080910801181644F461E00E947C1A60E082
:10153000809108010E944C1A8091070118161CF432
:1015400060E00E944C1A61E0809106010E945B0AF3
:1015500061E0809105010E945B0A60E080910401D6
:101560000E945B0A61E0809109010C945B0A2F9252
:101570003F924F925F926F927F928F929F92AF9223
:10158000BF92CF92DF92EF92FF920F931F93CF9370
:10159000DF9300D01F92CDB7DEB76C015B013A013B
:1015A00049010E947A272091000330910103409164
:1015B0000203509103031B012C01221A330A440A2F
:1015C000550AF70180819181A0E0B0E02816390624
:1015D0004A065B0608F475C00E947A2760930003F0
:1015E000709301038093020390930303F3018081BE
:1015F0009181A28189839A83AB830E94173024E66C
:1016000030E040E050E00E945A31F4012081318105
:101610002901330F660877084616570668067906CB
:101620003CF4F50180819181A28189839A83AB8307
:10163000F8018081918164E670E0681B790B072EC8
:10164000000C880B990B24E630E040E050E00E944B
:10165000D0270E94273020E030E048EC52E40E947E
:101660002A324B015C01698170E080E090E00E94C9
:101670002530A50194010E9486300E94A33269831F
:101680006A8170E080E090E00E942530A50194011D
:101690000E9486300E94A3326A836B8170E080E0F2
:1016A00090E00E942530A50194010E9486300E949E
:1016B000A3326B8341E0BE016F5F7F4FC6010E9482
:1016C000A7090F900F900F90DF91CF911F910F916D
:1016D000FF90EF90DF90CF90BF90AF909F908F9052
:1016E0007F906F905F904F903F902F9008950F9351
:1016F0001F93CF93DF93EB018A01DC01ED91FC9105
:101700000280F381E02D40E050E068E070E0099550
:10171000E881F981D8016D917C910480F581E02DFB
:10172000CE0109958823A1F3DF91CF911F910F91ED
:1017300008950F931F93CF93DF9300D01F92CDB7DF
:10174000DEB78C01CB010E94412669837A838B83AB
:1017500041E0BE016F5F7F4FC8010E94A7090F9053
:101760000F900F90DF91CF911F910F9108950F93DC
:101770001F93CF93DF9300D01F92CDB7DEB78C01BC
:10178000CB010E945C2669837A838B8341E0BE0192
:101790006F5F7F4FC8010E94A7090F900F900F90B5
:1017A000DF91CF911F910F910895CF92DF92EF9229
:1017B000FF920F931F93CF93DF93EB017A0169019F
:1017C000DC01ED91FC910280F381E02D40E050E0DE
:1017D00062E070E00995F6016081718180E090E03F
:1017E0000E94B81A40E0B701CE010E94A709E88123
:1017F000F981D8016D917C910280F381E02DCE01B9
:1018000009958823A1F3DF91CF911F910F91FF904C
:10181000EF90DF90CF90089508950F931F93411597
:1018200051056105710571F0FC0107851089218959
:10183000328922273327041715072607370710F4A4
:1018400080E002C0FC0186811F910F9108950895E8
:101850000F931F93CF93DF93EC018A819B8118161E
:1018600019062CF40E94231A21E0892B09F020E0AC
:101870002C838D81222319F1811110C00E947A27B7
:101880006F83788789879A871F86188A198A1A8AA8
:101890001E821B861C861D861E862BC00E947A27F0
:1018A0000F81188529853A85DC01CB01801B910BBE
:1018B000A20BB30B8B879C87AD87BE871AC088238A
:1018C00099F00E947A270F81188529853A85DC01D5
:1018D000CB01801B910BA20BB30B8F87988BA98B2D
:1018E000BA8B81E08E8305C01B861C861D861E86F2
:1018F0001E828C818D83DF91CF911F910F9108956E
:10190000EF92FF920F931F93CF93DF9300D000D0FD
:10191000CDB7DEB78C01CB01BA0125E030E040E065
:1019200050E00E945A31E12CF12CCA01B9012983FF
:101930003A834B835C830E94B81AC8010E94280C2A
:10194000F801868129813A814B815C818111EBCF3D
:1019500083859485A585B685892B8A2B8B2B19F7D2
:10196000FFEFEF1AFF0A85E0E816F104F4F20F909A
:101970000F900F900F90DF91CF911F910F91FF90DB
:10198000EF9008958F929F92AF92BF92DF92EF9265
:10199000FF920F931F93CF93DF93EC018B899C8968
:1019A000DC011B968D909D90AD90BC901E9781148C
:1019B0009104A104B104A1F1D22E7A018B0144E675
:1019C00050E060E070E00E940D0C811129C0B9EE7A
:1019D0008B16B3E09B0620F18F859889DC01ED9191
:1019E000FC914D2D50E00280F381E02DB701099567
:1019F00064E670E080E090E00E94B81A42E350E0B4
:101A000060E070E08B899C890E94800C1B830A83B4
:101A10000E947A276F83788789879A8781E001C03F
:101A200080E0DF91CF911F910F91FF90EF90DF90B9
:101A3000BF90AF909F908F900895EF92FF920F9379
:101A40001F93CF93DF93EC018B899C890E94280C14
:101A50008D899E890E94280C89899A89DC01ED91E3
:101A6000FC910284F385E02D09958B859C85DC0132
:101A7000ED91FC910480F581E02D09958C01EA81BE
:101A8000FB81E830F10508F0EFC2EC5BFF4F0C94EE
:101A90007B338F859889DC01ED91FC910280F38185
:101AA000E02D4BE050E06BE070E0099560ED77E0F1
:101AB00080E090E00E94B81A42E350E060E070E0FD
:101AC0008B899C890E94800C42E350E060E070E0CA
:101AD0008D899E890E94800C81E090E09B838A839F
:101AE0000E947A276F83788789879A87BDC28E8103
:101AF000882301F18F859889DC01ED91FC910280AA
:101B0000F381E02D4EE050E06BE070E009956CED64
:101B100075E080E090E00E94B81A8F859889DC011A
:101B2000ED91FC910280F381E02D40E050E069E00E
:101B300070E009958F859889DC01ED91FC91068410
:101B4000F785E02D0995FC01F38444E650E060E060
:101B500070E08B899C890E940D0C882369F0D80164
:101B600013968C9113978F1520F48F5F13968C9397
:101B700016C085E0F80110C044E650E060E070E077
:101B80008D899E890E940D0C882309F444C0F801B8
:101B90008381863018F08150838301C0F3828F8562
:101BA0009889DC01ED91FC91D80113966C9170E05D
:101BB0000084F185E02D099566E970E080E090E011
:101BC0000E94B81AF8018381F8124EC28F85988955
:101BD000DC01ED91FC910280F381E02D45E150E0C4
:101BE0006BE070E009956CED75E080E090E00E949C
:101BF000B81A8F859889EC01E881F9810280F38118
:101C0000E02D40E050E069E070E0099566E970E0A1
:101C100080E090E03BC02DE04BE050E062E070E0FF
:101C2000FFC18B859C85DC01ED91FC910284F385DD
:101C3000E02D09958C018E8181114FC044E650E062
:101C400060E070E08B899C890E940D0C882331F143
:101C50008B859C85DC01ED91FC910284F385E02D60
:101C60000995FC0180818B3028F4D8018C918F5F1D
:101C70008C9302C0F80110826B857C858D859E85D2
:101C80000E94B70B64E670E080E090E0DF91CF91B6
:101C90001F910F91FF90EF900C94B81A44E650E01A
:101CA00060E070E08D899E890E940D0C882309F107
:101CB0008B859C85DC01ED91FC910284F385E02D00
:101CC0000995FC018081882329F0D8018C918150ED
:101CD0008C9303C08BE0F80180836B857C858D85B8
:101CE0009E85DF91CF911F910F91FF90EF900C9403
:101CF000B70B89899A89DC01ED91FC910680F78107
:101D0000E02D0995882389F18F859889DC01ED9173
:101D1000FC910480F581E02D64E070E00995F80104
:101D2000E280F12C8D859E85DC01ED91FC9100888F
:101D3000F189E02D0995E816F9062CF4F801828165
:101D40008F5F828303C0D80112961C9264EF71E00A
:101D500080E090E00E94B81A8F859889EC01E881B4
:101D6000F9810680F781E02D98C02CE04BE050E02F
:101D700063E070E0CE010E94C20CAD85BE85ED919E
:101D8000FC911197882329F00484F585E02DCD017D
:101D900084C0E8016A8170E00084F185E02DCD0106
:101DA000DF91CF911F910F91FF90EF9009948B8558
:101DB0009C85DC01ED91FC910284F385E02D099571
:101DC0008C018E8181114AC044E650E060E070E0F1
:101DD0008B899C890E940D0C8823F1F08B859C8552
:101DE000DC01ED91FC910284F385E02D0995FC0165
:101DF00081818B3040F4D80111968C9111978F5FBF
:101E000011968C9302C0F80111826B857C858D85BB
:101E10009E850E94990B36CF44E650E060E070E06A
:101E20008D899E890E940D0C882321F18B859C85CC
:101E3000DC01ED91FC910284F385E02D0995FC0114
:101E40008181882341F0D80111968C91119781509E
:101E500011968C9303C08BE0F80181836B857C85A0
:101E60008D859E85DF91CF911F910F91FF90EF900F
:101E70000C94990B2FE04BE050E064E070E0CE0151
:101E80000E94C20C882309F4EFC08D859E85DC0179
:101E9000ED91FC910484F585E02DDF91CF911F91A8
:101EA0000F91FF90EF9009948B859C85DC01ED915B
:101EB000FC910488F589E02D09958C0144E650E0F9
:101EC00060E070E08B899C890E940D0C882341F0B2
:101ED000F801818D893010F48F5F11C0118E13C00D
:101EE00044E650E060E070E08D899E890E940D0C10
:101EF000882349F0F801818D882319F08150818F62
:101F000002C089E0818F44E650E060E070E08B8998
:101F10009C890E940D0C81117BC044E650E060E07A
:101F200070E08D899E890E940D0C811171C073C073
:101F30008B859C85DC01ED91FC910488F589E02D71
:101F400009958C0144E650E060E070E08B899C8943
:101F50000E940D0C882341F0F801828D893010F425
:101F60008F5F0CC0128E0EC0ED89FE89868188239A
:101F700049F0F801828D882319F08150828F02C0C8
:101F800089E0828F44E650E060E070E08B899C89B4
:101F90000E940D0C81114DC044E650E060E070E0FD
:101FA0008D899E890E940D0C811143C020E048E07C
:101FB00050E066E070E034C08B859C850E94B728B5
:101FC0008F859889DC01ED91FC910280F381E02DF1
:101FD00040E050E061E070E0099587E090E09B838D
:101FE0008A830E947A276F83788789879A8742E35A
:101FF00050E060E070E08B899C89DF91CF911F9168
:102000000F91FF90EF900C94800C81E08F8B2CC08F
:10201000F801418D11C022E14BE050E065E070E035
:10202000CE01DF91CF911F910F91FF90EF900C9413
:10203000C20CD8015A964C918F859889442359F047
:10204000DC01ED91FC9150E00280F381E02D6BE02A
:1020500070E0099517CEEC01E881F9810280F381E7
:10206000E02D43E150E0F3CFDF91CF911F910F912D
:10207000FF90EF90089542E350E060E070E0FC01D3
:10208000838994890C94800C089580E090E0892BDA
:1020900029F00E94E02681110C9400000895FC01B3
:1020A000758364830895FC01758364830895FC013E
:1020B00045A356A367A370A70895FC0163874487CF
:1020C00025870895FC0174A363A30895FC0172A3FE
:1020D00061A3089588E067FF16C02D9A00000000F4
:1020E00000000000000000000000000000000000F0
:1020F000000000002D98000000000000000000001B
:102100000000000012C02D9A000000000000000036
:102110002D980000000000000000000000000000FA
:1021200000000000000000000000660F815099F6DA
:102130000895FC01228D338D37FF03C03195219521
:102140003109868D978D97FF03C0919581959109EF
:10215000281739070CF49C01848D958D97FF03C0D7
:10216000919581959109A481B58114964D915C91C9
:10217000159724173507D0F082179307B8F4138208
:10218000128212968D919C9113972817390720F08F
:1021900081E090E0938382838D919C912817390789
:1021A00078F082E090E0938382830AC018962D91A4
:1021B0003C9119972817390728F481E082A702C0BB
:1021C00081E0089580E00895FC0182A50895FC0156
:1021D00081A50895FC0180A50895FC018281938169
:1021E0000895FF920F931F93CF93DF93F62E8C01E8
:1021F000075D1F4FEC01AF96F801819191918F011E
:10220000181619063CF4FF2011F061E001C060E0EF
:102210000E944C1A0C171D0779F7DF91CF911F917F
:102220000F91FF9008950F931F93CF93DF93EC01CD
:102230008C819D818230910581F034F4009751F0BA
:10224000019709F4B9C058C08330910529F104976A
:10225000D9F152C01B861A8651C00E947A270E817E
:102260001F8128853985DC01CB01801B910BA20BD6
:10227000B30B893C9105A105B10508F4A0C08A857E
:102280009B85803891050CF09AC00E947A276E8356
:102290007F838887998790C00E947A270E811F814B
:1022A00028853985DC01CB01801B910BA20BB30B78
:1022B00085369105A105B10508F4A4C08A859B85E2
:1022C000892B09F0BBC09EC00E947A270E811F8116
:1022D00028853985DC01CB01801B910BA20BB30B48
:1022E000853F9140A105B10508F4ABC08A859B8567
:1022F000892B09F0A3C0A5C01D821C820A851B85FD
:102300000A80DB81C02D61E08C2F0E947C1A0115B0
:10231000110509F447C00F3F110509F445C0FE013E
:10232000FF27E458FE4FE491E330F9F048F4E13040
:10233000B9F0E230A1F584B5806284BD08BD9AC0D1
:10234000E730E9F0E83019F1E43049F58091800098
:1023500080628093800010938B0000938A008AC073
:1023600084B5806884BD07BD85C080918000806889
:102370008093800010938900009388007BC0809137
:10238000B00080688093B0000093B30073C0809168
:10239000B00080628093B0000093B4006BC000383E
:1023A000110514F460E001C061E08C2FDF91CF9142
:1023B0001F910F910C944C1A80E890E020C00E946D
:1023C0007A270E811F8128853985DC01CB01801B8E
:1023D000910BA20BB30B893C9105A105B10508F443
:1023E0008DCF8A859B85813491050CF487CF0E941F
:1023F0007A276E837F838887998780E490E09B8724
:102400008A877CCF0E947A270E811F812885398593
:10241000DC01CB01801B910BA20BB30B813A9F40D7
:10242000A105B10508F46ACF8A859B85892B09F03F
:1024300065CF80E490E09B878A8715C01B861A864B
:1024400012C00E947A270E811F8128853985DC0100
:10245000CB01801B910BA20BB30B853F9140A105D3
:10246000B10510F74BCF0E947A276E837F83888750
:10247000998744CFDF91CF911F910F910895CF930A
:10248000DF93EC0161E08A810E947C1A60E08A811E
:10249000DF91CF910C944C1A0C94312F0C94312F66
:1024A0000C94312FCF92DF92EF92FF920F931F93F4
:1024B000CF93DF93EC010E947A276B017C018E8918
:1024C0009F89A88DB98DA7019601281B390B4A0B4E
:1024D0005B0B253031054105510508F402C18BA580
:1024E00011E010934D0380936F0310924E031092EE
:1024F00070036BE38EE094E00E944F1E80E00E9428
:10250000AC1641E06EE08BA50E9409178AE0FE013F
:102510007096DE01169601900D928A95E1F78EE095
:1025200094E00E94AE1C082F8EE094E00E94AE1C46
:1025300020E030E0302F822B932B998B888B8EE01C
:1025400094E00E94AE1C082F8EE094E00E94AE1C26
:1025500020E030E0302F822B932B9B8B8A8B8EE0F8
:1025600094E00E94AE1C082F8EE094E00E94AE1C06
:1025700020E030E0302F822B932B9D8B8C8B8EE0D4
:1025800094E00E94AE1C8EE094E00E94AE1C8EE0AF
:1025900094E00E94AE1C082F8EE094E00E94AE1CD6
:1025A00020E030E0302F822B932B9B8F8A8F8EE0A0
:1025B00094E00E94AE1C082F8EE094E00E94AE1CB6
:1025C00020E030E0302F822B932B9D8F8C8F8EE07C
:1025D00094E00E94AE1C082F8EE094E00E94AE1C96
:1025E0002889398946E0359527954A95E1F7398B51
:1025F000288B2A893B8956E0359527955A95E1F72E
:102600003B8B2A8B2C893D8966E0359527956A9509
:10261000E1F73D8B2C8B2A8D3B8D76E03595279508
:102620007A95E1F73B8F2A8F2C8D3D8DE6E035952D
:102630002795EA95E1F73D8F2C8F20E030E0302F91
:10264000822B932BF6E095958795FA95E1F79F8F6E
:102650008E8FCE8ADF8AE88EF98EC8A2D9A2EAA22E
:10266000FBA28BA510934D0380936F0310924E0332
:10267000109270036AE38EE094E00E944F1E80E0A7
:102680000E94AC1641E061E08BA50E9409178EE024
:1026900094E00E94AE1C96958795880F91E0803457
:1026A00009F090E099A791111CC08CA19DA1AEA149
:1026B000BFA1A7019601281B390B4A0B5B0B2530E4
:1026C00031054105510568F0CCA2DDA2EEA2FFA2C2
:1026D0001AA6E881F9810488F589E02DCE010995D3
:1026E00088A7DF91CF911F910F91FF90EF90DF901E
:1026F000CF900895FC01848DDF01A80FB11DA35A6E
:10270000BF4F2C91848D90E001968F739927848F11
:10271000A689B7892C93A089B1898C9180648C9308
:10272000938D848D981306C00288F389E02D8081F3
:102730008F7D80830895089508958BED91E0019732
:10274000F1F70895EF92FF921F93CF93DF931F92BB
:10275000CDB7DEB7162FF894FC01E684F784642F1A
:10276000C70129830E946A10612FC7010E946A1065
:102770002981622FC7010E946A1078940F90DF911F
:10278000CF911F91FF90EF900895BF92CF92DF926B
:10279000EF92FF920F931F93CF93DF937C01D62E7E
:1027A000C42EB22EC0E0D0E0C017D10744F42B2DC8
:1027B0004C2D6D2DC7010E94A2132196F5CFDF91FC
:1027C000CF911F910F91FF90EF90DF90CF90BF902E
:1027D00008958F929F92AF92BF92CF92DF92EF9225
:1027E000FF920F931F93CF93DF93EC016A012E8129
:1027F0003F8123503109032E000C440B550B63E03D
:1028000070E080E090E00E94D0275B010E941730CA
:1028100023E030E040E050E00E945A31DC01CB017F
:102820000296A11DB11D4C01E12CF12C8E819F81DE
:10283000E816F906BCF4EA14FB0451F484012D8572
:102840004C856B85CE010E94C513E80CF91CEECFB8
:102850002A8549856885CE010E94A2138FEFE81A68
:10286000F80AE4CFCE010E949D13B60180E090E00B
:10287000DF91CF911F910F91FF90EF90DF90CF905C
:10288000BF90AF909F908F900C94B81A2F923F9268
:102890004F925F926F927F928F929F92AF92BF9270
:1028A000CF92DF92EF92FF920F931F93CF93DF931C
:1028B000CDB7DEB728970FB6F894DEBF0FBECDBFF9
:1028C00098878F836A017B014801590120E030E03D
:1028D00048EC52E4C701B6010E94D232181634F413
:1028E000C12CD12C38ECE32E32E4F32E0E947A274F
:1028F000EF81F8850089118922893389DC01CB01B8
:10290000801B910BA20BB30B88169906AA06BB0677
:1029100090F50E947A27EF81F885608B718B828B0E
:10292000938B2DEC3CEC4CE45DE3648975898689DE
:1029300097890E94BE312B013C01EF81F885648BA1
:10294000758B868B978B858C968CA78CB0A0A501F8
:102950009401C501B4010E94BE319B01AC01C301C9
:10296000B2010E94D232181634F4EF81F885848ABD
:10297000958AA68AB78AEF81F885648975898689E0
:1029800097890E94D7324B015C01A701960160E054
:1029900070E080E89FE30E94BD319B01AC01C5015E
:1029A000B4010E9486302B013C01EF81F8856085DF
:1029B00070E080E090E00E9425306B017C019B017B
:1029C000AC01C301B2010E9486309B01AC01C7017A
:1029D000B6010E94BE316B017C01EF81F8856185F3
:1029E00070E080E090E00E9425304B015C019B018B
:1029F000AC01C301B2010E9486309B01AC01C5014C
:102A0000B4010E94BE314B015C01EF81F885628503
:102A100070E080E090E00E94253069837A838B83A8
:102A20009C839B01AC01C301B2010E9486309B01D3
:102A3000AC0169817A818B819C810E94BE312B011E
:102A40003C0120E030E04FE753E4C701B6010E94AB
:102A5000D232181634F4C12CD12C2FE7E22E23E405
:102A6000F22E20E030E04FE753E4C501B4010E94AC
:102A7000D232181634F4812C912C9FE7A92E93E4BE
:102A8000B92E20E030E04FE753E4C301B2010E94C9
:102A9000D232181634F4412C512C8FE7682E83E47F
:102AA000782E212C312CEF81F88586819781821533
:102AB0009305D4F0C301B2010E94A332262FC501B1
:102AC000B4012E830E94A332462FC701B6014D8365
:102AD0000E94A3322E814D818F8198850E94A2137E
:102AE000FFEF2F1A3F0ADFCF048115810219130966
:102AF00020E040E060E0CF010E94C5138F819885FF
:102B000028960FB6F894DEBF0FBECDBFDF91CF91F0
:102B10001F910F91FF90EF90DF90CF90BF90AF90FB
:102B20009F908F907F906F905F904F903F902F90ED
:102B30000C949D130895CF93DF931F92CDB7DEB70A
:102B4000FC0183A591E090934D0380936F03109255
:102B50004E03109270038EE094E049830E944F1E52
:102B60004981642F8EE094E00E944F1E81E00F9017
:102B7000DF91CF910C94AC1640E26BE60C949B1560
:102B8000833081F028F4813099F08230A1F00895EB
:102B90008730A9F08830B9F08430D1F4809180007A
:102BA0008F7D03C0809180008F778093800008958F
:102BB00084B58F7702C084B58F7D84BD08958091E0
:102BC000B0008F7703C08091B0008F7D8093B000FC
:102BD0000895CF93DF93009779F0FC0101900020D6
:102BE000E9F73197AF01481B590BBC0181E793E02E
:102BF0000E947826EC0102C0C0E0D0E042E050E044
:102C000066EB72E081E793E00E9478268C0F9D1FAF
:102C1000DF91CF910895CF93DF93E091ED04CE2F14
:102C2000D0E03BE1E39FF0011124E95FFA4F2081FE
:102C3000E091C704F091C804211119C08091BF042C
:102C40009091C00490937704809376048091C1049E
:102C50009091C20490937904809378048091C30486
:102C60009091C40490937B0480937A0419C086EFFA
:102C700099E090937704809376043EEC3203C00190
:102C800011249E5F9093790480937804880F991F94
:102C900063E070E00E94673370937B0460937A0472
:102CA0008BE18C9FD0018D9FB00D1124A85FBA4F8E
:102CB0002C91211105C08091C5049091C6041BC0C0
:102CC000822F90E0A0E0B0E09C01AD0121503109DD
:102CD00041095109A6E4B0E00E947931AB01BC0181
:102CE00083E075956795579547958A95D1F780E567
:102CF00090E0841B950B90937D0480937C04F0936B
:102D00007F04E0937E04DF91CF910895CF93DF930A
:102D1000EB018093ED04E881F9810484F585E02DD1
:102D2000682FCE010995E881F9810280F381E02DB9
:102D300040E050E060E070E0CE0109950E940B1683
:102D4000E0918004F09181040484F585E02D80E811
:102D500094E0DF91CF910994382F209170039091E6
:102D60006F03213208F049C080914C038111FCCFE0
:102D700042E040934C0330934B033FEF30934A03C0
:102D80001092490320934803AFE4B3E048E253E0D4
:102D9000FA013E2F341B321718F43D913193F9CFCD
:102DA0001092270320912703990F922B90932703CA
:102DB00090912603913061F410922603909127039D
:102DC0009093BB009091BC0093FDF8CF95EC01C0AF
:102DD00095EE9093BC0090914C039230E1F390916A
:102DE0004A039F3F79F080914A03803241F08091FD
:102DF0004A03803331F084E005C081E003C082E003
:102E000001C083E010924E031092700310924D03A4
:102E1000089590914C039111FCCF613208F060E26B
:102E200091E090934C0340934B032FEF20934A0380
:102E300010924903260F2093480390932703909103
:102E40002703880F892B80932703809126038130E5
:102E500061F410922603809127038093BB00809138
:102E6000BC0083FDF8CF85EC01C085EE8093BC00EB
:102E700080914C038130E1F380914903861710F46F
:102E800060914903A8E2B3E026E033E0F9018E2F18
:102E9000821B861718F48D918193F9CF1092050348
:102EA00060930403862F08958AEA8093B00485E531
:102EB000809309058AE590E09093B2048093B10471
:102EC0001092ED0484E18093B3041092B50481E084
:102ED0008093B40428EB3BE03093B9042093B8040A
:102EE00024EC39E03093B7042093B6049AE0909331
:102EF000BA048093BB048093BC048093BD0488E72C
:102F00008093BE0480E092E09093C0048093BF045D
:102F100080E890E09093C2048093C10422E330E003
:102F20003093C4042093C3042CE330E03093C604F0
:102F30002093C5049093C8048093C70486E08093CF
:102F4000080587E0809307051092EF041092EE04C5
:102F500088EE93E09093F1048093F0049093F3044F
:102F60008093F20424E630E03093F5042093F404D7
:102F70004AEF50E05093F7044093F6049093F9041D
:102F80008093F8043093FB042093FA0480EB94E0E0
:102F90009093FD048093FC0480E197E29093FF04FA
:102FA0008093FE041092000582E080930105109248
:102FB000020584E6809303051092040584E190E005
:102FC000909306058093050580E090E0FC01E753AF
:102FD000FB4F108211821282039684329105B1F761
:102FE0008FEF8093C9041092CA041092CB0480938F
:102FF000CC049FE79093CD041092CE048093CF042D
:103000008093D0041092D1049093D2048093D3047F
:103010001092D4041092D5048093D6041092D70451
:103020001092D8048093D9049093DA041092DB04B0
:103030008093DC048093DD041092DE049093DF041F
:103040008093E0041092E1041092E2048093E30480
:103050009093E4041092E5048093E6048093E704DF
:103060001092E8048093E9048093EA041092EB0440
:103070009093EC0408958F929F92AF92BF92EF923B
:10308000FF920F931F93CF93DF937B018C01C0E0DE
:10309000D0E0CE15DF05C9F10E947A27609379034D
:1030A00070937A0380937B0390937C03E091710388
:1030B000F09172030284F385E02D81E793E0099596
:1030C00097FF1EC00E947A278090790390907A0320
:1030D000A0907B03B0907C03DC01CB018819990997
:1030E000AA09BB098090750390907603A09077039E
:1030F000B090780388159905AA05BB05B8F205C0FC
:10310000F80181938F012196C4CFCE01DF91CF9139
:103110001F910F91FF90EF90BF90AF909F908F9075
:103120000895AB01BC0181E793E00C947826FC0183
:103130008EE782838FEF838386E084836583808D2F
:1031400086834F3F510509F010F4178201C0578361
:103150004087118612868FEE8387DF0113969F01C9
:10316000275F3F4F80E090E04D91840F911DA217A3
:10317000B307D1F791958195910991878287089539
:103180002F923F924F925F926F927F928F929F9277
:10319000AF92BF92CF92DF92EF92FF920F931F9365
:1031A000CF93DF9300D000D0CDB7DEB71C018B01E9
:1031B0006536710514F004E610E029833A834B83E9
:1031C0005C830E947A27F101C088D188E288F38865
:1031D000DC01CB018C199D09AE09BF0929813A8117
:1031E0004B815C81281739074A075B07D8F1828D2C
:1031F000811138C0E12CF12CF101868197818E1567
:103200009F055CF0F101258544856385C1010E941D
:10321000A213FFEFEF1AFF0AEFCF048115810E19F9
:103220001F090F5F1F4F20E040E060E0C1010E94D6
:10323000C513C1010F900F900F900F90DF91CF91A8
:103240001F910F91FF90EF90DF90CF90BF90AF90C4
:103250009F908F907F906F905F904F903F902F90B6
:103260000C949D130E947A27F101608B718B828BE5
:10327000938BB801110F880B990B24E630E040E0E6
:1032800050E00E94D027072E000C880B990B0E945B
:10329000273020E030E048EC52E40E942A326B01F3
:1032A0007C01F101618570E080E090E00E942530B2
:1032B000A70196010E9486302B013C01F101628535
:1032C00070E080E090E00E942530A70196010E9406
:1032D00086304B015C01F101608570E080E090E098
:1032E0000E942530A70196010E9486300E94A332D9
:1032F000F1016387C301B2010E94A332F101648727
:10330000C501B4010E94A332F101658773CF8F928A
:103310009F92AF92BF92CF92DF92EF92FF920F9364
:103320001F93CF93DF93EC016A017B010E947A2700
:10333000088919892A893B89DC01CB01801B910B03
:10334000A20BB30BC816D906EA06FB0680F40E944E
:103350007A27688B798B8A8B9B8B8B8D9C8D0197C1
:103360001816190614F08AE090E09C8F8B8FEB8C76
:10337000FC8C8AE090E04C018E189F0881E0E81AEE
:10338000F108C12CD12C8E819F818C159D05BCF03C
:10339000A12CB12C85010C0D1D1DA814B90454F5E8
:1033A0008E819F81801791072CF12A854985688538
:1033B000CE010E94A2138FEFA81AB80AEBCF0C819E
:1033C0001D810C191D090F5F1F4F20E040E060E0D8
:1033D000CE010E94C513CE01DF91CF911F910F91B5
:1033E000FF90EF90DF90CF90BF90AF909F908F9025
:1033F0000C949D1358018E819F818017910754F082
:103400002D854C856B85CE010E94A21358018FEF4C
:10341000A81AB80A00E010E0C8018A0D9B1D6C01D3
:103420000E151F050CF0AFCF2E813F8128173907ED
:103430000CF4A9CF2A8549856885CE010E94A21384
:103440000F5F1F4FE9CFCF93DF93282F30E0F901B3
:10345000E458FE4F8491F901E859FE4FD491F901E7
:10346000EC5AFE4FC491CC2391F081110E94C015FB
:10347000EC2FF0E0EE0FFF1FE65BFE4FA591B4913D
:10348000EC91ED2381E090E021F480E002C080E047
:1034900090E0DF91CF9108951F93CF93DF93282F72
:1034A00030E0F901E458FE4F8491F901E859FE4FEC
:1034B000D491F901EC5AFE4FC491CC23C9F0162FD8
:1034C00081110E94C015EC2FF0E0EE0FFF1FE05CB1
:1034D000FE4FA591B4918FB7F894111105C09C913E
:1034E000ED2FE095E92302C0EC91ED2BEC938FBF1B
:1034F000DF91CF911F910895CF93DF9390E0FC016E
:10350000E859FE4F2491FC01EC5AFE4F8491882328
:1035100061F190E0880F991FFC01EA5CFE4FC591B4
:10352000D491FC01E05CFE4FA591B491611109C0FA
:103530009FB7F8948881209582238883EC912E236D
:103540000BC0623061F49FB7F8943881822F809568
:1035500083238883EC912E2B2C939FBF06C08FB7BB
:10356000F894E8812E2B28838FBFDF91CF910895A7
:103570008F929F92AF92BF92CF92DF92EF92FF9283
:103580006B017C010E9455274B015C01C114D104E1
:10359000E104F104F1F00E945527DC01CB01881908
:1035A0009909AA09BB09883E9340A105B10570F3AA
:1035B00021E0C21AD108E108F10888EE880E83E004
:1035C000981EA11CB11CC114D104E104F10419F727
:1035D000DDCFFF90EF90DF90CF90BF90AF909F90A6
:1035E0008F90089520919F053091A00528173907E5
:1035F00081F490919D0580919E05981751F0E0917E
:103600009D05F0E0E35AFA4F8081082E000C990BDB
:1036100008958FEF9FEF089520919F053091A005A9
:103620002817390739F48FB7F89410929E05109235
:103630009D058FBF0895FC01848D958D009729F419
:1036400021E030E0338322830895A189B289208963
:10365000522F50957FB7F8943C9135233C93FC0151
:103660003197F1F738E04C9160FF02C0422B01C066
:1036700045234C93FC013197F1F76695315099F74A
:103680003C91232B2C937FBF0197F1F781E090E0D1
:10369000089520919F053091A0052817390771F4EE
:1036A00080919E0520919D0590E0805C9F4F821B3C
:1036B000910960E470E00E946733089580E090E033
:1036C000089520919F053091A00528173907B9F476
:1036D00090919D0580919E05981789F0E0919D0538
:1036E000F0E0E35AFA4F808120919D0530E02F5F92
:1036F0003F4F2F73332720939D0590E008958FEF60
:103700009FEF0895FC0165A30895FC0183A194A196
:103710000D960895EF92FF920F931F93CF938B0115
:10372000FC01A3A1B4A1EC91EE2EF12C6C3071053B
:1037300008F075C09B012A5A3F4FF9010C947B3366
:1037400011962C914FC01C962C91B701620F711DE0
:103750009B0163C012962C911297F701E20FF11DA5
:103760009F011F966C914CC016962C911697B7012D
:10377000620F711D9B0152966C9142C015962C915F
:103780001597F701E20FF11D9F0151966C9138C01A
:1037900018962C911897B701620F711D9B015496D2
:1037A0006C912EC017962C911797F701E20FF11D1F
:1037B0009F0153966C9124C019962C911997B701CB
:1037C000620F711D9B0155966C911AC013962C9136
:1037D0001397F701E20FF11D9F0150966C9110C0F5
:1037E00014962C91A701420F511D9A0116C01A96EA
:1037F0002C911A97B701620F711D9B0156966C911F
:1038000070E06417750768F006C01B962C91D7010D
:10381000A20FB11D9D01240F351FC1E003C0970108
:10382000FCCFC0E0B9016E0D7F1D01301105C9F05C
:103830000B301105B1F0FC0136A125A1329F600DBE
:10384000711D1124CC23B1F00930110519F0063097
:10385000110549F4DC01ED91FC910688F789E02D12
:1038600008C0CC2339F0DC01ED91FC910488F58986
:10387000E02D09958C2FCF911F910F91FF90EF9024
:103880000895DC018D919D91BD01DC01ED91FC91CC
:103890000280F381E02D4AE050E00994EF92FF921C
:1038A0000F931F93CF93DF93EC018B017C0182E098
:1038B000E80EF11CAB01552766E0C7010E9497187E
:1038C000C7010E94411C0FA3DF91CF911F910F915F
:1038D000FF90EF900895FC018EE782838FEF838342
:1038E00086E0848386E18583808D868317821086B7
:1038F000118612868FEE8387DF0113969F01275F63
:103900003F4F80E090E04D91840F911DA217B307C7
:10391000D1F791958195910991878287CF010C9478
:10392000411C02960C946B1C80E0089582E090E0AC
:10393000089582E090E0089580E008950895E09170
:10394000050380910403E81730F4F0E0EA5FFC4FD0
:10395000808190E008958FEF9FEF08959091050387
:1039600080910403981750F4E92FF0E0EA5FFC4FD0
:10397000208130E09F5F9093050302C02FEF3FEF5F
:10398000C90108958091040390E020910503821BF2
:1039900091090895089580E090E00895CF93DF9312
:1039A000EC018DA5811127C010920503109204032C
:1039B00010924E031092700310924C0381E080939A
:1039C0004B031092260361E082E10E944C1A61E0F1
:1039D00083E10E944C1A8091B9008E7F8093B900D8
:1039E0008091B9008D7F8093B90088E48093B800FE
:1039F00085E48093BC0040E06BE6CE010E949B15FD
:103A000040E16BE1CE010E949B1540E06CE1CE01EC
:103A10000E949B1540E268E3CE010E949B15EC8159
:103A2000FD8146816FE1CE010E949B1542E060E27C
:103A3000CE010E949B1581E08DA7DF91CF91089563
:103A40000C94312FCF93DF93FC0120A131A11216EA
:103A500013064CF4C2A1D0E0822F0E94231A21E069
:103A6000C817D90709F020E0822FDF91CF91089580
:103A70000F931F93CF93DF93EC018B016C30710593
:103A8000E0F5FB01EE59FF4F0C947B33EBA1FCA159
:103A9000258530E040E050E02AC0EBA1FCA122895E
:103AA0001FC0EBA1FCA121891BC0EBA1FCA12489B3
:103AB00017C0EBA1FCA1238913C0EBA1FCA12589B0
:103AC0000FC0EBA1FCA120890BC0EBA1FCA12685B6
:103AD00007C0EBA1FCA1268903C0EBA1FCA12789AB
:103AE00030E021503109032E000C440B550B60E0EF
:103AF00070E0CB010E94D02701C060E0E881F9812D
:103B0000462F50E00280F381E02DB801CE01DF9115
:103B1000CF911F910F910994CF92DF92EF92FF9274
:103B20000F931F93CF93DF93EC018B010E947A27B1
:103B3000C8A4D9A4EAA4FBA4DC01CB018C199D097B
:103B4000AE09BF0984369105A105B10538F461E0DD
:103B500070E080E090E00E94B81AE8CF0E947A27D7
:103B600068A779A78AA79BA77E0182E0E80EF11CCF
:103B7000A80168E0C7010E949718C7010E94411C74
:103B80000E947A2768A779A78AA79BA7DF91CF9180
:103B90001F910F91FF90EF90DF90CF900895CF92FB
:103BA000DF92EF92FF920F931F93CF93DF93EC017D
:103BB0008B010E947A27C8A4D9A4EAA4FBA4DC0143
:103BC000CB018C199D09AE09BF0984369105A10569
:103BD000B10538F461E070E080E090E00E94B81A2E
:103BE000E8CF0E947A2768A779A78AA79BA7229681
:103BF000A80163E0CE010E949718CE01DF91CF911A
:103C00001F910F91FF90EF90DF90CF900C94411C8B
:103C1000CF93DF93EC0188A199A11816190664F4DB
:103C200060E00E947C1A8AA1811106C061E088A12F
:103C3000DF91CF910C944C1ADF91CF910895CF92E0
:103C4000DF92EF92FF920F931F93CF93DF937C014C
:103C5000262F972F8A0180914D03882391F0C62F3C
:103C6000D72F6E01C40ED51ECC15DD0571F06991FC
:103C7000D701ED91FC910190F081E02DC7010995EC
:103C8000F3CF642F822F0E941826C801DF91CF91B5
:103C90001F910F91FF90EF90DF90CF900895CF93F9
:103CA000DF931F92CDB7DEB7698320914D032223A6
:103CB000D1F020917003203240F021E030E0FC018F
:103CC0003383228380E090E015C080914E03E82F7B
:103CD000F0E0E15BFC4F998190838F5F80934E030E
:103CE0008093700305C061E0CE0101960E94182602
:103CF00081E090E00F90DF91CF910895089522E246
:103D000032E0FC0131832083E0919F05F091A00512
:103D1000E817F90759F4A389B4899C91858980959E
:103D200089238C931092A00510929F050895CF933C
:103D3000DF93EC010E947F1ECE01DF91CF910C94A6
:103D4000312F1F920F920FB60F9211242F933F9392
:103D50004F935F936F937F938F939F93AF93BF9393
:103D6000CF93DF93EF93FF93E0919F05F091A00530
:103D7000309709F452C0968DA685B785858591FF49
:103D800004C09C91892329F448C09C91892309F09F
:103D900044C0A389B4899C918589809589238C939B
:103DA000868997890197F1F7608D718DC685D785D2
:103DB000558598E080E0DB011197F1F7282F30E07E
:103DC00035952795822F4881452309F080689150C9
:103DD00091F7282F868D81FD209580919E0590E09A
:103DE00001968F73992730919D05381749F0A0915E
:103DF0009E05B0E0A35ABA4F2C9380939E0503C052
:103E0000868D8160868F828D938D0197F1F7A389CE
:103E1000B4899C918589892B8C93FF91EF91DF91D7
:103E2000CF91BF91AF919F918F917F916F915F9152
:103E30004F913F912F910F900FBE0F901F901895AB
:103E4000CF93DF93EC01FC0188E392E0819391939F
:103E5000CF010E946B1C8A819B81009749F0DC0195
:103E6000ED91FC910088F189E02DDF91CF910994CB
:103E7000DF91CF910895CF93DF93EC010E94201F33
:103E8000CE01DF91CF910C94312F1F920F920FB67C
:103E90000F9211242F933F934F935F936F937F93D0
:103EA0008F939F93AF93BF93EF93FF938091B9004C
:103EB000887F803609F49CC068F5883209F45BC0BD
:103EC00090F4803109F454C038F4882309F4F6C022
:103ED000883009F44DC0F6C0883109F44CC08032F6
:103EE00009F45DC0EFC0803409F468C048F4803341
:103EF00009F455C0883309F0E5C080934A03D8C05F
:103F0000803509F44FC0883509F45DC0883409F064
:103F1000D9C0D6C0883909F4C7C0A8F4883709F4D5
:103F200067C038F4883609F463C0803709F460C08C
:103F3000C9C0883809F4B8C0803909F45FC0803836
:103F400009F0C0C05BC0803B09F486C038F4803AF9
:103F500009F466C0883A09F47FC0B4C0803C09F413
:103F6000A7C0883C09F4A4C0883B09F48AC0AAC051
:103F70008091270310C090914903809148039817BE
:103F800070F5E091490381E08E0F80934903F0E0E2
:103F9000E85DFC4F80818093BB0085EC86C08093F8
:103FA0004A038EC0E091490381E08E0F809349035C
:103FB0008091BB00F0E0E85DFC4F80839091490365
:103FC000809148036EC0E091490381E08E0F809399
:103FD00049038091BB00F0E0E85DFC4F8083809155
:103FE0004B0381116DC081E08093260384EA61C098
:103FF00083E080934C0310925C05CFCF80915C05E9
:10400000803208F051C0E0915C0581E08E0F809312
:104010005C058091BB00F0E0E45CFA4F8083BDCF8B
:1040200085EC8093BC0010924C0380915C0580323B
:1040300030F4E0915C05F0E0E45CFA4F10826091AE
:104040005C0570E0E0913A05F0913B058CE395E06A
:10405000099510925C0536C084E080934C03109261
:10406000390510923605E0913705F091380509952C
:1040700080913605811105C081E08093360510924C
:104080001605E091390581E08E0F80933905F0E047
:10409000EA5EFA4F80818093BB0090913905809150
:1040A0003605981708F479CF85E88093BC000AC0DC
:1040B00085EC8093BC0010924C0304C010924A031C
:1040C0000E940E26FF91EF91BF91AF919F918F912A
:1040D0007F916F915F914F913F912F910F900FBE04
:1040E0000F901F90189506960895FC0187AD90E0FB
:1040F000089502960895FC0127ADFBE12F9F800DE6
:10410000911D11248E5A9F4F0895FC0127ADFBE1AC
:104110002F9F800D911D1124805C9F4F0895419623
:104120000895FC0127ADFBE12F9F800D911D112407
:10413000805C9F4F089521E0FC0122831382089543
:10414000DC01ED91FC910284F385E02D67E0099498
:10415000CF93DF93EC018985882369F08091A505D1
:104160009091A605DC01ED91FC916F81788500842A
:10417000F185E02D0995E881F9810084F185E02D34
:10418000CE01DF91CF910994FC0117AE0895FC0197
:1041900067AF08958F929F92AF92BF92CF92DF92B6
:1041A000EF92FF920F931F93CF93DF93CDB7DEB7BC
:1041B00066970FB6F894DEBF0FBECDBF6BE070E020
:1041C000CE0102960E943B188F819885A985888B25
:1041D000998BAA8B8A859B85AC858D879E87AF87B7
:1041E0000E947A274B015C010E947A276B017C01B7
:1041F000C818D908EA08FB082A8130E0A8EEB3E025
:104200000E94AE31C616D706E806F906F0F48C8196
:1042100090E09E8B8D8B8B8190E09C8B8B8BCE0165
:1042200005967C018E010B5E1F4F9E012D5E3F4F58
:10423000AE01435F5F4FBE01605F7F4F8091A50578
:104240009091A6050E94B70ACFCF66960FB6F89454
:10425000DEBF0FBECDBFDF91CF911F910F91FF90B9
:10426000EF90DF90CF90BF90AF909F908F90089588
:104270006BE070E084EB94E00C943B18CF93DF93F9
:1042800000D0CDB7DEB762E070E0CE0101960E94AB
:104290003B188091ED042BE1829FC001112467E05F
:1042A00070E080509B4F0E943B180F900F90DF9161
:1042B000CF910895CF93DF9300D0CDB7DEB762E002
:1042C00070E0CE0101960E943B188091ED042BE135
:1042D000829FC001112462E170E082519B4F0E94D5
:1042E0003B180F900F90DF91CF910895CF93DF93FC
:1042F000CDB7DEB72D970FB6F894DEBF0FBECDBF9A
:104300006CE070E0CE0102960E943B188AE0FE014C
:104310003496AFEBB4E001900D928A95E1F72D96BB
:104320000FB6F894DEBF0FBECDBFDF91CF910895D9
:104330000F931F93CF93DF9300D01F92CDB7DEB7BB
:104340008C0162E070E0CE0102960E943B182A8147
:1043500030E0F8013087278381E09B81911101C013
:1043600080E0F80181870F900F900F90DF91CF913F
:104370001F910F910895CF93DF9300D0CDB7DEB793
:1043800061E070E0CE0102960E943B182A81809184
:10439000A5059091A605DC01ED91FC91222321F069
:1043A0000684F785E02D03C00484F585E02D09958A
:1043B0000F900F90DF91CF910895CF93DF9300D0AE
:1043C0001F92CDB7DEB763E070E0CE0101960E9488
:1043D0003B188091A5059091A605DC01ED91FC911B
:1043E00049815A810680F781E02D6B8109950F90F4
:1043F0000F900F90DF91CF9108950F931F93CF935C
:10440000DF9300D0CDB7DEB78C0161E070E0CE0164
:1044100002960E943B18E981FA818181882321F06C
:1044200081E0F801848302C0F80114820F900F909C
:10443000DF91CF911F910F910895CF93DF93CDB767
:10444000DEB72C970FB6F894DEBF0FBECDBF89E064
:1044500089838BE0E4EBF4E0DE01129601900D928B
:104460008A95E1F76CE070E0CE0101960E94911808
:104470002C960FB6F894DEBF0FBECDBFDF91CF9163
:104480000895CF93DF93CDB7DEB727970FB6F89493
:10449000DEBF0FBECDBF88E0898381E08A838CE0D8
:1044A0008B838091A5059091A605DC01ED91FC918F
:1044B0000088F189E02D09956D838091A505909183
:1044C000A605DC01ED91FC910088F189E02D0995AC
:1044D0008C838091A1059091A205DC01ED91FC9166
:1044E0000684F785E02D0995FC0183858E838091F4
:1044F000ED048F8367E070E0CE0101960E94911871
:1045000027960FB6F894DEBF0FBECDBFDF91CF91D7
:104510000895CF93DF93CDB7DEB7A8970FB6F89481
:10452000DEBF0FBECDBF87E0898388E290E09B832A
:104530008A838CE08C83FE01379680E090E0BC019A
:1045400062557B4F9F0122503109DB015B964C91F4
:10455000D9014C932F5F3F4FDB015C964C91D90101
:104560004C93DB015D962C91208303963396843225
:10457000910529F768E270E0CE0101960E9491183A
:10458000A8960FB6F894DEBF0FBECDBFDF91CF91D6
:104590000895CF93DF93CDB7DEB72A970FB6F8947F
:1045A000DEBF0FBECDBFE091ED0483E0898387E0DD
:1045B00090E09B838A838BE1E89FF0011124E05017
:1045C000FB4F87E0DE01149601900D928A95E1F78A
:1045D0006AE070E0CE0101960E9491182A960FB60B
:1045E000F894DEBF0FBECDBFDF91CF910895CF937A
:1045F000DF93CDB7DEB765970FB6F894DEBF0FBE79
:10460000CDBFE091ED0482E0898382E190E09B835D
:104610008A838BE1E89FF0011124E251FB4F82E194
:10462000DE01149601900D928A95E1F765E170E044
:10463000CE0101960E94911865960FB6F894DEBFE0
:104640000FBECDBFDF91CF910895CF93DF93CDB74C
:10465000DEB72D970FB6F894DEBF0FBECDBF81E059
:1046600089838AE090E09B838A83EFEBF4E0DE01AC
:10467000149601900D928A95E1F76DE070E0CE01FD
:1046800001960E9491182D960FB6F894DEBF0FBECA
:10469000CDBFDF91CF910895CF93DF9300D0CDB7F9
:1046A000DEB719826A8362E070E0CE0101960E9453
:1046B00091180F900F90DF91CF910895CF93DF93D2
:1046C00000D0CDB7DEB761E070E0CE0102960E9467
:1046D0003B186091A1057091A2058A8190E00E942B
:1046E00086160F900F90DF91CF910895CF93DF93AF
:1046F00000D01F92CDB7DEB762E070E0CE01029627
:104700000E943B188091A1059091A205DC01ED91DA
:10471000FC910280F381E02D40E050E062E070E027
:1047200009956A817B8180E090E00E94B81A8091AF
:10473000A1059091A205DC01ED91FC910280F3812D
:10474000E02D40E050E069E070E009956A817B81EE
:104750007695679580E090E00E94B81A8091A10557
:104760009091A205DC01ED91FC910480F581E02D92
:1047700064E070E009956A817B8180E090E00E94AE
:10478000B81A8091A1059091A205DC01ED91FC91F0
:104790000280F381E02D40E050E069E070E009958F
:1047A0006A817B817695679580E090E00E94B81AD7
:1047B0008091A1059091A205DC01ED91FC9104800E
:1047C000F581E02D63E070E009956A817B8180E0EE
:1047D00090E00E94B81A8091A1059091A205DC0199
:1047E000ED91FC910280F381E02D40E050E069E022
:1047F00070E009956A817B817695679580E090E00D
:104800000E94B81A8091A1059091A205DC01ED915A
:10481000FC910280F381E02D40E050E068E070E020
:10482000099564E670E080E090E00E94B81A0F906D
:104830000F900F90DF91CF9108956F927F928F929A
:10484000CF92DF92EF92FF920F931F93CF93DF935C
:10485000CDB7DEB7A6970FB6F894DEBF0FBECDBFBB
:1048600068EE73E080E090E00E94B81A61E070E0CA
:10487000CE0102960E943B187E0183E0E80EF11CF7
:10488000670100E010E02A8130E0021713072CF0E6
:10489000E9ECF4E080E090E01AC00C301105C1F3BF
:1048A00063E070E0C6010E943B180F5F1F4FA3E05A
:1048B000CA0ED11CE8CF8C30910561F0D7016D9004
:1048C0007D908D907D016192719281920196821707
:1048D000930789F7A6960FB6F894DEBF0FBECDBF3B
:1048E000DF91CF911F910F91FF90EF90DF90CF90CC
:1048F0008F907F906F9008958EEA94E00E94B72881
:104900008091A3059091A405DC01ED91FC9160914B
:10491000BE0470E00284F385E02D09956EEA74E030
:104920008091A5059091A6050E94B70B68EC70E0F8
:1049300080E090E00E94B81A8091A5059091A605AC
:10494000DC01ED91FC910484F585E02D09948F92B2
:104950009F92AF92BF92CF92DF92EF92FF920F930E
:104960001F93CF93DF93CDB7DEB72C970FB6F89494
:10497000DEBF0FBECDBF6BE070E0CE0102960E949D
:104980003B186091A5057091A6058E010C5F1F4F25
:104990009E012E5F3F4FAE01465F5F4F8091A105A4
:1049A0009091A2050E94D50B0E947A274B015C01D1
:1049B000298530E0A8EEB3E00E94AE316B017C01A6
:1049C0000E947A27AB01BC01481959096A097B0981
:1049D0008091A5059091A6054C155D056E057F0596
:1049E00050F4DC01ED91FC91688570E00084F18564
:1049F000E02D0995E5CFAE014A5F5F4FBC01809184
:104A0000A1059091A2050E94770B8091A505909138
:104A1000A605DC01ED91FC910484F585E02D099556
:104A20002C960FB6F894DEBF0FBECDBFDF91CF91AD
:104A30001F910F91FF90EF90DF90CF90BF90AF90BC
:104A40009F908F90089589EB92E00C94E9150F9355
:104A50001F93CF93DF9300D01F92CDB7DEB78C01A9
:104A600081E793E00E94D426181619060CF0C4C002
:104A700081E793E00E94B226082E000C990BAA0B46
:104A8000BB0B8E31910508F0B7C0FC01E259FF4F16
:104A90000C947B33D801ED91FC910684F785E02DD1
:104AA000A9C0D801ED91FC91048CF58DE02DA2C038
:104AB000D801ED91FC91068CF78DE02D9BC0D801BB
:104AC000ED91FC9100A0F1A1E02D94C0D801ED91F1
:104AD000FC9102A0F3A1E02D8DC0D801ED91FC91D5
:104AE00004A0F5A1E02D86C0D801ED91FC9106A0AF
:104AF000F7A1E02D7FC0D801ED91FC910484F585EC
:104B0000E02D78C084E0898381E08A8385E006C057
:104B100085E08983F80185818A8386818B8363E0C0
:104B200070E0CE0101960E94911866C0D801ED9107
:104B3000FC910288F389E02D5DC0D801ED91FC91D4
:104B4000008CF18DE02D56C0D801ED91FC910488C8
:104B5000F589E02D4FC0D801ED91FC910688F789C9
:104B6000E02D48C00E94541747C0D801ED91FC9138
:104B700000A4F1A5E02D3EC0D801ED91FC91028C7E
:104B8000F38DE02D37C0D801ED91FC9102A4F3A57F
:104B9000E02D30C0D801ED91FC9104A4F5A5E02DE5
:104BA00029C0D801ED91FC9106A4F7A5E02D22C003
:104BB000D801ED91FC9100A8F1A9E02D1BC0D8010E
:104BC000ED91FC9102A8F3A9E02D14C0D801ED915C
:104BD000FC9104A8F5A9E02D0DC0D801ED91FC9140
:104BE00006A8F7A9E02D06C0D801ED91FC9100AC14
:104BF000F1ADE02DC80109950F900F900F90DF9156
:104C0000CF911F910F910895FC01128221E023831F
:104C100081E793E00C9433270C94312F85ED80933A
:104C2000BC008091BC0084FDFCCF10924C03089521
:104C300040913605262F30E0240F311D21323105F9
:104C4000DCF420914C032430C9F4FC0180E090E0B6
:104C5000861758F4309136052191DC01AA5EBA4FCF
:104C6000A30FB11D2C930196F3CF80913605680FE9
:104C70006093360580E0089581E0089582E008950C
:104C80000895CF93DF93EC01E881F9810488F589D9
:104C9000E02D0995FC019389292F30E0F901EE0FF1
:104CA000FF1F2E0F3F1FFE01E20FF31F638D748D58
:104CB000858DDF91CF910895CF93DF93EC01E8814B
:104CC000F9810488F589E02D0995FC019289292F45
:104CD00030E0F901EE0FFF1F2E0F3F1FFE01E20F24
:104CE000F31F638D748D858DDF91CF9108950895A5
:104CF000CF92DF92EF92FF920F931F93CF93DF93A8
:104D00006C017A018B01C0E0D0E0CE15DF0589F09F
:104D1000D8016D918D01D601ED91FC910190F0814A
:104D2000E02DC6010995892B11F47E0102C0219660
:104D3000ECCFC701DF91CF911F910F91FF90EF90C2
:104D4000DF90CF900895FC01538D448D252F30E0E6
:104D5000842F90E0821B930B541710F0CF96089588
:104D600001970895FC01918D828D981761F0828DD5
:104D7000DF01A80FB11D5D968C91928D9F5F9F738F
:104D8000928F90E008958FEF9FEF0895FC01918D31
:104D9000828D981731F0828DE80FF11D858D90E09E
:104DA00008958FEF9FEF0895FC01918D228D892F3B
:104DB00090E0805C9F4F821B91098F739927089523
:104DC00081E793E00E94D42621E0892B09F420E0BA
:104DD000822F08950E949533EF92FF920F931F93B5
:104DE000CF93DF93EC0181E0888F9B8D8C8D98139E
:104DF00005C0E889F989808185FD24C0F62E0B8DD8
:104E000010E00F5F1F4F0F731127E02E8C8DE812FB
:104E10000CC00FB607FCFACFE889F989808185FFBD
:104E2000F5CFCE010E947A13F1CF8B8DFE01E80FF2
:104E3000F11DE35AFF4FF0820B8FEA89FB898081D5
:104E4000806207C0EE89FF896083E889F9898081E3
:104E50008064808381E090E0DF91CF911F910F917A
:104E6000FF90EF900895CF93DF93EC01888D882316
:104E7000C9F0EA89FB89808185FD05C0A889B989C7
:104E80008C9186FD0FC00FB607FCF5CF808185FFA2
:104E9000F2CFA889B9898C9185FFEDCFCE010E9410
:104EA0007A13E7CFDF91CF9108953FB7F8948091BF
:104EB000C9059091CA05A091CB05B091CC0526B546
:104EC000A89B05C02F3F19F00196A11DB11D3FBF42
:104ED000BA2FA92F982F8827820F911DA11DB11DD0
:104EE000BC01CD0142E0660F771F881F991F4A95CC
:104EF000D1F708952FB7F8946091C5057091C60554
:104F00008091C7059091C8052FBF08951F920F92F9
:104F10000FB60F9211242F933F938F939F93AF93CC
:104F2000BF938091C5059091C605A091C705B0912A
:104F3000C8053091C40523E0230F2D3720F40196D6
:104F4000A11DB11D05C026E8230F0296A11DB11DAC
:104F50002093C4058093C5059093C605A093C7050B
:104F6000B093C8058091C9059091CA05A091CB0561
:104F7000B091CC050196A11DB11D8093C9059093F8
:104F8000CA05A093CB05B093CC05BF91AF919F917B
:104F90008F913F912F910F900FBE0F901F901895FA
:104FA000CF92DF92EF92FF920F931F93CF93DF93F5
:104FB00000D000D0CDB7DEB762177307840795071E
:104FC000FCF489019A016B017C01A9019801261B5F
:104FD000370B480B590B69F029833A834B835C8369
:104FE0000E94173029813A814B815C810E945A319D
:104FF00003C060E070E0CB016C0D7D1D8E1D9F1D18
:105000000F900F900F900F90DF91CF911F910F9104
:10501000FF90EF90DF90CF9008951F920F920FB600
:105020000F9211242F933F934F935F936F937F932E
:105030008F939F93AF93BF93EF93FF93E091020100
:10504000F09103010995FF91EF91BF91AF919F916D
:105050008F917F916F915F914F913F912F910F9021
:105060000FBE0F901F9018951F920F920FB60F92C0
:1050700011242F933F934F935F936F937F938F935D
:105080009F93AF93BF93EF93FF93E0910001F09153
:1050900001010995FF91EF91BF91AF919F918F9180
:1050A0007F916F915F914F913F912F910F900FBE24
:1050B0000F901F9018951F920F920FB60F92112408
:1050C0002F933F934F935F936F937F938F939F9310
:1050D000AF93BF93EF93FF9381E793E00E947A131E
:1050E000FF91EF91BF91AF919F918F917F916F91C0
:1050F0005F914F913F912F910F900FBE0F901F9096
:1051000018951F920F920FB60F9211242F938F9321
:105110009F93EF93FF93E0918103F091820380814D
:10512000E0918703F091880382FD12C09081809105
:105130008A038F5F8F7320918B03821751F0E09168
:105140008A03F0E0EF58FC4F958F80938A0301C0EB
:105150008081FF91EF919F918F912F910F900FBEC2
:105160000F901F9018950C94312F0C94312F0F93A2
:105170001F93CF93DF938C010E5F1F4FC0E0D0E0F1
:10518000CE010E944431F80161918F01861719F018
:10519000CE010E944C312196CA35D10589F78AE5A6
:1051A00090E0DF91CF911F910F9108950895089598
:1051B00063E070E08AE090E0089563E070E08AE0E8
:1051C00090E00895DC01ED91FC91119758966D9156
:1051D0007C9159970688F789E02D099402970C94E1
:1051E000E228FC0142305105A1F03CF44115510583
:1051F00061F04130510559F008954430510569F08E
:1052000054F04530510559F008956087089561873D
:105210000895628708956387089564870895658770
:10522000089502970C94F1284F925F926F927F92AB
:105230008F929F92AF92BF92CF92DF92EF92FF92A6
:105240000F931F93CF93DF9300D000D0CDB7DEB77D
:105250008C017B01DC0114966D917C911597072ED2
:10526000000C880B990B0E9427304B015C01B701A1
:10527000FF0C880B990B0E9427309B01AC01C501E4
:10528000B4010E942A3269837A838B839C830E94B3
:105290007A274B015C01F801868197810190F081AA
:1052A000E02D181619060CF04BC0D80193966D919D
:1052B0007C9194970688F789E02DC80109950E9492
:1052C0007A276B017C01F80164817581072E000C3F
:1052D000880B990B0E94273020E030E040E85FE324
:1052E0000E94BD312B013C01C701B6016819790943
:1052F0008A099B090E94253029813A814B815C8172
:105300000E9486309B01AC01C301B2010E94BD31F5
:1053100020E030E040E05FE30E94BE310E949C321A
:10532000D80117967C936E93169716968D919C9143
:10533000179797FFB0CF17961C921E921697ABCF78
:10534000048CF58DE02DC801099581E00F900F9038
:105350000F900F90DF91CF911F910F91FF90EF90E1
:10536000DF90CF90BF90AF909F908F907F906F9085
:105370005F904F90089502970C9414298F929F92FA
:10538000AF92BF92CF92DF92EF92FF92CF93DF93D3
:10539000EC017B0161E00E94F1106C817D81072EA0
:1053A000000C880B990B0E9427304B015C01B70160
:1053B000FF0C880B990B0E9427309B01AC01C501A3
:1053C000B4010E942A326B017C010E947A274B01B2
:1053D0005C012E813F818C819D81019728173907BF
:1053E00054F5E881F98169A17AA10688F789E02D51
:1053F000CE0109950E947A27681979098A099B09C3
:105400000E942530A70196010E94863020E030E0FE
:1054100040E05FE30E94BE310E949C327F836E8336
:105420008C819D812E813F812817390794F2019745
:105430009F838E83CECF81E0DF91CF91FF90EF905D
:10544000DF90CF90BF90AF909F908F90089502977C
:105450000C94BE29EF92FF920F931F93CF93DF938B
:10546000EC01259A8C01075D1F4F7C018FE2E80E4D
:10547000F11CF801819191918F01181619061CF405
:1054800061E00E947C1A0E151F0599F760E0CE01BD
:10549000DF91CF911F910F91FF90EF900C94F1103D
:1054A00002970C942A2A0F931F93CF93DF93EC015A
:1054B0001F821E820C811D8120E040E060E00E947E
:1054C000C513CE010E949D1360E0CE01DF91CF9104
:1054D0001F910F910C94F11002970C94532A0F9383
:1054E0001F93CF93DF93EC018E819F81892B09F469
:1054F0007DC0888D998D8617970729F081E08A8F66
:10550000798F688F01C01A8E6A30710508F06EC0FD
:10551000FB01E45BFF4F0C947B330E811F810F5F17
:105520001F4F2A8549856885CE010E94C5130E81CB
:105530001F81009510958C819D81080F191F20E017
:1055400040E060E0CE010E94C513CE01DF91CF9113
:105550001F910F910C949D1324E130E040E050E046
:1055600060E570E006C024E130E040E050E06CE32C
:1055700070E0CE01DF91CF911F910F910C94C01874
:1055800022E330E040E050E062E370E0F2CF01E07F
:1055900010E020E030E004C00AE010E020E030E05D
:1055A0004AE959E969E17FE308C009E110E020E038
:1055B00030E040E050E060E07FE3CE010E9446141E
:1055C00015C048E250E060E070E009C044E150E0FE
:1055D00060E070E004C04AE050E060E070E0CE01BE
:1055E000DF91CF911F910F910C948719DF91CF918B
:1055F0001F910F91089502970C946F2A0F931F9398
:10560000CF93DF93EC0161E00E94F1108C819D81CA
:1056100001979F838E8300E010E08C819D810817A5
:1056200019074CF42A8549856885CE010E94A2138A
:105630000F5F1F4FF2CFCE01DF91CF911F910F91DE
:105640000C949D1302970C94FE2AE1E7F3E0138279
:10565000128288EE93E0A0E0B0E084839583A68375
:10566000B78326E231E03183208325EC30E03587B3
:10567000248724EC30E03787268720EC30E0318B1C
:10568000208B21EC30E0338B228B22EC30E0358B09
:10569000248B26EC30E0378B268B118E128E138EE6
:1056A000148EEEE0F4E01382128284839583A68345
:1056B000B78388E391E091838083EAE0F5E086E0B8
:1056C00092E0918380838BE090E0938382831582C4
:1056D00014821682178210861186138612868CEE2B
:1056E00091E09093AF048093AE04E0E8F4E08CEB9B
:1056F00091E09183808388E690E094A783A786E772
:1057000094E09583848311A610A612A613821282B8
:1057100014A215A216A217A215A6E6E4F4E080E8EA
:1057200091E09183808386EA91E09383828388E786
:1057300090E0958384831782168283EC95EFA8E42A
:10574000B0E4858F968FA78FB0A325E734E0378725
:105750002687108A118A128A138A848B958BA68BCE
:10576000B78B118E108E81E0828F12A211A214A22B
:1057700013A2148E138E89E190E0A0E0B0E085A31F
:1057800096A3A7A3B0A783E090E092A781A785E0A6
:1057900090E094A783A786E090E096A785A7E3E32F
:1057A000F4E088E791E0918380832CE030E033835C
:1057B0002283148215821682178210861186128621
:1057C00013861486158616861786108A118A128A01
:1057D000E0E2F4E09183808384E090E0938382832D
:1057E00014821582168217821086118612861386FD
:1057F0001486158616861786108A118A128AEAE19F
:10580000F4E080E791E09183808386E89AE09583D5
:1058100084838FE59AE09383828308950895789432
:1058200084B5826084BD84B5816084BD85B58260A5
:1058300085BD85B5816085BD80916E008160809356
:105840006E001092810080918100826080938100BF
:1058500080918100816080938100809180008160CF
:10586000809380008091B10084608093B10080912A
:10587000B00081608093B00080917A008460809352
:105880007A0080917A00826080937A0080917A0019
:10589000816080937A0080917A00806880937A009A
:1058A0001092C10064E670E080E090E00E94B81AB7
:1058B00088E494E09093A6058093A50586E494E09F
:1058C0009093A4058093A305E0918103F091820356
:1058D00082E08083E0917D03F0917E031082E0916D
:1058E0007F03F09180038FEC808310928903E09115
:1058F0008503F091860386E08083E0918303F09135
:105900008403808180618083E0918303F09184032C
:10591000808188608083E0918303F091840380819B
:1059200080688083E0918303F091840380818F7D80
:10593000808361E080E10E947C1A61E08FE00E9438
:105940007C1AC0E0D0E0CE010E944431FE01E25555
:10595000FB4F82832196CA35D105A9F721E08091BA
:10596000B1049091B2048A35910509F020E081E0FC
:105970009091B0049A3A09F080E0822321E090915E
:10598000ED04911120E0822391E02091B4042230B3
:1059900008F090E0982381E020910905253509F071
:1059A00080E0892329F08091B30485508A3150F03A
:1059B00081ED92E00E94E9150E9454178EEA94E06E
:1059C0000E94B728FF24F394F092B605F092B70531
:1059D000F092B805F092B90588E08093BA058093FB
:1059E000BB05F092BC0584E08093BD051092BE0516
:1059F000F092BF0586E18093C005F092B4058BE07C
:105A00008093B5051092A90587E18093AA0588E1E6
:105A10008093AB0589E18093AF0581E28093AE0569
:105A200089E28093B0058AE28093B1058EE280938B
:105A3000AD058FE28093AC0580E38093B3058CE2E3
:105A400090E00E949C2E8C0188E392E0F801918303
:105A50008083F08E128E118E138E1382128287E055
:105A600090E0958F848F88E090E0978F868FF2A2E8
:105A70008FEF9FEF91A380A315A289EA95E094A3ED
:105A800083A38FE190E00E949C2EEC011B821A827E
:105A900088EE93E0A0E0B0E08C839D83AE83BF836B
:105AA00082E292E0998388831F8A1E8A198E188E5B
:105AB0001B8E1A8E1D8E1C8E6E8D6E7F6D7F6E8F6F
:105AC000669561706F2588E00E944C1A61E088E05D
:105AD0000E947C1AE0E7F1E0E491E88BECE5F1E06C
