:100000000C94CA000C944F280C9428280C94B61E0B
:100010000C94B61E0C94B61E0C94F2000C94F200D4
:100020000C94F2000C94F2000C94F2000C94F20088
:100030000C94F2000C94F2000C94F2000C94F20078
:100040000C94A1270C94F2000C949C280C94762814
:100050000C94F2000C94F2000C94F2000C94F20058
:100060000C945A1F0C94F200310161019201CC01F1
:1000700001021102230262027C0291033C04590432
:10008000810447059A097B054F0D7D0D170EDD0E86
:100090005A0F9E0FE20F0B10A82AC72ACE2ADB2A7E
:1000A000E22AE72AF02AFC2A012B062BB51BB81BF3
:1000B000BF1BC91BD31BDD1BE71BF11BFB1B051C57
:1000C0000C1C1A1C5B1D921D761D621D661D6A1D8F
:1000D0006E1D721D761D7A1D7E1D821D65256C2587
:1000E00073257A25812588258F2596259D25A3258D
:1000F0001726B125B825BF25C62517261726CD25D5
:10010000D025D72517261726DE25E525EC25F3254E
:10011000FA25012608260F2605A84CCDB2D44EB9E3
:100120003836A9020C50B9918688083CA6AAAA2A9A
:10013000BE000000803F00000000240027002A00CD
:1001400000000000250028002B0000000000230014
:100150002600290004040404040404040202020228
:10016000020203030303030301020408102040807A
:1001700001020408102001020408102000000008F9
:10018000000201000003040700000000000000005E
:10019000402B292C11241FBECFEFD8E0DEBFCDBFEE
:1001A00012E0A0E0B1E0E6E8F7E602C005900D92AB
:1001B000AE3FB107D9F725E0AEEFB2E001C01D9226
:1001C000AC3EB207E1F710E0C9ECD0E004C02197E3
:1001D000FE010E949733C83CD107C9F70E942A2C20
:1001E0000C94B6330C9400008F929F92AF92BF9202
:1001F000CF92DF92EF92FF920F931F93CF93DF93F3
:10020000CDB7DEB72C970FB6F894DEBF0FBECDBFCB
:100210006C0180E894E00E94581283E394E00E940D
:100220002E0C80E294E00E942E0CD6011D968D913A
:100230009C911E97DC01ED91FC910084F185E02DED
:1002400009951091BA04D6011296ED91FC9113977D
:10025000E031F10510F00C949A09EC5CFF4F0C941E
:10026000973364EF71E080E090E00E94CD1A8091B6
:10027000BC059091BD05DC01ED91FC910484F585F0
:10028000E02D6091ED0409952091BD048091BC059D
:100290009091BD05DC01ED91FC910280F381E02D90
:1002A00040E050E0222319F06AE070E002C061E013
:1002B00070E0099564E670E080E090E00E94CD1A5D
:1002C000E3C3F60185859685DC01ED91FC910680FE
:1002D000F781E02D63E070E00995F601138E4BE4A1
:1002E00050E060E070E083E394E00E94130C882308
:1002F00019F082E090E04DC780913E0490913F0458
:10030000A0914004B09141040097A105B10509F402
:1003100019C5893B9B4008F006C58091A90481114D
:1003200020C510C50091ED0410E08EEA94E00E9413
:10033000772669837A838B838BE1809F9001819FED
:10034000300D1124890100511B4F22513B4F609108
:10035000C0057091C105AE014F5F5F4F8091BC0534
:100360009091BD050E94DB0B06E010E080E894E070
:100370000E94581261E070E080E090E00E94CD1A87
:100380000150110999F742E350E060E070E083E327
:1003900094E00E94860CFBC6D60116968C918823A9
:1003A000B1F06EEA74E08091C0059091C1050E94A1
:1003B000BD0BF60185859685DC01ED91FC910680EB
:1003C000F781E02D62E070E00995F601178E8091CB
:1003D0003E0490913F04A0914004B09141040097E5
:1003E000A105B10509F4F9C42091B6043091B70410
:1003F0008217930708F4F1C4883E934008F0F2C5D1
:10040000ECC48091BC059091BD05DC01ED91FC919F
:100410000480F581E02D63E070E0099585E090E0CF
:1004200084C480913E0490913F04A0914004B09117
:1004300041040097A105B10509F4D7C5843C994052
:1004400008F0D0C5D2C5D60116968C918823E1F06C
:100450000E949527F6016787708B818B928B809124
:10046000BC059091BD05DC01ED91FC910480F58106
:10047000E02D64E070E009956EEA74E08091C005BB
:100480009091C1050E949F0B0E949527F60107815C
:10049000108521853285DC01CB01801B910BA20BDD
:1004A000B30B85369105A105B10508F443C76EEA83
:1004B00074E08091C0059091C1050E94BD0B87E05A
:1004C00090E067C680913E0490913F04A091400463
:1004D000B09141040097A105B10509F467C62091C8
:1004E000B6043091B7048217930708F45FC6883EBC
:1004F000934008F077C55AC6F6018681882309F42F
:1005000075C08091BC059091BD05DC01ED91FC9119
:100510000280F381E02D40E050E066E070E0099554
:10052000F601848D882309F4BAC000E010E08BE165
:10053000982E83E394E00E942E0C80913E049091CB
:100540003F04A0914004B0914104892B8A2B8B2B4E
:1005500029F45801FFEFAF1ABF0A02C0A12CB12C39
:1005600061E070E080E090E00E94CD1A0091ED041F
:10057000909E80011124C80182559B4FFC01EA5ACC
:10058000FF4F208130E03A8729873197808190E0C2
:1005900098878F838EEA94E00E945C266C837D832B
:1005A0008E838EEA94E00E94772669837A838B8318
:1005B00098012B5F3A4F79018E01075F1F4F9E0113
:1005C000295F3F4FAE014C5F5F4FBE016F5F7F4FB2
:1005D0008091C0059091C1050E94BD0A85010F5F01
:1005E0001F4F0A3F11050CF4A4CF59C0848D8823F6
:1005F000D9F080913E0490913F04A0914004B091C5
:100600004104892B8A2B8B2B09F00DC680912B047A
:1006100090912C04A0912D04B0912E04892B8A2B4B
:100620008B2B09F000C64BC680912B0490912C04B3
:10063000A0912D04B0912E04892B8A2B8B2B79F558
:100640006EEA74E08091C0059091C1050E94BD0BD7
:100650008091BC059091BD05DC01ED91FC9102807B
:10066000F381E02D40E050E069E070E00995F6018B
:10067000148E42E350E060E070E080E294E00E947B
:10068000860C83E090E0D60113969C938E9312978C
:100690000E949527F6016783708781879287D6012C
:1006A00012968D919C911397089709F043C600917B
:1006B000ED04BBE10B9F80011124C80182559B4FC3
:1006C000FC01EA5AFF4F208130E03A8729873197B1
:1006D000808190E098878F838EEA94E00E945C2668
:1006E0006C837D838E838EEA94E00E9477266983F3
:1006F0007A838B83F801EB5FFA4F7F018E01075FEE
:100700001F4F9E01295F3F4FAE014C5F5F4FBE01FF
:100710006F5F7F4F8091C0059091C1050E94BD0A17
:1007200009C6D60116968C91882309F44EC00E9402
:100730009527F601678B708F818F928F8091BC0512
:100740009091BD05DC01ED91FC910480F581E02DD7
:1007500065E070E00995E091BE05F091BF0501905C
:10076000F081E02D048115818EEA94E00E945C26E0
:10077000282F8EEA94E02C870E945C26472F8EEA71
:1007800094E04B870E945C262C854B858091BE05AA
:100790009091BF05F80109958091BE059091BF0524
:1007A000FC01A081B181E091ED042BE1E29FF00119
:1007B0001124EC50FB4F408151811896ED91FC9132
:1007C000199760E070E009954BC00E949527D6010B
:1007D00017960D911D912D913C911A97AB01BC017B
:1007E000401B510B620B730BE091ED041BE11E9F4C
:1007F000F0011124EC50FB4F80819181A0E0B0E02A
:10080000481759076A077B0758F16EEA74E0809130
:10081000C0059091C1050E94BD0B8091A80488235A
:1008200009F479C50E949527F60187809084A184F8
:10083000B284AB01BC01481959096A097B09E091EE
:10084000ED041E9FF0011124EA50FB4F808191813D
:10085000A0E0B0E0481759076A077B0708F05BC5BE
:100860008091A904882309F465C5D6015B961C9282
:100870005B9786E090E08EC44091ED04FBE14F9FD2
:10088000A00111244E505B4F6091C0057091C105CD
:100890008091BC059091BD050E947D0B42E350E024
:1008A00060E070E083E394E00E94860C81E090E0D9
:1008B00070C4D60116968C91882391F06091BC0586
:1008C0007091BD0581E090E02091ED04222311F0AC
:1008D00080E090E00E948C168EEA94E00E94D2287C
:1008E00042E350E060E070E083E394E00E94860C15
:1008F00042E350E060E070E080E294E00E94860C09
:10090000C3C0F60186818823B1F08091BC05909127
:10091000BD05DC01ED91FC910280F381E02D4BE0FF
:1009200050E06BE070E0099568EE73E080E090E0E5
:100930000E94CD1AFFC480913E0490913F04A09183
:100940004004B09141048137E7E19E0718F08FE041
:1009500090E01FC4892B8A2B8B2B09F0EBC480916C
:1009600039048111E7C4D6011D968D919C911E9783
:10097000DC01ED91FC910680F781E02D64E070E0F0
:10098000099588E190E00E94B82EFC018091BC0599
:100990009091BD052091C0053091C105138212824E
:1009A000158214821682178210861186128648E1FB
:1009B00051E0518340834EEA54E0548743873687A1
:1009C0002587908B878780E894E0928B818B83E3E7
:1009D00094E0948B838B80E294E0968B858B178ACE
:1009E000D6015E96FC93EE935D9711E0D6015D967D
:1009F0008D919C915E97DC01ED91FC910084F185D5
:100A0000E02D099581112EC0D6011D968D919C91E6
:100A10001E97DC01ED91FC910084F185E02D099594
:100A2000F601A58DB68D12968D919C911397149613
:100A30002D913C9115972817390721F016961C9394
:100A4000169703C016961C92169715969C938E9334
:100A50001497ED91FC9111970680F781E02DCD015F
:100A60000995C4CFF601858D968D009739F0DC018C
:100A7000ED91FC910280F381E02D09950E94111601
:100A800080E894E00E94E31C81E090E04EC180E8A1
:100A900094E00E94C215E0911E04F0911F0430976B
:100AA00009F0099583B7817F8C6083BF83B781602C
:100AB00083BF83B7816083BF889583B78E7F83BFF1
:100AC00083B78E7F83BFE0911C04F0911D043097A3
:100AD00009F00995D601ED91FC910480F581E02D96
:100AE000C601099546E950E060E070E083E394E0D8
:100AF0000E94860C09C1F6018681882309F49FC0F3
:100B000085859685DC01ED91FC910680F781E02DCD
:100B100060E070E00995F60185859685DC01ED9130
:100B2000FC910084F185E02D09958091BC059091A0
:100B3000BD05DC01ED91FC910280F381E02D44E1E3
:100B400050E06BE070E009958091C0059091C1057F
:100B5000DC01ED91FC910680F781E02D40E050E052
:100B600060E409958091C0059091C105DC01ED918B
:100B7000FC910684F785E02D0995F601838594851F
:100B8000DC01ED91FC910480F581E02D099544E6AE
:100B900050E060E070E083E394E00E94860C809176
:100BA000C0059091C105DC01ED91FC910484F585AF
:100BB000E02D099505E010E08091C0059091C105F8
:100BC000DC01ED91FC910680F781E02D40E050E0E2
:100BD00060E409958091C0059091C105DC01ED911B
:100BE000FC910684F785E02D099564EF71E080E0C3
:100BF00090E00E94CD1A8091C0059091C105DC0162
:100C0000ED91FC910484F585E02D099564EF71E088
:100C100080E090E00E94CD1A0150110969F68091A0
:100C2000BC059091BD05DC01ED91FC910280F38142
:100C3000E02D40E150E06BE070E009957BC38091CE
:100C40003E0490913F04A0914004B0914104892B4F
:100C50008A2B8B2B09F45CC005E010E08091C00565
:100C60009091C105DC01ED91FC910680F781E02DAA
:100C700040E050E060E409958091C0059091C10585
:100C8000DC01ED91FC910684F785E02D09956AEF72
:100C900070E080E090E00E94CD1A8091C0059091B4
:100CA000C105DC01ED91FC910484F585E02D0995E9
:100CB0006AEF70E080E090E00E94CD1A01501109C7
:100CC00069F642E350E060E070E083E394E00E9464
:100CD000860C0E94111680E894E00E94E31C80912B
:100CE000BC059091BD05DC01ED91FC910280F38182
:100CF000E02D41E150E06BE070E0099568EE73E0B3
:100D000080E090E00E94CD1AF6011382128210C09A
:100D1000F60183859485DC01ED91FC910680F781D5
:100D2000E02D099507C38CE090E0F6019383828360
:100D30000E949527D60117966D937D938D939C9372
:100D40001A97F8C280912B0490912C04A0912D0445
:100D5000B0912E040097A105B10531F0893E934072
:100D600018F08BE090E0E1CF0E949527F601878094
:100D70009084A184B284DC01CB0188199909AA0965
:100D8000BB0981339547A105B10508F4D3C20E9480
:100D90009527D60117968D909D90AD90BC901A978F
:100DA0009B01AC01281939094A095B0949015A011B
:100DB000212F30E0A0E6BAEE0E94CA31681579050D
:100DC0008A059B0508F0B6C28091BA0481508E3F17
:100DD00008F0B0C28DE090E0DCC10E949527409100
:100DE000B504D60117960D911D912D913C911A973E
:100DF0004B015C01801A910AA20AB30A242F30E049
:100E0000A8EEB3E00E94CA3186169706A806B90676
:100E100028F04A3018F08AE090E087CF8091A9044A
:100E20008823D9F0D6015B961C9280913E04909164
:100E30003F04A0914004B0914104892B8A2B8B2B55
:100E400009F4CCC18091BC04882309F4C7C181E0B6
:100E5000F601848F88E090E069CF4BE450E060E0D9
:100E600070E083E394E00E94130C882379F0809172
:100E7000BB04882359F0F601938D81E08927838F85
:100E8000882309F457C289E090E04FCF4BE450E04B
:100E900060E070E080E294E00E94130C882311F07F
:100EA000F60111C080912B0490912C04A0912D0487
:100EB000B0912E040097A105B10589F0893C9105F8
:100EC00008F01CC10CC0138E07C0938D81E08927E8
:100ED000838F882309F42EC289E090E027CF809188
:100EE000A804882371F180918204909183041816DC
:100EF00019063CF5D6015B968C918111C4CF0E94F6
:100F00009527F6010789108D218D328DAB01BC012B
:100F1000401B510B620B730BE091ED042BE1E29F40
:100F2000F0011124E850FB4F80819181A0E0B0E0F6
:100F3000481759076A077B0708F4FCC184E090E072
:100F400028C10E949527E091ED04D60117960D91D6
:100F50001D912D913C911A97AB01BC01401B510B87
:100F6000620B730B2E2F30E0BBE1EB9FF0011124DD
:100F7000E250FB4F80819181A0E0B0E04817590713
:100F80006A077B07C0F0D6015F968C91811113C070
:100F90008091BC059091BD05DC01ED91FC91028032
:100FA000F381E02D40E050E069E070E0099581E0D8
:100FB000F601878FBFC18091C0059091C105FC01EA
:100FC000A081B1814BE1429FF001439FF00D1124BC
:100FD000EE5FFA4F608170E01896ED91FC911997E1
:100FE0000995A8C18AE090E0D4C08091A904882323
:100FF00089F10E949527D60117960D911D912D918B
:101000003C911A97DC01CB01801B910BA20BB30B17
:1010100085369105A105B10558F461E070E080E0E6
:1010200090E00E94CD1A80E894E00E945812E1CF2F
:1010300080913E0490913F04A0914004B0914104FE
:10104000892B8A2B8B2B09F45CC08091BC04811105
:1010500055C057C04BE450E060E070E080E294E09F
:101060000E94130C8823F1F00E949527F601078156
:10107000108521853285DC01CB01801B910BA20BF1
:10108000B30B85369105A105B10508F01CCF80E2B0
:1010900094E00E942E0C61E070E080E090E00E94FD
:1010A000CD1AE2CF4BE450E060E070E083E394E0DF
:1010B0000E94130C882341F18091BB04882321F105
:1010C0000E949527F6010781108521853285DC0174
:1010D000CB01801B910BA20BB30B85369105A105AB
:1010E000B10508F0F2CE83E394E00E942E0C61E09B
:1010F00070E080E090E00E94CD1AE2CF88E090E0BE
:1011000048C086E090E045C08091A80481111EC0CF
:101110000E949527F6010781108521853285AB0154
:10112000BC01401B510B620B730BE091ED042BE1F2
:10113000E29FF0011124E650FB4F80819181A0E0F5
:10114000B0E0481759076A077B0708F50E94952702
:10115000D60117960D911D912D913C911A97AB01D7
:10116000BC01401B510B620B730BE091ED04BBE122
:10117000EB9FF0011124E450FB4F80819181A0E0AE
:10118000B0E084179507A607B70708F0D3C083E03F
:1011900090E0D60113969C938E9312970E94952708
:1011A000F6016783708781879287C4C08091A90404
:1011B0008823B9F00E949527D6011F960D911D91A5
:1011C0002D913C915297DC01CB01801B910BA20B1E
:1011D000B30B893C9105A105B10518F086E090E0BC
:1011E000A4CD0E949527F6010781108521853285BF
:1011F000AB01BC01401B510B620B730BE091ED0482
:101200002BE1E29FF0011124E850FB4F8081918196
:10121000A0E0B0E0481759076A077B0708F48AC0C6
:1012200083E090E082CD0E949527D60117960D911C
:101230001D912D913C911A97DC01CB01801B910BE4
:10124000A20BB30B893E9340A105B10508F427CA50
:1012500042E350E060E070E083E394E00E94860C9B
:1012600042E350E060E070E080E294E00E94860C8F
:101270006EEA74E08091C0059091C1050E94BD0B9B
:101280008091BC059091BD05DC01ED91FC9102803F
:10129000F381E02D40E050E069E070E00995F6014F
:1012A000148E83E090E0938382830E949527D60179
:1012B00017966D937D938D939C931A97F0C98091A7
:1012C000A804882309F4EBC90E949527F601078139
:1012D000108521853285DC01CB01801B910BA20B8F
:1012E000B30B893E9340A105B10508F4D8C980919C
:1012F000B404882309F4D3C96EEA74E08091C00570
:101300009091C1050E94BD0BD6015C961C925C9722
:1013100084E090E0B9C983E090E0D60113969C93F5
:101320008E9312970E949527F601678370878187B5
:10133000928796CA2C960FB6F894DEBF0FBECDBF2B
:10134000DF91CF911F910F91FF90EF90DF90CF90A1
:10135000BF90AF909F908F900895FF920F931F932F
:10136000CF93DF93EC018B01F42EE881F9810680A5
:10137000F781E02D40E050E0DB016C910995E881B8
:10138000F9810680F781E02D41E050E0D801119607
:101390006C91CE010995E881F9810680F781E02DF5
:1013A00042E050E0D80112966C91CE010995FF20E1
:1013B00061F0E881F9810684F785E02DCE01DF91A7
:1013C000CF911F910F91FF900994DF91CF911F91C1
:1013D0000F91FF900895FC0187890895089508955D
:1013E000CF93DF93EC011B821A828091BE0590910E
:1013F000BF05DC01ED91FC916091BE0470E00284B8
:10140000F385E02D09958091C0059091C105DC011F
:10141000ED91FC910190F081E02D09958091BC0542
:101420009091BD05DC01ED91FC910190F081E02DE2
:10143000099580E894E00E94E31C80913504909126
:101440003604181619061CF462E00E94911A809165
:10145000220490912304181619061CF462E00E94DD
:10146000911A8D859E85DC01ED91FC910480F581BA
:10147000E02D099564E670E080E090E00E94CD1ACE
:101480006091B30470E06530710514F464E170E0BC
:101490008091BC059091BD05DC01ED91FC9100842B
:1014A000F185E02D099564E670E080E090E0DF9141
:1014B000CF910C94CD1A0C944D2F0C944D2F0C946D
:1014C0004D2F87FF0C94611A089586EA92E00E94DE
:1014D000EF158091080118161CF462E00E94911A21
:1014E0008091070118161CF461E00E94611A60E007
:1014F000809105010E94610A60E0809106010E94CE
:10150000610A60E0809109010E94610A6CE271E069
:1015100080E090E00C94CD1A8CEA92E00E94EF15E6
:101520006AEF70E080E090E00E94CD1A809108019F
:10153000181644F461E00E94911A60E0809108015D
:101540000E94611A8091070118161CF460E00E9445
:10155000611A61E0809106010E94610A61E0809158
:1015600005010E94610A60E0809104010E94610A05
:1015700061E0809109010C94610A2F923F924F9291
:101580005F926F927F928F929F92AF92BF92CF9213
:10159000DF92EF92FF920F931F93CF93DF9300D0D0
:1015A0001F92CDB7DEB76C015B013A0149010E9481
:1015B000952720910003309101034091020350913F
:1015C00003031B012C01221A330A440A550AF701AE
:1015D00080819181A0E0B0E0281639064A065B06BA
:1015E00008F475C00E94952760930003709301036F
:1015F0008093020390930303F30180819181A28180
:1016000089839A83AB830E94333024E630E040E044
:1016100050E00E947631F401208131812901330F9D
:101620006608770846165706680679063CF4F50101
:1016300080819181A28189839A83AB83F801808123
:10164000918164E670E0681B790B072E000C880B13
:10165000990B24E630E040E050E00E94EB270E9426
:10166000433020E030E048EC52E40E9446324B0127
:101670005C01698170E080E090E00E944130A5014A
:1016800094010E94A2300E94BF3269836A8170E097
:1016900080E090E00E944130A50194010E94A230B8
:1016A0000E94BF326A836B8170E080E090E00E940C
:1016B0004130A50194010E94A2300E94BF326B8389
:1016C00041E0BE016F5F7F4FC6010E94AD090F90E0
:1016D0000F900F90DF91CF911F910F91FF90EF909E
:1016E000DF90CF90BF90AF909F908F907F906F9042
:1016F0005F904F903F902F9008950F931F93CF933B
:10170000DF93EB018A01DC01ED91FC910280F38112
:10171000E02D40E050E068E070E00995E881F98153
:10172000D8016D917C910480F581E02DCE01099561
:101730008823A1F3DF91CF911F910F9108950F930B
:101740001F93CF93DF9300D01F92CDB7DEB78C01EC
:10175000CB010E945C2669837A838B8341E0BE01C2
:101760006F5F7F4FC8010E94AD090F900F900F90DF
:10177000DF91CF911F910F9108950F931F93CF93F6
:10178000DF9300D01F92CDB7DEB78C01CB010E9452
:10179000772669837A838B8341E0BE016F5F7F4F39
:1017A000C8010E94AD090F900F900F90DF91CF916B
:1017B0001F910F910895CF92DF92EF92FF920F93B6
:1017C0001F93CF93DF93EB017A016901DC01ED9167
:1017D000FC910280F381E02D40E050E062E070E097
:1017E0000995F6016081718180E090E00E94CD1A38
:1017F00040E0B701CE010E94AD09E881F981D8012E
:101800006D917C910280F381E02DCE0109958823B2
:10181000A1F3DF91CF911F910F91FF90EF90DF9097
:10182000CF90089508950F931F93411551056105B9
:10183000710571F0FC010785108921893289222701
:101840003327041715072607370710F480E002C076
:10185000FC0186811F910F91089508950F931F93A6
:10186000CF93DF93EC018A819B81181619062CF423
:101870000E94381A21E0892B09F020E02C838D8109
:10188000222319F1811110C00E9495276F83788758
:1018900089879A871F86188A198A1A8A1E821B8648
:1018A0001C861D861E862BC00E9495270F811885D9
:1018B00029853A85DC01CB01801B910BA20BB30B70
:1018C0008B879C87AD87BE871AC0882399F00E94BA
:1018D00095270F81188529853A85DC01CB01801B6E
:1018E000910BA20BB30B8F87988BA98BBA8B81E0DE
:1018F0008E8305C01B861C861D861E861E828C81DB
:101900008D83DF91CF911F910F910895EF92FF92F8
:101910000F931F93CF93DF9300D000D0CDB7DEB7E6
:101920008C01CB01BA0125E030E040E050E00E949C
:101930007631E12CF12CCA01B90129833A834B831A
:101940005C830E94CD1AC8010E942E0CF80186818A
:1019500029813A814B815C818111EBCF838594850C
:10196000A585B685892B8A2B8B2B19F7FFEFEF1AEC
:10197000FF0A85E0E816F104F4F20F900F900F9043
:101980000F90DF91CF911F910F91FF90EF900895ED
:101990008F929F92AF92BF92DF92EF92FF920F933E
:1019A0001F93CF93DF93EC018B899C89DC011B96FD
:1019B0008D909D90AD90BC901E9781149104A104D0
:1019C000B104A1F1D22E7A018B0144E650E060E02F
:1019D00070E00E94130C811129C0B9EE8B16B3E0A0
:1019E0009B0620F18F859889DC01ED91FC914D2DAE
:1019F00050E00280F381E02DB701099564E670E0C4
:101A000080E090E00E94CD1A42E350E060E070E098
:101A10008B899C890E94860C1B830A830E949527D0
:101A20006F83788789879A8781E001C080E0DF91A2
:101A3000CF911F910F91FF90EF90DF90BF90AF90EB
:101A40009F908F900895EF92FF920F931F93CF93E3
:101A5000DF93EC018B899C890E942E0C8D899E89D5
:101A60000E942E0C89899A89DC01ED91FC910284F7
:101A7000F385E02D09958B859C85DC01ED91FC912A
:101A80000480F581E02D09958C01EA81FB81E83025
:101A9000F10508F0EFC2EC5BFF4F0C9497338F8594
:101AA0009889DC01ED91FC910280F381E02D4BE0FF
:101AB00050E06BE070E0099560ED77E080E090E049
:101AC0000E94CD1A42E350E060E070E08B899C896F
:101AD0000E94860C42E350E060E070E08D899E89B0
:101AE0000E94860C81E090E09B838A830E94952768
:101AF0006F83788789879A87BDC28E81882301F199
:101B00008F859889DC01ED91FC910280F381E02DB5
:101B10004EE050E06BE070E009956CED75E080E020
:101B200090E00E94CD1A8F859889DC01ED91FC919F
:101B30000280F381E02D40E050E069E070E009951B
:101B40008F859889DC01ED91FC910684F785E02D65
:101B50000995FC01F38444E650E060E070E08B8975
:101B60009C890E94130C882369F0D80113968C91EC
:101B700013978F1520F48F5F13968C9316C085E012
:101B8000F80110C044E650E060E070E08D899E8965
:101B90000E94130C882309F444C0F8018381863025
:101BA00018F08150838301C0F3828F859889DC010E
:101BB000ED91FC91D80113966C9170E00084F18551
:101BC000E02D099566E970E080E090E00E94CD1A72
:101BD000F8018381F8124EC28F859889DC01ED915E
:101BE000FC910280F381E02D45E150E06BE070E074
:101BF00009956CED75E080E090E00E94CD1A8F852C
:101C00009889EC01E881F9810280F381E02D40E0C0
:101C100050E069E070E0099566E970E080E090E0EE
:101C20003BC02DE04BE050E062E070E0FFC18B85EF
:101C30009C85DC01ED91FC910284F385E02D0995F2
:101C40008C018E8181114FC044E650E060E070E06D
:101C50008B899C890E94130C882331F18B859C858C
:101C6000DC01ED91FC910284F385E02D0995FC01E6
:101C700080818B3028F4D8018C918F5F8C9302C0C7
:101C8000F80110826B857C858D859E850E94BD0B39
:101C900064E670E080E090E0DF91CF911F910F91BA
:101CA000FF90EF900C94CD1A44E650E060E070E0B5
:101CB0008D899E890E94130C882309F18B859C8550
:101CC000DC01ED91FC910284F385E02D0995FC0186
:101CD0008081882329F0D8018C9181508C9303C096
:101CE0008BE0F80180836B857C858D859E85DF91F7
:101CF000CF911F910F91FF90EF900C94BD0B8989AC
:101D00009A89DC01ED91FC910680F781E02D09951F
:101D1000882389F18F859889DC01ED91FC910480FD
:101D2000F581E02D64E070E00995F801E280F12C86
:101D30008D859E85DC01ED91FC910088F189E02D77
:101D40000995E816F9062CF4F80182818F5F8283E9
:101D500003C0D80112961C9264EF71E080E090E01D
:101D60000E94CD1A8F859889EC01E881F98106805F
:101D7000F781E02D98C02CE04BE050E063E070E08C
:101D8000CE010E94C80CAD85BE85ED91FC911197E6
:101D9000882329F00484F585E02DCD0184C0E80175
:101DA0006A8170E00084F185E02DCD01DF91CF9153
:101DB0001F910F91FF90EF9009948B859C85DC011A
:101DC000ED91FC910284F385E02D09958C018E81C3
:101DD00081114AC044E650E060E070E08B899C8944
:101DE0000E94130C8823F1F08B859C85DC01ED911A
:101DF000FC910284F385E02D0995FC0181818B30F3
:101E000040F4D80111968C9111978F5F11968C93A5
:101E100002C0F80111826B857C858D859E850E94AC
:101E20009F0B36CF44E650E060E070E08D899E89DC
:101E30000E94130C882321F18B859C85DC01ED9198
:101E4000FC910284F385E02D0995FC0181818823B2
:101E500041F0D80111968C911197815011968C9375
:101E600003C08BE0F80181836B857C858D859E8521
:101E7000DF91CF911F910F91FF90EF900C949F0BEA
:101E80002FE04BE050E064E070E0CE010E94C80C0F
:101E9000882309F4EFC08D859E85DC01ED91FC91CE
:101EA0000484F585E02DDF91CF911F910F91FF9074
:101EB000EF9009948B859C85DC01ED91FC91048861
:101EC000F589E02D09958C0144E650E060E070E072
:101ED0008B899C890E94130C882341F0F801818D25
:101EE000893010F48F5F11C0118E13C044E650E0AA
:101EF00060E070E08D899E890E94130C882349F070
:101F0000F801818D882319F08150818F02C089E00A
:101F1000818F44E650E060E070E08B899C890E94EC
:101F2000130C81117BC044E650E060E070E08D89C5
:101F30009E890E94130C811171C073C08B859C8592
:101F4000DC01ED91FC910488F589E02D09958C0167
:101F500044E650E060E070E08B899C890E94130C9D
:101F6000882341F0F801828D893010F48F5F0CC016
:101F7000128E0EC0ED89FE898681882349F0F80112
:101F8000828D882319F08150828F02C089E0828F70
:101F900044E650E060E070E08B899C890E94130C5D
:101FA00081114DC044E650E060E070E08D899E896B
:101FB0000E94130C811143C020E048E050E066E02D
:101FC00070E034C08B859C850E94D2288F859889CB
:101FD000DC01ED91FC910280F381E02D40E050E0C6
:101FE00061E070E0099587E090E09B838A830E941E
:101FF00095276F83788789879A8742E350E060E06E
:1020000070E08B899C89DF91CF911F910F91FF9098
:10201000EF900C94860C81E08F8B2CC0F801418DE1
:1020200011C022E14BE050E065E070E0CE01DF91AD
:10203000CF911F910F91FF90EF900C94C80CD80195
:102040005A964C918F859889442359F0DC01ED9183
:10205000FC9150E00280F381E02D6BE070E0099587
:1020600017CEEC01E881F9810280F381E02D43E194
:1020700050E0F3CFDF91CF911F910F91FF90EF9040
:10208000089542E350E060E070E0FC0183899489A8
:102090000C94860C089580E090E0892B29F00E9432
:1020A000FB2681110C9400000895FC017583648364
:1020B0000895FC01758364830895FC0145A356A32C
:1020C00067A370A70895FC01638744872587089557
:1020D000FC0174A363A30895FC0172A361A3089596
:1020E00088E067FF16C02D9A000000000000000085
:1020F00000000000000000000000000000000000E0
:102100002D9800000000000000000000000000000A
:1021100012C02D9A00000000000000002D98000061
:1021200000000000000000000000000000000000AF
:10213000000000000000660F815099F60895FC0130
:10214000228D338D37FF03C0319521953109868D5E
:10215000978D97FF03C091958195910928173907AD
:102160000CF49C01848D958D97FF03C0919581950A
:102170009109A481B58114964D915C91159724170E
:102180003507D0F082179307B8F4138212821296A3
:102190008D919C9113972817390720F081E090E0EA
:1021A000938382838D919C912817390778F082E080
:1021B00090E0938382830AC018962D913C911997E1
:1021C0002817390728F481E082A702C081E008952A
:1021D00080E00895FC0182A50895FC0181A5089581
:1021E000FC0180A50895FC01828193810895FF92EE
:1021F0000F931F93CF93DF93F62E8C01075D1F4F34
:10220000EC01AF96F801819191918F011816190692
:102210003CF4FF2011F061E001C060E00E94611A0F
:102220000C171D0779F7DF91CF911F910F91FF9048
:1022300008950F931F93CF93DF93EC018C819D81C1
:102240008230910581F034F4009751F0019709F440
:10225000B9C058C08330910529F10497D9F152C013
:102260001B861A8651C00E9495270E811F812885E2
:102270003985DC01CB01801B910BA20BB30B893C90
:102280009105A105B10508F4A0C08A859B85803819
:1022900091050CF09AC00E9495276E837F838887F2
:1022A000998790C00E9495270E811F8128853985C6
:1022B000DC01CB01801B910BA20BB30B8536910582
:1022C000A105B10508F4A4C08A859B85892B09F076
:1022D000BBC09EC00E9495270E811F81288539852D
:1022E000DC01CB01801B910BA20BB30B853F91400E
:1022F000A105B10508F4ABC08A859B85892B09F03F
:10230000A3C0A5C01D821C820A851B850A80DB81B3
:10231000C02D61E08C2F0E94911A0115110509F45E
:1023200047C00F3F110509F445C0FE01FF27E458DF
:10233000FE4FE491E330F9F048F4E130B9F0E230D7
:10234000A1F584B5806284BD08BD9AC0E730E9F08C
:10235000E83019F1E43049F5809180008062809383
:10236000800010938B0000938A008AC084B5806837
:1023700084BD07BD85C08091800080688093800007
:1023800010938900009388007BC08091B000806822
:102390008093B0000093B30073C08091B00080625E
:1023A0008093B0000093B4006BC00038110514F4A2
:1023B00060E001C061E08C2FDF91CF911F910F9100
:1023C0000C94611A80E890E020C00E9495270E814D
:1023D0001F8128853985DC01CB01801B910BA20B65
:1023E000B30B893C9105A105B10508F48DCF8A8511
:1023F0009B85813491050CF487CF0E9495276E83CD
:102400007F838887998780E490E09B878A877CCF49
:102410000E9495270E811F8128853985DC01CB011B
:10242000801B910BA20BB30B813A9F40A105B10514
:1024300008F46ACF8A859B85892B09F065CF80E4F3
:1024400090E09B878A8715C01B861A8612C00E945F
:1024500095270E811F8128853985DC01CB01801BE2
:10246000910BA20BB30B853F9140A105B10510F76D
:102470004BCF0E9495276E837F838887998744CFAF
:10248000DF91CF911F910F910895CF93DF93EC01CE
:1024900061E08A810E94911A60E08A81DF91CF9188
:1024A0000C94611A0C944D2F0C944D2F0C944D2FBD
:1024B000CF92DF92EF92FF920F931F93CF93DF9310
:1024C000EC010E9495276B017C018E899F89A88D64
:1024D000B98DA7019601281B390B4A0B5B0B2530E0
:1024E00031054105510508F402C18BA511E0109397
:1024F0004D0380936F0310924E03109270036BE3B1
:102500008EE094E00E94641E80E00E94B21641E0DA
:102510006EE08BA50E940F178AE0FE017096DE0127
:10252000169601900D928A95E1F78EE094E00E9454
:10253000C31C082F8EE094E00E94C31C20E030E012
:10254000302F822B932B998B888B8EE094E00E9406
:10255000C31C082F8EE094E00E94C31C20E030E0F2
:10256000302F822B932B9B8B8A8B8EE094E00E94E2
:10257000C31C082F8EE094E00E94C31C20E030E0D2
:10258000302F822B932B9D8B8C8B8EE094E00E94BE
:10259000C31C8EE094E00E94C31C8EE094E00E9475
:1025A000C31C082F8EE094E00E94C31C20E030E0A2
:1025B000302F822B932B9B8F8A8F8EE094E00E948A
:1025C000C31C082F8EE094E00E94C31C20E030E082
:1025D000302F822B932B9D8F8C8F8EE094E00E9466
:1025E000C31C082F8EE094E00E94C31C28893989FF
:1025F00046E0359527954A95E1F7398B288B2A894E
:102600003B8956E0359527955A95E1F73B8B2A8B08
:102610002C893D8966E0359527956A95E1F73D8BD4
:102620002C8B2A8D3B8D76E0359527957A95E1F7B1
:102630003B8F2A8F2C8D3D8DE6E035952795EA95C9
:10264000E1F73D8F2C8F20E030E0302F822B932B51
:10265000F6E095958795FA95E1F79F8F8E8FCE8A54
:10266000DF8AE88EF98EC8A2D9A2EAA2FBA28BA5C6
:1026700010934D0380936F0310924E0310927003DA
:102680006AE38EE094E00E94641E80E00E94B2162D
:1026900041E061E08BA50E940F178EE094E00E945C
:1026A000C31C96958795880F91E0803409F090E0DF
:1026B00099A791111CC08CA19DA1AEA1BFA1A7019A
:1026C0009601281B390B4A0B5B0B25303105410560
:1026D000510568F0CCA2DDA2EEA2FFA21AA6E88105
:1026E000F9810488F589E02DCE01099588A7DF914D
:1026F000CF911F910F91FF90EF90DF90CF900895B1
:10270000FC01848DDF01A80FB11DA35ABF4F2C918E
:10271000848D90E001968F739927848FA689B7895D
:102720002C93A089B1898C9180648C93938D848D36
:10273000981306C00288F389E02D80818F7D808305
:102740000895089508958BED91E00197F1F70895AC
:10275000EF92FF921F93CF93DF931F92CDB7DEB717
:10276000162FF894FC01E684F784642FC7012983AF
:102770000E947010612FC7010E9470102981622F82
:10278000C7010E94701078940F90DF91CF911F9134
:10279000FF90EF900895BF92CF92DF92EF92FF9259
:1027A0000F931F93CF93DF937C01D62EC42EB22EAE
:1027B000C0E0D0E0C017D10744F42B2D4C2D6D2D77
:1027C000C7010E94A8132196F5CFDF91CF911F91E9
:1027D0000F91FF90EF90DF90CF90BF9008958F9270
:1027E0009F92AF92BF92CF92DF92EF92FF920F93A0
:1027F0001F93CF93DF93EC016A012E813F81235019
:102800003109032E000C440B550B63E070E080E0AF
:1028100090E00E94EB275B010E94333023E030E020
:1028200040E050E00E947631DC01CB010296A11D10
:10283000B11D4C01E12CF12C8E819F81E816F90627
:10284000BCF4EA14FB0451F484012D854C856B859E
:10285000CE010E94CB13E80CF91CEECF2A854985E6
:102860006885CE010E94A8138FEFE81AF80AE4CF1A
:10287000CE010E94A313B60180E090E0DF91CF91DA
:102880001F910F91FF90EF90DF90CF90BF90AF908E
:102890009F908F900C94CD1A2F923F924F925F92FF
:1028A0006F927F928F929F92AF92BF92CF92DF9260
:1028B000EF92FF920F931F93CF93DF93CDB7DEB7C5
:1028C00028970FB6F894DEBF0FBECDBF98878F83D1
:1028D0006A017B014801590120E030E048EC52E4F4
:1028E000C701B6010E94EE32181634F4C12CD12C67
:1028F00038ECE32E32E4F32E0E949527EF81F88521
:102900000089118922893389DC01CB01801B910B5D
:10291000A20BB30B88169906AA06BB0690F50E9477
:102920009527EF81F885608B718B828B938B2DECD3
:102930003CEC4CE45DE364897589868997890E9443
:10294000DA312B013C01EF81F885648B758B868B26
:10295000978B858C968CA78CB0A0A5019401C5019E
:10296000B4010E94DA319B01AC01C301B2010E94A3
:10297000EE32181634F4EF81F885848A958AA68A97
:10298000B78AEF81F88564897589868997890E945D
:10299000F3324B015C01A701960160E070E080E832
:1029A0009FE30E94D9319B01AC01C501B4010E9493
:1029B000A2302B013C01EF81F885608570E080E05A
:1029C00090E00E9441306B017C019B01AC01C3018E
:1029D000B2010E94A2309B01AC01C701B6010E9466
:1029E000DA316B017C01EF81F885618570E080E070
:1029F00090E00E9441304B015C019B01AC01C3019E
:102A0000B2010E94A2309B01AC01C501B4010E9439
:102A1000DA314B015C01EF81F885628570E080E07E
:102A200090E00E94413069837A838B839C839B0171
:102A3000AC01C301B2010E94A2309B01AC016981CB
:102A40007A818B819C810E94DA312B013C0120E04C
:102A500030E04FE753E4C701B6010E94EE3218168A
:102A600034F4C12CD12C2FE7E22E23E4F22E20E007
:102A700030E04FE753E4C501B4010E94EE3218166E
:102A800034F4812C912C9FE7A92E93E4B92E20E0F9
:102A900030E04FE753E4C301B2010E94EE32181652
:102AA00034F4412C512C8FE7682E83E4782E212CAE
:102AB000312CEF81F8858681978182159305D4F0BA
:102AC000C301B2010E94BF32262FC501B4012E837B
:102AD0000E94BF32462FC701B6014D830E94BF320C
:102AE0002E814D818F8198850E94A813FFEF2F1AA8
:102AF0003F0ADFCF048115810219130920E040E06D
:102B000060E0CF010E94CB138F81988528960FB685
:102B1000F894DEBF0FBECDBFDF91CF911F910F9113
:102B2000FF90EF90DF90CF90BF90AF909F908F90ED
:102B30007F906F905F904F903F902F900C94A313D5
:102B40000895CF93DF931F92CDB7DEB7FC0183A525
:102B500091E090934D0380936F0310924E03109277
:102B600070038EE094E049830E94641E4981642FC3
:102B70008EE094E00E94641E81E00F90DF91CF917F
:102B80000C94B21640E26BE60C94A115833081F0F0
:102B900028F4813099F08230A1F008958730A9F0AF
:102BA0008830B9F08430D1F4809180008F7D03C0EB
:102BB000809180008F7780938000089584B58F770F
:102BC00002C084B58F7D84BD08958091B0008F7759
:102BD00003C08091B0008F7D8093B0000895CF93A3
:102BE000DF93009779F0FC0101900020E9F731971D
:102BF000AF01481B590BBC0181E793E00E9493266B
:102C0000EC0102C0C0E0D0E042E050E066EB72E0D0
:102C100081E793E00E9493268C0F9D1FDF91CF9157
:102C20000895CF93DF93E091ED04CE2FD0E03BE108
:102C3000E39FF0011124E95FFA4F2081E091C7047E
:102C4000F091C804211119C08091BF049091C00473
:102C500090937704809376048091C1049091C2048C
:102C600090937904809378048091C3049091C40474
:102C700090937B0480937A0419C086EF99E0909337
:102C80007704809376043EEC3203C00111249E5FEA
:102C90009093790480937804880F991F63E070E023
:102CA0000E94833370937B0460937A048BE18C9F42
:102CB000D0018D9FB00D1124A85FBA4F2C91211126
:102CC00005C08091C5049091C6041BC0822F90E07E
:102CD000A0E0B0E09C01AD0121503109410951094A
:102CE000A6E4B0E00E949531AB01BC0183E075958C
:102CF0006795579547958A95D1F780E590E0841BB5
:102D0000950B90937D0480937C04F0937F04E09373
:102D10007E04DF91CF910895CF93DF93EB018093F1
:102D2000ED04E881F9810484F585E02D682FCE015A
:102D30000995E881F9810280F381E02D40E050E0BF
:102D400060E070E0CE0109950E941116E0918004C8
:102D5000F09181040484F585E02D80E894E0DF9112
:102D6000CF910994382F2091700390916F032132F5
:102D700008F049C080914C038111FCCF42E04093A0
:102D80004C0330934B033FEF30934A0310924903B7
:102D900020934803AFE4B3E048E253E0FA013E2F4A
:102DA000341B321718F43D913193F9CF1092270359
:102DB00020912703990F922B90932703909126033C
:102DC000913061F410922603909127039093BB00F9
:102DD0009091BC0093FDF8CF95EC01C095EE9093D7
:102DE000BC0090914C039230E1F390914A039F3FD5
:102DF00079F080914A03803241F080914A03803318
:102E000031F084E005C081E003C082E001C083E0CE
:102E100010924E031092700310924D0308959091FA
:102E20004C039111FCCF613208F060E291E0909385
:102E30004C0340934B032FEF20934A031092490316
:102E4000260F209348039093270390912703880F20
:102E5000892B8093270380912603813061F410929F
:102E60002603809127038093BB008091BC0083FDE3
:102E7000F8CF85EC01C085EE8093BC0080914C03B7
:102E80008130E1F380914903861710F46091490382
:102E9000A8E2B3E026E033E0F9018E2F821B86170B
:102EA00018F48D918193F9CF109205036093040378
:102EB000862F0895AF92BF92CF92DF92EF92FF924A
:102EC0000F931F93CF93DF938AEA8093B00485E535
:102ED0008093240585E790E09093B2048093B10439
:102EE0001092ED0484E18093B3041092B50481E064
:102EF0008093B40428EB3BE03093B9042093B804EA
:102F000024EC39E03093B7042093B6049AE0909310
:102F1000BA048093BB048093BC048093BD0488E70B
:102F20008093BE0480E092E09093C0048093BF043D
:102F300080E890E09093C2048093C10422E330E0E3
:102F40003093C4042093C3042CE330E03093C604D0
:102F50002093C5049093C8048093C704A8E0B5E00B
:102F6000EEEEF4E086E0C82E97E0D92E88EE93E0EE
:102F700024E630E04AEFE42EF12C00EB14E060E1AF
:102F800077E252E0B52EC4E6AC2E44E150E0CC929C
:102F9000ED012197D88211821082938382839583D9
:102FA000848337832683F186E086938782873587FB
:102FB000248717870687718B608B27971882219645
:102FC000B882219618822196A88221961882508F65
:102FD000478B5B967B96C5E0E432FC07C1F680E048
:102FE00090E0FC01E753FB4F10821182128203969E
:102FF00084329105B1F78FEF8093C9041092CA040F
:103000001092CB048093CC049FE79093CD04109250
:10301000CE048093CF048093D0041092D104909377
:10302000D2048093D3041092D4041092D5048093D8
:10303000D6041092D7041092D8048093D9049093A8
:10304000DA041092DB048093DC048093DD04109298
:10305000DE049093DF048093E0041092E104109268
:10306000E2048093E3049093E4041092E5048093D7
:10307000E6048093E7041092E8048093E9048093C7
:10308000EA041092EB049093EC04DF91CF911F912E
:103090000F91FF90EF90DF90CF90BF90AF90089589
:1030A0008F929F92AF92BF92EF92FF920F931F93D6
:1030B000CF93DF937B018C01C0E0D0E0CE15DF051C
:1030C000C9F10E9495276093790370937A038093E6
:1030D0007B0390937C03E0917103F091720302846F
:1030E000F385E02D81E793E0099597FF1EC00E94CC
:1030F00095278090790390907A03A0907B03B090FD
:103100007C03DC01CB0188199909AA09BB098090CD
:10311000750390907603A0907703B090780388159C
:103120009905AA05BB05B8F205C0F80181938F0186
:103130002196C4CFCE01DF91CF911F910F91FF90C7
:10314000EF90BF90AF909F908F900895AB01BC011E
:1031500081E793E00C949326FC018EE782838FEF46
:10316000838386E084836583808D86834F3F51050A
:1031700009F010F4178201C0578340871186128628
:103180008FEE8387DF0113969F01275F3F4F80E01B
:1031900090E04D91840F911DA217B307D1F791953F
:1031A000819591099187828708952F923F924F923E
:1031B0005F926F927F928F929F92AF92BF92CF92C7
:1031C000DF92EF92FF920F931F93CF93DF9300D084
:1031D00000D0CDB7DEB71C018B016536710514F048
:1031E00004E610E029833A834B835C830E94952791
:1031F000F101C088D188E288F388DC01CB018C1909
:103200009D09AE09BF0929813A814B815C8128174C
:1032100039074A075B07D8F1828D811138C0E12C4C
:10322000F12CF101868197818E159F055CF0F101EB
:10323000258544856385C1010E94A813FFEFEF1A1D
:10324000FF0AEFCF048115810E191F090F5F1F4F71
:1032500020E040E060E0C1010E94CB13C1010F906B
:103260000F900F900F90DF91CF911F910F91FF90D2
:10327000EF90DF90CF90BF90AF909F908F907F9016
:103280006F905F904F903F902F900C94A3130E94EB
:103290009527F101608B718B828B938BB801110F95
:1032A000880B990B24E630E040E050E00E94EB27C9
:1032B000072E000C880B990B0E94433020E030E071
:1032C00048EC52E40E9446326B017C01F1016185B9
:1032D00070E080E090E00E944130A70196010E94DA
:1032E000A2302B013C01F101628570E080E090E0AA
:1032F0000E944130A70196010E94A2304B015C015F
:10330000F101608570E080E090E00E944130A7010B
:1033100096010E94A2300E94BF32F1016387C3016F
:10332000B2010E94BF32F1016487C501B4010E945D
:10333000BF32F101658773CF8F929F92AF92BF9298
:10334000CF92DF92EF92FF920F931F93CF93DF9371
:10335000EC016A017B010E949527088919892A8955
:103360003B89DC01CB01801B910BA20BB30BC81670
:10337000D906EA06FB0680F40E949527688B798BB4
:103380008A8B9B8B8B8D9C8D01971816190614F0D8
:103390008AE090E09C8F8B8FEB8CFC8C8AE090E035
:1033A0004C018E189F0881E0E81AF108C12CD12C3D
:1033B0008E819F818C159D05BCF0A12CB12C8501BF
:1033C0000C0D1D1DA814B90454F58E819F81801722
:1033D00091072CF12A8549856885CE010E94A813A2
:1033E0008FEFA81AB80AEBCF0C811D810C191D09AB
:1033F0000F5F1F4F20E040E060E0CE010E94CB1342
:10340000CE01DF91CF911F910F91FF90EF90DF9050
:10341000CF90BF90AF909F908F900C94A3135801C2
:103420008E819F818017910754F02D854C856B8587
:10343000CE010E94A81358018FEFA81AB80A00E025
:1034400010E0C8018A0D9B1D6C010E151F050CF0C4
:10345000AFCF2E813F81281739070CF4A9CF2A85D9
:1034600049856885CE010E94A8130F5F1F4FE9CFE1
:10347000CF93DF93282F30E0F901E458FE4F849179
:10348000F901E859FE4FD491F901EC5AFE4FC4916D
:10349000CC2391F081110E94C615EC2FF0E0EE0FC5
:1034A000FF1FE65BFE4FA591B491EC91ED2381E007
:1034B00090E021F480E002C080E090E0DF91CF91C5
:1034C00008951F93CF93DF93282F30E0F901E4583C
:1034D000FE4F8491F901E859FE4FD491F901EC5A5D
:1034E000FE4FC491CC23C9F0162F81110E94C6153E
:1034F000EC2FF0E0EE0FFF1FE05CFE4FA591B491C2
:103500008FB7F894111105C09C91ED2FE095E92338
:1035100002C0EC91ED2BEC938FBFDF91CF911F9107
:103520000895CF93DF9390E0FC01E859FE4F24917A
:10353000FC01EC5AFE4F8491882361F190E0880FE2
:10354000991FFC01EA5CFE4FC591D491FC01E05C3F
:10355000FE4FA591B491611109C09FB7F89488817D
:10356000209582238883EC912E230BC0623061F476
:103570009FB7F8943881822F809583238883EC91BC
:103580002E2B2C939FBF06C08FB7F894E8812E2B6B
:1035900028838FBFDF91CF9108958F929F92AF9232
:1035A000BF92CF92DF92EF92FF926B017C010E945B
:1035B00070274B015C01C114D104E104F104F1F066
:1035C0000E947027DC01CB0188199909AA09BB095F
:1035D000883E9340A105B10570F321E0C21AD108DD
:1035E000E108F10888EE880E83E0981EA11CB11C4A
:1035F000C114D104E104F10419F7DDCFFF90EF907D
:10360000DF90CF90BF90AF909F908F9008952091C2
:10361000BA053091BB052817390781F49091B80598
:103620008091B905981751F0E091B805F0E0E8589D
:10363000FA4F8081082E000C990B08958FEF9FEFB1
:1036400008952091BA053091BB052817390739F440
:103650008FB7F8941092B9051092B8058FBF0895EE
:10366000FC01848D958D009729F421E030E03383AF
:1036700022830895A189B2892089522F50957FB75E
:10368000F8943C9135233C93FC013197F1F738E0F5
:103690004C9160FF02C0422B01C045234C93FC01BA
:1036A0003197F1F76695315099F73C91232B2C9384
:1036B0007FBF0197F1F781E090E008952091BA056E
:1036C0003091BB052817390771F48091B905209115
:1036D000B80590E0805C9F4F821B910960E470E028
:1036E0000E948333089580E090E008952091BA0508
:1036F0003091BB0528173907B9F49091B80580912E
:10370000B905981789F0E091B805F0E0E858FA4F4C
:1037100080812091B80530E02F5F3F4F2F73332712
:103720002093B80590E008958FEF9FEF0895FC0176
:1037300065A30895FC0183A194A10D960895EF92CD
:10374000FF920F931F93CF938B01FC01A3A1B4A110
:10375000EC91EE2EF12C6C30710508F075C09B01D8
:103760002A5A3F4FF9010C94973311962C914FC070
:103770001C962C91B701620F711D9B0163C01296BC
:103780002C911297F701E20FF11D9F011F966C918A
:103790004CC016962C911697B701620F711D9B01B4
:1037A00052966C9142C015962C911597F701E20F35
:1037B000F11D9F0151966C9138C018962C91189765
:1037C000B701620F711D9B0154966C912EC0179624
:1037D0002C911797F701E20FF11D9F0153966C9101
:1037E00024C019962C911997B701620F711D9B0186
:1037F00055966C911AC013962C911397F701E20F0E
:10380000F11D9F0150966C9110C014962C91A70148
:10381000420F511D9A0116C01A962C911A97B701A2
:10382000620F711D9B0156966C9170E064177507CD
:1038300068F006C01B962C91D701A20FB11D9D0107
:10384000240F351FC1E003C09701FCCFC0E0B901D0
:103850006E0D7F1D01301105C9F00B301105B1F05F
:10386000FC0136A125A1329F600D711D1124CC23CE
:10387000B1F00930110519F00630110549F4DC01E9
:10388000ED91FC910688F789E02D08C0CC2339F032
:10389000DC01ED91FC910488F589E02D09958C2FD0
:1038A000CF911F910F91FF90EF900895DC018D91C2
:1038B0009D91BD01DC01ED91FC910280F381E02D31
:1038C0004AE050E00994EF92FF920F931F93CF9339
:1038D000DF93EC018B017C0182E0E80EF11CAB016F
:1038E000552766E0C7010E94AC18C7010E94561C0C
:1038F0000FA3DF91CF911F910F91FF90EF9008954B
:10390000FC018EE782838FEF838386E0848386E1E8
:103910008583808D868317821086118612868FEEAE
:103920008387DF0113969F01275F3F4F80E090E080
:103930004D91840F911DA217B307D1F791958195F1
:10394000910991878287CF010C94561C02960C94A2
:10395000801C80E0089582E090E0089582E090E08D
:10396000089580E008950895E0910503809104038F
:10397000E81730F4F0E0EA5FFC4F808190E00895B2
:103980008FEF9FEF0895909105038091040398179E
:1039900050F4E92FF0E0EA5FFC4F208130E09F5FB8
:1039A0009093050302C02FEF3FEFC9010895809166
:1039B000040390E020910503821B91090895089566
:1039C00080E090E00895CF93DF93EC018DA5811105
:1039D00027C0109205031092040310924E03109218
:1039E000700310924C0381E080934B0310922603E6
:1039F00061E082E10E94611A61E083E10E94611A44
:103A00008091B9008E7F8093B9008091B9008D7F3D
:103A10008093B90088E48093B80085E48093BC006B
:103A200040E06BE6CE010E94A11540E16BE1CE01C2
:103A30000E94A11540E06CE1CE010E94A11540E278
:103A400068E3CE010E94A115EC81FD8146816FE102
:103A5000CE010E94A11542E060E2CE010E94A115B4
:103A600081E08DA7DF91CF9108950C944D2FCF93D6
:103A7000DF93FC0120A131A1121613064CF4C2A160
:103A8000D0E0822F0E94381A21E0C817D90709F028
:103A900020E0822FDF91CF9108950F931F93CF9352
:103AA000DF93EC018B016C307105E0F5FB01EE5901
:103AB000FF4F0C949733EBA1FCA1258530E040E04B
:103AC00050E02AC0EBA1FCA122891FC0EBA1FCA100
:103AD00021891BC0EBA1FCA1248917C0EBA1FCA18B
:103AE000238913C0EBA1FCA125890FC0EBA1FCA188
:103AF00020890BC0EBA1FCA1268507C0EBA1FCA18E
:103B0000268903C0EBA1FCA1278930E021503109AF
:103B1000032E000C440B550B60E070E0CB010E94BB
:103B2000EB2701C060E0E881F981462F50E0028078
:103B3000F381E02DB801CE01DF91CF911F910F915C
:103B40000994CF92DF92EF92FF920F931F93CF933E
:103B5000DF93EC018B010E949527C8A4D9A4EAA4A5
:103B6000FBA4DC01CB018C199D09AE09BF09843689
:103B70009105A105B10538F461E070E080E090E0C6
:103B80000E94CD1AE8CF0E94952768A779A78AA737
:103B90009BA77E0182E0E80EF11CA80168E0C70146
:103BA0000E94AC18C7010E94561C0E94952768A766
:103BB00079A78AA79BA7DF91CF911F910F91FF90C3
:103BC000EF90DF90CF900895CF92DF92EF92FF9227
:103BD0000F931F93CF93DF93EC018B010E949527E6
:103BE000C8A4D9A4EAA4FBA4DC01CB018C199D09CB
:103BF000AE09BF0984369105A105B10538F461E02D
:103C000070E080E090E00E94CD1AE8CF0E949527F6
:103C100068A779A78AA79BA72296A80163E0CE018F
:103C20000E94AC18CE01DF91CF911F910F91FF90B0
:103C3000EF90DF90CF900C94561CCF93DF93EC0164
:103C400088A199A11816190664F460E00E94911ADF
:103C50008AA1811106C061E088A1DF91CF910C9407
:103C6000611ADF91CF910895CF92DF92EF92FF9288
:103C70000F931F93CF93DF937C01262F972F8A01F9
:103C800080914D03882391F0C62FD72F6E01C40E6B
:103C9000D51ECC15DD0571F06991D701ED91FC9130
:103CA0000190F081E02DC7010995F3CF642F822F99
:103CB0000E943326C801DF91CF911F910F91FF9091
:103CC000EF90DF90CF900895CF93DF931F92CDB701
:103CD000DEB7698320914D032223D1F02091700338
:103CE000203240F021E030E0FC013383228380E089
:103CF00090E015C080914E03E82FF0E0E15BFC4FAF
:103D0000998190838F5F80934E038093700305C0E9
:103D100061E0CE0101960E94332681E090E00F9091
:103D2000DF91CF910895089522E232E0FC013183C2
:103D30002083E091BA05F091BB05E817F90759F423
:103D4000A389B4899C918589809589238C9310924D
:103D5000BB051092BA050895CF93DF93EC010E9442
:103D6000941ECE01DF91CF910C944D2F1F920F9294
:103D70000FB60F9211242F933F934F935F936F933E
:103D80007F938F939F93AF93BF93CF93DF93EF93E3
:103D9000FF93E091BA05F091BB05309709F452C04A
:103DA000968DA685B785858591FF04C09C91892352
:103DB00029F448C09C91892309F044C0A389B4899F
:103DC0009C918589809589238C9386899789019711
:103DD000F1F7608D718DC685D785558598E080E0B7
:103DE000DB011197F1F7282F30E035952795822FC9
:103DF0004881452309F08068915091F7282F868DDE
:103E000081FD20958091B90590E001968F739927E7
:103E10003091B805381749F0A091B905B0E0A8581D
:103E2000BA4F2C938093B90503C0868D8160868F2D
:103E3000828D938D0197F1F7A389B4899C9185892F
:103E4000892B8C93FF91EF91DF91CF91BF91AF912F
:103E50009F918F917F916F915F914F913F912F91A2
:103E60000F900FBE0F901F901895CF93DF93EC012A
:103E7000FC0188E392E081939193CF010E94801C22
:103E80008A819B81009749F0DC01ED91FC910088CB
:103E9000F189E02DDF91CF910994DF91CF910895C1
:103EA000CF93DF93EC010E94351FCE01DF91CF91BC
:103EB0000C944D2F1F920F920FB60F9211242F9337
:103EC0003F934F935F936F937F938F939F93AF93A2
:103ED000BF93EF93FF938091B900887F803609F4F8
:103EE0009CC068F5883209F45BC090F4803109F415
:103EF00054C038F4882309F4F6C0883009F44DC062
:103F0000F6C0883109F44CC0803209F45DC0EFC0BE
:103F1000803409F468C048F4803309F455C088330C
:103F200009F0E5C080934A03D8C0803509F44FC03A
:103F3000883509F45DC0883409F0D9C0D6C0883905
:103F400009F4C7C0A8F4883709F467C038F4883684
:103F500009F463C0803709F460C0C9C0883809F427
:103F6000B8C0803909F45FC0803809F0C0C05BC0B8
:103F7000803B09F486C038F4803A09F466C0883A78
:103F800009F47FC0B4C0803C09F4A7C0883C09F4A0
:103F9000A4C0883B09F48AC0AAC08091270310C03E
:103FA0009091490380914803981770F5E091490377
:103FB00081E08E0F80934903F0E0E85DFC4F808143
:103FC0008093BB0085EC86C080934A038EC0E0914D
:103FD000490381E08E0F809349038091BB00F0E09C
:103FE000E85DFC4F808390914903809148036EC047
:103FF000E091490381E08E0F809349038091BB00DB
:10400000F0E0E85DFC4F808380914B0381116DC02F
:1040100081E08093260384EA61C083E080934C03AF
:1040200010927705CFCF80917705803208F051C08C
:10403000E091770581E08E0F809377058091BB003A
:10404000F0E0E95AFA4F8083BDCF85EC8093BC0045
:1040500010924C0380917705803230F4E09177051F
:10406000F0E0E95AFA4F10826091770570E0E09134
:104070005505F091560587E595E00995109277056D
:1040800036C084E080934C03109254051092510581
:10409000E0915205F09153050995809151058111E8
:1040A00005C081E08093510510923105E0915405DF
:1040B00081E08E0F80935405F0E0EF5CFA4F808131
:1040C0008093BB009091540580915105981708F496
:1040D00079CF85E88093BC000AC085EC8093BC0052
:1040E00010924C0304C010924A030E942926FF91AB
:1040F000EF91BF91AF919F918F917F916F915F9160
:104100004F913F912F910F900FBE0F901F901895D8
:1041100006960895FC0187AD90E0089502960895F3
:10412000FC0127ADFBE12F9F800D911D11248E5ABC
:104130009F4F0895FC0127ADFBE12F9F800D911D3E
:104140001124805C9F4F089541960895FC0127AD8E
:10415000FBE12F9F800D911D1124805C9F4F0895DE
:1041600021E0FC01228313820895DC01ED91FC9192
:104170000284F385E02D67E00994CF93DF93EC018F
:104180008985882369F08091C0059091C105DC0183
:10419000ED91FC916F8178850084F185E02D099582
:1041A000E881F9810084F185E02DCE01DF91CF9186
:1041B0000994FC0187AD811103C081E087AF0895A8
:1041C00017AE0895FC0167AF08958F929F92AF924A
:1041D000BF92CF92DF92EF92FF920F931F93CF93F4
:1041E000DF93CDB7DEB766970FB6F894DEBF0FBE8C
:1041F000CDBF6BE070E0CE0102960E9450188F8117
:104200009885A985888B998BAA8B8A859B85AC8597
:104210008D879E87AF870E9495274B015C010E9486
:1042200095276B017C01C818D908EA08FB082A8188
:1042300030E0A8EEB3E00E94CA31C616D706E80601
:10424000F906F0F48C8190E09E8B8D8B8B8190E051
:104250009C8B8B8BCE0105967C018E010B5E1F4FD4
:104260009E012D5E3F4FAE01435F5F4FBE01605F19
:104270007F4F8091C0059091C1050E94BD0ACFCFAC
:1042800066960FB6F894DEBF0FBECDBFDF91CF911B
:104290001F910F91FF90EF90DF90CF90BF90AF9064
:1042A0009F908F9008956BE070E084EB94E00C9405
:1042B0005018CF93DF9300D0CDB7DEB762E070E047
:1042C000CE0101960E9450188091ED042BE1829F4F
:1042D000C001112467E070E080509B4F0E9450188D
:1042E0000F900F90DF91CF910895CF93DF9300D07F
:1042F000CDB7DEB762E070E0CE0101960E945018A3
:104300008091ED042BE1829FC001112462E170E0F5
:1043100082519B4F0E9450180F900F90DF91CF91C8
:104320000895CF93DF93CDB7DEB72D970FB6F894EE
:10433000DEBF0FBECDBF6CE070E0CE0102960E94E2
:1043400050188AE0FE013496AFEBB4E001900D9274
:104350008A95E1F72D960FB6F894DEBF0FBECDBF5C
:10436000DF91CF9108950F931F93CF93DF9300D0E8
:104370001F92CDB7DEB78C0162E070E0CE010296ED
:104380000E9450182A8130E0F8013087278381E0AD
:104390009B81911101C080E0F80181870F900F90FF
:1043A0000F90DF91CF911F910F910895CF93DF93DD
:1043B00000D0CDB7DEB761E070E0CE0102960E947A
:1043C00050182A818091C0059091C105DC01ED91C2
:1043D000FC91222321F00684F785E02D03C004849C
:1043E000F585E02D09950F900F90DF91CF910895FD
:1043F000CF93DF9300D01F92CDB7DEB763E070E0BC
:10440000CE0101960E9450188091C0059091C1057F
:10441000DC01ED91FC9149815A810680F781E02D04
:104420006B8109950F900F900F90DF91CF910895B8
:104430000F931F93CF93DF9300D0CDB7DEB78C01DE
:1044400061E070E0CE0102960E945018E981FA8185
:104450008181882321F081E0F801848302C0F80182
:1044600014820F900F90DF91CF911F910F910895BB
:10447000CF93DF93CDB7DEB72C970FB6F894DEBF9E
:104480000FBECDBF89E089838BE0E4EBF4E0DE0171
:10449000129601900D928A95E1F76CE070E0CE01E2
:1044A00001960E94A6182C960FB6F894DEBF0FBE98
:1044B000CDBFDF91CF910895CF93DF93CDB7DEB716
:1044C00027970FB6F894DEBF0FBECDBF88E0898373
:1044D00082E08A838CE08B838091C0059091C10536
:1044E000DC01ED91FC910088F189E02D09956D8347
:1044F0008091C0059091C105DC01ED91FC9100888F
:10450000F189E02D09958C838091BC059091BD05C2
:10451000DC01ED91FC910684F785E02D0995FC0105
:1045200083858E838091ED048F8367E070E0CE01F8
:1045300001960E94A61827960FB6F894DEBF0FBE0C
:10454000CDBFDF91CF910895CF93DF93CDB7DEB785
:10455000A8970FB6F894DEBF0FBECDBF87E0898362
:1045600088E290E09B838A838CE08C83FE013796FF
:1045700080E090E0BC0162557B4F9F0122503109E1
:10458000DB015B964C91D9014C932F5F3F4FDB01D0
:104590005C964C91D9014C93DB015D962C91208364
:1045A000039633968432910529F768E270E0CE01D4
:1045B00001960E94A618A8960FB6F894DEBF0FBE0B
:1045C000CDBFDF91CF910895CF93DF93CDB7DEB705
:1045D0002A970FB6F894DEBF0FBECDBFE091ED0471
:1045E00083E0898387E090E09B838A838BE1E89F67
:1045F000F0011124E050FB4F87E0DE01149601909A
:104600000D928A95E1F76AE070E0CE0101960E9472
:10461000A6182A960FB6F894DEBF0FBECDBFDF9165
:10462000CF910895CF93DF93CDB7DEB765970FB6DF
:10463000F894DEBF0FBECDBFE091ED0482E0898328
:1046400082E190E09B838A838BE1E89FF001112453
:10465000E251FB4F82E1DE01149601900D928A95A2
:10466000E1F765E170E0CE0101960E94A61865961B
:104670000FB6F894DEBF0FBECDBFDF91CF91089586
:10468000CF93DF93CDB7DEB72D970FB6F894DEBF8B
:104690000FBECDBF81E089838AE090E09B838A834F
:1046A000EFEBF4E0DE01149601900D928A95E1F7AC
:1046B0006DE070E0CE0101960E94A6182D960FB60F
:1046C000F894DEBF0FBECDBFDF91CF910895CF9399
:1046D000DF9300D0CDB7DEB719826A8362E070E065
:1046E000CE0101960E94A6180F900F90DF91CF91F6
:1046F0000895CF93DF9300D0CDB7DEB761E070E0CF
:10470000CE0102960E9450186091BC057091BD05C3
:104710008A8190E00E948C160F900F90DF91CF91CC
:104720000895CF93DF9300D01F92CDB7DEB762E03C
:1047300070E0CE0102960E9450188091BC059091C5
:10474000BD05DC01ED91FC910280F381E02D40E09C
:1047500050E062E070E009956A817B8180E090E042
:104760000E94CD1A8091BC059091BD05DC01ED91B0
:10477000FC910280F381E02D40E050E069E070E0C0
:1047800009956A817B817695679580E090E00E942B
:10479000CD1A8091BC059091BD05DC01ED91FC9195
:1047A0000480F581E02D64E070E009956A817B81E9
:1047B00080E090E00E94CD1A8091BC059091BD05EB
:1047C000DC01ED91FC910280F381E02D40E050E0AE
:1047D00069E070E009956A817B817695679580E054
:1047E00090E00E94CD1A8091BC059091BD05DC013E
:1047F000ED91FC910480F581E02D63E070E0099576
:104800006A817B8180E090E00E94CD1A8091BC0596
:104810009091BD05DC01ED91FC910280F381E02DCA
:1048200040E050E069E070E009956A817B8176950F
:10483000679580E090E00E94CD1A8091BC05909130
:10484000BD05DC01ED91FC910280F381E02D40E09B
:1048500050E068E070E0099564E670E080E090E088
:104860000E94CD1A0F900F900F90DF91CF91089575
:104870006F927F928F92CF92DF92EF92FF920F937F
:104880001F93CF93DF93CDB7DEB7A6970FB6F894FB
:10489000DEBF0FBECDBF68EE73E080E090E00E9407
:1048A000CD1A61E070E0CE0102960E9450187E01A0
:1048B00083E0E80EF11C670100E010E02A8130E09F
:1048C000021713072CF0E9ECF4E080E090E01AC046
:1048D0000C301105C1F363E070E0C6010E9450186E
:1048E0000F5F1F4FA3E0CA0ED11CE8CF8C3091059B
:1048F00061F0D7016D907D908D907D0161927192F4
:10490000819201968217930789F7A6960FB6F894BD
:10491000DEBF0FBECDBFDF91CF911F910F91FF90F2
:10492000EF90DF90CF908F907F906F9008958EEAF8
:1049300094E00E94D2288091BE059091BF05DC01D1
:10494000ED91FC916091BE0470E00284F385E02D4E
:1049500009956EEA74E08091C0059091C1050E94AE
:10496000BD0B68EC70E080E090E00E94CD1A809171
:10497000C0059091C105DC01ED91FC910484F585A1
:10498000E02D09948F929F92AF92BF92CF92DF92C7
:10499000EF92FF920F931F93CF93DF93CDB7DEB7C4
:1049A0002C970FB6F894DEBF0FBECDBF6BE070E062
:1049B000CE0102960E9450186091C0057091C10509
:1049C0008E010C5F1F4F9E012E5F3F4FAE01465F71
:1049D0005F4F8091BC059091BD050E94DB0B0E944A
:1049E00095274B015C01298530E0A8EEB3E00E94D9
:1049F000CA316B017C010E949527AB01BC014819AB
:104A000059096A097B098091C0059091C1054C152F
:104A10005D056E057F0550F4DC01ED91FC91688524
:104A200070E00084F185E02D0995E5CFAE014A5F85
:104A30005F4FBC018091BC059091BD050E947D0B2C
:104A40008091C0059091C105DC01ED91FC91048439
:104A5000F585E02D09952C960FB6F894DEBF0FBEB4
:104A6000CDBFDF91CF911F910F91FF90EF90DF901D
:104A7000CF90BF90AF909F908F90089589EB92E078
:104A80000C94EF150F931F93CF93DF9300D01F92D9
:104A9000CDB7DEB78C0181E793E00E94EF261816B0
:104AA00019060CF0C4C081E793E00E94CD26082EC1
:104AB000000C990BAA0BBB0B8E31910508F0B7C007
:104AC000FC01E259FF4F0C949733D801ED91FC9112
:104AD0000684F785E02DA9C0D801ED91FC91048CE6
:104AE000F58DE02DA2C0D801ED91FC91068CF78DDB
:104AF000E02D9BC0D801ED91FC9100A0F1A1E02D2B
:104B000094C0D801ED91FC9102A0F3A1E02D8DC0DD
:104B1000D801ED91FC9104A0F5A1E02D86C0D8014B
:104B2000ED91FC9106A0F7A1E02D7FC0D801ED9199
:104B3000FC910484F585E02D78C084E0898381E0D0
:104B40008A8385E006C085E08983F80185818A83B0
:104B500086818B8363E070E0CE0101960E94A618E7
:104B600066C0D801ED91FC910288F389E02D5DC00B
:104B7000D801ED91FC91008CF18DE02D56C0D8014B
:104B8000ED91FC910488F589E02D4FC0D801ED919D
:104B9000FC910688F789E02D48C00E945A1747C04B
:104BA000D801ED91FC9100A4F1A5E02D3EC0D80103
:104BB000ED91FC91028CF38DE02D37C0D801ED9181
:104BC000FC9102A4F3A5E02D30C0D801ED91FC9139
:104BD00004A4F5A5E02D29C0D801ED91FC9106A40F
:104BE000F7A5E02D22C0D801ED91FC9100A8F1A914
:104BF000E02D1BC0D801ED91FC9102A8F3A9E02D96
:104C000014C0D801ED91FC9104A8F5A9E02D0DC0C8
:104C1000D801ED91FC9106A8F7A9E02D06C0D801B6
:104C2000ED91FC9100ACF1ADE02DC80109950F901C
:104C30000F900F90DF91CF911F910F910895FC017C
:104C4000128221E0238381E793E00C944E270C9499
:104C50004D2F85ED8093BC008091BC0084FDFCCF7E
:104C600010924C03089540915105262F30E0240FF7
:104C7000311D21323105DCF420914C032430C9F47C
:104C8000FC0180E090E0861758F4309151052191A5
:104C9000DC01AF5CBA4FA30FB11D2C930196F3CF8B
:104CA00080915105680F6093510580E0089581E07F
:104CB000089582E008950895CF93DF93EC01E88191
:104CC000F9810488F589E02D0995FC019389292F44
:104CD00030E0F901EE0FFF1F2E0F3F1FFE01E20F24
:104CE000F31F638D748D858DDF91CF910895CF93E0
:104CF000DF93EC01E881F9810488F589E02D0995BD
:104D0000FC019289292F30E0F901EE0FFF1F2E0FD1
:104D10003F1FFE01E20FF31F638D748D858DDF91C0
:104D2000CF9108950895CF92DF92EF92FF920F9363
:104D30001F93CF93DF936C017A018B01C0E0D0E029
:104D4000CE15DF0589F0D8016D918D01D601ED9169
:104D5000FC910190F081E02DC6010995892B11F499
:104D60007E0102C02196ECCFC701DF91CF911F9148
:104D70000F91FF90EF90DF90CF900895FC01538D3D
:104D8000448D252F30E0842F90E0821B930B541725
:104D900010F0CF96089501970895FC01918D828DB2
:104DA000981761F0828DDF01A80FB11D5D968C917F
:104DB000928D9F5F9F73928F90E008958FEF9FEF8A
:104DC0000895FC01918D828D981731F0828DE80F46
:104DD000F11D858D90E008958FEF9FEF0895FC0100
:104DE000918D228D892F90E0805C9F4F821B9109CD
:104DF0008F739927089581E793E00E94EF2621E0C1
:104E0000892B09F420E0822F08950E94B133EF929C
:104E1000FF920F931F93CF93DF93EC0181E0888F74
:104E20009B8D8C8D981305C0E889F989808185FD5B
:104E300024C0F62E0B8D10E00F5F1F4F0F7311274C
:104E4000E02E8C8DE8120CC00FB607FCFACFE88973
:104E5000F989808185FFF5CFCE010E948013F1CFC3
:104E60008B8DFE01E80FF11DE35AFF4FF0820B8F8F
:104E7000EA89FB898081806207C0EE89FF896083AF
:104E8000E889F98980818064808381E090E0DF9106
:104E9000CF911F910F91FF90EF900895CF93DF93E3
:104EA000EC01888D8823C9F0EA89FB89808185FD22
:104EB00005C0A889B9898C9186FD0FC00FB607FC83
:104EC000F5CF808185FFF2CFA889B9898C9185FFC4
:104ED000EDCFCE010E948013E7CFDF91CF910895EF
:104EE0003FB7F8948091E4059091E505A091E6051F
:104EF000B091E70526B5A89B05C02F3F19F0019694
:104F0000A11DB11D3FBFBA2FA92F982F8827820F4F
:104F1000911DA11DB11DBC01CD0142E0660F771F9F
:104F2000881F991F4A95D1F708952FB7F89460917B
:104F3000E0057091E1058091E2059091E3052FBFB6
:104F400008951F920F920FB60F9211242F933F9343
:104F50008F939F93AF93BF938091E0059091E1056C
:104F6000A091E205B091E3053091DF0523E0230F26
:104F70002D3720F40196A11DB11D05C026E8230F91
:104F80000296A11DB11D2093DF058093E00590934B
:104F9000E105A093E205B093E3058091E4059091CB
:104FA000E505A091E605B091E7050196A11DB11DAB
:104FB0008093E4059093E505A093E605B093E7059B
:104FC000BF91AF919F918F913F912F910F900FBE05
:104FD0000F901F901895CF92DF92EF92FF920F9350
:104FE0001F93CF93DF9300D000D0CDB7DEB7621709
:104FF000730784079507FCF489019A016B017C0112
:10500000A9019801261B370B480B590B69F029831E
:105010003A834B835C830E94333029813A814B81F0
:105020005C810E94763103C060E070E0CB016C0DC2
:105030007D1D8E1D9F1D0F900F900F900F90DF9183
:10504000CF911F910F91FF90EF90DF90CF90089537
:105050001F920F920FB60F9211242F933F934F93ED
:105060005F936F937F938F939F93AF93BF93EF93D0
:10507000FF93E0910201F09103010995FF91EF91F7
:10508000BF91AF919F918F917F916F915F914F9160
:105090003F912F910F900FBE0F901F9018951F9268
:1050A0000F920FB60F9211242F933F934F935F935C
:1050B0006F937F938F939F93AF93BF93EF93FF93E0
:1050C000E0910001F09101010995FF91EF91BF91ED
:1050D000AF919F918F917F916F915F914F913F9190
:1050E0002F910F900FBE0F901F9018951F920F9247
:1050F0000FB60F9211242F933F934F935F936F93AB
:105100007F938F939F93AF93BF93EF93FF9381E729
:1051100093E00E948013FF91EF91BF91AF919F9117
:105120008F917F916F915F914F913F912F910F9050
:105130000FBE0F901F9018951F920F920FB60F92EF
:1051400011242F938F939F93EF93FF93E09181030B
:10515000F09182038081E0918703F091880382FDC2
:1051600012C0908180918A038F5F8F7320918B038F
:10517000821751F0E0918A03F0E0EF58FC4F958FD1
:1051800080938A0301C08081FF91EF919F918F915D
:105190002F910F900FBE0F901F9018950C944D2FCC
:1051A0000C944D2F0F931F93CF93DF938C010E5FC1
:1051B0001F4FC0E0D0E0CE010E946031F801619144
:1051C0008F01861719F0CE010E9468312196C537EC
:1051D000D10589F785E790E0DF91CF911F910F917D
:1051E00008950895089563E070E08AE090E00895DE
:1051F00063E070E08AE090E00895DC01ED91FC91BD
:10520000119758966D917C9159970688F789E02DF2
:10521000099402970C94FD28FC0142305105A1F03D
:105220003CF44115510561F04130510559F00895A4
:105230004430510569F054F04530510559F0089556
:105240006087089561870895628708956387089548
:10525000648708956587089502970C940C294F92EE
:105260005F926F927F928F929F92AF92BF92CF92F6
:10527000DF92EF92FF920F931F93CF93DF9300D0B3
:1052800000D0CDB7DEB78C017B01DC0114966D91A7
:105290007C911597072E000C880B990B0E944330C8
:1052A0004B015C01B701FF0C880B990B0E94433046
:1052B0009B01AC01C501B4010E94463269837A8327
:1052C0008B839C830E9495274B015C01F8018681AA
:1052D00097810190F081E02D181619060CF04BC053
:1052E000D80193966D917C9194970688F789E02D6B
:1052F000C80109950E9495276B017C01F801648122
:105300007581072E000C880B990B0E94433020E01A
:1053100030E040E85FE30E94D9312B013C01C70136
:10532000B601681979098A099B090E9441302981CF
:105330003A814B815C810E94A2309B01AC01C30188
:10534000B2010E94D93120E030E040E05FE30E94EA
:10535000DA310E94B832D80117967C936E93169773
:1053600016968D919C91179797FFB0CF17961C9228
:105370001E921697ABCF048CF58DE02DC8010995D0
:1053800081E00F900F900F900F90DF91CF911F91C0
:105390000F91FF90EF90DF90CF90BF90AF909F90D4
:1053A0008F907F906F905F904F90089502970C942C
:1053B0002F298F929F92AF92BF92CF92DF92EF925E
:1053C000FF92CF93DF93EC017B0161E00E94F71025
:1053D0006C817D81072E000C880B990B0E94433055
:1053E0004B015C01B701FF0C880B990B0E94433005
:1053F0009B01AC01C501B4010E9446326B017C01E6
:105400000E9495274B015C012E813F818C819D81FB
:1054100001972817390754F5E881F98169A17AA124
:105420000688F789E02DCE0109950E949527681915
:1054300079098A099B090E944130A70196010E94BF
:10544000A23020E030E040E05FE30E94DA310E94C9
:10545000B8327F836E838C819D812E813F81281796
:10546000390794F201979F838E83CECF81E0DF913D
:10547000CF91FF90EF90DF90CF90BF90AF909F9033
:105480008F90089502970C94D929EF92FF920F9371
:105490001F93CF93DF93EC01259A8C01075D1F4F7B
:1054A0007C018FE2E80EF11CF801819191918F014E
:1054B000181619061CF461E00E94911A0E151F05BA
:1054C00099F760E0CE01DF91CF911F910F91FF908E
:1054D000EF900C94F71002970C94452A0F931F93AA
:1054E000CF93DF93EC011F821E820C811D8120E08F
:1054F00040E060E00E94CB13CE010E94A31360E065
:10550000CE01DF91CF911F910F910C94F71002976C
:105510000C946E2A0F931F93CF93DF93EC018E812F
:105520009F81892B09F47DC0888D998D86179707F7
:1055300029F081E08A8F798F688F01C01A8E6A30D6
:10554000710508F06EC0FB01E45BFF4F0C949733CC
:105550000E811F810F5F1F4F2A8549856885CE0107
:105560000E94CB130E811F81009510958C819D8127
:10557000080F191F20E040E060E0CE010E94CB132D
:10558000CE01DF91CF911F910F910C94A31324E1D1
:1055900030E040E050E060E570E006C024E130E03B
:1055A00040E050E06CE370E0CE01DF91CF911F91BD
:1055B0000F910C94D51822E330E040E050E062E314
:1055C00070E0F2CF01E010E020E030E004C00AE03B
:1055D00010E020E030E04AE959E969E17FE308C0E2
:1055E00009E110E020E030E040E050E060E07FE3DF
:1055F000CE010E944C1415C048E250E060E070E01B
:1056000009C044E150E060E070E004C04AE050E0CE
:1056100060E070E0CE01DF91CF911F910F910C946B
:105620009C19DF91CF911F910F91089502970C94CF
:105630008A2A0F931F93CF93DF93EC0161E00E94BE
:10564000F7108C819D8101979F838E8300E010E08D
:105650008C819D81081719074CF42A854985688536
:10566000CE010E94A8130F5F1F4FF2CFCE01DF9132
:10567000CF911F910F910C94A31302970C94192BA7
:10568000E1E7F3E01382128288EE93E0A0E0B0E05D
:1056900084839583A683B78326E231E03183208318
:1056A00025EC30E03587248724EC30E037872687E7
:1056B00020EC30E0318B208B21EC30E0338B228BDF
:1056C00022EC30E0358B248B26EC30E0378B268BB8
:1056D000118E128E138E148EEEE0F4E0138212827D
:1056E00084839583A683B78388E391E09183808345
:1056F000E5E2F5E086E092E0918380838BE090E044
:1057000093838283158214821682178210861186F3
:10571000138612868CEE91E09093AF048093AE04D2
:10572000E0E8F4E08CEB91E09183808388E690E000
:1057300094A783A786E794E09583848311A610A697
:1057400012A61382128214A215A216A217A215A6DF
:10575000E6E4F4E080E891E09183808386EA91E0DA
:105760009383828388E790E09583848317821682EF
:1057700083EC95EFA8E4B0E4858F968FA78FB0A354
:1057800025E734E037872687108A118A128A138A20
:10579000848B958BA68BB78B118E108E81E0828FB8
:1057A00012A211A214A213A2148E138E89E190E00A
:1057B000A0E0B0E085A396A3A7A3B0A783E090E004
:1057C00092A781A785E090E094A783A786E090E068
:1057D00096A785A7E3E3F4E088E791E091838083CF
:1057E0002CE030E0338322831482158216821782E4
:1057F00010861186128613861486158616861786DD
:10580000108A118A128AE0E2F4E09183808384E0B6
:1058100090E0938382831482158216821782108609
:105820001186128613861486158616861786108AA8
:10583000118A128AEAE1F4E080E791E091838083A3
:105840008CE89AE09583848385E69AE0938382834B
:1058500008950895789484B5826084BD84B581608C
:1058600084BD85B5826085BD85B5816085BD80912B
:105870006E00816080936E001092810080918100A3
:10588000826080938100809181008160809381009B
:10589000809180008160809380008091B10084605D
:1058A0008093B1008091B00081608093B0008091BE
:1058B0007A00846080937A0080917A00826080937D
:1058C0007A0080917A00816080937A0080917A00DA
:1058D000806880937A001092C10064E670E080E0F6
:1058E00090E00E94CD1A88E494E09093C1058093E3
:1058F000C00586E494E09093BF058093BE05E091D7
:105900008103F091820382E08083E0917D03F09136
:105910007E031082E0917F03F09180038FEC8083FF
:1059200010928903E0918503F091860386E08083DD
:10593000E0918303F0918403808180618083E09112
:105940008303F0918403808188608083E0918303E6
:10595000F0918403808180688083E0918303F091DB
:10596000840380818F7D808361E080E10E94911AB1
:1059700061E08FE00E94911AC0E0D0E0CE010E9469
:105980006031FE01E255FB4F82832196C537D10578
:10599000A9F721E08091B1049091B2048537910577
:1059A00009F020E081E09091B0049A3A09F080E09B
:1059B000822321E09091ED04923008F020E08223D0
:1059C00091E02091B404223008F090E0982381E027
:1059D00020912405253509F080E0892329F0809164
:1059E000B30485508A3150F081ED92E00E94EF15AA
:1059F0000E945A178EEA94E00E94D228FF24F39462
:105A0000F092D105F092D205F092D305F092D40530
:105A100088E08093D5058093D605F092D70584E081
:105A20008093D8051092D905F092DA0586E180932B
:105A3000DB05F092CF058BE08093D0051092C40572
:105A400087E18093C50588E18093C60589E180934D
:105A5000CA0581E28093C90589E28093CB058AE279
:105A60008093CC058EE28093C8058FE28093C705B2
:105A700080E38093CE058CE290E00E94B82E8C01EA
:105A800088E392E0F80191838083F08E128E118E6C
:105A9000138E1382128287E090E0958F848F88E0C6
:105AA00090E0978F868FF2A28FEF9FEF91A380A354
:105AB00015A284EC95E094A383A38FE190E00E946B
:105AC000B82EEC011B821A8288EE93E0A0E0B0E0D1
:105AD0008C839D83AE83BF8382E292E09983888327
