:100000000C94CA000C94E9120C94C2120C946D2644
:100010000C946D260C946D260C94F2000C94F20056
:100020000C94F2000C94F2000C94F2000C94F20088
:100030000C94F2000C94F2000C94F2000C94F20078
:100040000C943B120C94F2000C9436130C94101385
:100050000C94F2000C94F2000C94F2000C94F20058
:100060000C9411270C94F20031016D019E01D8010E
:100070000D021D022F026E0288029D0348046504D2
:100080008D045305A60987056C0D9A0D340EFA0EE2
:10009000770FBB0FFF0F2810F61DFD1D041E0B1E52
:1000A000121E191E201E271E2E1E341EA81E421EA2
:1000B000491E501E571EA81EA81E5E1E611E681EE9
:1000C000A81EA81E6F1E761E7D1E841E8B1E921EED
:1000D000991EA01E9A2DB92DC02DCD2DD42DD92D10
:1000E000E22DEE2DF32DF82DD923DC23E323ED2390
:1000F000F72301240B2415241F24292430243E2413
:1001000035256C2550253C254025442548254C2582
:100110005025542558255C2505A84CCDB2D44EB9A0
:100120003836A9020C50B9918688083CA6AAAA2A9A
:10013000BE000000803F00000000240027002A00CD
:1001400000000000250028002B0000000000230014
:100150002600290004040404040404040202020228
:10016000020203030303030301020408102040807A
:1001700001020408102001020408102000000008F9
:10018000000201000003040700000000000000005E
:10019000FE2AE62B11241FBECFEFD8E0DEBFCDBF75
:1001A00012E0A0E0B1E0EEE7F6E602C005900D92A5
:1001B000AE3FB107D9F725E0AEEFB2E001C01D9226
:1001C000AB3EB207E1F710E0C9ECD0E004C02197E4
:1001D000FE010E941333C83CD107C9F70E9464286E
:1001E0000C9432330C9400008F929F92AF92BF9286
:1001F000CF92DF92EF92FF920F931F93CF93DF93F3
:10020000CDB7DEB72C970FB6F894DEBF0FBECDBFCB
:100210006C0180EB94E00E94EE2183E694E00E9462
:100220004B0C80E594E00E944B0CD6011D968D91FD
:100230009C911E97DC01ED91FC910084F185E02DED
:1002400009951091EA04D6011296ED91FC9113974D
:10025000E031F10510F00C94A609EC5CFF4F0C9412
:100260001333A8950FB6F894A89580916000886123
:1002700080936000109260000FBE64EF71E080E038
:1002800090E00E94DF188091080390910903DC013F
:10029000ED91FC910484F585E02D60911D05099593
:1002A0002091ED048091080390910903DC01ED9108
:1002B000FC910280F381E02D40E050E0222319F010
:1002C0006AE070E002C061E070E0099564E670E009
:1002D00080E090E00E94DF18E3C3F60185859685F3
:1002E000DC01ED91FC910680F781E02D63E070E088
:1002F0000995F601138E4BE450E060E070E083E670
:1003000094E00E94300C882319F082E090E04DC701
:1003100080916E0490916F04A0917004B09171046B
:100320000097A105B10509F419C5893B9B4008F068
:1003300006C58091D904811120C510C500911D0505
:1003400010E08EED94E00E94FE1E69837A838B8319
:100350008BE1809F9001819F300D11248901005E07
:100360001A4F225E3A4F60910C0370910D03AE015B
:100370004F5F5F4F80910803909109030E94F80B33
:1003800006E010E080EB94E00E94EE2161E070E076
:1003900080E090E00E94DF180150110999F742E3D4
:1003A00050E060E070E083E694E00E94A30CFBC69E
:1003B000D60116968C918823B1F06EED74E0809191
:1003C0000C0390910D030E94DA0BF601858596854A
:1003D000DC01ED91FC910680F781E02D62E070E098
:1003E0000995F601178E80916E0490916F04A0918B
:1003F0007004B09171040097A105B10509F4F9C426
:100400002091E6043091E7048217930708F4F1C4C1
:10041000883E934008F0F2C5ECC4809108039091A7
:100420000903DC01ED91FC910480F581E02D63E08E
:1004300070E0099585E090E084C480916E0490910D
:100440006F04A0917004B09171040097A105B105EB
:1004500009F4D7C5843C994008F0D0C5D2C5D6016F
:1004600016968C918823E1F00E94AF11F601678700
:10047000708B818B928B8091080390910903DC0132
:10048000ED91FC910480F581E02D64E070E0099528
:100490006EED74E080910C0390910D030E94BC0BF3
:1004A0000E94AF11F6010781108521853285DC019C
:1004B000CB01801B910BA20BB30B85369105A105D7
:1004C000B10508F443C76EED74E080910C03909180
:1004D0000D030E94DA0B87E090E067C680916E04FE
:1004E00090916F04A0917004B09171040097A105E0
:1004F000B10509F467C62091E6043091E70482173C
:10050000930708F45FC6883E934008F077C55AC643
:10051000F6018681882309F475C0809108039091C3
:100520000903DC01ED91FC910280F381E02D40E0B4
:1005300050E066E070E00995F601848D882309F4A7
:10054000BAC000E010E08BE1982E83E694E00E94B0
:100550004B0C80916E0490916F04A0917004B09147
:100560007104892B8A2B8B2B29F45801FFEFAF1ACA
:10057000BF0A02C0A12CB12C61E070E080E090E0E5
:100580000E94DF1800911D05909E80011124C80172
:1005900082529B4FFC01EA5AFF4F208130E03A879C
:1005A00029873197808190E098878F838EED94E042
:1005B0000E94E31E6C837D838E838EED94E00E9407
:1005C000FE1E69837A838B8398012B5C3A4F7901F5
:1005D0008E01075F1F4F9E01295F3F4FAE014C5FA9
:1005E0005F4FBE016F5F7F4F80910C0390910D03B1
:1005F0000E94DA0A85010F5F1F4F0A3F11050CF4B4
:10060000A4CF59C0848D8823D9F080916E04909135
:100610006F04A0917004B0917104892B8A2B8B2BED
:1006200009F00DC680915B0490915C04A0915D047B
:10063000B0915E04892B8A2B8B2B09F000C64BC628
:1006400080915B0490915C04A0915D04B0915E0484
:10065000892B8A2B8B2B79F56EED74E080910C033E
:1006600090910D030E94DA0B809108039091090389
:10067000DC01ED91FC910280F381E02D40E050E03F
:1006800069E070E00995F601148E42E350E060E005
:1006900070E080E594E00E94A30C83E090E0D60136
:1006A00013969C938E9312970E94AF11F601678365
:1006B000708781879287D60112968D919C911397AE
:1006C000089709F043C600911D05BBE10B9F80010F
:1006D0001124C80182529B4FFC01EA5AFF4F20812E
:1006E00030E03A8729873197808190E098878F831F
:1006F0008EED94E00E94E31E6C837D838E838EEDED
:1007000094E00E94FE1E69837A838B83F801EB5C80
:10071000FA4F7F018E01075F1F4F9E01295F3F4FF8
:10072000AE014C5F5F4FBE016F5F7F4F80910C0346
:1007300090910D030E94DA0A09C6D60116968C9193
:10074000882309F44EC00E94AF11F601678B708FA9
:10075000818F928F8091080390910903DC01ED91C4
:10076000FC910480F581E02D65E070E00995E09151
:100770000A03F0910B030190F081E02D04811581B3
:100780008EED94E00E94E31E282F8EED94E02C87DE
:100790000E94E31E472F8EED94E04B870E94E31EDC
:1007A0002C854B8580910A0390910B03F8010995E4
:1007B00080910A0390910B03FC01A081B181E0912B
:1007C0001D052BE1E29FF0011124EC5DFA4F408101
:1007D00051811896ED91FC91199760E070E00995B0
:1007E0004BC00E94AF11D60117960D911D912D910E
:1007F0003C911A97AB01BC01401B510B620B730B70
:10080000E0911D051BE11E9FF0011124EC5DFA4FE4
:1008100080819181A0E0B0E0481759076A077B0703
:1008200058F16EED74E080910C0390910D030E94DD
:10083000DA0B8091D804882309F479C50E94AF119E
:10084000F60187809084A184B284AB01BC01481971
:1008500059096A097B09E0911D051E9FF0011124C9
:10086000EA5DFA4F80819181A0E0B0E04817590716
:100870006A077B0708F05BC58091D904882309F4D7
:1008800065C5D6015B961C925B9786E090E08EC4AE
:1008900040911D05FBE14F9FA00111244E5D5A4F71
:1008A00060910C0370910D038091080390910903EE
:1008B0000E949A0B42E350E060E070E083E694E02F
:1008C0000E94A30C81E090E070C4D60116968C9132
:1008D000882391F0609108037091090381E090E012
:1008E00020911D05222311F080E090E00E949E14CB
:1008F0008EED94E00E94432842E350E060E070E017
:1009000083E694E00E94A30C42E350E060E070E0D4
:1009100080E594E00E94A30CC3C0F6018681882381
:10092000B1F08091080390910903DC01ED91FC91F5
:100930000280F381E02D4BE050E06BE070E0099520
:1009400068EE73E080E090E00E94DF18FFC48091C1
:100950006E0490916F04A0917004B091710481377E
:10096000E7E19E0718F08FE090E01FC4892B8A2BE7
:100970008B2B09F0EBC4809169048111E7C4D60187
:100980001D968D919C911E97DC01ED91FC91068046
:10099000F781E02D64E070E0099588E190E00E9425
:1009A000342EFC01809108039091090320910C03DF
:1009B00030910D03138212821582148216821782DF
:1009C00010861186128648E151E0518340834EED36
:1009D00054E05487438736872587908B878780EB41
:1009E00094E0928B818B83E694E0948B838B80E5FB
:1009F00094E0968B858B178AD6015E96FC93EE93D6
:100A00005D9711E0D6015D968D919C915E97DC011A
:100A1000ED91FC910084F185E02D099581112EC0A6
:100A2000D6011D968D919C911E97DC01ED91FC9154
:100A30000084F185E02D0995F601A58DB68D1296FD
:100A40008D919C91139714962D913C911597281791
:100A5000390721F016961C93169703C016961C9220
:100A6000169715969C938E931497ED91FC91119780
:100A70000680F781E02DCD010995C4CFF601858D63
:100A8000968D009739F0DC01ED91FC910280F381A5
:100A9000E02D09950E94231480EB94E00E94162318
:100AA00081E090E04EC180EB94E00E94EA21E09169
:100AB0004E04F0914F04309709F0099583B7817F78
:100AC0008C6083BF83B7816083BF83B7816083BF3E
:100AD000889583B78E7F83BF83B78E7F83BFE09176
:100AE0004C04F0914D04309709F00995D601ED9131
:100AF000FC910480F581E02DC601099546E950E09E
:100B000060E070E083E694E00E94A30C09C1F60166
:100B10008681882309F49FC085859685DC01ED9147
:100B2000FC910680F781E02D60E070E00995F60108
:100B300085859685DC01ED91FC910084F185E02DA1
:100B400009958091080390910903DC01ED91FC91D6
:100B50000280F381E02D44E150E06BE070E0099504
:100B600080910C0390910D03DC01ED91FC910680C6
:100B7000F781E02D40E050E060E4099580910C039E
:100B800090910D03DC01ED91FC910684F785E02D39
:100B90000995F60183859485DC01ED91FC91048033
:100BA000F581E02D099544E650E060E070E083E6D1
:100BB00094E00E94A30C80910C0390910D03DC0142
:100BC000ED91FC910484F585E02D099505E010E098
:100BD00080910C0390910D03DC01ED91FC91068056
:100BE000F781E02D40E050E060E4099580910C032E
:100BF00090910D03DC01ED91FC910684F785E02DC9
:100C0000099564EF71E080E090E00E94DF18809128
:100C10000C0390910D03DC01ED91FC910484F585AA
:100C2000E02D099564EF71E080E090E00E94DF180C
:100C30000150110969F68091080390910903DC01C4
:100C4000ED91FC910280F381E02D40E150E06BE0FA
:100C500070E009957BC380916E0490916F04A09120
:100C60007004B0917104892B8A2B8B2B09F45CC022
:100C700005E010E080910C0390910D03DC01ED91F3
:100C8000FC910680F781E02D40E050E060E409959A
:100C900080910C0390910D03DC01ED91FC91068491
:100CA000F785E02D09956AEF70E080E090E00E9402
:100CB000DF1880910C0390910D03DC01ED91FC9104
:100CC0000484F585E02D09956AEF70E080E090E0FE
:100CD0000E94DF180150110969F642E350E060E01C
:100CE00070E083E694E00E94A30C0E94231480EB42
:100CF00094E00E9416238091080390910903DC017F
:100D0000ED91FC910280F381E02D41E150E06BE038
:100D100070E0099568EE73E080E090E00E94DF18D3
:100D2000F6011382128210C0F60183859485DC01DE
:100D3000ED91FC910680F781E02D099507C38CE0C9
:100D400090E0F601938382830E94AF11D60117963B
:100D50006D937D938D939C931A97F8C280915B0459
:100D600090915C04A0915D04B0915E040097A10590
:100D7000B10531F0893E934018F08BE090E0E1CF6F
:100D80000E94AF11F60187809084A184B284DC01B7
:100D9000CB0188199909AA09BB0981339547A10597
:100DA000B10508F4D3C20E94AF11D60117968D90F9
:100DB0009D90AD90BC901A979B01AC012819390900
:100DC0004A095B0949015A01212F30E0A0E6BAEE39
:100DD0000E944631681579058A059B0508F0B6C260
:100DE0008091EA0481508E3F08F0B0C28DE090E01F
:100DF000DCC10E94AF114091E504D60117960D9118
:100E00001D912D913C911A974B015C01801A910A1A
:100E1000A20AB30A242F30E0A8EEB3E00E944631C4
:100E200086169706A806B90628F04A3018F08AE018
:100E300090E087CF8091D9048823D9F0D6015B96C2
:100E40001C9280916E0490916F04A0917004B091F7
:100E50007104892B8A2B8B2B09F4CCC18091EC0473
:100E6000882309F4C7C181E0F601848F88E090E00F
:100E700069CF4BE450E060E070E083E694E00E94CC
:100E8000300C882379F08091EB04882359F0F60127
:100E9000938D81E08927838F882309F457C289E0E5
:100EA00090E04FCF4BE450E060E070E080E594E0EC
:100EB0000E94300C882311F0F60111C080915B0470
:100EC00090915C04A0915D04B0915E040097A1052F
:100ED000B10589F0893C910508F01CC10CC0138E46
:100EE00007C0938D81E08927838F882309F42EC260
:100EF00089E090E027CF8091D804882371F1809118
:100F0000B2049091B304181619063CF5D6015B960D
:100F10008C918111C4CF0E94AF11F6010789108D09
:100F2000218D328DAB01BC01401B510B620B730B49
:100F3000E0911D052BE1E29FF0011124E85DFA4FDD
:100F400080819181A0E0B0E0481759076A077B07CC
:100F500008F4FCC184E090E028C10E94AF11E09148
:100F60001D05D60117960D911D912D913C911A9753
:100F7000AB01BC01401B510B620B730B2E2F30E0F9
:100F8000BBE1EB9FF0011124E25DFA4F808191817A
:100F9000A0E0B0E0481759076A077B07C0F0D60108
:100FA0005F968C91811113C0809108039091090381
:100FB000DC01ED91FC910280F381E02D40E050E0F6
:100FC00069E070E0099581E0F601878FBFC18091EB
:100FD0000C0390910D03FC01A081B1814BE1429F74
:100FE000F001439FF00D1124EE5CFA4F608170E038
:100FF0001896ED91FC9119970995A8C18AE090E0A7
:10100000D4C08091D904882389F10E94AF11D60100
:1010100017960D911D912D913C911A97DC01CB01F2
:10102000801B910BA20BB30B85369105A105B10571
:1010300058F461E070E080E090E00E94DF1880EBFF
:1010400094E00E94EE21E1CF80916E0490916F04B4
:10105000A0917004B0917104892B8A2B8B2B09F419
:101060005CC08091EC04811155C057C04BE450E046
:1010700060E070E080E594E00E94300C8823F1F09D
:101080000E94AF11F6010781108521853285DC01B0
:10109000CB01801B910BA20BB30B85369105A105EB
:1010A000B10508F01CCF80E594E00E944B0C61E094
:1010B00070E080E090E00E94DF18E2CF4BE450E067
:1010C00060E070E083E694E00E94300C882341F1F8
:1010D0008091EB04882321F10E94AF11F601078172
:1010E000108521853285DC01CB01801B910BA20B81
:1010F000B30B85369105A105B10508F0F2CE83E664
:1011000094E00E944B0C61E070E080E090E00E946F
:10111000DF18E2CF88E090E048C086E090E045C06C
:101120008091D80481111EC00E94AF11F601078181
:10113000108521853285AB01BC01401B510B620B30
:10114000730BE0911D052BE1E29FF0011124E65D98
:10115000FA4F80819181A0E0B0E0481759076A07F3
:101160007B0708F50E94AF11D60117960D911D91CE
:101170002D913C911A97AB01BC01401B510B620BA6
:10118000730BE0911D05BBE1EB9FF0011124E45DC1
:10119000FA4F80819181A0E0B0E084179507A607FF
:1011A000B70708F0D3C083E090E0D60113969C9374
:1011B0008E9312970E94AF11F60167837087818723
:1011C0009287C4C08091D9048823B9F00E94AF11DE
:1011D000D6011F960D911D912D913C915297DC01E6
:1011E000CB01801B910BA20BB30B893C9105A10590
:1011F000B10518F086E090E0A4CD0E94AF11F60191
:101200000781108521853285AB01BC01401B510B44
:10121000620B730BE0911D052BE1E29FF00111249D
:10122000E85DFA4F80819181A0E0B0E0481759074E
:101230006A077B0708F48AC083E090E082CD0E94B1
:10124000AF11D60117960D911D912D913C911A97D2
:10125000DC01CB01801B910BA20BB30B893E9340A9
:10126000A105B10508F427CA42E350E060E070E050
:1012700083E694E00E94A30C42E350E060E070E05B
:1012800080E594E00E94A30C6EED74E080910C0365
:1012900090910D030E94DA0B80910803909109034D
:1012A000DC01ED91FC910280F381E02D40E050E003
:1012B00069E070E00995F601148E83E090E0938375
:1012C00082830E94AF11D60117966D937D938D9303
:1012D0009C931A97F0C98091D804882309F4EBC92C
:1012E0000E94AF11F6010781108521853285DC014E
:1012F000CB01801B910BA20BB30B893E9340A10540
:10130000B10508F4D8C98091E404882309F4D3C94D
:101310006EED74E080910C0390910D030E94DA0B46
:10132000D6015C961C925C9784E090E0B9C983E09A
:1013300090E0D60113969C938E9312970E94AF1162
:10134000F601678370878187928796CA2C960FB6BD
:10135000F894DEBF0FBECDBFDF91CF911F910F91EB
:10136000FF90EF90DF90CF90BF90AF909F908F90C5
:101370000895FF920F931F93CF93DF93EC018B019E
:10138000F42EE881F9810680F781E02D40E050E0FD
:10139000DB016C910995E881F9810680F781E02DE8
:1013A00041E050E0D80111966C91CE010995E88199
:1013B000F9810680F781E02D42E050E0D8011296D5
:1013C0006C91CE010995FF2061F0E881F9810684D6
:1013D000F785E02DCE01DF91CF911F910F91FF9006
:1013E0000994DF91CF911F910F91FF900895FC0117
:1013F0008789089508950895CF93DF93EC011B82A8
:101400001A8280910A0390910B03DC01ED91FC910B
:101410006091EE0470E00284F385E02D09958091DF
:101420000C0390910D03DC01ED91FC910190F08192
:10143000E02D09958091080390910903DC01ED915D
:10144000FC910190F081E02D099580EB94E00E94E1
:1014500016238091650490916604181619061CF4F1
:1014600062E00E94A31880915204909153041816D0
:1014700019061CF462E00E94A3188D859E85DC018C
:10148000ED91FC910480F581E02D099564E670E012
:1014900080E090E00E94DF186091E30470E0653026
:1014A000710514F464E170E08091080390910903E0
:1014B000DC01ED91FC910084F185E02D099564E655
:1014C00070E080E090E0DF91CF910C94DF180C94F5
:1014D000C92E0C94C92E0C94C92E87FF0C94731836
:1014E0000895A89599E288E10FB6F894A89580939D
:1014F00060000FBE9093600086EA92E00E940114A3
:1015000064E670E080E090E00E94DF1860E0809187
:1015100009010E946D0A8091080118161CF462E00E
:101520000E94A3188091070118161CF461E00E9424
:10153000731860E0809105010E946D0A60E080915F
:1015400006010E946D0A6CE271E080E090E00C946C
:10155000DF188CEA92E00E9401146AEF70E080E0EC
:1015600090E00E94DF1880910801181644F461E0B1
:101570000E94A31860E0809108010E947318809176
:10158000070118161CF460E00E94731861E0809156
:1015900006010E946D0A61E0809105010E946D0ABA
:1015A00060E0809104010E946D0A61E08091090170
:1015B0000C946D0A2F923F924F925F926F927F929E
:1015C0008F929F92AF92BF92CF92DF92EF92FF9253
:1015D0000F931F93CF93DF9300D01F92CDB7DEB749
:1015E0006C015B013A0149010E94AF112091000397
:1015F0003091010340910203509103031B012C0120
:10160000221A330A440A550AF70180819181A0E029
:10161000B0E0281639064A065B0608F475C00E9439
:10162000AF116093000370930103809302039093C2
:101630000303F30180819181A28189839A83AB8323
:101640000E94AF2F24E630E040E050E00E94F230EC
:10165000F401208131812901330F6608770846168D
:101660005706680679063CF4F50180819181A281D4
:1016700089839A83AB83F8018081918164E670E06D
:10168000681B790B072E000C880B990B24E630E0C1
:1016900040E050E00E9485120E94BF2F20E030E021
:1016A00048EC52E40E94C2314B015C01698170E058
:1016B00080E090E00E94BD2FA50194010E941E30A1
:1016C0000E943B3269836A8170E080E090E00E9472
:1016D000BD2FA50194010E941E300E943B326A83F7
:1016E0006B8170E080E090E00E94BD2FA501940125
:1016F0000E941E300E943B326B8341E0BE016F5F4F
:101700007F4FC6010E94B9090F900F900F90DF9193
:10171000CF911F910F91FF90EF90DF90CF90BF90EE
:10172000AF909F908F907F906F905F904F903F9081
:101730002F9008950F931F93CF93DF93EB018A01AE
:10174000DC01ED91FC910280F381E02D40E050E05E
:1017500068E070E00995E881F981D8016D917C918C
:101760000480F581E02DCE0109958823A1F3DF9156
:10177000CF911F910F9108950F931F93CF93DF93F4
:1017800000D01F92CDB7DEB78C01CB010E94E31EC3
:1017900069837A838B8341E0BE016F5F7F4FC8010D
:1017A0000E94B9090F900F900F90DF91CF911F9178
:1017B0000F9108950F931F93CF93DF9300D01F9243
:1017C000CDB7DEB78C01CB010E94FE1E69837A8300
:1017D0008B8341E0BE016F5F7F4FC8010E94B90952
:1017E0000F900F900F90DF91CF911F910F9108955F
:1017F000CF92DF92EF92FF920F931F93CF93DF93DD
:10180000EB017A016901DC01ED91FC910280F38129
:10181000E02D40E050E062E070E00995F601608163
:10182000718180E090E00E94DF1840E0B701CE01B6
:101830000E94B909E881F981D8016D917C910280FB
:10184000F381E02DCE0109958823A1F3DF91CF919B
:101850001F910F91FF90EF90DF90CF900895089522
:101860000F931F93411551056105710571F0FC013E
:101870000785108921893289222733270417150704
:101880002607370710F480E002C0FC0186811F9113
:101890000F91089508950F931F93CF93DF93EC0159
:1018A0008A819B81181619062CF40E944A1821E09F
:1018B000892B09F020E02C838D81222319F18111DD
:1018C00010C00E94AF116F83788789879A871F861F
:1018D000188A198A1A8A1E821B861C861D861E86F5
:1018E0002BC00E94AF110F81188529853A85DC0134
:1018F000CB01801B910BA20BB30B8B879C87AD8711
:10190000BE871AC0882399F00E94AF110F811885F5
:1019100029853A85DC01CB01801B910BA20BB30B0F
:101920008F87988BA98BBA8B81E08E8305C01B862D
:101930001C861D861E861E828C818D83DF91CF9131
:101940001F910F910895EF92FF920F931F93CF93E2
:10195000DF9300D000D0CDB7DEB78C01CB01BA0148
:1019600025E030E040E050E00E94F230E12CF12C24
:10197000CA01B90129833A834B835C830E94DF1833
:10198000C8010E944B0CF801868129813A814B8164
:101990005C818111EBCF83859485A585B685892BE4
:1019A0008A2B8B2B19F7FFEFEF1AFF0A85E0E81659
:1019B000F104F4F20F900F900F900F90DF91CF9100
:1019C0001F910F91FF90EF9008958F929F92AF9289
:1019D000BF92DF92EF92FF920F931F93CF93DF930B
:1019E000EC018B899C89DC011B968D909D90AD90BC
:1019F000BC901E9781149104A104B104A1F1D22ED0
:101A00007A018B0144E650E060E070E00E94300C07
:101A1000811129C0B9EE8B16B3E09B0620F18F85AA
:101A20009889DC01ED91FC914D2D50E00280F3810D
:101A3000E02DB701099564E670E080E090E00E9437
:101A4000DF1842E350E060E070E08B899C890E94DF
:101A5000A30C1B830A830E94AF116F837887898749
:101A60009A8781E001C080E0DF91CF911F910F91B3
:101A7000FF90EF90DF90BF90AF909F908F90089570
:101A8000EF92FF920F931F93CF93DF93EC018B891B
:101A90009C890E944B0C8D899E890E944B0C8989E0
:101AA0009A89DC01ED91FC910284F385E02D099582
:101AB0008B859C85DC01ED91FC910480F581E02D06
:101AC00009958C01EA81FB81E830F10508F0EFC24D
:101AD000EC5BFF4F0C9413338F859889DC01ED91FB
:101AE000FC910280F381E02D4BE050E06BE070E070
:101AF000099560ED77E080E090E00E94DF1842E316
:101B000050E060E070E08B899C890E94A30C42E366
:101B100050E060E070E08D899E890E94A30C81E016
:101B200090E09B838A830E94AF116F8378878987B7
:101B30009A87BDC28E81882301F18F859889DC0147
:101B4000ED91FC910280F381E02D4EE050E06BE0DE
:101B500070E009956CED75E080E090E00E94DF1880
:101B60008F859889DC01ED91FC910280F381E02D55
:101B700040E050E069E070E009958F859889DC01CC
:101B8000ED91FC910684F785E02D0995FC01F38425
:101B900044E650E060E070E08B899C890E94300C44
:101BA000882369F0D80113968C9113978F1520F430
:101BB0008F5F13968C9316C085E0F80110C044E641
:101BC00050E060E070E08D899E890E94300C88238F
:101BD00009F444C0F8018381863018F08150838372
:101BE00001C0F3828F859889DC01ED91FC91D801C9
:101BF00013966C9170E00084F185E02D099566E9FB
:101C000070E080E090E00E94DF18F8018381F81214
:101C10004EC28F859889DC01ED91FC910280F381A1
:101C2000E02D45E150E06BE070E009956CED75E06A
:101C300080E090E00E94DF188F859889EC01E881B0
:101C4000F9810280F381E02D40E050E069E070E02E
:101C5000099566E970E080E090E03BC02DE04BE044
:101C600050E062E070E0FFC18B859C85DC01ED9166
:101C7000FC910284F385E02D09958C018E81811100
:101C80004FC044E650E060E070E08B899C890E9480
:101C9000300C882331F18B859C85DC01ED91FC9122
:101CA0000284F385E02D0995FC0180818B3028F4B6
:101CB000D8018C918F5F8C9302C0F80110826B85E4
:101CC0007C858D859E850E94DA0B64E670E080E05D
:101CD00090E0DF91CF911F910F91FF90EF900C94C6
:101CE000DF1844E650E060E070E08D899E890E9434
:101CF000300C882309F18B859C85DC01ED91FC91EA
:101D00000284F385E02D0995FC018081882329F068
:101D1000D8018C9181508C9303C08BE0F8018083B3
:101D20006B857C858D859E85DF91CF911F910F916D
:101D3000FF90EF900C94DA0B89899A89DC01ED9180
:101D4000FC910680F781E02D0995882389F18F8524
:101D50009889DC01ED91FC910480F581E02D64E02F
:101D600070E00995F801E280F12C8D859E85DC01FB
:101D7000ED91FC910088F189E02D0995E816F906AE
:101D80002CF4F80182818F5F828303C0D801129600
:101D90001C9264EF71E080E090E00E94DF188F8574
:101DA0009889EC01E881F9810680F781E02D98C0DF
:101DB0002CE04BE050E063E070E0CE010E94E50CC7
:101DC000AD85BE85ED91FC911197882329F004849F
:101DD000F585E02DCD0184C0E8016A8170E00084C2
:101DE000F185E02DCD01DF91CF911F910F91FF90F3
:101DF000EF9009948B859C85DC01ED91FC91028428
:101E0000F385E02D09958C018E8181114AC044E64D
:101E100050E060E070E08B899C890E94300C882340
:101E2000F1F08B859C85DC01ED91FC910284F385BA
:101E3000E02D0995FC0181818B3040F4D801119689
:101E40008C9111978F5F11968C9302C0F8011182CB
:101E50006B857C858D859E850E94BC0B36CF44E6C4
:101E600050E060E070E08D899E890E94300C8823EC
:101E700021F18B859C85DC01ED91FC910284F38539
:101E8000E02D0995FC018181882341F0D80111964C
:101E90008C911197815011968C9303C08BE0F801BF
:101EA00081836B857C858D859E85DF91CF911F9188
:101EB0000F91FF90EF900C94BC0B2FE04BE050E0A3
:101EC00064E070E0CE010E94E50C882309F4EFC0C5
:101ED0008D859E85DC01ED91FC910484F585E02DD6
:101EE000DF91CF911F910F91FF90EF9009948B8517
:101EF0009C85DC01ED91FC910488F589E02D099524
:101F00008C0144E650E060E070E08B899C890E947F
:101F1000300C882341F0F801818D893010F48F5FF7
:101F200011C0118E13C044E650E060E070E08D896E
:101F30009E890E94300C882349F0F801818D882306
:101F400019F08150818F02C089E0818F44E650E012
:101F500060E070E08B899C890E94300C81117BC00D
:101F600044E650E060E070E08D899E890E94300C6C
:101F7000811171C073C08B859C85DC01ED91FC9152
:101F80000488F589E02D09958C0144E650E060E075
:101F900070E08B899C890E94300C882341F0F80105
:101FA000828D893010F48F5F0CC0128E0EC0ED89C7
:101FB000FE898681882349F0F801828D882319F0F3
:101FC0008150828F02C089E0828F44E650E060E059
:101FD00070E08B899C890E94300C81114DC044E6D1
:101FE00050E060E070E08D899E890E94300C811184
:101FF00043C020E048E050E066E070E034C08B85EC
:102000009C850E9443288F859889DC01ED91FC9185
:102010000280F381E02D40E050E061E070E009953E
:1020200087E090E09B838A830E94AF116F8378875B
:1020300089879A8742E350E060E070E08B899C8951
:10204000DF91CF911F910F91FF90EF900C94A30C13
:1020500081E08F8B2CC0F801418D11C022E14BE053
:1020600050E065E070E0CE01DF91CF911F910F91BC
:10207000FF90EF900C94E50CD8015A964C918F8507
:102080009889442359F0DC01ED91FC9150E00280E5
:10209000F381E02D6BE070E0099517CEEC01E8814B
:1020A000F9810280F381E02D43E150E0F3CFDF912D
:1020B000CF911F910F91FF90EF90089542E350E070
:1020C00060E070E0FC01838994890C94A30C08956E
:1020D0000895CF92DF92EF92FF920F931F93CF93C9
:1020E000DF936C017A018B01C0E0D0E0CE15DF05F3
:1020F00089F0D8016D918D01D601ED91FC9101908F
:10210000F081E02DC6010995892B11F47E0102C0F2
:102110002196ECCFC701DF91CF911F910F91FF90D6
:10212000EF90DF90CF900895FC01538D448D252FC3
:1021300030E0842F90E0821B930B541710F0CF9661
:10214000089501970895FC01918D828D981761F093
:10215000828DDF01A80FB11D5D968C91928D9F5FDE
:102160009F73928F90E008958FEF9FEF0895FC0189
:10217000918D828D981731F0828DE80FF11D858D3C
:1021800090E008958FEF9FEF0895FC01918D228DCF
:10219000892F90E0805C9F4F821B91098F73992754
:1021A000089581EA93E00E94C51021E0892B09F48B
:1021B00020E0822F0895FC01848DDF01A80FB11D5E
:1021C000A35ABF4F2C91848D90E001968F7399276D
:1021D000848FA689B7892C93A089B1898C9180645A
:1021E0008C93938D848D981306C00288F389E02D1B
:1021F00080818F7D80830895EF92FF920F931F93CC
:10220000CF93DF93EC0181E0888F9B8D8C8D9813A9
:1022100005C0E889F989808185FD24C0F62E0B8DE3
:1022200010E00F5F1F4F0F731127E02E8C8DE81207
:102230000CC00FB607FCFACFE889F989808185FFC9
:10224000F5CFCE010E94DB10F1CF8B8DFE01E80FA0
:10225000F11DE35AFF4FF0820B8FEA89FB898081E1
:10226000806207C0EE89FF896083E889F9898081EF
:102270008064808381E090E0DF91CF911F910F9186
:10228000FF90EF900895CF93DF93EC01888D882322
:10229000C9F0EA89FB89808185FD05C0A889B989D3
:1022A0008C9186FD0FC00FB607FCF5CF808185FFAE
:1022B000F2CFA889B9898C9185FFEDCFCE010E941C
:1022C000DB10E7CFDF91CF91089580E090E0892B7C
:1022D00029F00E94D11081110C9400000895FC0196
:1022E000758364830895FC01758364830895CF9397
:1022F000DF93EC0161E08A810E94A31860E08A818B
:10230000DF91CF910C9473180E942D330C94C92E39
:102310000C94C92E3FB7F89480913003909131030B
:10232000A0913203B091330326B5A89B05C02F3F7F
:1023300019F00196A11DB11D3FBFBA2FA92F982FEB
:102340008827820F911DA11DB11DBC01CD0142E066
:10235000660F771F881F991F4A95D1F708952FB7E9
:10236000F89460912C0370912D0380912E0390912D
:102370002F032FBF08950F931F93CF93DF93EC018B
:102380008C819D818230910571F02CF4009749F089
:10239000019749F035C08330910541F00497D9F099
:1023A0002FC01A862FC081E08A872CC00E94AF11EF
:1023B0000E811F8128853985DC01CB01801B910BA3
:1023C000A20BB30B85369105A105B10518F18A85DD
:1023D000811149C01FC00E94AF110E811F81288545
:1023E0003985DC01CB01801B910BA20BB30B853F20
:1023F0009140A105B10528F18A85811134C021C021
:102400001D821C826A858A81DF91CF911F910F9175
:102410000C9473180E94AF110E811F812885398595
:10242000DC01CB01801B910BA20BB30B813A9F40C7
:10243000A105B10538F38A858111E4CF81E08A874F
:1024400013C00E94AF110E811F8128853985DC01E0
:10245000CB01801B910BA20BB30B853F9140A105D3
:10246000B10548F7CFCF1A860E94AF116E837F83E4
:1024700088879987C7CF1F920F920FB60F921124AA
:102480002F933F938F939F93AF93BF9380912C0390
:1024900090912D03A0912E03B0912F0330912B0327
:1024A00023E0230F2D3720F40196A11DB11D05C097
:1024B00026E8230F0296A11DB11D20932B038093C4
:1024C0002C0390932D03A0932E03B0932F038091A0
:1024D000300390913103A0913203B0913303019600
:1024E000A11DB11D8093300390933103A09332035B
:1024F000B0933303BF91AF919F918F913F912F91F3
:102500000F900FBE0F901F901895CF92DF92EF9211
:10251000FF920F931F93CF93DF9300D000D0CDB7DE
:10252000DEB76217730784079507FCF489019A01E7
:102530006B017C01A9019801261B370B480B590B35
:1025400069F029833A834B835C830E94AF2F2981F2
:102550003A814B815C810E94F23003C060E070E000
:10256000CB016C0D7D1D8E1D9F1D0F900F900F9048
:102570000F90DF91CF911F910F91FF90EF90DF901F
:10258000CF9008951F920F920FB60F9211242F93A0
:102590003F934F935F936F937F938F939F93AF93EB
:1025A000BF93EF93FF93E0910201F091030109952E
:1025B000FF91EF91BF91AF919F918F917F916F911B
:1025C0005F914F913F912F910F900FBE0F901F90F1
:1025D00018951F920F920FB60F9211242F933F93CD
:1025E0004F935F936F937F938F939F93AF93BF931B
:1025F000EF93FF93E0910001F09101010995FF91A4
:10260000EF91BF91AF919F918F917F916F915F916A
:102610004F913F912F910F900FBE0F901F901895E3
:102620001F920F920FB60F9211242F933F934F9347
:102630005F936F937F938F939F93AF93BF93EF932A
:10264000FF9381EA93E00E94DB10FF91EF91BF912D
:10265000AF919F918F917F916F915F914F913F913A
:102660002F910F900FBE0F901F9018951F920F92F1
:102670000FB60F9211242F938F939F93EF93FF9395
:10268000E091B103F091B2038081E091B703F09142
:10269000B80382FD12C090818091BA038F5F8F735F
:1026A0002091BB03821751F0E091BA03F0E0EF559F
:1026B000FC4F958F8093BA0301C08081FF91EF9109
:1026C0009F918F912F910F900FBE0F901F90189593
:1026D00008950895FF920F931F93CF93DF93F62EE3
:1026E0008C01075D1F4FEC01AF96F801819191912C
:1026F0008F01181619063CF4FF2011F061E001C0AB
:1027000060E00E9473180C171D0779F7DF91CF91D5
:102710001F910F91FF9008958BED91E00197F1F7D4
:102720000895EF92FF921F93CF93DF931F92CDB73F
:10273000DEB7162FF894FC01E684F784642FC701F6
:1027400029830E947323612FC7010E94732329816B
:10275000622FC7010E94732378940F90DF91CF916D
:102760001F91FF90EF900895BF92CF92DF92EF926A
:10277000FF920F931F93CF93DF937C01D62EC42E2D
:10278000B22EC0E0D0E0C017D10744F42B2D4C2D61
:102790006D2DC7010E9491132196F5CFDF91CF9146
:1027A0001F910F91FF90EF90DF90CF90BF90089511
:1027B000833081F028F4813099F08230A1F00895BF
:1027C0008730A9F08830B9F08430D1F4809180004E
:1027D0008F7D03C0809180008F7780938000089563
:1027E00084B58F7702C084B58F7D84BD08958091B4
:1027F000B0008F7703C08091B0008F7D8093B000D0
:102800000895CF93DF93009779F0FC0101900020A9
:10281000E9F73197AF01481B590BBC0181EA93E0FE
:102820000E946910EC0102C0C0E0D0E042E050E03C
:1028300062EE72E081EA93E00E9469108C0F9D1FA6
:10284000DF91CF910895CF93DF93E0911D05CE2FB7
:10285000D0E03BE1E39FF0011124E95CFA4F2081D5
:10286000E091F704F091F804211119C08091EF0470
:102870009091F0049093A7048093A6048091F104B2
:102880009091F2049093A9048093A8048091F3049A
:102890009091F4049093AB048093AA0419C086EF3E
:1028A00099E09093A7048093A6043EEC3203C00104
:1028B00011249E5F9093A9048093A804880F991F08
:1028C00063E070E00E94FF327093AB046093AA044F
:1028D0008BE18C9FD0018D9FB00D1124A85CBA4F65
:1028E0002C91211105C08091F5049091F6041BC034
:1028F000822F90E0A0E0B0E09C01AD0121503109B1
:1029000041095109A6E4B0E00E941131AB01BC01BC
:1029100083E075956795579547958A95D1F780E53A
:1029200090E0841B950B9093AD048093AC04F093DE
:10293000AF04E093AE04DF91CF910895CF93DF937E
:10294000EB0180931D05E881F9810484F585E02D74
:10295000682FCE010995E881F9810280F381E02D8D
:1029600040E050E060E070E0CE0109950E94231441
:10297000E091B004F091B1040484F585E02D80EB82
:1029800094E0DF91CF910994382F2091A00390918A
:102990009F03213208F049C080917C038111FCCF54
:1029A00042E040937C0330937B033FEF30937A0304
:1029B0001092790320937803AFE7B3E048E553E042
:1029C000FA013E2F341B321718F43D913193F9CFA1
:1029D0001092570320915703990F922B909357030E
:1029E00090915603913061F41092560390915703E1
:1029F0009093BB009091BC0093FDF8CF95EC01C083
:102A000095EE9093BC0090917C039230E1F390910D
:102A10007A039F3F79F080917A03803241F0809170
:102A20007A03803331F084E005C081E003C082E0A6
:102A300001C083E010927E031092A00310927D03E8
:102A4000089590917C039111FCCF613208F060E20F
:102A500091E090937C0340937B032FEF20937A03C4
:102A600010927903260F2093780390935703909147
:102A70005703880F892B8093570380915603813029
:102A800061F410925603809157038093BB008091AC
:102A9000BC0083FDF8CF85EC01C085EE8093BC00BF
:102AA00080917C038130E1F380917903861710F4E3
:102AB00060917903A8E5B3E026E333E0F9018E2FB6
:102AC000821B861718F48D918193F9CF10923503EC
:102AD00060933403862F0895AF92BF92CF92DF9216
:102AE000EF92FF920F931F93CF93DF938AEA809325
:102AF000E00485E58093540585E790E09093E20437
:102B00008093E10410921D0584E18093E304109208
:102B1000E50481E08093E40428EB3BE03093E90492
:102B20002093E80424EC39E03093E7042093E60492
:102B30009AE09093EA048093EB048093EC048093F2
:102B4000ED0488E78093EE0480E092E09093F00437
:102B50008093EF0480E890E09093F2048093F10476
:102B600022E330E03093F4042093F3042CE330E0CC
:102B70003093F6042093F5049093F8048093F704BF
:102B8000A8E3B5E0EEE1F5E086E0C82E97E0D92EA7
:102B900088EE93E024E630E04AEFE42EF12C00EBDF
:102BA00014E060E177E252E0B52EC4E6AC2E44E1D9
:102BB00050E0CC92ED012197D8821182108293834C
:102BC00082839583848337832683F186E086938787
:102BD00082873587248717870687718B608B2797B5
:102BE00018822196B882219618822196A882219671
:102BF0001882508F478B5B967B96C5E0E435FC07C7
:102C0000C1F680E090E0FC01E750FB4F108211829A
:102C10001282039684329105B1F78FEF8093F90405
:102C20001092FA041092FB048093FC049FE79093A7
:102C3000FD041092FE048093FF048093000510921F
:102C400001059093020580930305109204051092EC
:102C500005058093060510920705109208058093DC
:102C6000090590930A0510920B0580930C0580933B
:102C70000D0510920E0590930F058093100510928C
:102C8000110510921205809313059093140510926C
:102C900015058093160580931705109218058093EB
:102CA000190580931A0510921B0590931C05DF915E
:102CB000CF911F910F91FF90EF90DF90CF90BF9039
:102CC000AF9008958F929F92AF92BF92EF92FF9232
:102CD0000F931F93CF93DF937B018C01C0E0D0E073
:102CE000CE15DF05C9F10E94AF116093A90370935F
:102CF000AA038093AB039093AC03E091A103F091FE
:102D0000A2030284F385E02D81EA93E0099597FF01
:102D10001EC00E94AF118090A9039090AA03A090BA
:102D2000AB03B090AC03DC01CB0188199909AA0967
:102D3000BB098090A5039090A603A090A703B09034
:102D4000A80388159905AA05BB05B8F205C0F801C6
:102D500081938F012196C4CFCE01DF91CF911F9136
:102D60000F91FF90EF90BF90AF909F908F9008953C
:102D7000AB01BC0181EA93E00C946910FC018EE781
:102D800082838FEF838386E084836583808D86834F
:102D90004F3F510509F010F4178201C05783408757
:102DA000118612868FEE8387DF0113969F01275FBE
:102DB0003F4F80E090E04D91840F911DA217B30723
:102DC000D1F79195819591099187828708952F92E6
:102DD0003F924F925F926F927F928F929F92AF92AB
:102DE000BF92CF92DF92EF92FF920F931F93CF93F8
:102DF000DF9300D000D0CDB7DEB71C018B01653664
:102E0000710514F004E610E029833A834B835C8358
:102E10000E94AF11F101C088D188E288F388DC01FB
:102E2000CB018C199D09AE09BF0929813A814B81DB
:102E30005C81281739074A075B07D8F1828D811119
:102E400038C0E12CF12CF101868197818E159F0508
:102E50005CF0F101258544856385C1010E949113D1
:102E6000FFEFEF1AFF0AEFCF048115810E191F093A
:102E70000F5F1F4F20E040E060E0C1010E94B413EB
:102E8000C1010F900F900F900F90DF91CF911F9184
:102E90000F91FF90EF90DF90CF90BF90AF909F90F9
:102EA0008F907F906F905F904F903F902F900C94F9
:102EB0008C130E94AF11F101608B718B828B938B0D
:102EC000B801110F880B990B24E630E040E050E088
:102ED0000E948512072E000C880B990B0E94BF2FB1
:102EE00020E030E048EC52E40E94C2316B017C01EA
:102EF000F101618570E080E090E00E94BD2FA701A4
:102F000096010E941E302B013C01F101628570E0A8
:102F100080E090E00E94BD2FA70196010E941E3024
:102F20004B015C01F101608570E080E090E00E945F
:102F3000BD2FA70196010E941E300E943B32F10175
:102F40006387C301B2010E943B32F1016487C5016E
:102F5000B4010E943B32F101658773CF8F929F923B
:102F6000AF92BF92CF92DF92EF92FF920F931F9397
:102F7000CF93DF93EC016A017B010E94AF110889B6
:102F800019892A893B89DC01CB01801B910BA20B9B
:102F9000B30BC816D906EA06FB0680F40E94AF11EF
:102FA000688B798B8A8B9B8B8B8D9C8D01971816E8
:102FB000190614F08AE090E09C8F8B8FEB8CFC8CD0
:102FC0008AE090E04C018E189F0881E0E81AF10831
:102FD000C12CD12C8E819F818C159D05BCF0A12C1C
:102FE000B12C85010C0D1D1DA814B90454F58E815A
:102FF0009F81801791072CF12A8549856885CE012C
:103000000E9491138FEFA81AB80AEBCF0C811D8193
:103010000C191D090F5F1F4F20E040E060E0CE015A
:103020000E94B413CE01DF91CF911F910F91FF90B9
:10303000EF90DF90CF90BF90AF909F908F900C94C7
:103040008C1358018E819F818017910754F02D8534
:103050004C856B85CE010E94911358018FEFA81A01
:10306000B80A00E010E0C8018A0D9B1D6C010E1526
:103070001F050CF0AFCF2E813F81281739070CF4C4
:10308000A9CF2A8549856885CE010E9491130F5FDB
:103090001F4FE9CFCF93DF93282F30E0F901E45899
:1030A000FE4F8491F901E859FE4FD491F901EC5A91
:1030B000FE4FC491CC2391F081110E94D813EC2FC4
:1030C000F0E0EE0FFF1FE65BFE4FA591B491EC918F
:1030D000ED2381E090E021F480E002C080E090E008
:1030E000DF91CF9108951F93CF93DF93282F30E086
:1030F000F901E458FE4F8491F901E859FE4FD4914B
:10310000F901EC5AFE4FC491CC23C9F0162F81115E
:103110000E94D813EC2FF0E0EE0FFF1FE05CFE4F93
:10312000A591B4918FB7F894111105C09C91ED2F22
:10313000E095E92302C0EC91ED2BEC938FBFDF917A
:10314000CF911F910895CF93DF9390E0FC01E85950
:10315000FE4F2491FC01EC5AFE4F8491882361F1CB
:1031600090E0880F991FFC01EA5CFE4FC591D49155
:10317000FC01E05CFE4FA591B491611109C09FB7BD
:10318000F8948881209582238883EC912E230BC0AC
:10319000623061F49FB7F8943881822F8095832341
:1031A0008883EC912E2B2C939FBF06C08FB7F89489
:1031B000E8812E2B28838FBFDF91CF9108958F92C6
:1031C0009F92AF92BF92CF92DF92EF92FF926B01EC
:1031D0007C010E948A114B015C01C114D104E104FD
:1031E000F104F1F00E948A11DC01CB0188199909E0
:1031F000AA09BB09883E9340A105B10570F321E0FF
:10320000C21AD108E108F10888EE880E83E0981E02
:10321000A11CB11CC114D104E104F10419F7DDCFE4
:10322000FF90EF90DF90CF90BF90AF909F908F90E6
:10323000089506960895FC0187AD90E008950296E2
:103240000895FC0127ADFBE12F9F800D911D1124F6
:103250008E5A9F4F0895FC0127ADFBE12F9F800DF3
:10326000911D1124805C9F4F089541960895FC01A3
:1032700027ADFBE12F9F800D911D1124805C9F4F96
:10328000089521E0FC01228313820895DC01ED9171
:10329000FC910284F385E02D67E00994CF93DF93DE
:1032A000EC018985882369F080910C0390910D03CE
:1032B000DC01ED91FC916F8178850084F185E02D32
:1032C0000995E881F9810084F185E02DCE01DF9137
:1032D000CF910994FC0187AD811103C081E087AFD4
:1032E000089517AE0895FC0167AF08958F929F92DD
:1032F000AF92BF92CF92DF92EF92FF920F931F9304
:10330000CF93DF93CDB7DEB766970FB6F894DEBFE5
:103310000FBECDBF6BE070E0CE0102960E94621638
:103320008F819885A985888B998BAA8B8A859B85A7
:10333000AC858D879E87AF870E94AF114B015C01E2
:103340000E94AF116B017C01C818D908EA08FB087C
:103350002A8130E0A8EEB3E00E944631C616D706B7
:10336000E806F906F0F48C8190E09E8B8D8B8B81C2
:1033700090E09C8B8B8BCE0105967C018E010B5EC1
:103380001F4F9E012D5E3F4FAE01435F5F4FBE0159
:10339000605F7F4F80910C0390910D030E94DA0AC9
:1033A000CFCF66960FB6F894DEBF0FBECDBFDF91CC
:1033B000CF911F910F91FF90EF90DF90CF90BF9032
:1033C000AF909F908F9008956BE070E084EE94E052
:1033D0000C946216CF93DF9300D0CDB7DEB762E0D6
:1033E00070E0CE0101960E94621680911D052BE1CE
:1033F000829FC001112467E070E0805D9A4F0E94B7
:1034000062160F900F90DF91CF910895CF93DF93C5
:1034100000D0CDB7DEB762E070E0CE0101960E9429
:10342000621680911D052BE1829FC001112462E18B
:1034300070E0825E9A4F0E9462160F900F90DF91AB
:10344000CF910895CF93DF93CDB7DEB72D970FB609
:10345000F894DEBF0FBECDBF6CE070E0CE010296E7
:103460000E9462168AE0FE013496AFEEB4E001904D
:103470000D928A95E1F72D960FB6F894DEBF0FBE38
:10348000CDBFDF91CF9108950F931F93CF93DF931B
:1034900000D01F92CDB7DEB78C0162E070E0CE01A4
:1034A00002960E9462162A8130E0F8013087278355
:1034B00081E09B81911101C080E0F80181870F902C
:1034C0000F900F90DF91CF911F910F910895CF939F
:1034D000DF9300D0CDB7DEB761E070E0CE01029699
:1034E0000E9462162A8180910C0390910D03DC01E9
:1034F000ED91FC91222321F00684F785E02D03C095
:103500000484F585E02D09950F900F90DF91CF9100
:103510000895CF93DF9300D01F92CDB7DEB763E05D
:1035200070E0CE0101960E94621680910C0390918A
:103530000D03DC01ED91FC9149815A810680F781F0
:10354000E02D6B8109950F900F900F90DF91CF9137
:1035500008950F931F93CF93DF9300D0CDB7DEB7BD
:103560008C0161E070E0CE0102960E946216E98152
:10357000FA818181882321F081E0F801848302C0EF
:10358000F80114820F900F90DF91CF911F910F914E
:103590000895CF93DF93CDB7DEB72C970FB6F8948D
:1035A000DEBF0FBECDBF89E089838BE0E4EEF4E09F
:1035B000DE01129601900D928A95E1F76CE070E0C1
:1035C000CE0101960E94B8162C960FB6F894DEBF75
:1035D0000FBECDBFDF91CF910895CF93DF93CDB7CD
:1035E000DEB727970FB6F894DEBF0FBECDBF88E0D9
:1035F000898382E08A838CE08B8380910C03909195
:103600000D03DC01ED91FC910088F189E02D099515
:103610006D8380910C0390910D03DC01ED91FC9181
:103620000088F189E02D09958C83809108039091A1
:103630000903DC01ED91FC910684F785E02D0995E5
:10364000FC0183858E8380911D058F8367E070E088
:10365000CE0101960E94B81627960FB6F894DEBFE9
:103660000FBECDBFDF91CF910895CF93DF93CDB73C
:10367000DEB7A8970FB6F894DEBF0FBECDBF87E0C8
:10368000898388E290E09B838A838CE08C83FE01AF
:10369000379680E090E0BC0162527B4F9F01225040
:1036A0003109DB015B964C91D9014C932F5F3F4F61
:1036B000DB015C964C91D9014C93DB015D962C911A
:1036C0002083039633968432910529F768E270E0EF
:1036D000CE0101960E94B816A8960FB6F894DEBFE8
:1036E0000FBECDBFDF91CF910895CF93DF93CDB7BC
:1036F000DEB72A970FB6F894DEBF0FBECDBFE091BC
:103700001D0583E0898387E090E09B838A838BE1BA
:10371000E89FF0011124E05DFA4F87E0DE01149686
:1037200001900D928A95E1F76AE070E0CE01019672
:103730000E94B8162A960FB6F894DEBF0FBECDBF12
:10374000DF91CF910895CF93DF93CDB7DEB7659723
:103750000FB6F894DEBF0FBECDBFE0911D0582E02D
:10376000898382E190E09B838A838BE1E89FF0016B
:103770001124E25EFA4F82E1DE01149601900D926F
:103780008A95E1F765E170E0CE0101960E94B816D6
:1037900065960FB6F894DEBF0FBECDBFDF91CF9117
:1037A0000895CF93DF93CDB7DEB72D970FB6F8947A
:1037B000DEBF0FBECDBF81E089838AE090E09B83AE
:1037C0008A83EFEEF4E0DE01149601900D928A9563
:1037D000E1F76DE070E0CE0101960E94B8162D96DB
:1037E0000FB6F894DEBF0FBECDBFDF91CF91089525
:1037F000CF93DF9300D0CDB7DEB719826A8362E042
:1038000070E0CE0101960E94B8160F900F90DF91E4
:10381000CF910895CF93DF9300D0CDB7DEB761E0AD
:1038200070E0CE0102960E946216609108037091CA
:1038300009038A8190E00E949E140F900F90DF91FF
:10384000CF910895CF93DF9300D01F92CDB7DEB70D
:1038500062E070E0CE0102960E9462168091080339
:1038600090910903DC01ED91FC910280F381E02D40
:1038700040E050E062E070E009956A817B8180E081
:1038800090E00E94DF188091080390910903DC0109
:10389000ED91FC910280F381E02D40E050E069E081
:1038A00070E009956A817B817695679580E090E06C
:1038B0000E94DF188091080390910903DC01ED91CB
:1038C000FC910480F581E02D64E070E009956A8147
:1038D0007B8180E090E00E94DF1880910803909146
:1038E0000903DC01ED91FC910280F381E02D40E0C1
:1038F00050E069E070E009956A817B817695679573
:1039000080E090E00E94DF18809108039091090305
:10391000DC01ED91FC910480F581E02D63E070E025
:1039200009956A817B8180E090E00E94DF18809198
:10393000080390910903DC01ED91FC910280F38171
:10394000E02D40E050E069E070E009956A817B81FC
:103950007695679580E090E00E94DF1880910803DB
:1039600090910903DC01ED91FC910280F381E02D3F
:1039700040E050E068E070E0099564E670E080E0C7
:1039800090E00E94DF180F900F900F90DF91CF9181
:1039900008956F927F928F92CF92DF92EF92FF9273
:1039A0000F931F93CF93DF93CDB7DEB7A6970FB6D4
:1039B000F894DEBF0FBECDBF68EE73E080E090E00C
:1039C0000E94DF1861E070E0CE0102960E9462164C
:1039D0007E0183E0E80EF11C670100E010E02A811F
:1039E00030E0021713072CF0E9EFF4E080E090E0FC
:1039F0001AC00C301105C1F363E070E0C6010E94EB
:103A000062160F5F1F4FA3E0CA0ED11CE8CF8C30A7
:103A1000910561F0D7016D907D908D907D0161924F
:103A20007192819201968217930789F7A6960FB635
:103A3000F894DEBF0FBECDBFDF91CF911F910F91E4
:103A4000FF90EF90DF90CF908F907F906F900895D0
:103A50008EED94E00E94432880910A0390910B031D
:103A6000DC01ED91FC916091EE0470E00284F3853D
:103A7000E02D09956EED74E080910C0390910D039B
:103A80000E94DA0B68EC70E080E090E00E94DF18A2
:103A900080910C0390910D03DC01ED91FC91048465
:103AA000F585E02D09948F929F92AF92BF92CF92AD
:103AB000DF92EF92FF920F931F93CF93DF93CDB7D7
:103AC000DEB72C970FB6F894DEBF0FBECDBF6BE00C
:103AD00070E0CE0102960E94621660910C03709114
:103AE0000D038E010C5F1F4F9E012E5F3F4FAE01F5
:103AF000465F5F4F80910803909109030E94F80B85
:103B00000E94AF114B015C01298530E0A8EEB3E0C3
:103B10000E9446316B017C010E94AF11AB01BC01D8
:103B2000481959096A097B0980910C0390910D038A
:103B30004C155D056E057F0550F4DC01ED91FC919F
:103B4000688570E00084F185E02D0995E5CFAE0130
:103B50004A5F5F4FBC0180910803909109030E9466
:103B60009A0B80910C0390910D03DC01ED91FC9177
:103B70000484F585E02D09952C960FB6F894DEBFE8
:103B80000FBECDBFDF91CF911F910F91FF90EF90AE
:103B9000DF90CF90BF90AF909F908F90089585EE6B
:103BA00092E00C9401140F931F93CF93DF9300D0F6
:103BB0001F92CDB7DEB78C0181EA93E00E94C51059
:103BC000181619060CF0C4C081EA93E00E94A310F5
:103BD000082E000C990BAA0BBB0B8E31910508F037
:103BE000B7C0FC01E45BFF4F0C941333D801ED9197
:103BF000FC910684F785E02DA9C0D801ED91FC91D8
:103C0000048CF58DE02DA2C0D801ED91FC91068CBD
:103C1000F78DE02D9BC0D801ED91FC9100A0F1A1A2
:103C2000E02D94C0D801ED91FC9102A0F3A1E02D0C
:103C30008DC0D801ED91FC9104A0F5A1E02D86C0C6
:103C4000D801ED91FC9106A0F7A1E02D7FC0D8012D
:103C5000ED91FC910484F585E02D78C084E08983A2
:103C600081E08A8385E006C085E08983F80185814B
:103C70008A8386818B8363E070E0CE0101960E9487
:103C8000B81666C0D801ED91FC910288F389E02D49
:103C90005DC0D801ED91FC91008CF18DE02D56C0F6
:103CA000D801ED91FC910488F589E02D4FC0D80131
:103CB000ED91FC910688F789E02D48C00E946C15B3
:103CC00047C0D801ED91FC9100A4F1A5E02D3EC0C4
:103CD000D801ED91FC91028CF38DE02D37C0D80115
:103CE000ED91FC9102A4F3A5E02D30C0D801ED9137
:103CF000FC9104A4F5A5E02D29C0D801ED91FC911B
:103D000006A4F7A5E02D22C0D801ED91FC9100A8F2
:103D1000F1A9E02D1BC0D801ED91FC9102A8F3A9F7
:103D2000E02D14C0D801ED91FC9104A8F5A9E02D77
:103D30000DC0D801ED91FC9106A8F7A9E02D06C0B1
:103D4000D801ED91FC9100ACF1ADE02DC8010995D1
:103D50000F900F900F90DF91CF911F910F910895C9
:103D6000FC01128221E0238381EA93E00C94431149
:103D70000C94C92E4091C005262F30E0240F311D30
:103D800021323105DCF420917C032430C9F4FC019C
:103D900080E090E0861758F43091C0052191DC0155
:103DA000A056BA4FA30FB11D2C930196F3CF80916B
:103DB000C005680F6093C00580E0089581E0089514
:103DC00082E008950895CF93DF93EC01E881F981B3
:103DD0000488F589E02D0995FC019389292F30E0AD
:103DE000F901EE0FFF1F2E0F3F1FFE01E20FF31F21
:103DF000638D748D858DDF91CF910895CF93DF937F
:103E0000EC01E881F9810488F589E02D0995FC0130
:103E10009289292F30E0F901EE0FFF1F2E0F3F1F6F
:103E2000FE01E20FF31F638D748D858DDF91CF91BD
:103E30000895FC0145A356A367A370A70895FC014C
:103E40006387448725870895FC0174A363A30895BD
:103E5000FC0172A361A30895FC01228D338D37FF0D
:103E600003C0319521953109868D978D97FF03C049
:103E7000919581959109281739070CF49C01848D3F
:103E8000958D97FF03C0919581959109A481B58186
:103E900014964D915C91159724173507D0F0821731
:103EA0009307B8F41382128212968D919C91139706
:103EB0002817390720F081E090E0938382838D9169
:103EC0009C912817390778F082E090E093838283F1
:103ED0000AC018962D913C9119972817390728F494
:103EE00081E082A702C081E0089580E00895FC018E
:103EF00082A50895FC0181A50895FC0180A508957F
:103F0000FC0182819381089520910603309107037B
:103F10002817390781F490910403809105039817BD
:103F200051F0E0910403F0E0E05AFA4F8081082E4E
:103F3000000C990B08958FEF9FEF089520910603D1
:103F4000309107032817390739F48FB7F894109286
:103F50000503109204038FBF0895FC01848D958D95
:103F6000009729F421E030E0338322830895A1896A
:103F7000B2892089522F50957FB7F8943C91352310
:103F80003C93FC013197F1F738E04C9160FF02C09F
:103F9000422B01C045234C93FC013197F1F7669504
:103FA000315099F73C91232B2C937FBF0197F1F768
:103FB00081E090E0089520910603309107032817CF
:103FC000390771F4809105032091040390E0805C2F
:103FD0009F4F821B910960E470E00E94FF320895B8
:103FE00080E090E0089520910603309107032817A0
:103FF0003907B9F49091040380910503981789F06B
:10400000E0910403F0E0E05AFA4F8081209104032C
:1040100030E02F5F3F4F2F7333272093040390E04E
:1040200008958FEF9FEF08958F929F92AF92BF9266
:10403000CF92DF92EF92FF920F931F93CF93DF9374
:10404000EC016A012E813F8123503109032E000CBF
:10405000440B550B63E070E080E090E00E94851215
:104060005B010E94AF2F23E030E040E050E00E946F
:10407000F230DC01CB010296A11DB11D4C01E12CF7
:10408000F12C8E819F81E816F906BCF4EA14FB043A
:1040900051F484012D854C856B85CE010E94B413AB
:1040A000E80CF91CEECF2A8549856885CE010E946F
:1040B00091138FEFE81AF80AE4CFCE010E948C1317
:1040C000B60180E090E0DF91CF911F910F91FF90BA
:1040D000EF90DF90CF90BF90AF909F908F900C9417
:1040E000DF182F923F924F925F926F927F928F9242
:1040F0009F92AF92BF92CF92DF92EF92FF920F9377
:104100001F93CF93DF93CDB7DEB728970FB6F89400
:10411000DEBF0FBECDBF98878F836A017B01480148
:10412000590120E030E048EC52E4C701B6010E949A
:104130006A32181634F4C12CD12C38ECE32E32E458
:10414000F32E0E94AF11EF81F88500891189228931
:104150003389DC01CB01801B910BA20BB30B8816BA
:104160009906AA06BB0690F50E94AF11EF81F8856B
:10417000608B718B828B938B2DEC3CEC4CE45DE37C
:1041800064897589868997890E9456312B013C0183
:10419000EF81F885648B758B868B978B858C968CDD
:1041A000A78CB0A0A5019401C501B4010E945631AD
:1041B0009B01AC01C301B2010E946A32181634F4AB
:1041C000EF81F885848A958AA68AB78AEF81F88577
:1041D00064897589868997890E946F324B015C01D9
:1041E000A701960160E070E080E89FE30E945531EE
:1041F0009B01AC01C501B4010E941E302B013C01A2
:10420000EF81F885608570E080E090E00E94BD2F2E
:104210006B017C019B01AC01C301B2010E941E3005
:104220009B01AC01C701B6010E9456316B017C01B4
:10423000EF81F885618570E080E090E00E94BD2FFD
:104240004B015C019B01AC01C301B2010E941E3015
:104250009B01AC01C501B4010E9456314B015C01C8
:10426000EF81F885628570E080E090E00E94BD2FCC
:1042700069837A838B839C839B01AC01C301B20168
:104280000E941E309B01AC0169817A818B819C81E7
:104290000E9456312B013C0120E030E04FE753E40F
:1042A000C701B6010E946A32181634F4C12CD12C11
:1042B0002FE7E22E23E4F22E20E030E04FE753E434
:1042C000C501B4010E946A32181634F4812C912C75
:1042D0009FE7A92E93E4B92E20E030E04FE753E4A6
:1042E000C301B2010E946A32181634F4412C512CD9
:1042F0008FE7682E83E4782E212C312CEF81F8850E
:104300008681978182159305D4F0C301B2010E9482
:104310003B32262FC501B4012E830E943B32462F2B
:10432000C701B6014D830E943B322E814D818F81A2
:1043300098850E949113FFEF2F1A3F0ADFCF048167
:1043400015810219130920E040E060E0CF010E94CE
:10435000B4138F81988528960FB6F894DEBF0FBEF0
:10436000CDBFDF91CF911F910F91FF90EF90DF9024
:10437000CF90BF90AF909F908F907F906F905F9005
:104380004F903F902F900C948C130C94C92E0C944A
:10439000C92ECF93DF931F92CDB7DEB7FC0183A563
:1043A00091E090937D0380939F0310927E0310927F
:1043B000A0038EE394E049830E943E264981642F46
:1043C0008EE394E00E943E2681E00F90DF91CF9132
:1043D0000C94C41440E26BE60C94C921CF92DF9296
:1043E000EF92FF920F931F93CF93DF93EC010E9404
:1043F000AF116B017C018E899F89A88DB98DA701B2
:104400009601281B390B4A0B5B0B25303105410502
:10441000510508F402C18BA511E010937D03809330
:104420009F0310927E031092A0036BE38EE394E04F
:104430000E943E2680E00E94C41441E06EE08BA5FD
:104440000E9421158AE0FE017096DE011696019009
:104450000D928A95E1F78EE394E00E94E724082FFD
:104460008EE394E00E94E72420E030E0302F822B9E
:10447000932B998B888B8EE394E00E94E724082F7E
:104480008EE394E00E94E72420E030E0302F822B7E
:10449000932B9B8B8A8B8EE394E00E94E724082F5A
:1044A0008EE394E00E94E72420E030E0302F822B5E
:1044B000932B9D8B8C8B8EE394E00E94E7248EE3FC
:1044C00094E00E94E7248EE394E00E94E724082F02
:1044D0008EE394E00E94E72420E030E0302F822B2E
:1044E000932B9B8F8A8F8EE394E00E94E724082F02
:1044F0008EE394E00E94E72420E030E0302F822B0E
:10450000932B9D8F8C8F8EE394E00E94E724082FDD
:104510008EE394E00E94E7242889398946E03595A6
:1045200027954A95E1F7398B288B2A893B8956E0F4
:10453000359527955A95E1F73B8B2A8B2C893D8938
:1045400066E0359527956A95E1F73D8B2C8B2A8D92
:104550003B8D76E0359527957A95E1F73B8F2A8F4D
:104560002C8D3D8DE6E035952795EA95E1F73D8F59
:104570002C8F20E030E0302F822B932BF6E09595A6
:104580008795FA95E1F79F8F8E8FCE8ADF8AE88E26
:10459000F98EC8A2D9A2EAA2FBA28BA510937D0333
:1045A00080939F0310927E031092A0036AE38EE330
:1045B00094E00E943E2680E00E94C41441E061E045
:1045C0008BA50E9421158EE394E00E94E724969526
:1045D0008795880F91E0803409F090E099A79111B8
:1045E0001CC08CA19DA1AEA1BFA1A7019601281B53
:1045F000390B4A0B5B0B253031054105510568F03D
:10460000CCA2DDA2EEA2FFA21AA6E881F98104885D
:10461000F589E02DCE01099588A7DF91CF911F91F3
:104620000F91FF90EF90DF90CF900895CF93DF939D
:10463000EC018DA5811127C010923503109234032F
:1046400010927E031092A00310927C0381E080936D
:104650007B031092560361E082E10E94731861E0CF
:1046600083E10E9473188091B9008E7F8093B90016
:104670008091B9008D7F8093B90088E48093B80061
:1046800085E48093BC0040E06BE6CE010E94C92126
:1046900040E16BE1CE010E94C92140E06CE1CE0116
:1046A0000E94C92140E268E3CE010E94C921EC8149
:1046B000FD8146816FE1CE010E94C92142E060E2A6
:1046C000CE010E94C92181E08DA7DF91CF9108958D
:1046D000CF93DF93EC010E94A323CE01DF91CF9112
:1046E0000C94C92E089588E067FF16C02D9A00002B
:1046F00000000000000000000000000000000000BA
:104700000000000000002D980000000000000000E4
:1047100000000000000012C02D9A00000000000000
:1047200000002D98000000000000000000000000C4
:10473000000000000000000000000000660F815033
:1047400099F60895089526E231E0FC013183208333
:10475000E0910603F0910703E817F90759F4A389DC
:10476000B4899C918589809589238C931092070345
:10477000109206030895FC0165A30895FC0183A12E
:1047800094A10D960895EF92FF920F931F93CF93EC
:104790008B01FC01A3A1B4A1EC91EE2EF12C6C30A5
:1047A000710508F075C09B012C583F4FF9010C941E
:1047B000133311962C914FC01C962C91B701620FA8
:1047C000711D9B0163C012962C911297F701E20FA5
:1047D000F11D9F011F966C914CC016962C91169757
:1047E000B701620F711D9B0152966C9142C01596E4
:1047F0002C911597F701E20FF11D9F0151966C91D5
:1048000038C018962C911897B701620F711D9B0143
:1048100054966C912EC017962C911797F701E20FC2
:10482000F11D9F0153966C9124C019962C911997F4
:10483000B701620F711D9B0155966C911AC01396BA
:104840002C911397F701E20FF11D9F0150966C9187
:1048500010C014962C91A701420F511D9A0116C049
:104860001A962C911A97B701620F711D9B015696EB
:104870006C9170E06417750768F006C01B962C9168
:10488000D701A20FB11D9D01240F351FC1E003C048
:104890009701FCCFC0E0B9016E0D7F1D01301105FD
:1048A000C9F00B301105B1F0FC0136A125A1329FF2
:1048B000600D711D1124CC23B1F00930110519F0E0
:1048C0000630110549F4DC01ED91FC910688F78969
:1048D000E02D08C0CC2339F0DC01ED91FC91048877
:1048E000F589E02D09958C2FCF911F910F91FF90A5
:1048F000EF900895DC018D919D91BD01DC01ED915A
:10490000FC910280F381E02D4AE050E00994EF929F
:10491000FF920F931F93CF93DF93EC018B017C01E8
:1049200082E0E80EF11CAB01552766E0C7010E944A
:10493000BE16C7010E947A240FA3DF91CF911F9169
:104940000F91FF90EF900895FC018EE782838FEF27
:10495000838386E0848386E18583808D86831782C6
:104960001086118612868FEE8387DF0113969F01D2
:10497000275F3F4F80E090E04D91840F911DA2177B
:10498000B307D1F791958195910991878287CF01DE
:104990000C947A2402960C94A42480E0089582E07A
:1049A00090E0089582E090E0089580E008950895F1
:1049B000E091350380913403E81730F4F0E0EA5CCD
:1049C000FC4F808190E008958FEF9FEF08959091C4
:1049D000350380913403981750F4E92FF0E0EA5C36
:1049E000FC4F208130E09F5F9093350302C02FEF92
:1049F0003FEFC90108958091340390E02091350381
:104A0000821B91090895089580E090E0089585ED56
:104A10008093BC008091BC0084FDFCCF10927C038D
:104A20000895CF93DF93FC0120A131A11216130644
:104A30004CF4C2A1D0E0822F0E944A1821E0C8178E
:104A4000D90709F020E0822FDF91CF9108950F93CD
:104A50001F93CF93DF93EC018B016C307105E0F570
:104A6000FB01E058FF4F0C941333EBA1FCA125850B
:104A700030E040E050E02AC0EBA1FCA122891FC039
:104A8000EBA1FCA121891BC0EBA1FCA1248917C0CB
:104A9000EBA1FCA1238913C0EBA1FCA125890FC0C8
:104AA000EBA1FCA120890BC0EBA1FCA1268507C0CE
:104AB000EBA1FCA1268903C0EBA1FCA1278930E072
:104AC00021503109032E000C440B550B60E070E0BF
:104AD000CB010E94851201C060E0E881F981462F78
:104AE00050E00280F381E02DB801CE01DF91CF913B
:104AF0001F910F910994CF92DF92EF92FF920F9343
:104B00001F93CF93DF93EC018B010E94AF11C8A4D8
:104B1000D9A4EAA4FBA4DC01CB018C199D09AE0940
:104B2000BF0984369105A105B10538F461E070E054
:104B300080E090E00E94DF18E8CF0E94AF1168A7E4
:104B400079A78AA79BA77E0182E0E80EF11CA80145
:104B500068E0C7010E94BE16C7010E947A240E9425
:104B6000AF1168A779A78AA79BA7DF91CF911F9163
:104B70000F91FF90EF90DF90CF900895CF92DF924A
:104B8000EF92FF920F931F93CF93DF93EC018B0172
:104B90000E94AF11C8A4D9A4EAA4FBA4DC01CB01F4
:104BA0008C199D09AE09BF0984369105A105B1058F
:104BB00038F461E070E080E090E00E94DF18E8CF18
:104BC0000E94AF1168A779A78AA79BA72296A80180
:104BD00063E0CE010E94BE16CE01DF91CF911F91FE
:104BE0000F91FF90EF90DF90CF900C947A24CF93A9
:104BF000DF93EC0188A199A11816190664F460E00E
:104C00000E94A3188AA1811106C061E088A1DF91EA
:104C1000CF910C947318DF91CF910895CF92DF92CA
:104C2000EF92FF920F931F93CF93DF937C01262F78
:104C3000972F8A0180917D03882391F0C62FD72F6B
:104C40006E01C40ED51ECC15DD0571F06991D7013A
:104C5000ED91FC910190F081E02DC7010995F3CF12
:104C6000642F822F0E94BA1EC801DF91CF911F913D
:104C70000F91FF90EF90DF90CF900895CF93DF9347
:104C80001F92CDB7DEB7698320917D032223D1F037
:104C90002091A003203240F021E030E0FC0133837A
:104CA000228380E090E015C080917E03E82FF0E041
:104CB000E158FC4F998190838F5F80937E038093AE
:104CC000A00305C061E0CE0101960E94BA1E81E0FA
:104CD00090E00F90DF91CF9108951F920F920FB641
:104CE0000F9211242F933F934F935F936F937F9372
:104CF0008F939F93AF93BF93CF93DF93EF93FF93E4
:104D0000E0910603F0910703309709F452C0968DA5
:104D1000A685B785858591FF04C09C91892329F4D8
:104D200048C09C91892309F044C0A389B4899C910F
:104D30008589809589238C93868997890197F1F7D6
:104D4000608D718DC685D785558598E080E0DB0143
:104D50001197F1F7282F30E035952795822F48815C
:104D6000452309F08068915091F7282F868D81FDA9
:104D700020958091050390E001968F7399273091DB
:104D80000403381749F0A0910503B0E0A05ABA4FC8
:104D90002C938093050303C0868D8160868F828D5E
:104DA000938D0197F1F7A389B4899C918589892B0B
:104DB0008C93FF91EF91DF91CF91BF91AF919F9134
:104DC0008F917F916F915F914F913F912F910F90B4
:104DD0000FBE0F901F901895CF93DF93EC01FC014D
:104DE0008CE391E081939193CF010E94A4248A8166
:104DF0009B81009749F0DC01ED91FC910088F189DD
:104E0000E02DDF91CF910994DF91CF910895CF9359
:104E1000DF93EC010E94EC26CE01DF91CF910C9440
:104E2000C92E1F920F920FB60F9211242F933F930A
:104E30004F935F936F937F938F939F93AF93BF93A2
:104E4000EF93FF938091B900887F803609F49CC06E
:104E500068F5883209F45BC090F4803109F454C0DD
:104E600038F4882309F4F6C0883009F44DC0F6C040
:104E7000883109F44CC0803209F45DC0EFC0803441
:104E800009F468C048F4803309F455C0883309F048
:104E9000E5C080937A03D8C0803509F44FC08835C7
:104EA00009F45DC0883409F0D9C0D6C0883909F446
:104EB000C7C0A8F4883709F467C038F4883609F405
:104EC00063C0803709F460C0C9C0883809F4B8C02D
:104ED000803909F45FC0803809F0C0C05BC0803BF6
:104EE00009F486C038F4803A09F466C0883A09F4B7
:104EF0007FC0B4C0803C09F4A7C0883C09F4A4C0BA
:104F0000883B09F48AC0AAC08091570310C09091D1
:104F1000790380917803981770F5E091790381E027
:104F20008E0F80937903F0E0E85AFC4F80818093E4
:104F3000BB0085EC86C080937A038EC0E091790334
:104F400081E08E0F809379038091BB00F0E0E85AF6
:104F5000FC4F808390917903809178036EC0E0913B
:104F6000790381E08E0F809379038091BB00F0E09C
:104F7000E85AFC4F808380917B0381116DC081E0F2
:104F80008093560384EA61C083E080937C0310928F
:104F9000E605CFCF8091E605803208F051C0E09160
:104FA000E60581E08E0F8093E6058091BB00F0E07E
:104FB000EA53FA4F8083BDCF85EC8093BC001092FA
:104FC0007C038091E605803230F4E091E605F0E064
:104FD000EA53FA4F10826091E60570E0E091C40553
:104FE000F091C50586EC95E009951092E60536C06E
:104FF00084E080937C031092C3051092C005E09179
:10500000C105F091C20509958091C005811105C0C7
:1050100081E08093C0051092A005E091C30581E076
:105020008E0F8093C305F0E0E056FA4F80818093A5
:10503000BB009091C3058091C005981708F479CF03
:1050400085E88093BC000AC085EC8093BC00109278
:105050007C0304C010927A030E940725FF91EF9110
:10506000BF91AF919F918F917F916F915F914F9180
:105070003F912F910F900FBE0F901F9018950C9499
:10508000C92E0C94C92E0F931F93CF93DF938C01DD
:105090000E5F1F4FC0E0D0E0CE010E94DC30F8016F
:1050A00061918F01861719F0CE010E94E43021969C
:1050B000C537D10589F785E790E0DF91CF911F9142
:1050C0000F91089508950895789484B5826084BD01
:1050D00084B5816084BD85B5826085BD85B58160FC
:1050E00085BD80916E00816080936E00109281007A
:1050F0008091810082608093810080918100816035
:1051000080938100809180008160809380008091F5
:10511000B10084608093B1008091B0008160809381
:10512000B00080917A00846080937A0080917A0048
:10513000826080937A0080917A00816080937A0007
:1051400080917A00806880937A001092C100A895BF
:105150000FB6F894A89580916000886180936000F4
:10516000109260000FBE64E670E080E090E00E9464
:10517000DF1888E794E090930D0380930C0386E793
:1051800094E090930B0380930A03E091B103F091B4
:10519000B20382E08083E091AD03F091AE03108210
:1051A000E091AF03F091B0038FEC80831092B903CC
:1051B000E091B503F091B60386E08083E091B303FC
:1051C000F091B403808180618083E091B303F0911A
:1051D000B403808188608083E091B303F091B403CD
:1051E000808180688083E091B303F091B403808173
:1051F0008F7D808361E080E10E94A31861E081E1FE
:105200000E94A318C0E0D0E0CE010E94DC30FE0175
:10521000E252FB4F82832196C537D105A9F721E0E1
:105220008091E1049091E2048537910509F020E036
:1052300081E09091E0049A3A09F080E0822321E035
:1052400090911D05923008F020E0822391E020919A
:10525000E404223008F090E0982381E02091540586
:10526000253509F080E0892329F08091E3048550F9
:105270008A3150F086EB92E00E9401140E946C1576
:105280008EED94E00E944328FF24F394F0921D03D6
:10529000F0921E03F0921F03F092200388E08093A7
:1052A000210380932203F092230384E0809324035C
:1052B00010922503F092260386E180932703F09253
:1052C0001B038BE080931C031092100387E18093F3
:1052D000110388E18093120389E18093160381E230
:1052E0008093150389E2809317038AE28093180361
:1052F0008EE2809314038FE28093130380E3809304
:105300001A038CE290E00E94342E8C018CE391E031
:10531000F80191838083F08E128E118E138E13828A
:10532000128287E090E0958F848F88E090E0978FDD
:10533000868FF2A28FEF9FEF91A380A315A280E149
:1053400093E094A383A38FE190E00E94342EEC01BC
:105350001B821A8288EE93E0A0E0B0E08C839D83EC
:10536000AE83BF8386E291E0998388831F8A1E8A79
:10537000198E188E1B8E1A8E1D8E1C8E6E8D6E7F52
:105380006D7F6E8F669561706F2588E00E9473183F
:1053900061E088E00E94A318E0E7F1E0E491E88B87
:1053A000ECE5F1E0E491F0E0EE0FFF1FE05CFE4F72
:1053B000859194919A8B898B60E087E00E94A31875
:1053C0008E8D81FD04C061E087E00E94731887E044
:1053D0008C87EFE6F1E0E491ED87EBE5F1E0E49115
:1053E000F0E0EE0FFF1FE65BFE4F859194919F87E3
:1053F0008E87F801D383C28381EA91E09D8F8C8FE1
:105400002DEB30E03F8B2E8B2BE931E0398F288F4D
:105410002CE231E03B8F2A8F20916800246020939A
:1054200068002DE630E03C8B2B8B20E82D8B01971C
:10543000F1F78A8D9B8D892B09F1E0910603F0919C
:105440000703EC17FD07D1F0309739F0A389B48931
:105450009C918589809589238C938E8D8E7F8E8FEC
:105460001092050310920403D0930703C093060320
:10547000EB89FC8990818D89892B808390911E0313
:1054800080911D03890F90911F03890F9091200334
:10549000890F90912103890F90912203890F909198
:1054A0002303890F90912403890F90912503890F7D
:1054B00090912603890FF80186A38EE1809328033B
:1054C00087A310A611A612A613A610930903009392
:1054D000080380E18093060181E1809305018EE05D
:1054E0008093040187E08093080188E0809307019E
:1054F0008DE08093090180916B00806180936B0047
:10550000D89A809168008160809368008AE090E07A
:105510000E94342EFC0188E591E091838083128201
:105520001482108617821186F0930F03E0930E0306
:1055300081E0858385E086830E94231480E290E0E9
:105540000E94342EFC01138212821582148216826C
:10555000178210861186128682EA91E091838083F9
:105560001486138685E595E0968785871786108AC9
:10557000118A128A138A148A158A168A178A108E3B
:10558000118E128E138E148E168E158E178EF0932A
:105590002A03E0932903CF010E94FC09E09129032B
:1055A000F0912A0380910E0390910F0394878387D3
:1055B000C1E0A0912903B0912A0312968D919C918C
:1055C000139714962D913C9115972817390721F0C0
:1055D0001696CC93169703C016961C92169715969E
:1055E0009C938E931497ED91FC9111970680F7810F
:1055F000E02DCD0109950E946511DBCFE1EAF3E0D2
:105600001382128288EE93E0A0E0B0E08483958359
:10561000A683B7832EEA31E03183208325EC30E086
:105620003587248724EC30E03787268720EC30E06C
:10563000318B208B21EC30E0338B228B22EC30E05D
:10564000358B248B26EC30E0378B268B118E128E17
:10565000138E148EEEE3F4E013821282848395831A
:10566000A683B78380EC91E091838083E5E5F5E044
:105670008EE892E0918380838EE090E09383828332
:10568000158214821682178210861186128684E78C
:1056900092E09093DF048093DE04E0EBF4E084E496
:1056A00092E09183808388E690E094A783A786EABE
:1056B00094E09583848311A610A612A61382128209
:1056C00014A215A216A217A215A6E6E7F4E088E038
:1056D00092E0918380838EE292E09383828388E7D5
:1056E00090E0958384831782168283EC95EFA8E47B
:1056F000B0E4858F968FA78FB0A325EA34E0378773
:105700002687108A118A128A138A848B958BA68B1E
:10571000B78B118E108E81E0828F12A211A214A27B
:1057200013A2148E138E89E190E0A0E0B0E085A36F
:1057300096A3A7A3B0A785E090E092A781A786E0F3
:1057400090E094A783A789E090E096A785A7E3E679
:10575000F4E080E092E0918380832CE030E03383BA
:105760002283148215821682178210861186128671
:1057700013861486158616861786108A118A128A51
:10578000E0E5F4E0918380838BE090E09383828373
:10579000148215821682178210861186128613864D
:1057A0001486158616861786108A118A128AEAE4EC
:1057B000F4E088EF91E09183808389EA9AE0958311
:1057C000848381E79AE0938382830895089563E058
:1057D00070E08AE090E0089563E070E08AE090E095
:1057E0000895DC01ED91FC91119758966D917C9193
:1057F00059970688F789E02D099402970C94F12BAC
:10580000FC0142305105A1F03CF44115510561F015
:105810004130510559F008954430510569F054F074
:105820004530510559F008956087089561870895BE
:10583000628708956387089564870895658708954A
:1058400002970C94002C4F925F926F927F928F92EE
:105850009F92AF92BF92CF92DF92EF92FF920F93FF
:105860001F93CF93DF9300D000D0CDB7DEB78C016C
:105870007B01DC0114966D917C911597072E000C2D
:10588000880B990B0E94BF2F4B015C01B701FF0CE5
:10589000880B990B0E94BF2F9B01AC01C501B4017D
:1058A0000E94C23169837A838B839C830E94AF11EB
:1058B0004B015C01F801868197810190F081E02D18
:1058C000181619060CF04BC0D80193966D917C9177
:1058D00094970688F789E02DC80109950E94AF11B9
:1058E0006B017C01F80164817581072E000C880B27
:1058F000990B0E94BF2F20E030E040E85FE30E9458
:1059000055312B013C01C701B601681979098A0993
:105910009B090E94BD2F29813A814B815C810E94A5
:105920001E309B01AC01C301B2010E94553120E041
:1059300030E040E05FE30E9456310E943432D801EB
:1059400017967C936E93169716968D919C91179748
:1059500097FFB0CF17961C921E921697ABCF048C70
:10596000F58DE02DC801099581E00F900F900F9003
:105970000F90DF91CF911F910F91FF90EF90DF90EB
:10598000CF90BF90AF909F908F907F906F905F90DF
:105990004F90089502970C94232C0F931F93CF934D
:1059A000DF93EC0161E00E946A138C819D81019775
:1059B0009F838E8300E010E08C819D81081719077A
:1059C0004CF42A8549856885CE010E9491130F5FAA
:1059D0001F4FF2CFCE01DF91CF911F910F910C9409
:1059E0008C1302970C94CD2C0F931F93CF93DF93BE
:1059F000EC011F821E820C811D8120E040E060E0EE
:105A00000E94B413CE010E948C1360E0CE01DF919E
:105A1000CF911F910F910C946A1302970C94F42C60
:105A20008F929F92AF92BF92CF92DF92EF92FF92AE
:105A3000CF93DF93EC017B0161E00E946A136C81DC
:105A40007D81072E000C880B990B0E94BF2F4B0104
:105A50005C01B701FF0C880B990B0E94BF2F9B01C3
:105A6000AC01C501B4010E94C2316B017C010E94EE
:105A7000AF114B015C012E813F818C819D8101978B
:105A80002817390754F5E881F98169A17AA10688B8
:105A9000F789E02DCE0109950E94AF1168197909A7
:105AA0008A099B090E94BD2FA70196010E941E3002
:105AB00020E030E040E05FE30E9456310E94343243
:105AC0007F836E838C819D812E813F8128173907CA
:105AD00094F201979F838E83CECF81E0DF91CF91A7
