:100000000C94C0000C947F1A0C94581A0C94AA17E4
:100010000C94AA170C94AA170C94E8000C94E8000E
:100020000C94E8000C94E8000C94E8000C94E800B0
:100030000C94E8000C94E8000C94E8000C94E800A0
:100040000C94D1190C94E8000C94CC1A0C94A61AB8
:100050000C94E8000C94E8000C94E8000C94E80080
:100060000C94B01E0C94E800270163019401CE01AA
:1000700003021302250264027E0293032D044A0444
:10008000720438058B096C054F0D7D0D170EDD0EC2
:100090005A0F9E0FE20F0B101E1755173917251711
:1000A00029172D173117351739173D1741174517E0
:1000B000141B171B1E1B281B321B3C1B461B501BF3
:1000C0005A1B641B6B1B791BE927F027F727FE27B8
:1000D00005280C2813281A28212827289B2835288A
:1000E0003C2843284A289B289B28512854285B28D1
:1000F0009B289B2862286928702877287E288528D5
:100100008C28932805A84CCDB2D44EB93836A90214
:100110000C50B9918688083CA6AAAA2ABE00000005
:10012000803F00000000240027002A00000000009B
:10013000250028002B0000000000230026002900D5
:10014000040404040404040402020202020203037D
:100150000303030301020408102040800102040885
:100160001020010204081020000000080002010015
:10017000000304070000000000000000A42BA02BD7
:1001800011241FBECFEFD8E0DEBFCDBF12E0A0E04C
:10019000B1E0E8EFF2E602C005900D92A03FB10792
:1001A000D9F725E0A0EFB2E001C01D92AA3CB2074A
:1001B000E1F710E0CFEBD0E004C02197FE010E94F0
:1001C0005031CE3BD107C9F70E9409290C946F31F9
:1001D0000C9400008F929F92AF92BF92CF92DF92C9
:1001E000EF92FF920F931F93CF93DF93CDB7DEB7BC
:1001F0002C970FB6F894DEBF0FBECDBF6C0185E122
:1002000095E00E94D2158CED94E00E942E0C89ECB2
:1002100094E00E942E0CD6011D968D919C911E9704
:10022000DC01ED91FC910084F185E02D09951091A0
:100230004F05D6011296ED91FC911397E031F1052F
:1002400010F00C948B09EC5CFF4F0C945031A89586
:100250000FB6F894A8958091600088618093600043
:10026000109260000FBE64EF71E080E090E00E94A9
:100270008B1980913A0390913B03DC01ED91FC9145
:100280000484F585E02D6091820509952091520541
:1002900080913A0390913B03DC01ED91FC91028047
:1002A000F381E02D40E050E0222319F06AE070E095
:1002B00002C061E070E0099564E670E080E090E0E3
:1002C0000E948B19D2C3F60185859685DC01ED91DC
:1002D000FC910680F781E02D63E070E00995F6015E
:1002E000138E4BE450E060E070E08CED94E00E94EF
:1002F000130C882319F082E090E03CC78091E7045A
:100300009091E804A091E904B091EA040097A10556
:10031000B10509F408C5893B9B4008F0F5C48091FC
:100320003E0581110FC5FFC40091820510E083E4F2
:1003300095E00E94CD2869837A838B838BE1809F2F
:100340009001819F300D112489010B571A4F2D57B1
:100350003A4F60913E0370913F03AE014F5F5F4F94
:1003600080913A0390913B030E94DB0B06E010E082
:1003700085E195E00E94D21561E070E080E090E0B8
:100380000E948B190150110999F742E350E060E097
:1003900070E08CED94E00E94860CEAC6D6011696B9
:1003A0008C918823B1F063E475E080913E039091D5
:1003B0003F030E94BD0BF60185859685DC01ED911A
:1003C000FC910680F781E02D62E070E00995F6016E
:1003D000178E8091E7049091E804A091E904B09110
:1003E000EA040097A105B10509F4E8C420914B0582
:1003F00030914C058217930708F4E0C4883E93407F
:1004000008F0E1C5DBC480913A0390913B03DC0125
:10041000ED91FC910480F581E02D63E070E0099599
:1004200085E090E073C48091E7049091E804A09186
:10043000E904B091EA040097A105B10509F4C6C525
:10044000843C994008F0BFC5C1C5D60116968C9171
:100450008823E1F00E94C519F6016787708B818BB4
:10046000928B80913A0390913B03DC01ED91FC91DA
:100470000480F581E02D64E070E0099563E475E0A7
:1004800080913E0390913F030E949F0B0E94C519EB
:10049000F6010781108521853285DC01CB01801BA7
:1004A000910BA20BB30B85369105A105B10508F49C
:1004B00032C763E475E080913E0390913F030E9450
:1004C000BD0B87E090E056C68091E7049091E80468
:1004D000A091E904B091EA040097A105B10509F4DF
:1004E00056C620914B0530914C058217930708F4AE
:1004F0004EC6883E934008F066C549C6F60186811F
:10050000882309F475C080913A0390913B03DC0184
:10051000ED91FC910280F381E02D40E050E066E037
:1005200070E00995F601848D882309F4BAC000E0D3
:1005300010E08BE1982E8CED94E00E942E0C8091BF
:10054000E7049091E804A091E904B091EA04892BB2
:100550008A2B8B2B29F45801FFEFAF1ABF0A02C078
:10056000A12CB12C61E070E080E090E00E948B193A
:1005700000918205909E80011124C8018D5B9A4FE5
:10058000FC01EA5AFF4F208130E03A8729873197F2
:10059000808190E098878F8383E495E00E94B22861
:1005A0006C837D838E8383E495E00E94CD286983EC
:1005B0007A838B83980126563A4F79018E01075F23
:1005C0001F4F9E01295F3F4FAE014C5F5F4FBE0141
:1005D0006F5F7F4F80913E0390913F030E94BD0A61
:1005E00085010F5F1F4F0A3F11050CF4A4CF59C0BE
:1005F000848D8823D9F08091E7049091E804A0913C
:10060000E904B091EA04892B8A2B8B2B09F0FCC5F5
:100610008091D4049091D504A091D604B091D704D0
:10062000892B8A2B8B2B09F0EFC53AC68091D40415
:100630009091D504A091D604B091D704892B8A2B30
:100640008B2B79F563E475E080913E0390913F0335
:100650000E94BD0B80913A0390913B03DC01ED9128
:10066000FC910280F381E02D40E050E069E070E011
:100670000995F601148E42E350E060E070E089ECE9
:1006800094E00E94860C83E090E0D60113969C9340
:100690008E9312970E94C519F60167837087818730
:1006A0009287D60112968D919C911397089709F025
:1006B00032C600918205BBE10B9F80011124C80165
:1006C0008D5B9A4FFC01EA5AFF4F208130E03A8758
:1006D00029873197808190E098878F8383E495E024
:1006E0000E94B2286C837D838E8383E495E00E9410
:1006F000CD2869837A838B83F801E656FA4F7F0110
:100700008E01075F1F4F9E01295F3F4FAE014C5F77
:100710005F4FBE016F5F7F4F80913E0390913F031B
:100720000E94BD0AF8C5D60116968C918823F1F176
:100730000E94C519F601678B708F818F928F80910F
:100740003A0390913B03DC01ED91FC910480F5812B
:10075000E02D65E070E00995E0913C03F0913D03E8
:100760000190F081E02D0481158183E495E00E94E1
:10077000B228282F83E495E02C870E94B228472FC7
:1007800083E495E04B870E94B2282C854B858091AD
:100790003C0390913D03F801099563E475E0809175
:1007A0003E0390913F030E949F0B4BC00E94C519CE
:1007B000D60117960D911D912D913C911A97AB0181
:1007C000BC01401B510B620B730BE09182051BE1D6
:1007D0001E9FF0011124E757FA4F80819181A0E01C
:1007E000B0E0481759076A077B0758F163E475E0E2
:1007F00080913E0390913F030E94BD0B80913D0587
:10080000882309F479C50E94C519F6018780908470
:10081000A184B284AB01BC01481959096A097B095A
:10082000E09182051E9FF0011124E557FA4F808167
:100830009181A0E0B0E0481759076A077B0708F0EC
:100840005BC580913E05882309F465C5D6015B969A
:100850001C925B9786E090E08EC440918205FBE19C
:100860004F9FA001112449575A4F60913E03709148
:100870003F0380913A0390913B030E947D0B42E33A
:1008800050E060E070E08CED94E00E94860C81E026
:1008900090E070C4D60116968C91882391F06091F7
:1008A0003A0370913B0381E090E02091820522237E
:1008B00011F080E090E00E94A52083E495E00E9482
:1008C000E82842E350E060E070E08CED94E00E94A4
:1008D000860C42E350E060E070E089EC94E00E9416
:1008E000860CC3C0F60186818823B1F080913A035B
:1008F00090913B03DC01ED91FC910280F381E02DAE
:100900004BE050E06BE070E0099568EE73E080E04A
:1009100090E00E948B19FFC48091E7049091E80455
:10092000A091E904B091EA048137E7E19E0718F04D
:100930008FE090E01FC4892B8A2B8B2B09F0EBC42E
:100940008091E2048111E7C4D6011D968D919C919E
:100950001E97DC01ED91FC910680F781E02D64E0AB
:1009600070E0099588E190E00E94712CFC01809173
:100970003A0390913B0320913E0330913F03138251
:1009800012821582148216821782108611861286B0
:1009900049E151E05183408343E455E05487438764
:1009A00036872587908B878785E195E0928B818BB1
:1009B0008CED94E0948B838B89EC94E0968B858B03
:1009C000178AD6015E96FC93EE935D9711E0D601EF
:1009D0005D968D919C915E97DC01ED91FC91008478
:1009E000F185E02D099581112EC0D6011D968D91BE
:1009F0009C911E97DC01ED91FC910084F185E02D26
:100A00000995F601A58DB68D12968D919C9113973F
:100A100014962D913C9115972817390721F01696B9
:100A20001C93169703C016961C92169715969C93C6
:100A30008E931497ED91FC9111970680F781E02D2C
:100A4000CD010995C4CFF601858D968D009739F0BB
:100A5000DC01ED91FC910280F381E02D09950E946B
:100A60002A2085E195E00E94801581E090E04EC14A
:100A700085E195E00E947C15E091C704F091C804DF
:100A8000309709F0099583B7817F8C6083BF83B766
:100A9000816083BF83B7816083BF889583B78E7F72
:100AA00083BF83B78E7F83BFE091C504F091C604F6
:100AB000309709F00995D601ED91FC910480F581FC
:100AC000E02DC601099546E950E060E070E08CED4C
:100AD00094E00E94860C09C1F6018681882309F4FE
:100AE0009FC085859685DC01ED91FC910680F7819C
:100AF000E02D60E070E00995F60185859685DC01C2
:100B0000ED91FC910084F185E02D099580913A03E7
:100B100090913B03DC01ED91FC910280F381E02D8B
:100B200044E150E06BE070E0099580913E039091C4
:100B30003F03DC01ED91FC910680F781E02D40E060
:100B400050E060E4099580913E0390913F03DC0101
:100B5000ED91FC910684F785E02D0995F6018385DA
:100B60009485DC01ED91FC910480F581E02D0995DF
:100B700044E650E060E070E08CED94E00E94860C6A
:100B800080913E0390913F03DC01ED91FC91048440
:100B9000F585E02D099505E010E080913E039091E8
:100BA0003F03DC01ED91FC910680F781E02D40E0F0
:100BB00050E060E4099580913E0390913F03DC0191
:100BC000ED91FC910684F785E02D099564EF71E0C5
:100BD00080E090E00E948B1980913E0390913F034A
:100BE000DC01ED91FC910484F585E02D099564EF1D
:100BF00071E080E090E00E948B190150110969F6C4
:100C000080913A0390913B03DC01ED91FC910280CD
:100C1000F381E02D40E150E06BE070E009957BC38B
:100C20008091E7049091E804A091E904B091EA046E
:100C3000892B8A2B8B2B09F45CC005E010E0809196
:100C40003E0390913F03DC01ED91FC910680F7811A
:100C5000E02D40E050E060E4099580913E039091E2
:100C60003F03DC01ED91FC910684F785E02D0995A9
:100C70006AEF70E080E090E00E948B1980913E0363
:100C800090913F03DC01ED91FC910484F585E02D0A
:100C900009956AEF70E080E090E00E948B190150A6
:100CA000110969F642E350E060E070E08CED94E0F9
:100CB0000E94860C0E942A2085E195E00E94801502
:100CC00080913A0390913B03DC01ED91FC9102800D
:100CD000F381E02D41E150E06BE070E0099568EEB2
:100CE00073E080E090E00E948B19F601138212827B
:100CF00010C0F60183859485DC01ED91FC9106809E
:100D0000F781E02D099507C38CE090E0F60193830D
:100D100082830E94C519D60117966D937D938D939A
:100D20009C931A97F8C28091D4049091D504A09115
:100D3000D604B091D7040097A105B10531F0893EE2
:100D4000934018F08BE090E0E1CF0E94C519F601C6
:100D500087809084A184B284DC01CB018819990931
:100D6000AA09BB0981339547A105B10508F4D3C28F
:100D70000E94C519D60117968D909D90AD90BC909C
:100D80001A979B01AC01281939094A095B094901E5
:100D90005A01212F30E0A0E6BAEE0E94832F681599
:100DA00079058A059B0508F0B6C280914F058150F0
:100DB0008E3F08F0B0C28DE090E0DCC10E94C51902
:100DC00040914A05D60117960D911D912D913C91A8
:100DD0001A974B015C01801A910AA20AB30A242FC8
:100DE00030E0A8EEB3E00E94832F86169706A8068F
:100DF000B90628F04A3018F08AE090E087CF809159
:100E00003E058823D9F0D6015B961C928091E704B9
:100E10009091E804A091E904B091EA04892B8A2B0F
:100E20008B2B09F4CCC180915105882309F4C7C1EB
:100E300081E0F601848F88E090E069CF4BE450E0D8
:100E400060E070E08CED94E00E94130C882379F050
:100E500080915005882359F0F601938D81E0892710
:100E6000838F882309F457C289E090E04FCF4BE489
:100E700050E060E070E089EC94E00E94130C88235D
:100E800011F0F60111C08091D4049091D504A09185
:100E9000D604B091D7040097A105B10589F0893C2B
:100EA000910508F01CC10CC0138E07C0938D81E022
:100EB0008927838F882309F42EC289E090E027CF09
:100EC00080913D05882371F1809117059091180557
:100ED000181619063CF5D6015B968C918111C4CF8A
:100EE0000E94C519F6010789108D218D328DAB0145
:100EF000BC01401B510B620B730BE09182052BE18F
:100F0000E29FF0011124E357FA4F80819181A0E024
:100F1000B0E0481759076A077B0708F4FCC184E072
:100F200090E028C10E94C519E0918205D60117966C
:100F30000D911D912D913C911A97AB01BC01401B65
:100F4000510B620B730B2E2F30E0BBE1EB9FF001D6
:100F50001124ED56FA4F80819181A0E0B0E048174E
:100F600059076A077B07C0F0D6015F968C91811103
:100F700013C080913A0390913B03DC01ED91FC9109
:100F80000280F381E02D40E050E069E070E00995D7
:100F900081E0F601878FBFC180913E0390913F03AE
:100FA000FC01A081B1814BE1429FF001439FF00D14
:100FB0001124E956FA4F608170E01896ED91FC918A
:100FC00019970995A8C18AE090E0D4C080913E05A8
:100FD000882389F10E94C519D60117960D911D919C
:100FE0002D913C911A97DC01CB01801B910BA20B38
:100FF000B30B85369105A105B10558F461E070E0A9
:1010000080E090E00E948B1985E195E00E94D21566
:10101000E1CF8091E7049091E804A091E904B091B8
:10102000EA04892B8A2B8B2B09F45CC08091510533
:10103000811155C057C04BE450E060E070E089EC8E
:1010400094E00E94130C8823F1F00E94C519F60168
:101050000781108521853285DC01CB01801B910B36
:10106000A20BB30B85369105A105B10508F01CCF85
:1010700089EC94E00E942E0C61E070E080E090E04A
:101080000E948B19E2CF4BE450E060E070E08CED01
:1010900094E00E94130C882341F18091500588232D
:1010A00021F10E94C519F60107811085218532853D
:1010B000DC01CB01801B910BA20BB30B8536910594
:1010C000A105B10508F0F2CE8CED94E00E942E0C43
:1010D00061E070E080E090E00E948B19E2CF88E050
:1010E00090E048C086E090E045C080913D058111C8
:1010F0001EC00E94C519F601078110852185328521
:10110000AB01BC01401B510B620B730BE0918205DC
:101110002BE1E29FF0011124E157FA4F8081918188
:10112000A0E0B0E0481759076A077B0708F50E945E
:10113000C519D60117960D911D912D913C911A97C5
:10114000AB01BC01401B510B620B730BE09182059C
:10115000BBE1EB9FF0011124EF56FA4F80819181A2
:10116000A0E0B0E084179507A607B70708F0D3C042
:1011700083E090E0D60113969C938E9312970E9481
:10118000C519F6016783708781879287C4C08091F3
:101190003E058823B9F00E94C519D6011F960D910E
:1011A0001D912D913C915297DC01CB01801B910B3D
:1011B000A20BB30B893C9105A105B10518F086E09F
:1011C00090E0A4CD0E94C519F60107811085218504
:1011D0003285AB01BC01401B510B620B730BE091DC
:1011E00082052BE1E29FF0011124E357FA4F808141
:1011F0009181A0E0B0E0481759076A077B0708F41F
:101200008AC083E090E082CD0E94C519D60117966E
:101210000D911D912D913C911A97DC01CB01801B02
:10122000910BA20BB30B893E9340A105B10508F4C5
:1012300038CA42E350E060E070E08CED94E00E9438
:10124000860C42E350E060E070E089EC94E00E949C
:10125000860C63E475E080913E0390913F030E9409
:10126000BD0B80913A0390913B03DC01ED91FC9121
:101270000280F381E02D40E050E069E070E00995E4
:10128000F601148E83E090E0938382830E94C51957
:10129000D60117966D937D938D939C931A9701CAEF
:1012A00080913D05882309F4FCC90E94C519F60107
:1012B0000781108521853285DC01CB01801B910BD4
:1012C000A20BB30B893E9340A105B10508F4E9C90F
:1012D00080914905882309F4E4C963E475E08091AD
:1012E0003E0390913F030E94BD0BD6015C961C9279
:1012F0005C9784E090E0CAC983E090E0D601139641
:101300009C938E9312970E94C519F601678370878C
:101310008187928796CA2C960FB6F894DEBF0FBECF
:10132000CDBFDF91CF911F910F91FF90EF90DF9094
:10133000CF90BF90AF909F908F900895FF920F93A2
:101340001F93CF93DF93EC018B01F42EE881F98199
:101350000680F781E02D40E050E0DB016C910995BB
:10136000E881F9810680F781E02D41E050E0D80165
:1013700011966C91CE010995E881F9810680F7817B
:10138000E02D42E050E0D80112966C91CE01099513
:10139000FF2061F0E881F9810684F785E02DCE0118
:1013A000DF91CF911F910F91FF900994DF91CF9121
:1013B0001F910F91FF900895FC018789089508956A
:1013C0000895CF93DF93EC011B821A8280913C0336
:1013D00090913D03DC01ED91FC916091530570E02B
:1013E0000284F385E02D099580913E0390913F039F
:1013F000DC01ED91FC910190F081E02D0995809147
:101400003A0390913B03DC01ED91FC910190F08156
:10141000E02D099585E195E00E9480158091DE041C
:101420009091DF04181619061CF462E00E94F32361
:101430008091CB049091CC04181619061CF462E03C
:101440000E94F3238D859E85DC01ED91FC91048043
:10145000F581E02D099564E670E080E090E00E945F
:101460008B196091480570E06530710514F464E1F2
:1014700070E080913A0390913B03DC01ED91FC9187
:101480000084F185E02D099564E670E080E090E04D
:10149000DF91CF910C948B190C94062D0C94062D92
:1014A0000C94062D87FF0C94C3230895A89599E208
:1014B00088E10FB6F894A895809360000FBE9093D2
:1014C000600089E992E00E94082064E670E080E014
:1014D00090E00E948B1960E08FEF0E94520A809189
:1014E000080118161CF462E00E94F32380910701A2
:1014F00018161CF461E00E94C32360E0809105018E
:101500000E94520A60E0809106010E94520A6CE239
:1015100071E080E090E00C948B198FE992E00E94DA
:1015200008206AEF70E080E090E00E948B198091C3
:101530000801181644F461E00E94F32360E08091F2
:1015400008010E94C3238091070118161CF460E073
:101550000E94C32361E0809106010E94520A61E06B
:10156000809105010E94520A60E0809104010E946E
:10157000520A61E08FEF0C94520A2F923F924F92E1
:101580005F926F927F928F929F92AF92BF92CF9213
:10159000DF92EF92FF920F931F93CF93DF9300D0D0
:1015A0001F92CDB7DEB76C015B013A0149010E9481
:1015B000C5192091F2023091F3024091F40250914A
:1015C000F5021B012C01221A330A440A550AF701BD
:1015D00080819181A0E0B0E0281639064A065B06BA
:1015E00008F475C00E94C5196093F2027093F3026B
:1015F0008093F4029093F502F30180819181A2819E
:1016000089839A83AB830E94EC2D24E630E040E08E
:1016100050E00E942F2FF401208131812901330FE6
:101620006608770846165706680679063CF4F50101
:1016300080819181A28189839A83AB83F801808123
:10164000918164E670E0681B790B072E000C880B13
:10165000990B24E630E040E050E00E941B1A0E9403
:10166000FC2D20E030E048EC52E40E94FF2F4B01BB
:101670005C01698170E080E090E00E94FA2DA50194
:1016800094010E945B2E0E94783069836A8170E029
:1016900080E090E00E94FA2DA50194010E945B2E4B
:1016A0000E9478306A836B8170E080E090E00E9455
:1016B000FA2DA50194010E945B2E0E9478306B8365
:1016C00041E0BE016F5F7F4FC6010E949E090F90EF
:1016D0000F900F90DF91CF911F910F91FF90EF909E
:1016E000DF90CF90BF90AF909F908F907F906F9042
:1016F0005F904F903F902F9008950F931F93CF933B
:10170000DF93EB018A01DC01ED91FC910280F38112
:10171000E02D40E050E068E070E00995E881F98153
:10172000D8016D917C910480F581E02DCE01099561
:101730008823A1F3DF91CF911F910F9108950F930B
:101740001F93CF93DF9300D01F92CDB7DEB78C01EC
:10175000CB010E94B22869837A838B8341E0BE016A
:101760006F5F7F4FC8010E949E090F900F900F90EE
:10177000DF91CF911F910F9108950F931F93CF93F6
:10178000DF9300D01F92CDB7DEB78C01CB010E9452
:10179000CD2869837A838B8341E0BE016F5F7F4FE1
:1017A000C8010E949E090F900F900F90DF91CF917A
:1017B0001F910F910895CF92DF92EF92FF920F93B6
:1017C0001F93CF93DF93EB017A016901DC01ED9167
:1017D000FC910280F381E02D40E050E062E070E097
:1017E0000995F6016081718180E090E00E948B197B
:1017F00040E0B701CE010E949E09E881F981D8013D
:101800006D917C910280F381E02DCE0109958823B2
:10181000A1F3DF91CF911F910F91FF90EF90DF9097
:10182000CF90089508950F931F93411551056105B9
:10183000710571F0FC010785108921893289222701
:101840003327041715072607370710F480E002C076
:10185000FC0186811F910F91089508950F931F93A6
:10186000CF93DF93EC018A819B81181619062CF423
:101870000E949A2321E0892B09F020E02C838D819E
:10188000222319F1811110C00E94C5196F83788736
:1018900089879A871F86188A198A1A8A1E821B8648
:1018A0001C861D861E862BC00E94C5190F811885B7
:1018B00029853A85DC01CB01801B910BA20BB30B70
:1018C0008B879C87AD87BE871AC0882399F00E94BA
:1018D000C5190F81188529853A85DC01CB01801B4C
:1018E000910BA20BB30B8F87988BA98BBA8B81E0DE
:1018F0008E8305C01B861C861D861E861E828C81DB
:101900008D83DF91CF911F910F910895EF92FF92F8
:101910000F931F93CF93DF9300D000D0CDB7DEB7E6
:101920008C01CB01BA0125E030E040E050E00E949C
:101930002F2FE12CF12CCA01B90129833A834B8363
:101940005C830E948B19C8010E942E0CF8018681CD
:1019500029813A814B815C818111EBCF838594850C
:10196000A585B685892B8A2B8B2B19F7FFEFEF1AEC
:10197000FF0A85E0E816F104F4F20F900F900F9043
:101980000F90DF91CF911F910F91FF90EF900895ED
:101990008F929F92AF92BF92DF92EF92FF920F933E
:1019A0001F93CF93DF93EC018B899C89DC011B96FD
:1019B0008D909D90AD90BC901E9781149104A104D0
:1019C000B104A1F1D22E7A018B0144E650E060E02F
:1019D00070E00E94130C811129C0B9EE8B16B3E0A0
:1019E0009B0620F18F859889DC01ED91FC914D2DAE
:1019F00050E00280F381E02DB701099564E670E0C4
:101A000080E090E00E948B1942E350E060E070E0DB
:101A10008B899C890E94860C1B830A830E94C519AE
:101A20006F83788789879A8781E001C080E0DF91A2
:101A3000CF911F910F91FF90EF90DF90BF90AF90EB
:101A40009F908F900895EF92FF920F931F93CF93E3
:101A5000DF93EC018B899C890E942E0C8D899E89D5
:101A60000E942E0C89899A89DC01ED91FC910284F7
:101A7000F385E02D09958B859C85DC01ED91FC912A
:101A80000480F581E02D09958C01EA81FB81E83025
:101A9000F10508F0EFC2EC5BFF4F0C9450318F85DD
:101AA0009889DC01ED91FC910280F381E02D4BE0FF
:101AB00050E06BE070E0099560ED77E080E090E049
:101AC0000E948B1942E350E060E070E08B899C89B2
:101AD0000E94860C42E350E060E070E08D899E89B0
:101AE0000E94860C81E090E09B838A830E94C51946
:101AF0006F83788789879A87BDC28E81882301F199
:101B00008F859889DC01ED91FC910280F381E02DB5
:101B10004EE050E06BE070E009956CED75E080E020
:101B200090E00E948B198F859889DC01ED91FC91E2
:101B30000280F381E02D40E050E069E070E009951B
:101B40008F859889DC01ED91FC910684F785E02D65
:101B50000995FC01F38444E650E060E070E08B8975
:101B60009C890E94130C882369F0D80113968C91EC
:101B700013978F1520F48F5F13968C9316C085E012
:101B8000F80110C044E650E060E070E08D899E8965
:101B90000E94130C882309F444C0F8018381863025
:101BA00018F08150838301C0F3828F859889DC010E
:101BB000ED91FC91D80113966C9170E00084F18551
:101BC000E02D099566E970E080E090E00E948B19B5
:101BD000F8018381F8124EC28F859889DC01ED915E
:101BE000FC910280F381E02D45E150E06BE070E074
:101BF00009956CED75E080E090E00E948B198F856F
:101C00009889EC01E881F9810280F381E02D40E0C0
:101C100050E069E070E0099566E970E080E090E0EE
:101C20003BC02DE04BE050E062E070E0FFC18B85EF
:101C30009C85DC01ED91FC910284F385E02D0995F2
:101C40008C018E8181114FC044E650E060E070E06D
:101C50008B899C890E94130C882331F18B859C858C
:101C6000DC01ED91FC910284F385E02D0995FC01E6
:101C700080818B3028F4D8018C918F5F8C9302C0C7
:101C8000F80110826B857C858D859E850E94BD0B39
:101C900064E670E080E090E0DF91CF911F910F91BA
:101CA000FF90EF900C948B1944E650E060E070E0F8
:101CB0008D899E890E94130C882309F18B859C8550
:101CC000DC01ED91FC910284F385E02D0995FC0186
:101CD0008081882329F0D8018C9181508C9303C096
:101CE0008BE0F80180836B857C858D859E85DF91F7
:101CF000CF911F910F91FF90EF900C94BD0B8989AC
:101D00009A89DC01ED91FC910680F781E02D09951F
:101D1000882389F18F859889DC01ED91FC910480FD
:101D2000F581E02D64E070E00995F801E280F12C86
:101D30008D859E85DC01ED91FC910088F189E02D77
:101D40000995E816F9062CF4F80182818F5F8283E9
:101D500003C0D80112961C9264EF71E080E090E01D
:101D60000E948B198F859889EC01E881F9810680A2
:101D7000F781E02D98C02CE04BE050E063E070E08C
:101D8000CE010E94C80CAD85BE85ED91FC911197E6
:101D9000882329F00484F585E02DCD0184C0E80175
:101DA0006A8170E00084F185E02DCD01DF91CF9153
:101DB0001F910F91FF90EF9009948B859C85DC011A
:101DC000ED91FC910284F385E02D09958C018E81C3
:101DD00081114AC044E650E060E070E08B899C8944
:101DE0000E94130C8823F1F08B859C85DC01ED911A
:101DF000FC910284F385E02D0995FC0181818B30F3
:101E000040F4D80111968C9111978F5F11968C93A5
:101E100002C0F80111826B857C858D859E850E94AC
:101E20009F0B36CF44E650E060E070E08D899E89DC
:101E30000E94130C882321F18B859C85DC01ED9198
:101E4000FC910284F385E02D0995FC0181818823B2
:101E500041F0D80111968C911197815011968C9375
:101E600003C08BE0F80181836B857C858D859E8521
:101E7000DF91CF911F910F91FF90EF900C949F0BEA
:101E80002FE04BE050E064E070E0CE010E94C80C0F
:101E9000882309F4EFC08D859E85DC01ED91FC91CE
:101EA0000484F585E02DDF91CF911F910F91FF9074
:101EB000EF9009948B859C85DC01ED91FC91048861
:101EC000F589E02D09958C0144E650E060E070E072
:101ED0008B899C890E94130C882341F0F801818D25
:101EE000893010F48F5F11C0118E13C044E650E0AA
:101EF00060E070E08D899E890E94130C882349F070
:101F0000F801818D882319F08150818F02C089E00A
:101F1000818F44E650E060E070E08B899C890E94EC
:101F2000130C81117BC044E650E060E070E08D89C5
:101F30009E890E94130C811171C073C08B859C8592
:101F4000DC01ED91FC910488F589E02D09958C0167
:101F500044E650E060E070E08B899C890E94130C9D
:101F6000882341F0F801828D893010F48F5F0CC016
:101F7000128E0EC0ED89FE898681882349F0F80112
:101F8000828D882319F08150828F02C089E0828F70
:101F900044E650E060E070E08B899C890E94130C5D
:101FA00081114DC044E650E060E070E08D899E896B
:101FB0000E94130C811143C020E048E050E066E02D
:101FC00070E034C08B859C850E94E8288F859889B5
:101FD000DC01ED91FC910280F381E02D40E050E0C6
:101FE00061E070E0099587E090E09B838A830E941E
:101FF000C5196F83788789879A8742E350E060E04C
:1020000070E08B899C89DF91CF911F910F91FF9098
:10201000EF900C94860C81E08F8B2CC0F801418DE1
:1020200011C022E14BE050E065E070E0CE01DF91AD
:10203000CF911F910F91FF90EF900C94C80CD80195
:102040005A964C918F859889442359F0DC01ED9183
:10205000FC9150E00280F381E02D6BE070E0099587
:1020600017CEEC01E881F9810280F381E02D43E194
:1020700050E0F3CFDF91CF911F910F91FF90EF9040
:10208000089542E350E060E070E0FC0183899489A8
:102090000C94860C089580E090E0892B29F00E9432
:1020A000B71881110C9400000895FC0175836483B6
:1020B000089563E070E087E090E00895CF93DF93A8
:1020C000EC01188619861A86E881F9810284F38565
:1020D000E02D09951B86DF91CF910895CF93DF9373
:1020E000EC01E881F9810284F385E02D099581E016
:1020F0008B87DF91CF9108954330510524F4FC0183
:10210000E40FF51F608708952DE132E0FC01318373
:1021100020830C945E10FC01228D338D37FF03C0A9
:10212000319521953109868D978D97FF03C0919543
:1021300081959109281739070CF49C01848D958DA0
:1021400097FF03C0919581959109A481B58114965B
:102150004D915C91159724173507D0F0821793079E
:10216000B8F41382128212968D919C9113972817BE
:10217000390720F081E090E0938382838D919C91D8
:102180002817390778F082E090E0938382830AC0B1
:1021900018962D913C9119972817390728F481E05A
:1021A00082A702C081E0089580E00895FC0182A525
:1021B0000895FC0181A50895FC0180A50895FC0106
:1021C000828193810895089508950895089508954A
:1021D000089520913803309139032817390781F485
:1021E0009091360380913703981751F0E0913603B0
:1021F000F0E0EA50FD4F8081082E000C990B089505
:102200008FEF9FEF089520913803309139032817FD
:10221000390739F48FB7F8941092370310923603C8
:102220008FBF0895FC01848D958D009729F421E0DE
:1022300030E0338322830895A189B2892089522F07
:1022400050957FB7F8943C9135233C93FC0131972E
:10225000F1F738E04C9160FF02C0422B01C04523EA
:102260004C93FC013197F1F76695315099F73C9109
:10227000232B2C937FBF0197F1F781E090E0089525
:1022800020913803309139032817390771F4809170
:1022900037032091360390E0805C9F4F821B9109A9
:1022A00060E470E00E943C31089580E090E0089581
:1022B000209138033091390328173907B9F49091E8
:1022C000360380913703981789F0E0913603F0E0E8
:1022D000EA50FD4F80812091360330E02F5F3F4F61
:1022E0002F7333272093360390E008958FEF9FEFED
:1022F0000895FC0165A30895FC0183A194A10D96A6
:102300000895EF92FF920F931F93CF93DF937C0179
:102310008C010E5F1F4FC0E0D0E0F80181919191D8
:102320008F01181619063CF4F701EC0FFD1F6085AC
:1023300070E00E942C192196C330D10571F7DF910E
:10234000CF911F910F91FF90EF9008950F931F93DE
:10235000CF93DF93EC018C819D818230910581F0D8
:1023600034F4009751F0019709F464C058C08330E9
:10237000910529F10497D9F152C01B861A8651C0E4
:102380000E94C5190E811F8128853985DC01CB018A
:10239000801B910BA20BB30B893C9105A105B105E4
:1023A00008F44BC08A859B85803891050CF045C0A8
:1023B0000E94C5196E837F83888799873BC00E94DE
:1023C000C5190E811F8128853985DC01CB01801B51
:1023D000910BA20BB30B85369105A105B10508F44D
:1023E0004DC08A859B85892B09F063C047C00E9438
:1023F000C5190E811F8128853985DC01CB01801B21
:10240000910BA20BB30B853F9140A105B10508F4D8
:1024100053C08A859B85892B09F04BC04DC01D8216
:102420001C826A857B858A81DF91CF911F910F91F4
:102430000C942C1980E890E01EC00E94C5190E81F2
:102440001F8128853985DC01CB01801B910BA20BF4
:10245000B30B893C9105A105B10518F38A859B85CD
:1024600081349105F4F20E94C5196E837F838887B9
:10247000998780E490E09B878A87D3CF0E94C51913
:102480000E811F8128853985DC01CB01801B910BD2
:10249000A20BB30B813A9F40A105B10510F28A85CA
:1024A0009B85892B09F0BDCF80E490E09B878A87CC
:1024B00015C01B861A8612C00E94C5190E811F8185
:1024C00028853985DC01CB01801B910BA20BB30B56
:1024D000853F9140A105B10510F7A3CF0E94C51912
:1024E0006E837F83888799879CCFCF93DF93EC019E
:1024F00061E08A810E94F32360E08A81DF91CF91BD
:102500000C94C323EF92FF920F931F93CF93DF930B
:10251000EC018C010E5F1F4F7C0188E0E80EF11C7E
:10252000F80180810E5F1F4F61E00E94F3230E15BA
:102530001F05B1F7E881F9810484F585E02DCE010E
:10254000DF91CF911F910F91FF90EF9009940C9420
:10255000062D0C94062DCF93DF93EC010E9484107E
:10256000CE01DF91CF910C94062D0C94062D2F9265
:102570003F924F925F926F927F928F929F92AF9213
:10258000BF92CF92DF92EF92FF920F931F93CF9360
:10259000DF93CDB7DEB729970FB6F894DEBF0FBE35
:1025A000CDBF7C014A015B012801390120E030E008
:1025B00048EC52E4C501B4010E94A730181634F467
:1025C000812C912C98ECA92E92E4B92E0E94C51969
:1025D000D70150960D911D912D913C915397DC019F
:1025E000CB01801B910BA20BB30B481659066A0650
:1025F0007B0608F0ACC02AE037ED43E25CE3F7016C
:1026000064897589868997890E94932F6E837F8359
:1026100088879987D70154966D937D938D939C936A
:10262000579758964D905D906D907C905B97A30165
:102630009201C301B2010E94932F9B01AC016E81F4
:102640007F81888599850E94A73018162CF4F701A0
:10265000448A558A668A778AD70154966D917D910E
:102660008D919C9157970E94AC302B013C01A501A4
:10267000940160E070E080E89FE30E94922F9B014C
:10268000AC01C301B2010E945B2E2B013C0117017A
:10269000B8E02B0E311C8E010F5F1F4FFE013496E8
:1026A000FD83EC8368013F822E82AE81BF816D91F4
:1026B000BF83AE8370E080E090E00E94FA2D4B0172
:1026C0005C019B01AC01C301B2010E945B2E9B0126
:1026D000AC01C501B4010E94932F4B015C0120E0C5
:1026E00030E04FE753E40E94A730181634F4812CF1
:1026F000912C8FE7A82E83E4B82EC501B4010E9467
:102700007830F60161936F018C819D81E817F9079C
:1027100061F6670192E0C90ED11CD6018D919D91A1
:102720006D01181619062CF4F801608170E00E9402
:102730002C190F5F1F4FC214D30479F70E94C519DB
:10274000D70150966D937D938D939C9353972996C3
:102750000FB6F894DEBF0FBECDBFDF91CF911F91B2
:102760000F91FF90EF90DF90CF90BF90AF909F9030
:102770008F907F906F905F904F903F902F90089533
:102780000F931F936330710529F16CF4613071056B
:10279000D1F062307105B9F524E130E040E050E05D
:1027A0006CE370E01DC06530710519F1ECF0663026
:1027B000710549F505E010E020E030E040E050E030
:1027C00060E07FE31EC024E130E040E050E060E5DF
:1027D00070E006C022E330E040E050E062E370E0E9
:1027E0001F910F910C94EE2201E010E020E030E008
:1027F00004C003E010E020E030E04AE959E969E173
:102800007FE30E94B7121F910F9108952F923F927C
:102810004F925F926F927F928F929F92AF92BF92F0
:10282000CF92DF92EF92FF920F931F93CF93DF939C
:10283000CDB7DEB72B970FB6F894DEBF0FBECDBF76
:102840009B878A87072E000C880B990B0E94FC2D12
:102850004B015C0120E030E048E452E40E94FF2F8D
:102860000E9471307A836983072E000C880B990BC4
:102870000E94FC2D9B01AC01C501B4010E94FF2FF9
:102880000E94713001E010E09B01770F440B550B63
:102890002C833D834E835F83CA84DB8438E0C30E80
:1028A000D11C4A855B854E5F5F4F598748874981B8
:1028B0005A81041715079CF56C817D818E819F815B
:1028C0000E948B19E884F98416012801012E000C5E
:1028D00066087708D1016D911D01F701F081FB8336
:1028E00022E0E20EF11C70E080E090E00E94FA2D00
:1028F0004B015C01C301B2010E94FC2D9B01AC01A4
:10290000C501B4010E94FF2F0E9471308B810E948B
:102910002C19EC14FD04F1F60F5F1F4FC8CFAA85E8
:10292000BB85ED91FC9111970484F585E02DCD01D7
:10293000099581E02B960FB6F894DEBF0FBECDBF90
:10294000DF91CF911F910F91FF90EF90DF90CF908B
:10295000BF90AF909F908F907F906F905F904F90BF
:102960003F902F9008952F923F924F925F926F92D7
:102970007F928F929F92AF92BF92CF92DF92EF920F
:10298000FF920F931F93CF93DF93CDB7DEB72997B5
:102990000FB6F894DEBF0FBECDBF99878887072E8C
:1029A000000C880B990B0E94FC2D6B017C0120E030
:1029B00030E048E452E40E94FF2F0E9471308B0106
:1029C000072E000C880B990B0E94FC2D9B01AC017B
:1029D000C701B6010E94FF2F0E9471309B01770F43
:1029E000440B550B2A833B834C835D8328843984B5
:1029F00038E0230E311C488559854E5F5F4F5F8359
:102A00004E83101611069CF56A817B818C819D8115
:102A10000E948B19EE80FF8061012801012E000CBD
:102A200066087708D6016D916D01F701F081F98391
:102A300022E0E20EF11C70E080E090E00E94FA2DAE
:102A40004B015C01C301B2010E94FC2D9B01AC0152
:102A5000C501B4010E94FF2F0E94713089810E943C
:102A60002C19E214F304F1F601501109CACFA8851C
:102A7000B985ED91FC9111970684F785E02DCD0184
:102A8000099581E029960FB6F894DEBF0FBECDBF41
:102A9000DF91CF911F910F91FF90EF90DF90CF903A
:102AA000BF90AF909F908F907F906F905F904F906E
:102AB0003F902F900895CF93DF931F92CDB7DEB74D
:102AC000FC0183A591E09093F60380931804109283
:102AD000F7031092190487EB94E049830E94A41C29
:102AE0004981642F87EB94E00E94A41C81E00F9041
:102AF000DF91CF910C94CB2040E26BE60C945B15F8
:102B0000CF93DF93EC018DA5811127C01092AE0306
:102B10001092AD031092F703109219041092F5036E
:102B200081E08093F4031092CF0361E082E10E9480
:102B3000C32361E083E10E94C3238091B9008E7FAB
:102B40008093B9008091B9008D7F8093B90088E4AB
:102B50008093B80085E48093BC0040E06BE6CE0132
:102B60000E945B1540E16BE1CE010E945B1540E0E5
:102B70006CE1CE010E945B1540E268E3CE010E9449
:102B80005B15EC81FD8146816FE1CE010E945B15F2
:102B900042E060E2CE010E945B1581E08DA7DF91EB
:102BA000CF910895CF92DF92EF92FF920F931F93F0
:102BB000CF93DF93EC010E94C5196B017C018E89D4
:102BC0009F89A88DB98DA7019601281B390B4A0B47
:102BD0005B0B253031054105510508F402C18BA579
:102BE00011E01093F603809318041092F7031092EB
:102BF00019046BE387EB94E00E94A41C80E00E9420
:102C0000CB2041E06EE08BA50E9428218AE0FE01E6
:102C10007096DE01169601900D928A95E1F787EB8A
:102C200094E00E94221C082F87EB94E00E94221C53
:102C300020E030E0302F822B932B998B888B87EB11
:102C400094E00E94221C082F87EB94E00E94221C33
:102C500020E030E0302F822B932B9B8B8A8B87EBED
:102C600094E00E94221C082F87EB94E00E94221C13
:102C700020E030E0302F822B932B9D8B8C8B87EBC9
:102C800094E00E94221C87EB94E00E94221C87EBB8
:102C900094E00E94221C082F87EB94E00E94221CE3
:102CA00020E030E0302F822B932B9B8F8A8F87EB95
:102CB00094E00E94221C082F87EB94E00E94221CC3
:102CC00020E030E0302F822B932B9D8F8C8F87EB71
:102CD00094E00E94221C082F87EB94E00E94221CA3
:102CE0002889398946E0359527954A95E1F7398B4A
:102CF000288B2A893B8956E0359527955A95E1F727
:102D00003B8B2A8B2C893D8966E0359527956A9502
:102D1000E1F73D8B2C8B2A8D3B8D76E03595279501
:102D20007A95E1F73B8F2A8F2C8D3D8DE6E0359526
:102D30002795EA95E1F73D8F2C8F20E030E0302F8A
:102D4000822B932BF6E095958795FA95E1F79F8F67
:102D50008E8FCE8ADF8AE88EF98EC8A2D9A2EAA227
:102D6000FBA28BA51093F603809318041092F7032F
:102D7000109219046AE387EB94E00E94A41C80E09F
:102D80000E94CB2041E061E08BA50E94282187EBC7
:102D900094E00E94221C96958795880F91E08034DC
:102DA00009F090E099A791111CC08CA19DA1AEA142
:102DB000BFA1A7019601281B390B4A0B5B0B2530DD
:102DC00031054105510568F0CCA2DDA2EEA2FFA2BB
:102DD0001AA6E881F9810488F589E02DCE010995CC
:102DE00088A7DF91CF911F910F91FF90EF90DF9017
:102DF000CF900895CF93DF93FC0120A131A112164B
:102E000013064CF4C2A1D0E0822F0E949A2321E045
:102E1000C817D90709F020E0822FDF91CF910895DC
:102E20000F931F93CF93DF93EC018B016C307105EF
:102E3000E0F5FB01E45BFF4F0C945031EBA1FCA1EA
:102E4000258530E040E050E02AC0EBA1FCA12289BA
:102E50001FC0EBA1FCA121891BC0EBA1FCA124890F
:102E600017C0EBA1FCA1238913C0EBA1FCA125890C
:102E70000FC0EBA1FCA120890BC0EBA1FCA1268512
:102E800007C0EBA1FCA1268903C0EBA1FCA1278907
:102E900030E021503109032E000C440B550B60E04B
:102EA00070E0CB010E941B1A01C060E0E881F9814B
:102EB000462F50E00280F381E02DB801CE01DF9172
:102EC000CF911F910F910994FC01848DDF01A80F10
:102ED000B11DA35ABF4F2C91848D90E001968F7342
:102EE0009927848FA689B7892C93A089B1898C9161
:102EF00080648C93938D848D981306C00288F38927
:102F0000E02D80818F7D8083089508950895089530
:102F10002BE331E0FC0131832083E0913803F09111
:102F20003903E817F90759F4A389B4899C91858975
:102F3000809589238C931092390310923803089559
:102F4000CF93DF93EC010E948817CE01DF91CF91E0
:102F50000C94062D1F920F920FB60F9211242F93EF
:102F60003F934F935F936F937F938F939F93AF9311
:102F7000BF93CF93DF93EF93FF93E0913803F091EA
:102F80003903309709F452C0968DA685B78585859B
:102F900091FF04C09C91892329F448C09C91892306
:102FA00009F044C0A389B4899C91858980958923BF
:102FB0008C93868997890197F1F7608D718DC6850D
:102FC000D785558598E080E0DB011197F1F7282F30
:102FD00030E035952795822F4881452309F0806898
:102FE000915091F7282F868D81FD20958091370390
:102FF00090E001968F73992730913603381749F086
:10300000A0913703B0E0AA50BD4F2C9380933703B3
:1030100003C0868D8160868F828D938D0197F1F735
:10302000A389B4899C918589892B8C93FF91EF9119
:10303000DF91CF91BF91AF919F918F917F916F91D0
:103040005F914F913F912F910F900FBE0F901F9066
:1030500018953FB7F8948091620390916303A09113
:103060006403B091650326B5A89B05C02F3F19F0F6
:103070000196A11DB11D3FBFBA2FA92F982F8827F8
:10308000820F911DA11DB11DBC01CD0142E0660F53
:10309000771F881F991F4A95D1F708950895CF92F9
:1030A000DF92EF92FF920F931F93CF93DF936C0108
:1030B0007A018B01C0E0D0E0CE15DF0589F0D801A0
:1030C0006D918D01D601ED91FC910190F081E02D83
:1030D000C6010995892B11F47E0102C02196ECCF1F
:1030E000C701DF91CF911F910F91FF90EF90DF907B
:1030F000CF900895FC01538D448D252F30E0842F0F
:1031000090E0821B930B541710F0CF96089501970F
:103110000895FC01918D828D981761F0828DDF01F9
:10312000A80FB11D5D968C91928D9F5F9F73928FBA
:1031300090E008958FEF9FEF0895FC01918D828DAF
:10314000981731F0828DE80FF11D858D90E008957C
:103150008FEF9FEF0895FC01918D228D892F90E0D4
:10316000805C9F4F821B91098F73992708958AE194
:1031700094E00E94AB1821E0892B09F420E0822F13
:1031800008950E946A31EF92FF920F931F93CF939D
:10319000DF93EC0181E0888F9B8D8C8D981305C0A7
:1031A000E889F989808185FD24C0F62E0B8D10E019
:1031B0000F5F1F4F0F731127E02E8C8DE8120CC08C
:1031C0000FB607FCFACFE889F989808185FFF5CF32
:1031D000CE010E946417F1CF8B8DFE01E80FF11D27
:1031E000E35AFF4FF0820B8FEA89FB89808180626E
:1031F00007C0EE89FF896083E889F989808180644E
:10320000808381E090E0DF91CF911F910F91FF903B
:10321000EF900895CF93DF93EC01888D8823C9F058
:10322000EA89FB89808185FD05C0A889B9898C91CF
:1032300086FD0FC00FB607FCF5CF808185FFF2CF6A
:10324000A889B9898C9185FFEDCFCE010E946417C2
:10325000E7CFDF91CF9108951F93CF93DF93182F7E
:10326000EB0161E00E94F323209711F460E004C0B9
:10327000CF3FD10539F461E0812FDF91CF911F91CC
:103280000C94C323E12FF0E0E859FE4FE491E330C2
:10329000F9F048F4E130B9F0E230A1F584B580628C
:1032A00084BDC8BD34C0E730E9F0E83019F1E4303E
:1032B00049F580918000806280938000D0938B00DC
:1032C000C0938A0024C084B5806884BDC7BD1FC078
:1032D00080918000806880938000D0938900C093A3
:1032E000880015C08091B00080688093B000C093C2
:1032F000B3000DC08091B00080628093B000C09395
:10330000B40005C0C038D1050CF0B5CFAFCFDF9108
:10331000CF911F9108958F929F92AF92BF92CF92BB
:10332000DF92EF92FF926B017C010E9429184B0102
:103330005C01C114D104E104F104F1F00E942918E8
:10334000DC01CB0188199909AA09BB09883E934081
:10335000A105B10570F321E0C21AD108E108F10816
:1033600088EE880E83E0981EA11CB11CC114D10404
:10337000E104F10419F7DDCFFF90EF90DF90CF90DB
:10338000BF90AF909F908F9008952FB7F894609161
:103390005E0370915F0380916003909161032FBF82
:1033A00008951F920F920FB60F9211242F933F93FF
:1033B0008F939F93AF93BF9380915E0390915F0330
:1033C000A0916003B091610330915D0323E0230F6E
:1033D0002D3720F40196A11DB11D05C026E8230F4D
:1033E0000296A11DB11D20935D0380935E0390930F
:1033F0005F03A0936003B093610380916203909197
:103400006303A0916403B09165030196A11DB11DF2
:103410008093620390936303A0936403B093650366
:10342000BF91AF919F918F913F912F910F900FBEC0
:103430000F901F901895CF92DF92EF92FF920F930B
:103440001F93CF93DF9300D000D0CDB7DEB76217C4
:10345000730784079507FCF489019A016B017C01CD
:10346000A9019801261B370B480B590B69F02983DA
:103470003A834B835C830E94EC2D29813A814B81F6
:103480005C810E942F2F03C060E070E0CB016C0DC7
:103490007D1D8E1D9F1D0F900F900F900F90DF913F
:1034A000CF911F910F91FF90EF90DF90CF900895F3
:1034B0001F920F920FB60F9211242F933F934F93A9
:1034C0005F936F937F938F939F93AF93BF93EF938C
:1034D000FF93E0910201F09103010995FF91EF91B3
:1034E000BF91AF919F918F917F916F915F914F911C
:1034F0003F912F910F900FBE0F901F9018951F9224
:103500000F920FB60F9211242F933F934F935F9317
:103510006F937F938F939F93AF93BF93EF93FF939B
:10352000E0910001F09101010995FF91EF91BF91A8
:10353000AF919F918F917F916F915F914F913F914B
:103540002F910F900FBE0F901F9018951F920F9202
:103550000FB60F9211242F933F934F935F936F9366
:103560007F938F939F93AF93BF93EF93FF938AE1E2
:1035700094E00E946417FF91EF91BF91AF919F91EA
:103580008F917F916F915F914F913F912F910F900C
:103590000FBE0F901F9018951F920F920FB60F92AB
:1035A00011242F938F939F93EF93FF93E0912A041D
:1035B000F0912B048081E0913004F091310482FD80
:1035C00012C09081809133048F5F8F7320913404F7
:1035D000821751F0E0913304F0E0E65EFB4F958FE7
:1035E0008093330401C08081FF91EF919F918F916F
:1035F0002F910F900FBE0F901F901895EF92FF9292
:103600000F931F93CF938B01FC01A3A1B4A1EC9165
:10361000EE2EF12C6C30710508F075C09B01285A14
:103620003F4FF9010C94503111962C914FC01C96CC
:103630002C91B701620F711D9B0163C012962C91F2
:103640001297F701E20FF11D9F011F966C914CC07C
:1036500016962C911697B701620F711D9B01529619
:103660006C9142C015962C911597F701E20FF11D50
:103670009F0151966C9138C018962C911897B701FC
:10368000620F711D9B0154966C912EC017962C9160
:103690001797F701E20FF11D9F0153966C9124C01B
:1036A00019962C911997B701620F711D9B015596C0
:1036B0006C911AC013962C911397F701E20FF11D2C
:1036C0009F0150966C9110C014962C91A701420F47
:1036D000511D9A0116C01A962C911A97B701620FC4
:1036E000711D9B0156966C9170E06417750768F028
:1036F00006C01B962C91D701A20FB11D9D01240F6E
:10370000351FC1E003C09701FCCFC0E0B9016E0DC9
:103710007F1D01301105C9F00B301105B1F0FC011E
:1037200036A125A1329F600D711D1124CC23B1F06B
:103730000930110519F00630110549F4DC01ED914D
:10374000FC910688F789E02D08C0CC2339F0DC0114
:10375000ED91FC910488F589E02D09958C2FCF918E
:103760001F910F91FF90EF900895DC018D919D9135
:10377000BD01DC01ED91FC910280F381E02D4AE076
:1037800050E00994EF92FF920F931F93CF93DF9332
:10379000EC018B017C0182E0E80EF11CAB015527A6
:1037A00066E0C7010E94C522C7010E94B51B0FA396
:1037B000DF91CF911F910F91FF90EF900895FC0141
:1037C0008EE782838FEF838386E0848386E185831F
:1037D000808D868317821086118612868FEE8387EE
:1037E000DF0113969F01275F3F4F80E090E04D91EE
:1037F000840F911DA217B307D1F791958195910977
:1038000091878287CF010C94B51B02960C94DF1B25
:1038100080E0089582E090E0089582E090E00895CD
:1038200080E008950895E091AE038091AD03E8171C
:1038300030F4F0E0E155FC4F808190E008958FEF87
:103840009FEF08959091AE038091AD03981750F4C7
:10385000E92FF0E0E155FC4F208130E09F5F90932D
:10386000AE0302C02FEF3FEFC90108958091AD0371
:1038700090E02091AE03821B91090895089580E0A5
:1038800090E0089585ED8093BC008091BC0084FD9C
:10389000FCCF1092F503089540918803262F30E065
:1038A000240F311D21323105DCF42091F503243041
:1038B000C9F4FC0180E090E0861758F43091880349
:1038C0002191DC01AA59BC4FA30FB11D2C93019685
:1038D000F3CF80918803680F6093880380E0089598
:1038E00081E0089582E00895CF92DF92EF92FF92F7
:1038F0000F931F93CF93DF937C01262F972F8A017D
:103900008091F603882391F0C62FD72F6E01C40E45
:10391000D51ECC15DD0571F06991D701ED91FC91B3
:103920000190F081E02DC7010995F3CF642F822F1C
:103930000E944C1CC801DF91CF911F910F91FF9005
:10394000EF90DF90CF900895CF93DF931F92CDB784
:10395000DEB769832091F6032223D1F02091190468
:10396000203240F021E030E0FC013383228380E00C
:1039700090E015C08091F703E82FF0E0E850FC4F8D
:10398000998190838F5F8093F7038093190405C01A
:1039900061E0CE0101960E944C1C81E090E00F9006
:1039A000DF91CF910895CF92DF92EF92FF920F9324
:1039B0001F93CF93DF93EC018B010E94C519C8A41C
:1039C000D9A4EAA4FBA4DC01CB018C199D09AE09A2
:1039D000BF0984369105A105B10538F461E070E0B6
:1039E00080E090E00E948B19E8CF0E94C51968A77B
:1039F00079A78AA79BA77E0182E0E80EF11CA801A7
:103A000068E0C7010E94C522C7010E94B51B0E9441
:103A1000C51968A779A78AA79BA7DF91CF911F91A6
:103A20000F91FF90EF90DF90CF900895CF92DF92AB
:103A3000EF92FF920F931F93CF93DF93EC018B01D3
:103A40000E94C519C8A4D9A4EAA4FBA4DC01CB0137
:103A50008C199D09AE09BF0984369105A105B105F0
:103A600038F461E070E080E090E00E948B19E8CFCC
:103A70000E94C51968A779A78AA79BA72296A801C3
:103A800063E0CE010E94C522CE01DF91CF911F914C
:103A90000F91FF90EF90DF90CF900C94B51BCF93D8
:103AA000DF93EC0188A199A11816190664F460E06F
:103AB0000E94F3238AA1811106C061E088A1DF91F1
:103AC000CF910C94C323DF91CF9108950C94062DD0
:103AD0008F929F92AF92BF92CF92DF92EF92FF921E
:103AE0000F931F93CF93DF93CDB7DEB766970FB6D3
:103AF000F894DEBF0FBECDBF6BE070E0CE01029642
:103B00000E9469228F819885A985888B998BAA8BC1
:103B10008A859B85AC858D879E87AF870E94C51956
:103B20004B015C010E94C5196B017C01C818D908C2
:103B3000EA08FB082A8130E0A8EEB3E00E94832F58
:103B4000C616D706E806F906F0F48C8190E09E8B45
:103B50008D8B8B8190E09C8B8B8BCE0105967C01AD
:103B60008E010B5E1F4F9E012D5E3F4FAE01435FE6
:103B70005F4FBE01605F7F4F80913E0390913F0396
:103B80000E94BD0ACFCF66960FB6F894DEBF0FBE77
:103B9000CDBFDF91CF911F910F91FF90EF90DF90FC
:103BA000CF90BF90AF909F908F9008956BE070E0A2
:103BB00089E495E00C946922CF93DF93CDB7DEB70B
:103BC0002C970FB6F894DEBF0FBECDBF89E0898376
:103BD0008BE0E9E4F5E0DE01129601900D928A9502
:103BE000E1F76CE070E0CE0101960E94BF222C96B6
:103BF0000FB6F894DEBF0FBECDBFDF91CF91089511
:103C0000CF93DF93CDB7DEB727970FB6F894DEBF1B
:103C10000FBECDBF88E0898382E08A838CE08B83EE
:103C200080913E0390913F03DC01ED91FC9100886F
:103C3000F189E02D09956D8380913E0390913F03BA
:103C4000DC01ED91FC910088F189E02D09958C83D0
:103C500080913A0390913B03DC01ED91FC91068445
:103C6000F785E02D0995FC0183858E83809182057F
:103C70008F8367E070E0CE0101960E94BF222796F5
:103C80000FB6F894DEBF0FBECDBFDF91CF91089580
:103C9000CF93DF9300D0CDB7DEB761E070E0CE0107
:103CA00002960E94692260913A0370913B038A81D7
:103CB00090E00E94A5200F900F90DF91CF91089582
:103CC00083E495E00E94E82880913C0390913D03B5
:103CD000DC01ED91FC916091530570E00284F38565
:103CE000E02D099563E475E080913E0390913F03D8
:103CF0000E94BD0B68EC70E080E090E00E948B19A0
:103D000080913E0390913F03DC01ED91FC9104848E
:103D1000F585E02D0994CF93DF93EC01FC0181E55B
:103D200091E081939193CF010E94DF1B8A819B8157
:103D3000009749F0DC01ED91FC910088F189E02DBC
:103D4000DF91CF910994DF91CF910895CF93DF93C5
:103D5000EC010E948B1ECE01DF91CF910C94062DB9
:103D60001F920F920FB60F9211242F933F934F93F0
:103D70005F936F937F938F939F93AF93BF93EF93D3
:103D8000FF938091B900887F803609F49CC068F564
:103D9000883209F45BC090F4803109F454C038F4DF
:103DA000882309F4F6C0883009F44DC0F6C0883184
:103DB00009F44CC0803209F45DC0EFC0803409F4CE
:103DC00068C048F4803309F455C0883309F0E5C071
:103DD0008093F303D8C0803509F44FC0883509F4C7
:103DE0005DC0883409F0D9C0D6C0883909F4C7C08D
:103DF000A8F4883709F467C038F4883609F463C03A
:103E0000803709F460C0C9C0883809F4B8C0803967
:103E100009F45FC0803809F0C0C05BC0803B09F482
:103E200086C038F4803A09F466C0883A09F47FC045
:103E3000B4C0803C09F4A7C0883C09F4A4C0883B06
:103E400009F48AC0AAC08091D00310C09091F203F7
:103E50008091F103981770F5E091F20381E08E0FE5
:103E60008093F203F0E0EF52FC4F80818093BB001F
:103E700085EC86C08093F3038EC0E091F20381E06D
:103E80008E0F8093F2038091BB00F0E0EF52FC4F65
:103E900080839091F2038091F1036EC0E091F20370
:103EA00081E08E0F8093F2038091BB00F0E0EF522F
:103EB000FC4F80838091F40381116DC081E0809379
:103EC000CF0384EA61C083E08093F5031092AC03D2
:103ED000CFCF8091AC03803208F051C0E091AC03A9
:103EE00081E08E0F8093AC038091BB00F0E0E4573B
:103EF000FC4F8083BDCF85EC8093BC001092F5030E
:103F00008091AC03803230F4E091AC03F0E0E457F0
:103F1000FC4F10826091AC0370E0E0918A03F09155
:103F20008B038CE893E009951092AC0336C084E0D3
:103F30008093F5031092890310928803E091860321
:103F4000F0918703099580918803811105C081E074
:103F50008093880310926603E091890381E08E0FBD
:103F600080938903F0E0EA59FC4F80818093BB0085
:103F70009091890380918803981708F479CF85E898
:103F80008093BC000AC085EC8093BC001092F503BE
:103F900004C01092F3030E94421CFF91EF91BF9165
:103FA000AF919F918F917F916F915F914F913F91D1
:103FB0002F910F900FBE0F901F901895089583308A
:103FC00081F028F4813099F08230A1F00895873093
:103FD000A9F08830B9F08430D1F4809180008F7DD1
:103FE00003C0809180008F7780938000089584B50E
:103FF0008F7702C084B58F7D84BD08958091B00015
:104000008F7703C08091B0008F7D8093B0000895BA
:10401000CF93DF93009779F0FC0101900020E9F73E
:104020003197AF01481B590BBC018AE194E00E9413
:104030004F18EC0102C0C0E0D0E042E050E065ED76
:1040400072E08AE194E00E944F188C0F9D1FDF916F
:10405000CF910895CF93DF93E0918205CE2FD0E0EA
:104060003BE1E39FF0011124E456FA4F2081E091F7
:104070005C05F0915D05211119C080915405909166
:10408000550590930C0580930B05809156059091F2
:10409000570590930E0580930D05809158059091DA
:1040A00059059093100580930F0519C086EF99E08C
:1040B00090930C0580930B053EEC3203C001112454
:1040C0009E5F90930E0580930D05880F991F63E006
:1040D00070E00E943C317093100560930F058BE1F6
:1040E0008C9FD0018D9FB00D1124A356BA4F2C91F7
:1040F000211105C080915A0590915B051BC0822F4C
:1041000090E0A0E0B0E09C01AD01215031094109EF
:104110005109A6E4B0E00E944E2FAB01BC0183E040
:1041200075956795579547958A95D1F780E590E005
:10413000841B950B9093120580931105F093140541
:10414000E0931305DF91CF910895CF93DF93EB01B7
:1041500080938205E881F9810484F585E02D682F3C
:10416000CE010995E881F9810280F381E02D40E0DC
:1041700050E060E070E0CE0109950E942A20E091B5
:104180001505F09116050484F585E02D85E195E08F
:10419000DF91CF910994382F209119049091180440
:1041A000213208F049C08091F5038111FCCF42E033
:1041B0004093F5033093F4033FEF3093F3031092F1
:1041C000F2032093F103A8EFB3E041ED53E0FA01CD
:1041D0003E2F341B321718F43D913193F9CF1092D2
:1041E000D0032091D003990F922B9093D0039091FC
:1041F000CF03913061F41092CF039091D00390934C
:10420000BB009091BC0093FDF8CF95EC01C095EEFA
:104210009093BC009091F5039230E1F39091F303F9
:104220009F3F79F08091F303803241F08091F30356
:10423000803331F084E005C081E003C082E001C03A
:1042400083E01092F703109219041092F603089578
:104250009091F5039111FCCF613208F060E291E09A
:104260009093F5034093F4032FEF2093F303109200
:10427000F203260F2093F1039093D0039091D00383
:10428000880F892B8093D0038091CF03813061F414
:104290001092CF038091D0038093BB008091BC002B
:1042A00083FDF8CF85EC01C085EE8093BC00809142
:1042B000F5038130E1F38091F203861710F46091E9
:1042C000F203A1EDB3E02FEA33E0F9018E2F821B58
:1042D000861718F48D918193F9CF1092AE036093F5
:1042E000AD03862F0895AF92BF92CF92DF92EF92E7
:1042F000FF920F931F93CF93DF938AEA8093450534
:1043000085E58093B90585E790E090934705809314
:1043100046051092820584E18093480510924A0573
:1043200081E08093490528EB3BE030934E052093D4
:104330004D0524EC39E030934C0520934B059AE071
:1043400090934F05809350058093510580935205BB
:1043500088E78093530580E092E090935505809321
:10436000540580E890E0909357058093560522E32A
:1043700030E030935905209358052CE330E030931A
:104380005B0520935A0590935D0580935C05ADE92C
:10439000B5E0E3E8F5E086E0C82E97E0D92E88EE98
:1043A00093E024E630E04AEFE42EF12C00EB14E039
:1043B00060E177E252E0B52EC4E6AC2E44E150E075
:1043C000CC92ED012197D88211821082938382834F
:1043D0009583848337832683F186E086938782875B
:1043E0003587248717870687718B608B27971882FC
:1043F0002196B882219618822196A8822196188249
:10440000508F478B5B967B96C5E0E93BFC07C1F676
:1044100080E090E0FC01E25AFA4F10821182128291
:10442000039684329105B1F78FEF80935E05109269
:104430005F0510926005809361059FE79093620588
:10444000109263058093640580936505109266055C
:1044500090936705809368051092690510926A052C
:1044600080936B0510926C0510926D0580936E051C
:1044700090936F051092700580937105809372057B
:1044800010927305909374058093750510927605CC
:1044900010927705809378059093790510927A05AC
:1044A00080937B0580937C0510927D0580937E052B
:1044B00080937F051092800590938105DF91CF91C5
:1044C0001F910F91FF90EF90DF90CF90BF90AF9032
:1044D00008958F929F92AF92BF92EF92FF920F93A7
:1044E0001F93CF93DF937B018C01C0E0D0E0CE150A
:1044F000DF05C9F10E94C51960932204709323045B
:104500008093240490932504E0911A04F0911B04F5
:104510000284F385E02D8AE194E0099597FF1EC09F
:104520000E94C5198090220490902304A090240436
:10453000B0902504DC01CB0188199909AA09BB09AF
:1045400080901E0490901F04A0902004B09021043D
:1045500088159905AA05BB05B8F205C0F801819335
:104560008F012196C4CFCE01DF91CF911F910F9182
:10457000FF90EF90BF90AF909F908F900895AB0108
:10458000BC018AE194E00C944F18FC018EE7828311
:104590008FEF838386E084836583808D86834F3F9E
:1045A000510509F010F4178201C057834087118626
:1045B00012868FEE8387DF0113969F01275F3F4F9F
:1045C00080E090E04D91840F911DA217B307D1F7C1
:1045D0009195819591099187828708952F923F92B5
:1045E0004F925F926F927F928F929F92AF92BF9203
:1045F000CF92DF92EF92FF920F931F93CF93DF93AF
:10460000CDB7DEB727970FB6F894DEBF0FBECDBF8C
:104610008C017B012C833D834E835F830E94C519EF
:10462000F80180889188A288B388DC01CB018819C1
:104630009909AA09BB092C813D814E815F81281708
:1046400039074A075B0708F05CC0B701653671059A
:1046500014F064E670E0072E000C880B990B24E63A
:1046600030E040E050E00E941B1A072E000C880B3F
:10467000990B0E94FC2D20E030E048EC52E40E94AF
:10468000FF2F2B013C015801F8E0AF0EB11CCE0109
:1046900001967C011E0194E0290E311C6701450141
:1046A000F40161914F0170E080E090E00E94FA2DEA
:1046B000A30192010E945B2E0E947830F601619363
:1046C0006F01E215F30561F76801F2E0CF0ED11C2E
:1046D000F601819191916F01181619062CF4F701DA
:1046E000608170E00E942C19FFEFEF1AFF0ACA14D4
:1046F000DB0471F70E94C519F801608B718B828B06
:10470000938B27960FB6F894DEBF0FBECDBFDF9117
:10471000CF911F910F91FF90EF90DF90CF90BF90BE
:10472000AF909F908F907F906F905F904F903F9051
:104730002F900895CF93DF93282F30E0F901E859A7
:10474000FE4F8491F901EC5AFE4FD491F901E05CDF
:10475000FE4FC491CC2391F081110E94DF1FEC2FFA
:10476000F0E0EE0FFF1FEA5CFE4FA591B491EC91D3
:10477000ED2381E090E021F480E002C080E090E051
:10478000DF91CF9108951F93CF93DF93282F30E0CF
:10479000F901E859FE4F8491F901EC5AFE4FD4918A
:1047A000F901E05CFE4FC491CC23C9F0162F8111B2
:1047B0000E94DF1FEC2FF0E0EE0FFF1FE45DFE4FC5
:1047C000A591B4918FB7F894111105C09C91ED2F6C
:1047D000E095E92302C0EC91ED2BEC938FBFDF91C4
:1047E000CF911F910895CF93DF9390E0FC01EC5A95
:1047F000FE4F2491FC01E05CFE4F8491882361F11F
:1048000090E0880F991FFC01EE5DFE4FC591D49199
:10481000FC01E45DFE4FA591B491611109C09FB701
:10482000F8948881209582238883EC912E230BC0F5
:10483000623061F49FB7F8943881822F809583238A
:104840008883EC912E2B2C939FBF06C08FB7F894D2
:10485000E8812E2B28838FBFDF91CF910895029698
:104860000895FC0127ADFBE12F9F800D911D1124C0
:104870008E5A9F4F0895FC0127ADFBE12F9F800DBD
:10488000911D1124805C9F4F089541960895FC016D
:1048900027ADFBE12F9F800D911D1124805C9F4F60
:1048A000089521E0FC01228313820895DC01ED913B
:1048B000FC910284F385E02D67E00994CF93DF93A8
:1048C000EC018985882369F080913E0390913F0334
:1048D000DC01ED91FC916F8178850084F185E02DFC
:1048E0000995E881F9810084F185E02DCE01DF9101
:1048F000CF910994FC0187AD811103C081E087AF9E
:10490000089517AE0895FC0167AF0895FC0187ADC7
:1049100090E0089506960895CF93DF9300D01F92FC
:10492000CDB7DEB762E070E0CE0102960E94692248
:1049300080913A0390913B03DC01ED91FC91028060
:10494000F381E02D40E050E062E070E009956A817B
:104950007B8180E090E00E948B1980913A039091D6
:104960003B03DC01ED91FC910280F381E02D40E0FE
:1049700050E069E070E009956A817B8176956795E2
:1049800080E090E00E948B1980913A0390913B0364
:10499000DC01ED91FC910480F581E02D64E070E094
:1049A00009956A817B8180E090E00E948B1980915B
:1049B0003A0390913B03DC01ED91FC910280F3817D
:1049C000E02D40E050E069E070E009956A817B816C
:1049D0007695679580E090E00E948B1980913A036C
:1049E00090913B03DC01ED91FC910480F581E02D79
:1049F00063E070E009956A817B8180E090E00E942D
:104A00008B1980913A0390913B03DC01ED91FC916D
:104A10000280F381E02D40E050E069E070E009950C
:104A20006A817B817695679580E090E00E948B1982
:104A300080913A0390913B03DC01ED91FC9102805F
:104A4000F381E02D40E050E068E070E0099564E615
:104A500070E080E090E00E948B190F900F900F9013
:104A6000DF91CF9108956F927F928F92CF92DF92D4
:104A7000EF92FF920F931F93CF93DF93CDB7DEB7E3
:104A8000A6970FB6F894DEBF0FBECDBF68EE73E0F9
:104A900080E090E00E948B1961E070E0CE01029608
:104AA0000E9469227E0183E0E80EF11C670100E0AC
:104AB00010E02A8130E0021713072CF0EEE5F5E054
:104AC00080E090E01AC00C301105C1F363E070E0A3
:104AD000C6010E9469220F5F1F4FA3E0CA0ED11CBE
:104AE000E8CF8C30910561F0D7016D907D908D906D
:104AF0007D0161927192819201968217930789F7E5
:104B0000A6960FB6F894DEBF0FBECDBFDF91CF9152
:104B10001F910F91FF90EF90DF90CF908F907F903B
:104B20006F900895CF93DF9300D0CDB7DEB762E0EA
:104B300070E0CE0101960E946922809182052BE1EE
:104B4000829FC001112467E070E08B569A4F0E944B
:104B500069220F900F90DF91CF910895CF93DF934B
:104B600000D0CDB7DEB762E070E0CE0101960E94C2
:104B70006922809182052BE1829FC001112462E1AC
:104B800070E08D579A4F0E9469220F900F90DF912D
:104B9000CF910895CF93DF93CDB7DEB72D970FB6A2
:104BA000F894DEBF0FBECDBF6CE070E0CE01029680
:104BB0000E9469228AE0FE013496A4E5B5E00190E6
:104BC0000D928A95E1F72D960FB6F894DEBF0FBED1
:104BD000CDBFDF91CF9108950F931F93CF93DF93B4
:104BE00000D01F92CDB7DEB78C0162E070E0CE013D
:104BF00002960E9469222A8130E0F80130872783DB
:104C000081E09B81911101C080E0F80181870F90C4
:104C10000F900F90DF91CF911F910F910895CF9337
:104C2000DF9300D0CDB7DEB761E070E0CE01029631
:104C30000E9469222A8180913E0390913F03DC010A
:104C4000ED91FC91222321F00684F785E02D03C02D
:104C50000484F585E02D09950F900F90DF91CF9199
:104C60000895CF93DF9300D01F92CDB7DEB763E0F6
:104C700070E0CE0101960E94692280913E039091DE
:104C80003F03DC01ED91FC9149815A810680F78157
:104C9000E02D6B8109950F900F900F90DF91CF91D0
:104CA00008950F931F93CF93DF9300D0CDB7DEB756
:104CB0008C0161E070E0CE0102960E946922E981D8
:104CC000FA818181882321F081E0F801848302C088
:104CD000F80114820F900F90DF91CF911F910F91E7
:104CE0000895CF93DF93CDB7DEB7A8970FB6F894AA
:104CF000DEBF0FBECDBF87E0898388E290E09B8353
:104D00008A838CE08C83FE01379680E090E0BC01C2
:104D10006D5B7A4F9F0122503109DB015B964C910C
:104D2000D9014C932F5F3F4FDB015C964C91D90129
:104D30004C93DB015D962C9120830396339684324D
:104D4000910529F768E270E0CE0101960E94BF222A
:104D5000A8960FB6F894DEBF0FBECDBFDF91CF91FE
:104D60000895CF93DF93CDB7DEB72A970FB6F894A7
:104D7000DEBF0FBECDBFE091820583E0898387E06F
:104D800090E09B838A838BE1E89FF0011124EB562E
:104D9000FA4F87E0DE01149601900D928A95E1F7B3
:104DA0006AE070E0CE0101960E94BF222A960FB6FB
:104DB000F894DEBF0FBECDBFDF91CF910895CF93A2
:104DC000DF93CDB7DEB765970FB6F894DEBF0FBEA1
:104DD000CDBFE091820582E0898382E190E09B83F0
:104DE0008A838BE1E89FF0011124ED57FA4F82E1AD
:104DF000DE01149601900D928A95E1F765E170E06D
:104E0000CE0101960E94BF2265960FB6F894DEBFD0
:104E10000FBECDBFDF91CF910895CF93DF93CDB774
:104E2000DEB72D970FB6F894DEBF0FBECDBF81E081
:104E300089838AE090E09B838A83E4E5F5E0DE01E4
:104E4000149601900D928A95E1F76DE070E0CE0125
:104E500001960E94BF222D960FB6F894DEBF0FBEBA
:104E6000CDBFDF91CF910895CF93DF9300D0CDB721
:104E7000DEB719826A8362E070E0CE0101960E947B
:104E8000BF220F900F90DF91CF9108958F929F9244
:104E9000AF92BF92CF92DF92EF92FF920F931F9348
:104EA000CF93DF93CDB7DEB72C970FB6F894DEBF64
:104EB0000FBECDBF6BE070E0CE0102960E9469226A
:104EC00060913E0370913F038E010C5F1F4F9E0166
:104ED0002E5F3F4FAE01465F5F4F80913A03909146
:104EE0003B030E94DB0B0E94C5194B015C01298525
:104EF00030E0A8EEB3E00E94832F6B017C010E949A
:104F0000C519AB01BC01481959096A097B0980918F
:104F10003E0390913F034C155D056E057F0550F4EF
:104F2000DC01ED91FC91688570E00084F185E02D55
:104F30000995E5CFAE014A5F5F4FBC0180913A030E
:104F400090913B030E947D0B80913E0390913F0323
:104F5000DC01ED91FC910484F585E02D09952C96FA
:104F60000FB6F894DEBF0FBECDBFDF91CF911F917A
:104F70000F91FF90EF90DF90CF90BF90AF909F90F8
:104F80008F90089588ED92E00C9408200F931F9362
:104F9000CF93DF9300D01F92CDB7DEB78C018AE1AB
:104FA00094E00E94AB18181619060CF0C4C08AE1F0
:104FB00094E00E948918082E000C990BAA0BBB0BD9
:104FC0008E31910508F0B7C0FC01EC59FF4F0C94ED
:104FD0005031D801ED91FC910684F785E02DA9C0F0
:104FE000D801ED91FC91048CF58DE02DA2C0D80183
:104FF000ED91FC91068CF78DE02D9BC0D801ED91D1
:10500000FC9100A0F1A1E02D94C0D801ED91FC919C
:1050100002A0F3A1E02D8DC0D801ED91FC9104A078
:10502000F5A1E02D86C0D801ED91FC9106A0F7A175
:10503000E02D7FC0D801ED91FC910484F585E02D31
:1050400078C084E0898381E08A8385E006C085E0BA
:105050008983F80185818A8386818B8363E070E090
:10506000CE0101960E94BF2266C0D801ED91FC914D
:105070000288F389E02D5DC0D801ED91FC91008C90
:10508000F18DE02D56C0D801ED91FC910488F58991
:10509000E02D4FC0D801ED91FC910688F789E02DF5
:1050A00048C00E94732147C0D801ED91FC9100A433
:1050B000F1A5E02D3EC0D801ED91FC91028CF38D5D
:1050C000E02D37C0D801ED91FC9102A4F3A5E02DAD
:1050D00030C0D801ED91FC9104A4F5A5E02D29C0C4
:1050E000D801ED91FC9106A4F7A5E02D22C0D801CE
:1050F000ED91FC9100A8F1A9E02D1BC0D801ED9124
:10510000FC9102A8F3A9E02D14C0D801ED91FC9107
:1051100004A8F5A9E02D0DC0D801ED91FC9106A8D9
:10512000F7A9E02D06C0D801ED91FC9100ACF1ADDE
:10513000E02DC80109950F900F900F90DF91CF914E
:105140001F910F910895FC01128221E023838AE1CF
:1051500094E00C940A190C94062D0C94062D0C94D2
:10516000062D0895CF93DF93EC01E881F98104883F
:10517000F589E02D0995FC019389292F30E0F9018B
:10518000EE0FFF1F2E0F3F1FFE01E20FF31F638D77
:10519000748D858DDF91CF910895CF93DF93EC01CE
:1051A000E881F9810488F589E02D0995FC0192894F
:1051B000292F30E0F901EE0FFF1F2E0F3F1FFE01D8
:1051C000E20FF31F638D748D858DDF91CF9108956C
:1051D0000F931F93CF93DF938C010E5F1F4FC0E09F
:1051E000D0E0CE010E94192FF80161918F0186173E
:1051F00019F0CE010E94212F2196C537D10589F7DC
:1052000085E790E0DF91CF911F910F910895089568
:105210000895789484B5826084BD84B5816084BD2E
:1052200085B5826085BD85B5816085BD80916E0044
:10523000816080936E001092810080918100826075
:1052400080938100809181008160809381008091B2
:1052500080008160809380008091B10084608093A1
:10526000B1008091B00081608093B00080917A009D
:10527000846080937A0080917A00826080937A00C3
:1052800080917A00816080937A0080917A008068B2
:1052900080937A001092C100A8950FB6F894A89553
:1052A00080916000886180936000109260000FBE62
:1052B00064E670E080E090E00E948B198FEE94E04D
:1052C00090933F0380933E0389E091E090933D03E8
:1052D00080933C03E0912A04F0912B0482E08083C8
:1052E000E0912604F09127041082E0912804F091C7
:1052F00029048FEC808310923204E0912E04F09107
:105300002F0486E08083E0912C04F0912D048081AD
:1053100080618083E0912C04F0912D04808188606D
:105320008083E0912C04F0912D048081806880833B
:10533000E0912C04F0912D0480818F7D808361E0C9
:1053400080E10E94F32361E08FE00E94F323C0E03C
:10535000D0E0CE010E94192FFE01ED5BFA4F82834F
:105360002196C537D105A9F721E080914605909196
:1053700047058537910509F020E081E090914505CA
:105380009A3A09F080E0822321E0909182059230E0
:1053900008F020E0822391E020914905223008F0B6
:1053A00090E0982381E02091B905253509F080E04F
:1053B000892329F08091480585508A3150F089EA87
:1053C00092E00E9408200E94732183E495E00E94ED
:1053D000E828FF24F394F0924F03F0925003F092E8
:1053E0005103F092520388E0809353038093540357
:1053F000F092550384E08093560310925703F09285
:10540000580386E180935903F0924D038BE080931B
:105410004E031092420387E18093430388E1809317
:10542000440389E18093480381E28093470389E242
:10543000809349038AE280934A038EE28093460375
:105440008FE28093450380E380934C038CE290E0ED
:105450000E94712C8C0181E591E0F8019183808399
:10546000F08E128E118E138E1382128287E090E0DE
:10547000958F848F88E090E0978F868FF2A28FEFD0
:105480009FEF91A380A315A282E493E094A383A34A
:105490008FE190E00E94712CEC011B821A8288EE51
:1054A00093E0A0E0B0E08C839D83AE83BF838BE369
:1054B00091E0998388831F8A1E8A198E188E1B8E0D
:1054C0001A8E1D8E1C8E6E8D6E7F6D7F6E8F669513
:1054D00061706F2588E00E94C32361E088E00E942C
:1054E000F323ECE5F1E0E491E88BE8E4F1E0E4910A
:1054F000F0E0EE0FFF1FE45DFE4F859194919A8BD3
:10550000898B60E087E00E94F3238E8D81FD04C0CB
:1055100061E087E00E94C32387E08C87EBE5F1E040
:10552000E491ED87E7E4F1E0E491F0E0EE0FFF1F96
:10553000EA5CFE4F859194919F878E87F801D38313
:10554000C28381EA91E09D8F8C8F2DEB30E03F8B01
:105550002E8B2BE931E0398F288F2CE231E03B8F05
:105560002A8F209168002460209368002DE630E0A7
:105570003C8B2B8B20E82D8B0197F1F78A8D9B8D2F
:10558000892B09F1E0913803F0913903EC17FD07FD
:10559000D1F0309739F0A389B4899C9185898095A1
:1055A00089238C938E8D8E7F8E8F1092370310926D
:1055B0003603D0933903C0933803EB89FC8990817B
:1055C0008D89892B80839091500380914F03890F9F
:1055D00090915103890F90915203890F9091530339
:1055E000890F90915403890F90915503890F9091E1
:1055F0005603890F90915703890F90915803890F93
:10560000F80186A38EE180935A0387A310A611A602
:1056100012A613A610933B0300933A0380E18093F4
:1056200006018FE0809305018BE08093040187E001
:105630008093080188E08093070180916B0080616E
:1056400080936B00D89A8091680081608093680095
:105650008AE090E00E94712CFC018DE691E091833C
:10566000808312821482108617821186F093410380
:10567000E093400381E0858385E086830E942A20B1
:1056800080E290E00E94712CFC011382128215824C
:1056900014821682178210861186128687EB91E09B
:1056A00091838083148613868AEB95E0968785879D
:1056B0001786108A118A128A138A148A158A168A02
:1056C000178A108E118E128E138E148E168E158ED2
:1056D000178EF0935C03E0935B03CF010E94E10916
:1056E000E0915B03F0915C03809140039091410352
:1056F00094878387C1E0A0915B03B0915C0312960D
:105700008D919C91139714962D913C911597281784
:10571000390721F01696CC93169703C016961C9263
:10572000169715969C938E931497ED91FC91119773
:105730000680F781E02DCD0109950E944B10DBCF4B
:105740008FEE94E00C948410EAE1F4E0138212826C
:1057500088EE93E0A0E0B0E084839583A683B783CE
:1057600023EC31E03183208325EC30E0358724873A
:1057700024EC30E03787268720EC30E0318B208B1B
:1057800021EC30E0338B228B22EC30E0358B248B04
:1057900026EC30E0378B268B118E128E138E148EF2
:1057A000E7EBF4E01382128284839583A683B783A8
:1057B00085ED91E091838083EAEBF5E081E892E06A
:1057C000918380838BE090E093838283158214829F
:1057D00016821782108611861386128687E692E05B
:1057E0009093440580934305E5E1F5E087E392E07B
:1057F0009183808388E690E094A783A78BE095E06F
:105800009583848311A610A612A61382128214A275
:1058100015A216A217A215A6EFEEF4E08DE192E014
:105820009183808383EC95EFA8E4B0E4808F918F1F
:10583000A28FB38F23E030E03383228325E030E072
:105840003583248326E030E0378326831086118653
:1058500012861386108A118A128A138A848B958B7A
:10586000A68BB78BECEDF4E085E192E09183808329
:105870002CE030E033832283148215821682178253
:10588000108611861286138614861586168617864C
:10589000108A118A128AE9ECF4E09183808384E013
:1058A00090E0938382831482158216821782108679
:1058B0001186128613861486158616861786108A18
:1058C000118A128AE3ECF4E08DE092E09183808308
:1058D0008DE89AE09583848386E59AE093838283BA
:1058E0000895CF93DF938230910510F482E090E029
:1058F000E091C805F091C90520E030E0C0E0D0E0BB
:10590000309711F14081518148175907C0F048176D
:10591000590761F482819381209719F09B838A83D0
:105920002BC09093C9058093C80526C02115310569
:1059300019F04217530718F49A01BE01DF01EF0175
:105940000280F381E02DDCCF2115310509F1281B00
:10595000390B2430310590F412968D919C91139758
:105960006115710521F0FB019383828304C090933C
:10597000C9058093C805FD01329644C0FD01E20FC0
:10598000F31F81939193225031092D933C933AC098
:105990002091C6053091C705232B41F420910D01BC
:1059A00030910E013093C7052093C60520910B015D
:1059B00030910C012115310541F42DB73EB74091CE
:1059C0000F0150911001241B350BE091C605F09199
:1059D000C705E217F307A0F42E1B3F0B2817390762
:1059E00078F0AC014E5F5F4F2417350748F04E0F3B
:1059F0005F1F5093C7054093C6058193919302C0E2
:105A0000E0E0F0E0CF01DF91CF9108950F931F9375
:105A1000CF93DF93009709F48CC0FC013297138277
:105A200012820091C8051091C9050115110581F474
:105A300020813181820F931F2091C6053091C705C7
:105A40002817390779F5F093C705E093C60571C0AB
:105A5000D80140E050E0AE17BF0750F412962D91E8
:105A60003C911397AD012115310509F1D901F3CF0F
:105A70009D01DA013383228360817181860F971F34
:105A80008217930769F4EC0128813981260F371FAB
:105A90002E5F3F4F318320838A819B819383828352
:105AA000452B29F4F093C905E093C80542C013962D
:105AB000FC93EE931297ED01499159919E01240FA9
:105AC000351FE217F30771F480819181840F951FD0
:105AD000029611969C938E938281938113969C9348
